{
  "_format": "hh-sol-artifact-1",
  "contractName": "NFTDutchAuction_ERC20Bids",
  "sourceName": "contracts/NFTDutchAuction_ERC20Bids.sol",
  "abi": [
    {
      "inputs": [
        {
          "internalType": "address",
          "name": "erc20TokenAddress",
          "type": "address"
        },
        {
          "internalType": "address",
          "name": "erc721TokenAddress",
          "type": "address"
        },
        {
          "internalType": "uint256",
          "name": "nftTokenId",
          "type": "uint256"
        },
        {
          "internalType": "uint256",
          "name": "_reservePrice",
          "type": "uint256"
        },
        {
          "internalType": "uint256",
          "name": "_numBlocksAuctionOpen",
          "type": "uint256"
        },
        {
          "internalType": "uint256",
          "name": "_offerPriceDecrement",
          "type": "uint256"
        }
      ],
      "stateMutability": "nonpayable",
      "type": "constructor"
    },
    {
      "anonymous": false,
      "inputs": [
        {
          "indexed": true,
          "internalType": "address",
          "name": "previousOwner",
          "type": "address"
        },
        {
          "indexed": true,
          "internalType": "address",
          "name": "newOwner",
          "type": "address"
        }
      ],
      "name": "OwnershipTransferred",
      "type": "event"
    },
    {
      "inputs": [
        {
          "internalType": "uint256",
          "name": "bidAmount",
          "type": "uint256"
        }
      ],
      "name": "bid",
      "outputs": [],
      "stateMutability": "nonpayable",
      "type": "function"
    },
    {
      "inputs": [],
      "name": "currentPrice",
      "outputs": [
        {
          "internalType": "uint256",
          "name": "",
          "type": "uint256"
        }
      ],
      "stateMutability": "view",
      "type": "function"
    },
    {
      "inputs": [],
      "name": "endAuction",
      "outputs": [],
      "stateMutability": "nonpayable",
      "type": "function"
    },
    {
      "inputs": [],
      "name": "ended",
      "outputs": [
        {
          "internalType": "bool",
          "name": "",
          "type": "bool"
        }
      ],
      "stateMutability": "view",
      "type": "function"
    },
    {
      "inputs": [],
      "name": "erc20Token",
      "outputs": [
        {
          "internalType": "contract ERC20",
          "name": "",
          "type": "address"
        }
      ],
      "stateMutability": "view",
      "type": "function"
    },
    {
      "inputs": [],
      "name": "erc721Token",
      "outputs": [
        {
          "internalType": "contract ERC721",
          "name": "",
          "type": "address"
        }
      ],
      "stateMutability": "view",
      "type": "function"
    },
    {
      "inputs": [],
      "name": "getNftTokenId",
      "outputs": [
        {
          "internalType": "uint256",
          "name": "",
          "type": "uint256"
        }
      ],
      "stateMutability": "view",
      "type": "function"
    },
    {
      "inputs": [],
      "name": "highestBid",
      "outputs": [
        {
          "internalType": "uint256",
          "name": "",
          "type": "uint256"
        }
      ],
      "stateMutability": "view",
      "type": "function"
    },
    {
      "inputs": [],
      "name": "highestBidder",
      "outputs": [
        {
          "internalType": "address",
          "name": "",
          "type": "address"
        }
      ],
      "stateMutability": "view",
      "type": "function"
    },
    {
      "inputs": [],
      "name": "initialPrice",
      "outputs": [
        {
          "internalType": "uint256",
          "name": "",
          "type": "uint256"
        }
      ],
      "stateMutability": "view",
      "type": "function"
    },
    {
      "inputs": [],
      "name": "numBlocksAuctionOpen",
      "outputs": [
        {
          "internalType": "uint256",
          "name": "",
          "type": "uint256"
        }
      ],
      "stateMutability": "view",
      "type": "function"
    },
    {
      "inputs": [],
      "name": "offerPriceDecrement",
      "outputs": [
        {
          "internalType": "uint256",
          "name": "",
          "type": "uint256"
        }
      ],
      "stateMutability": "view",
      "type": "function"
    },
    {
      "inputs": [],
      "name": "owner",
      "outputs": [
        {
          "internalType": "address",
          "name": "",
          "type": "address"
        }
      ],
      "stateMutability": "view",
      "type": "function"
    },
    {
      "inputs": [
        {
          "internalType": "address",
          "name": "",
          "type": "address"
        }
      ],
      "name": "refunds",
      "outputs": [
        {
          "internalType": "uint256",
          "name": "",
          "type": "uint256"
        }
      ],
      "stateMutability": "view",
      "type": "function"
    },
    {
      "inputs": [],
      "name": "renounceOwnership",
      "outputs": [],
      "stateMutability": "nonpayable",
      "type": "function"
    },
    {
      "inputs": [],
      "name": "reservePrice",
      "outputs": [
        {
          "internalType": "uint256",
          "name": "",
          "type": "uint256"
        }
      ],
      "stateMutability": "view",
      "type": "function"
    },
    {
      "inputs": [],
      "name": "startBlock",
      "outputs": [
        {
          "internalType": "uint256",
          "name": "",
          "type": "uint256"
        }
      ],
      "stateMutability": "view",
      "type": "function"
    },
    {
      "inputs": [
        {
          "internalType": "address",
          "name": "newOwner",
          "type": "address"
        }
      ],
      "name": "transferOwnership",
      "outputs": [],
      "stateMutability": "nonpayable",
      "type": "function"
    },
    {
      "inputs": [],
      "name": "withdraw",
      "outputs": [],
      "stateMutability": "nonpayable",
      "type": "function"
    }
  ],
  "bytecode": "0x60806040523480156200001157600080fd5b50604051620018853803806200188583398181016040528101906200003791906200024e565b60016000819055506200005f620000536200015260201b60201c565b6200015a60201b60201c565b84600260006101000a81548173ffffffffffffffffffffffffffffffffffffffff021916908373ffffffffffffffffffffffffffffffffffffffff16021790555085600360006101000a81548173ffffffffffffffffffffffffffffffffffffffff021916908373ffffffffffffffffffffffffffffffffffffffff16021790555083600c819055508260048190555081600581905550806006819055506006546005546200010f919062000341565b6004546200011e9190620002e4565b600781905550436008819055506000600960006101000a81548160ff02191690831515021790555050505050505062000443565b600033905090565b6000600160009054906101000a900473ffffffffffffffffffffffffffffffffffffffff16905081600160006101000a81548173ffffffffffffffffffffffffffffffffffffffff021916908373ffffffffffffffffffffffffffffffffffffffff1602179055508173ffffffffffffffffffffffffffffffffffffffff168173ffffffffffffffffffffffffffffffffffffffff167f8be0079c531659141344cd1fd0a4f28419497f9722a3daafe3b4186f6b6457e060405160405180910390a35050565b60008151905062000231816200040f565b92915050565b600081519050620002488162000429565b92915050565b60008060008060008060c087890312156200026857600080fd5b60006200027889828a0162000220565b96505060206200028b89828a0162000220565b95505060406200029e89828a0162000237565b9450506060620002b189828a0162000237565b9350506080620002c489828a0162000237565b92505060a0620002d789828a0162000237565b9150509295509295509295565b6000620002f182620003d6565b9150620002fe83620003d6565b9250827fffffffffffffffffffffffffffffffffffffffffffffffffffffffffffffffff03821115620003365762000335620003e0565b5b828201905092915050565b60006200034e82620003d6565b91506200035b83620003d6565b9250817fffffffffffffffffffffffffffffffffffffffffffffffffffffffffffffffff0483118215151615620003975762000396620003e0565b5b828202905092915050565b6000620003af82620003b6565b9050919050565b600073ffffffffffffffffffffffffffffffffffffffff82169050919050565b6000819050919050565b7f4e487b7100000000000000000000000000000000000000000000000000000000600052601160045260246000fd5b6200041a81620003a2565b81146200042657600080fd5b50565b6200043481620003d6565b81146200044057600080fd5b50565b61143280620004536000396000f3fe608060405234801561001057600080fd5b50600436106101215760003560e01c80638da5cb5b116100ad578063d3642a8811610071578063d3642a88146102b2578063d57bde79146102d0578063db2e1eed146102ee578063f2fde38b1461030c578063fe67a54b1461032857610121565b80638da5cb5b1461020a57806391f90157146102285780639d1b464a14610246578063bc3da53514610264578063d327d1551461029457610121565b8063454a2ab3116100f4578063454a2ab31461018a57806348cd4cb1146101a65780635f2d6bcd146101c4578063715018a6146101e25780638a13eea7146101ec57610121565b806312fa6feb146101265780631d0806ae146101445780633103ea62146101625780633ccfd60b14610180575b600080fd5b61012e610332565b60405161013b9190610fbb565b60405180910390f35b61014c610345565b60405161015991906110cc565b60405180910390f35b61016a61034b565b60405161017791906110cc565b60405180910390f35b610188610351565b005b6101a4600480360381019061019f9190610dfa565b6104d0565b005b6101ae610825565b6040516101bb91906110cc565b60405180910390f35b6101cc61082b565b6040516101d99190610ff1565b60405180910390f35b6101ea610851565b005b6101f4610865565b6040516102019190610fd6565b60405180910390f35b61021261088b565b60405161021f9190610f40565b60405180910390f35b6102306108b5565b60405161023d9190610f40565b60405180910390f35b61024e6108db565b60405161025b91906110cc565b60405180910390f35b61027e60048036038101906102799190610da8565b610924565b60405161028b91906110cc565b60405180910390f35b61029c61093c565b6040516102a991906110cc565b60405180910390f35b6102ba610946565b6040516102c791906110cc565b60405180910390f35b6102d861094c565b6040516102e591906110cc565b60405180910390f35b6102f6610952565b60405161030391906110cc565b60405180910390f35b61032660048036038101906103219190610da8565b610958565b005b6103306109dc565b005b600960009054906101000a900460ff1681565b60075481565b60055481565b6000600b60003373ffffffffffffffffffffffffffffffffffffffff1673ffffffffffffffffffffffffffffffffffffffff168152602001908152602001600020549050600081116103d8576040517f08c379a00000000000000000000000000000000000000000000000000000000081526004016103cf906110ac565b60405180910390fd5b6000600b60003373ffffffffffffffffffffffffffffffffffffffff1673ffffffffffffffffffffffffffffffffffffffff16815260200190815260200160002081905550600360009054906101000a900473ffffffffffffffffffffffffffffffffffffffff1673ffffffffffffffffffffffffffffffffffffffff1663a9059cbb33836040518363ffffffff1660e01b815260040161047a929190610f92565b602060405180830381600087803b15801561049457600080fd5b505af11580156104a8573d6000803e3d6000fd5b505050506040513d601f19601f820116820180604052508101906104cc9190610dd1565b5050565b6005546008546104e091906110f8565b431115610522576040517f08c379a00000000000000000000000000000000000000000000000000000000081526004016105199061106c565b60405180910390fd5b61052a6108db565b81101561056c576040517f08c379a00000000000000000000000000000000000000000000000000000000081526004016105639061102c565b60405180910390fd5b600360009054906101000a900473ffffffffffffffffffffffffffffffffffffffff1673ffffffffffffffffffffffffffffffffffffffff166323b872dd3330846040518463ffffffff1660e01b81526004016105cb93929190610f5b565b602060405180830381600087803b1580156105e557600080fd5b505af11580156105f9573d6000803e3d6000fd5b505050506040513d601f19601f8201168201806040525081019061061d9190610dd1565b50600073ffffffffffffffffffffffffffffffffffffffff16600960019054906101000a900473ffffffffffffffffffffffffffffffffffffffff1673ffffffffffffffffffffffffffffffffffffffff16146106ef57600a54600b6000600960019054906101000a900473ffffffffffffffffffffffffffffffffffffffff1673ffffffffffffffffffffffffffffffffffffffff1673ffffffffffffffffffffffffffffffffffffffff16815260200190815260200160002060008282546106e791906110f8565b925050819055505b80600a8190555033600960016101000a81548173ffffffffffffffffffffffffffffffffffffffff021916908373ffffffffffffffffffffffffffffffffffffffff16021790555060055460085461074791906110f8565b4310610822576001600960006101000a81548160ff021916908315150217905550600360009054906101000a900473ffffffffffffffffffffffffffffffffffffffff1673ffffffffffffffffffffffffffffffffffffffff1663a9059cbb6107ae61088b565b600a546040518363ffffffff1660e01b81526004016107ce929190610f92565b602060405180830381600087803b1580156107e857600080fd5b505af11580156107fc573d6000803e3d6000fd5b505050506040513d601f19601f820116820180604052508101906108209190610dd1565b505b50565b60085481565b600260009054906101000a900473ffffffffffffffffffffffffffffffffffffffff1681565b610859610c1d565b6108636000610c9b565b565b600360009054906101000a900473ffffffffffffffffffffffffffffffffffffffff1681565b6000600160009054906101000a900473ffffffffffffffffffffffffffffffffffffffff16905090565b600960019054906101000a900473ffffffffffffffffffffffffffffffffffffffff1681565b600080600854436108ec91906111a8565b9050600554811061090257600454915050610921565b60065481610910919061114e565b60075461091d91906111a8565b9150505b90565b600b6020528060005260406000206000915090505481565b6000600c54905090565b60065481565b600a5481565b60045481565b610960610c1d565b600073ffffffffffffffffffffffffffffffffffffffff168173ffffffffffffffffffffffffffffffffffffffff1614156109d0576040517f08c379a00000000000000000000000000000000000000000000000000000000081526004016109c79061100c565b60405180910390fd5b6109d981610c9b565b50565b6109e4610c1d565b600960009054906101000a900460ff1615610a34576040517f08c379a0000000000000000000000000000000000000000000000000000000008152600401610a2b9061108c565b60405180910390fd5b6001600960006101000a81548160ff021916908315150217905550600073ffffffffffffffffffffffffffffffffffffffff16600960019054906101000a900473ffffffffffffffffffffffffffffffffffffffff1673ffffffffffffffffffffffffffffffffffffffff1614610c1b57600260009054906101000a900473ffffffffffffffffffffffffffffffffffffffff1673ffffffffffffffffffffffffffffffffffffffff166323b872dd610aeb61088b565b600960019054906101000a900473ffffffffffffffffffffffffffffffffffffffff16600c546040518463ffffffff1660e01b8152600401610b2f93929190610f5b565b600060405180830381600087803b158015610b4957600080fd5b505af1158015610b5d573d6000803e3d6000fd5b50505050600360009054906101000a900473ffffffffffffffffffffffffffffffffffffffff1673ffffffffffffffffffffffffffffffffffffffff1663a9059cbb610ba761088b565b600a546040518363ffffffff1660e01b8152600401610bc7929190610f92565b602060405180830381600087803b158015610be157600080fd5b505af1158015610bf5573d6000803e3d6000fd5b505050506040513d601f19601f82011682018060405250810190610c199190610dd1565b505b565b610c25610d61565b73ffffffffffffffffffffffffffffffffffffffff16610c4361088b565b73ffffffffffffffffffffffffffffffffffffffff1614610c99576040517f08c379a0000000000000000000000000000000000000000000000000000000008152600401610c909061104c565b60405180910390fd5b565b6000600160009054906101000a900473ffffffffffffffffffffffffffffffffffffffff16905081600160006101000a81548173ffffffffffffffffffffffffffffffffffffffff021916908373ffffffffffffffffffffffffffffffffffffffff1602179055508173ffffffffffffffffffffffffffffffffffffffff168173ffffffffffffffffffffffffffffffffffffffff167f8be0079c531659141344cd1fd0a4f28419497f9722a3daafe3b4186f6b6457e060405160405180910390a35050565b600033905090565b600081359050610d78816113b7565b92915050565b600081519050610d8d816113ce565b92915050565b600081359050610da2816113e5565b92915050565b600060208284031215610dba57600080fd5b6000610dc884828501610d69565b91505092915050565b600060208284031215610de357600080fd5b6000610df184828501610d7e565b91505092915050565b600060208284031215610e0c57600080fd5b6000610e1a84828501610d93565b91505092915050565b610e2c816111dc565b82525050565b610e3b816111ee565b82525050565b610e4a81611224565b82525050565b610e5981611248565b82525050565b6000610e6c6026836110e7565b9150610e778261129b565b604082019050919050565b6000610e8f6017836110e7565b9150610e9a826112ea565b602082019050919050565b6000610eb26020836110e7565b9150610ebd82611313565b602082019050919050565b6000610ed5601a836110e7565b9150610ee08261133c565b602082019050919050565b6000610ef8601c836110e7565b9150610f0382611365565b602082019050919050565b6000610f1b6013836110e7565b9150610f268261138e565b602082019050919050565b610f3a8161121a565b82525050565b6000602082019050610f556000830184610e23565b92915050565b6000606082019050610f706000830186610e23565b610f7d6020830185610e23565b610f8a6040830184610f31565b949350505050565b6000604082019050610fa76000830185610e23565b610fb46020830184610f31565b9392505050565b6000602082019050610fd06000830184610e32565b92915050565b6000602082019050610feb6000830184610e41565b92915050565b60006020820190506110066000830184610e50565b92915050565b6000602082019050818103600083015261102581610e5f565b9050919050565b6000602082019050818103600083015261104581610e82565b9050919050565b6000602082019050818103600083015261106581610ea5565b9050919050565b6000602082019050818103600083015261108581610ec8565b9050919050565b600060208201905081810360008301526110a581610eeb565b9050919050565b600060208201905081810360008301526110c581610f0e565b9050919050565b60006020820190506110e16000830184610f31565b92915050565b600082825260208201905092915050565b60006111038261121a565b915061110e8361121a565b9250827fffffffffffffffffffffffffffffffffffffffffffffffffffffffffffffffff038211156111435761114261126c565b5b828201905092915050565b60006111598261121a565b91506111648361121a565b9250817fffffffffffffffffffffffffffffffffffffffffffffffffffffffffffffffff048311821515161561119d5761119c61126c565b5b828202905092915050565b60006111b38261121a565b91506111be8361121a565b9250828210156111d1576111d061126c565b5b828203905092915050565b60006111e7826111fa565b9050919050565b60008115159050919050565b600073ffffffffffffffffffffffffffffffffffffffff82169050919050565b6000819050919050565b600061122f82611236565b9050919050565b6000611241826111fa565b9050919050565b60006112538261125a565b9050919050565b6000611265826111fa565b9050919050565b7f4e487b7100000000000000000000000000000000000000000000000000000000600052601160045260246000fd5b7f4f776e61626c653a206e6577206f776e657220697320746865207a65726f206160008201527f6464726573730000000000000000000000000000000000000000000000000000602082015250565b7f426964206973206e6f74206869676820656e6f7567682e000000000000000000600082015250565b7f4f776e61626c653a2063616c6c6572206973206e6f7420746865206f776e6572600082015250565b7f41756374696f6e20697320616c726561647920636c6f7365642e000000000000600082015250565b7f5468652061756374696f6e20697320616c726561647920656e64656400000000600082015250565b7f4e6f20726566756e6420617661696c61626c6500000000000000000000000000600082015250565b6113c0816111dc565b81146113cb57600080fd5b50565b6113d7816111ee565b81146113e257600080fd5b50565b6113ee8161121a565b81146113f957600080fd5b5056fea2646970667358221220256436f4a27ed01850ad30a0b250f4d3b8e4fc09650f0254c797703cb54c206564736f6c63430008040033",
  "linkReferences": {},
  "deployedLinkReferences": {}
}