{
  "_format": "hh-sol-artifact-1",
  "contractName": "MyNFT",
  "sourceName": "contracts/MyNFT.sol",
  "abi": [
    {
      "inputs": [
        {
          "internalType": "string",
          "name": "name",
          "type": "string"
        },
        {
          "internalType": "string",
          "name": "symbol",
          "type": "string"
        }
      ],
      "stateMutability": "nonpayable",
      "type": "constructor"
    },
    {
      "anonymous": false,
      "inputs": [
        {
          "indexed": true,
          "internalType": "address",
          "name": "owner",
          "type": "address"
        },
        {
          "indexed": true,
          "internalType": "address",
          "name": "approved",
          "type": "address"
        },
        {
          "indexed": true,
          "internalType": "uint256",
          "name": "tokenId",
          "type": "uint256"
        }
      ],
      "name": "Approval",
      "type": "event"
    },
    {
      "anonymous": false,
      "inputs": [
        {
          "indexed": true,
          "internalType": "address",
          "name": "owner",
          "type": "address"
        },
        {
          "indexed": true,
          "internalType": "address",
          "name": "operator",
          "type": "address"
        },
        {
          "indexed": false,
          "internalType": "bool",
          "name": "approved",
          "type": "bool"
        }
      ],
      "name": "ApprovalForAll",
      "type": "event"
    },
    {
      "anonymous": false,
      "inputs": [
        {
          "indexed": true,
          "internalType": "address",
          "name": "from",
          "type": "address"
        },
        {
          "indexed": true,
          "internalType": "address",
          "name": "to",
          "type": "address"
        },
        {
          "indexed": true,
          "internalType": "uint256",
          "name": "tokenId",
          "type": "uint256"
        }
      ],
      "name": "Transfer",
      "type": "event"
    },
    {
      "inputs": [
        {
          "internalType": "address",
          "name": "to",
          "type": "address"
        },
        {
          "internalType": "uint256",
          "name": "tokenId",
          "type": "uint256"
        }
      ],
      "name": "approve",
      "outputs": [],
      "stateMutability": "nonpayable",
      "type": "function"
    },
    {
      "inputs": [
        {
          "internalType": "address",
          "name": "owner",
          "type": "address"
        }
      ],
      "name": "balanceOf",
      "outputs": [
        {
          "internalType": "uint256",
          "name": "",
          "type": "uint256"
        }
      ],
      "stateMutability": "view",
      "type": "function"
    },
    {
      "inputs": [],
      "name": "createCollectible",
      "outputs": [
        {
          "internalType": "uint256",
          "name": "",
          "type": "uint256"
        }
      ],
      "stateMutability": "nonpayable",
      "type": "function"
    },
    {
      "inputs": [
        {
          "internalType": "uint256",
          "name": "tokenId",
          "type": "uint256"
        }
      ],
      "name": "getApproved",
      "outputs": [
        {
          "internalType": "address",
          "name": "",
          "type": "address"
        }
      ],
      "stateMutability": "view",
      "type": "function"
    },
    {
      "inputs": [
        {
          "internalType": "address",
          "name": "owner",
          "type": "address"
        },
        {
          "internalType": "address",
          "name": "operator",
          "type": "address"
        }
      ],
      "name": "isApprovedForAll",
      "outputs": [
        {
          "internalType": "bool",
          "name": "",
          "type": "bool"
        }
      ],
      "stateMutability": "view",
      "type": "function"
    },
    {
      "inputs": [],
      "name": "name",
      "outputs": [
        {
          "internalType": "string",
          "name": "",
          "type": "string"
        }
      ],
      "stateMutability": "view",
      "type": "function"
    },
    {
      "inputs": [
        {
          "internalType": "uint256",
          "name": "tokenId",
          "type": "uint256"
        }
      ],
      "name": "ownerOf",
      "outputs": [
        {
          "internalType": "address",
          "name": "",
          "type": "address"
        }
      ],
      "stateMutability": "view",
      "type": "function"
    },
    {
      "inputs": [
        {
          "internalType": "address",
          "name": "from",
          "type": "address"
        },
        {
          "internalType": "address",
          "name": "to",
          "type": "address"
        },
        {
          "internalType": "uint256",
          "name": "tokenId",
          "type": "uint256"
        }
      ],
      "name": "safeTransferFrom",
      "outputs": [],
      "stateMutability": "nonpayable",
      "type": "function"
    },
    {
      "inputs": [
        {
          "internalType": "address",
          "name": "from",
          "type": "address"
        },
        {
          "internalType": "address",
          "name": "to",
          "type": "address"
        },
        {
          "internalType": "uint256",
          "name": "tokenId",
          "type": "uint256"
        },
        {
          "internalType": "bytes",
          "name": "data",
          "type": "bytes"
        }
      ],
      "name": "safeTransferFrom",
      "outputs": [],
      "stateMutability": "nonpayable",
      "type": "function"
    },
    {
      "inputs": [
        {
          "internalType": "address",
          "name": "operator",
          "type": "address"
        },
        {
          "internalType": "bool",
          "name": "approved",
          "type": "bool"
        }
      ],
      "name": "setApprovalForAll",
      "outputs": [],
      "stateMutability": "nonpayable",
      "type": "function"
    },
    {
      "inputs": [
        {
          "internalType": "bytes4",
          "name": "interfaceId",
          "type": "bytes4"
        }
      ],
      "name": "supportsInterface",
      "outputs": [
        {
          "internalType": "bool",
          "name": "",
          "type": "bool"
        }
      ],
      "stateMutability": "view",
      "type": "function"
    },
    {
      "inputs": [],
      "name": "symbol",
      "outputs": [
        {
          "internalType": "string",
          "name": "",
          "type": "string"
        }
      ],
      "stateMutability": "view",
      "type": "function"
    },
    {
      "inputs": [],
      "name": "tokenCounter",
      "outputs": [
        {
          "internalType": "uint256",
          "name": "",
          "type": "uint256"
        }
      ],
      "stateMutability": "view",
      "type": "function"
    },
    {
      "inputs": [
        {
          "internalType": "uint256",
          "name": "tokenId",
          "type": "uint256"
        }
      ],
      "name": "tokenURI",
      "outputs": [
        {
          "internalType": "string",
          "name": "",
          "type": "string"
        }
      ],
      "stateMutability": "view",
      "type": "function"
    },
    {
      "inputs": [
        {
          "internalType": "address",
          "name": "from",
          "type": "address"
        },
        {
          "internalType": "address",
          "name": "to",
          "type": "address"
        },
        {
          "internalType": "uint256",
          "name": "tokenId",
          "type": "uint256"
        }
      ],
      "name": "transferFrom",
      "outputs": [],
      "stateMutability": "nonpayable",
      "type": "function"
    }
  ],
  "bytecode": "0x60806040523480156200001157600080fd5b5060405162002a2238038062002a2283398181016040528101906200003791906200019f565b81818160009080519060200190620000519291906200007d565b5080600190805190602001906200006a9291906200007d565b5050506000600681905550505062000382565b8280546200008b90620002a7565b90600052602060002090601f016020900481019282620000af5760008555620000fb565b82601f10620000ca57805160ff1916838001178555620000fb565b82800160010185558215620000fb579182015b82811115620000fa578251825591602001919060010190620000dd565b5b5090506200010a91906200010e565b5090565b5b80821115620001295760008160009055506001016200010f565b5090565b6000620001446200013e846200023b565b62000212565b9050828152602081018484840111156200015d57600080fd5b6200016a84828562000271565b509392505050565b600082601f8301126200018457600080fd5b8151620001968482602086016200012d565b91505092915050565b60008060408385031215620001b357600080fd5b600083015167ffffffffffffffff811115620001ce57600080fd5b620001dc8582860162000172565b925050602083015167ffffffffffffffff811115620001fa57600080fd5b620002088582860162000172565b9150509250929050565b60006200021e62000231565b90506200022c8282620002dd565b919050565b6000604051905090565b600067ffffffffffffffff82111562000259576200025862000342565b5b620002648262000371565b9050602081019050919050565b60005b838110156200029157808201518184015260208101905062000274565b83811115620002a1576000848401525b50505050565b60006002820490506001821680620002c057607f821691505b60208210811415620002d757620002d662000313565b5b50919050565b620002e88262000371565b810181811067ffffffffffffffff821117156200030a576200030962000342565b5b80604052505050565b7f4e487b7100000000000000000000000000000000000000000000000000000000600052602260045260246000fd5b7f4e487b7100000000000000000000000000000000000000000000000000000000600052604160045260246000fd5b6000601f19601f8301169050919050565b61269080620003926000396000f3fe608060405234801561001057600080fd5b50600436106100f55760003560e01c80636352211e11610097578063b88d4fde11610066578063b88d4fde14610284578063c87b56dd146102a0578063d082e381146102d0578063e985e9c5146102ee576100f5565b80636352211e146101ea57806370a082311461021a57806395d89b411461024a578063a22cb46514610268576100f5565b8063095ea7b3116100d3578063095ea7b3146101785780631e6617101461019457806323b872dd146101b257806342842e0e146101ce576100f5565b806301ffc9a7146100fa57806306fdde031461012a578063081812fc14610148575b600080fd5b610114600480360381019061010f9190611b7c565b61031e565b6040516101219190611ed3565b60405180910390f35b610132610400565b60405161013f9190611eee565b60405180910390f35b610162600480360381019061015d9190611bce565b610492565b60405161016f9190611e6c565b60405180910390f35b610192600480360381019061018d9190611b40565b6104d8565b005b61019c6105f0565b6040516101a99190612070565b60405180910390f35b6101cc60048036038101906101c79190611a3a565b61061e565b005b6101e860048036038101906101e39190611a3a565b61067e565b005b61020460048036038101906101ff9190611bce565b61069e565b6040516102119190611e6c565b60405180910390f35b610234600480360381019061022f91906119d5565b610725565b6040516102419190612070565b60405180910390f35b6102526107dd565b60405161025f9190611eee565b60405180910390f35b610282600480360381019061027d9190611b04565b61086f565b005b61029e60048036038101906102999190611a89565b610885565b005b6102ba60048036038101906102b59190611bce565b6108e7565b6040516102c79190611eee565b60405180910390f35b6102d861094f565b6040516102e59190612070565b60405180910390f35b610308600480360381019061030391906119fe565b610955565b6040516103159190611ed3565b60405180910390f35b60007f80ac58cd000000000000000000000000000000000000000000000000000000007bffffffffffffffffffffffffffffffffffffffffffffffffffffffff1916827bffffffffffffffffffffffffffffffffffffffffffffffffffffffff191614806103e957507f5b5e139f000000000000000000000000000000000000000000000000000000007bffffffffffffffffffffffffffffffffffffffffffffffffffffffff1916827bffffffffffffffffffffffffffffffffffffffffffffffffffffffff1916145b806103f957506103f8826109e9565b5b9050919050565b60606000805461040f90612230565b80601f016020809104026020016040519081016040528092919081815260200182805461043b90612230565b80156104885780601f1061045d57610100808354040283529160200191610488565b820191906000526020600020905b81548152906001019060200180831161046b57829003601f168201915b5050505050905090565b600061049d82610a53565b6004600083815260200190815260200160002060009054906101000a900473ffffffffffffffffffffffffffffffffffffffff169050919050565b60006104e38261069e565b90508073ffffffffffffffffffffffffffffffffffffffff168373ffffffffffffffffffffffffffffffffffffffff161415610554576040517f08c379a000000000000000000000000000000000000000000000000000000000815260040161054b90612030565b60405180910390fd5b8073ffffffffffffffffffffffffffffffffffffffff16610573610a9e565b73ffffffffffffffffffffffffffffffffffffffff1614806105a257506105a18161059c610a9e565b610955565b5b6105e1576040517f08c379a00000000000000000000000000000000000000000000000000000000081526004016105d890612050565b60405180910390fd5b6105eb8383610aa6565b505050565b60008060065490506106023382610b5f565b60016006546106119190612124565b6006819055508091505090565b61062f610629610a9e565b82610b7d565b61066e576040517f08c379a000000000000000000000000000000000000000000000000000000000815260040161066590611f10565b60405180910390fd5b610679838383610c12565b505050565b61069983838360405180602001604052806000815250610885565b505050565b6000806106aa83610f0c565b9050600073ffffffffffffffffffffffffffffffffffffffff168173ffffffffffffffffffffffffffffffffffffffff16141561071c576040517f08c379a000000000000000000000000000000000000000000000000000000000815260040161071390612010565b60405180910390fd5b80915050919050565b60008073ffffffffffffffffffffffffffffffffffffffff168273ffffffffffffffffffffffffffffffffffffffff161415610796576040517f08c379a000000000000000000000000000000000000000000000000000000000815260040161078d90611fd0565b60405180910390fd5b600360008373ffffffffffffffffffffffffffffffffffffffff1673ffffffffffffffffffffffffffffffffffffffff168152602001908152602001600020549050919050565b6060600180546107ec90612230565b80601f016020809104026020016040519081016040528092919081815260200182805461081890612230565b80156108655780601f1061083a57610100808354040283529160200191610865565b820191906000526020600020905b81548152906001019060200180831161084857829003601f168201915b5050505050905090565b61088161087a610a9e565b8383610f49565b5050565b610896610890610a9e565b83610b7d565b6108d5576040517f08c379a00000000000000000000000000000000000000000000000000000000081526004016108cc90611f10565b60405180910390fd5b6108e1848484846110b6565b50505050565b60606108f282610a53565b60006108fc611112565b9050600081511161091c5760405180602001604052806000815250610947565b8061092684611129565b604051602001610937929190611e48565b6040516020818303038152906040525b915050919050565b60065481565b6000600560008473ffffffffffffffffffffffffffffffffffffffff1673ffffffffffffffffffffffffffffffffffffffff16815260200190815260200160002060008373ffffffffffffffffffffffffffffffffffffffff1673ffffffffffffffffffffffffffffffffffffffff16815260200190815260200160002060009054906101000a900460ff16905092915050565b60007f01ffc9a7000000000000000000000000000000000000000000000000000000007bffffffffffffffffffffffffffffffffffffffffffffffffffffffff1916827bffffffffffffffffffffffffffffffffffffffffffffffffffffffff1916149050919050565b610a5c8161124d565b610a9b576040517f08c379a0000000000000000000000000000000000000000000000000000000008152600401610a9290612010565b60405180910390fd5b50565b600033905090565b816004600083815260200190815260200160002060006101000a81548173ffffffffffffffffffffffffffffffffffffffff021916908373ffffffffffffffffffffffffffffffffffffffff160217905550808273ffffffffffffffffffffffffffffffffffffffff16610b198361069e565b73ffffffffffffffffffffffffffffffffffffffff167f8c5be1e5ebec7d5bd14f71427d1e84f3dd0314c0f7b2291e5b200ac8c7c3b92560405160405180910390a45050565b610b7982826040518060200160405280600081525061128e565b5050565b600080610b898361069e565b90508073ffffffffffffffffffffffffffffffffffffffff168473ffffffffffffffffffffffffffffffffffffffff161480610bcb5750610bca8185610955565b5b80610c0957508373ffffffffffffffffffffffffffffffffffffffff16610bf184610492565b73ffffffffffffffffffffffffffffffffffffffff16145b91505092915050565b8273ffffffffffffffffffffffffffffffffffffffff16610c328261069e565b73ffffffffffffffffffffffffffffffffffffffff1614610c88576040517f08c379a0000000000000000000000000000000000000000000000000000000008152600401610c7f90611f50565b60405180910390fd5b600073ffffffffffffffffffffffffffffffffffffffff168273ffffffffffffffffffffffffffffffffffffffff161415610cf8576040517f08c379a0000000000000000000000000000000000000000000000000000000008152600401610cef90611f90565b60405180910390fd5b610d0583838360016112e9565b8273ffffffffffffffffffffffffffffffffffffffff16610d258261069e565b73ffffffffffffffffffffffffffffffffffffffff1614610d7b576040517f08c379a0000000000000000000000000000000000000000000000000000000008152600401610d7290611f50565b60405180910390fd5b6004600082815260200190815260200160002060006101000a81549073ffffffffffffffffffffffffffffffffffffffff02191690556001600360008573ffffffffffffffffffffffffffffffffffffffff1673ffffffffffffffffffffffffffffffffffffffff168152602001908152602001600020600082825403925050819055506001600360008473ffffffffffffffffffffffffffffffffffffffff1673ffffffffffffffffffffffffffffffffffffffff16815260200190815260200160002060008282540192505081905550816002600083815260200190815260200160002060006101000a81548173ffffffffffffffffffffffffffffffffffffffff021916908373ffffffffffffffffffffffffffffffffffffffff160217905550808273ffffffffffffffffffffffffffffffffffffffff168473ffffffffffffffffffffffffffffffffffffffff167fddf252ad1be2c89b69c2b068fc378daa952ba7f163c4a11628f55a4df523b3ef60405160405180910390a4610f0783838360016112ef565b505050565b60006002600083815260200190815260200160002060009054906101000a900473ffffffffffffffffffffffffffffffffffffffff169050919050565b8173ffffffffffffffffffffffffffffffffffffffff168373ffffffffffffffffffffffffffffffffffffffff161415610fb8576040517f08c379a0000000000000000000000000000000000000000000000000000000008152600401610faf90611fb0565b60405180910390fd5b80600560008573ffffffffffffffffffffffffffffffffffffffff1673ffffffffffffffffffffffffffffffffffffffff16815260200190815260200160002060008473ffffffffffffffffffffffffffffffffffffffff1673ffffffffffffffffffffffffffffffffffffffff16815260200190815260200160002060006101000a81548160ff0219169083151502179055508173ffffffffffffffffffffffffffffffffffffffff168373ffffffffffffffffffffffffffffffffffffffff167f17307eab39ab6107e8899845ad3d59bd9653f200f220920489ca2b5937696c31836040516110a99190611ed3565b60405180910390a3505050565b6110c1848484610c12565b6110cd848484846112f5565b61110c576040517f08c379a000000000000000000000000000000000000000000000000000000000815260040161110390611f30565b60405180910390fd5b50505050565b606060405180602001604052806000815250905090565b6060600060016111388461148c565b01905060008167ffffffffffffffff81111561117d577f4e487b7100000000000000000000000000000000000000000000000000000000600052604160045260246000fd5b6040519080825280601f01601f1916602001820160405280156111af5781602001600182028036833780820191505090505b509050600082602001820190505b600115611242578080600190039150507f3031323334353637383961626364656600000000000000000000000000000000600a86061a8153600a858161122c577f4e487b7100000000000000000000000000000000000000000000000000000000600052601260045260246000fd5b049450600085141561123d57611242565b6111bd565b819350505050919050565b60008073ffffffffffffffffffffffffffffffffffffffff1661126f83610f0c565b73ffffffffffffffffffffffffffffffffffffffff1614159050919050565b61129883836116c3565b6112a560008484846112f5565b6112e4576040517f08c379a00000000000000000000000000000000000000000000000000000000081526004016112db90611f30565b60405180910390fd5b505050565b50505050565b50505050565b60006113168473ffffffffffffffffffffffffffffffffffffffff166118e1565b1561147f578373ffffffffffffffffffffffffffffffffffffffff1663150b7a0261133f610a9e565b8786866040518563ffffffff1660e01b81526004016113619493929190611e87565b602060405180830381600087803b15801561137b57600080fd5b505af19250505080156113ac57506040513d601f19601f820116820180604052508101906113a99190611ba5565b60015b61142f573d80600081146113dc576040519150601f19603f3d011682016040523d82523d6000602084013e6113e1565b606091505b50600081511415611427576040517f08c379a000000000000000000000000000000000000000000000000000000000815260040161141e90611f30565b60405180910390fd5b805181602001fd5b63150b7a0260e01b7bffffffffffffffffffffffffffffffffffffffffffffffffffffffff1916817bffffffffffffffffffffffffffffffffffffffffffffffffffffffff191614915050611484565b600190505b949350505050565b600080600090507a184f03e93ff9f4daa797ed6e38ed64bf6a1f0100000000000000008310611510577a184f03e93ff9f4daa797ed6e38ed64bf6a1f0100000000000000008381611506577f4e487b7100000000000000000000000000000000000000000000000000000000600052601260045260246000fd5b0492506040810190505b6d04ee2d6d415b85acef81000000008310611573576d04ee2d6d415b85acef81000000008381611569577f4e487b7100000000000000000000000000000000000000000000000000000000600052601260045260246000fd5b0492506020810190505b662386f26fc1000083106115c857662386f26fc1000083816115be577f4e487b7100000000000000000000000000000000000000000000000000000000600052601260045260246000fd5b0492506010810190505b6305f5e1008310611617576305f5e100838161160d577f4e487b7100000000000000000000000000000000000000000000000000000000600052601260045260246000fd5b0492506008810190505b6127108310611662576127108381611658577f4e487b7100000000000000000000000000000000000000000000000000000000600052601260045260246000fd5b0492506004810190505b606483106116ab57606483816116a1577f4e487b7100000000000000000000000000000000000000000000000000000000600052601260045260246000fd5b0492506002810190505b600a83106116ba576001810190505b80915050919050565b600073ffffffffffffffffffffffffffffffffffffffff168273ffffffffffffffffffffffffffffffffffffffff161415611733576040517f08c379a000000000000000000000000000000000000000000000000000000000815260040161172a90611ff0565b60405180910390fd5b61173c8161124d565b1561177c576040517f08c379a000000000000000000000000000000000000000000000000000000000815260040161177390611f70565b60405180910390fd5b61178a6000838360016112e9565b6117938161124d565b156117d3576040517f08c379a00000000000000000000000000000000000000000000000000000000081526004016117ca90611f70565b60405180910390fd5b6001600360008473ffffffffffffffffffffffffffffffffffffffff1673ffffffffffffffffffffffffffffffffffffffff16815260200190815260200160002060008282540192505081905550816002600083815260200190815260200160002060006101000a81548173ffffffffffffffffffffffffffffffffffffffff021916908373ffffffffffffffffffffffffffffffffffffffff160217905550808273ffffffffffffffffffffffffffffffffffffffff16600073ffffffffffffffffffffffffffffffffffffffff167fddf252ad1be2c89b69c2b068fc378daa952ba7f163c4a11628f55a4df523b3ef60405160405180910390a46118dd6000838360016112ef565b5050565b6000808273ffffffffffffffffffffffffffffffffffffffff163b119050919050565b6000611917611912846120b0565b61208b565b90508281526020810184848401111561192f57600080fd5b61193a8482856121ee565b509392505050565b600081359050611951816125fe565b92915050565b60008135905061196681612615565b92915050565b60008135905061197b8161262c565b92915050565b6000815190506119908161262c565b92915050565b600082601f8301126119a757600080fd5b81356119b7848260208601611904565b91505092915050565b6000813590506119cf81612643565b92915050565b6000602082840312156119e757600080fd5b60006119f584828501611942565b91505092915050565b60008060408385031215611a1157600080fd5b6000611a1f85828601611942565b9250506020611a3085828601611942565b9150509250929050565b600080600060608486031215611a4f57600080fd5b6000611a5d86828701611942565b9350506020611a6e86828701611942565b9250506040611a7f868287016119c0565b9150509250925092565b60008060008060808587031215611a9f57600080fd5b6000611aad87828801611942565b9450506020611abe87828801611942565b9350506040611acf878288016119c0565b925050606085013567ffffffffffffffff811115611aec57600080fd5b611af887828801611996565b91505092959194509250565b60008060408385031215611b1757600080fd5b6000611b2585828601611942565b9250506020611b3685828601611957565b9150509250929050565b60008060408385031215611b5357600080fd5b6000611b6185828601611942565b9250506020611b72858286016119c0565b9150509250929050565b600060208284031215611b8e57600080fd5b6000611b9c8482850161196c565b91505092915050565b600060208284031215611bb757600080fd5b6000611bc584828501611981565b91505092915050565b600060208284031215611be057600080fd5b6000611bee848285016119c0565b91505092915050565b611c008161217a565b82525050565b611c0f8161218c565b82525050565b6000611c20826120e1565b611c2a81856120f7565b9350611c3a8185602086016121fd565b611c4381612320565b840191505092915050565b6000611c59826120ec565b611c638185612108565b9350611c738185602086016121fd565b611c7c81612320565b840191505092915050565b6000611c92826120ec565b611c9c8185612119565b9350611cac8185602086016121fd565b80840191505092915050565b6000611cc5602d83612108565b9150611cd082612331565b604082019050919050565b6000611ce8603283612108565b9150611cf382612380565b604082019050919050565b6000611d0b602583612108565b9150611d16826123cf565b604082019050919050565b6000611d2e601c83612108565b9150611d398261241e565b602082019050919050565b6000611d51602483612108565b9150611d5c82612447565b604082019050919050565b6000611d74601983612108565b9150611d7f82612496565b602082019050919050565b6000611d97602983612108565b9150611da2826124bf565b604082019050919050565b6000611dba602083612108565b9150611dc58261250e565b602082019050919050565b6000611ddd601883612108565b9150611de882612537565b602082019050919050565b6000611e00602183612108565b9150611e0b82612560565b604082019050919050565b6000611e23603d83612108565b9150611e2e826125af565b604082019050919050565b611e42816121e4565b82525050565b6000611e548285611c87565b9150611e608284611c87565b91508190509392505050565b6000602082019050611e816000830184611bf7565b92915050565b6000608082019050611e9c6000830187611bf7565b611ea96020830186611bf7565b611eb66040830185611e39565b8181036060830152611ec88184611c15565b905095945050505050565b6000602082019050611ee86000830184611c06565b92915050565b60006020820190508181036000830152611f088184611c4e565b905092915050565b60006020820190508181036000830152611f2981611cb8565b9050919050565b60006020820190508181036000830152611f4981611cdb565b9050919050565b60006020820190508181036000830152611f6981611cfe565b9050919050565b60006020820190508181036000830152611f8981611d21565b9050919050565b60006020820190508181036000830152611fa981611d44565b9050919050565b60006020820190508181036000830152611fc981611d67565b9050919050565b60006020820190508181036000830152611fe981611d8a565b9050919050565b6000602082019050818103600083015261200981611dad565b9050919050565b6000602082019050818103600083015261202981611dd0565b9050919050565b6000602082019050818103600083015261204981611df3565b9050919050565b6000602082019050818103600083015261206981611e16565b9050919050565b60006020820190506120856000830184611e39565b92915050565b60006120956120a6565b90506120a18282612262565b919050565b6000604051905090565b600067ffffffffffffffff8211156120cb576120ca6122f1565b5b6120d482612320565b9050602081019050919050565b600081519050919050565b600081519050919050565b600082825260208201905092915050565b600082825260208201905092915050565b600081905092915050565b600061212f826121e4565b915061213a836121e4565b9250827fffffffffffffffffffffffffffffffffffffffffffffffffffffffffffffffff0382111561216f5761216e612293565b5b828201905092915050565b6000612185826121c4565b9050919050565b60008115159050919050565b60007fffffffff0000000000000000000000000000000000000000000000000000000082169050919050565b600073ffffffffffffffffffffffffffffffffffffffff82169050919050565b6000819050919050565b82818337600083830152505050565b60005b8381101561221b578082015181840152602081019050612200565b8381111561222a576000848401525b50505050565b6000600282049050600182168061224857607f821691505b6020821081141561225c5761225b6122c2565b5b50919050565b61226b82612320565b810181811067ffffffffffffffff8211171561228a576122896122f1565b5b80604052505050565b7f4e487b7100000000000000000000000000000000000000000000000000000000600052601160045260246000fd5b7f4e487b7100000000000000000000000000000000000000000000000000000000600052602260045260246000fd5b7f4e487b7100000000000000000000000000000000000000000000000000000000600052604160045260246000fd5b6000601f19601f8301169050919050565b7f4552433732313a2063616c6c6572206973206e6f7420746f6b656e206f776e6560008201527f72206f7220617070726f76656400000000000000000000000000000000000000602082015250565b7f4552433732313a207472616e7366657220746f206e6f6e20455243373231526560008201527f63656976657220696d706c656d656e7465720000000000000000000000000000602082015250565b7f4552433732313a207472616e736665722066726f6d20696e636f72726563742060008201527f6f776e6572000000000000000000000000000000000000000000000000000000602082015250565b7f4552433732313a20746f6b656e20616c7265616479206d696e74656400000000600082015250565b7f4552433732313a207472616e7366657220746f20746865207a65726f2061646460008201527f7265737300000000000000000000000000000000000000000000000000000000602082015250565b7f4552433732313a20617070726f766520746f2063616c6c657200000000000000600082015250565b7f4552433732313a2061646472657373207a65726f206973206e6f74206120766160008201527f6c6964206f776e65720000000000000000000000000000000000000000000000602082015250565b7f4552433732313a206d696e7420746f20746865207a65726f2061646472657373600082015250565b7f4552433732313a20696e76616c696420746f6b656e2049440000000000000000600082015250565b7f4552433732313a20617070726f76616c20746f2063757272656e74206f776e6560008201527f7200000000000000000000000000000000000000000000000000000000000000602082015250565b7f4552433732313a20617070726f76652063616c6c6572206973206e6f7420746f60008201527f6b656e206f776e6572206f7220617070726f76656420666f7220616c6c000000602082015250565b6126078161217a565b811461261257600080fd5b50565b61261e8161218c565b811461262957600080fd5b50565b61263581612198565b811461264057600080fd5b50565b61264c816121e4565b811461265757600080fd5b5056fea2646970667358221220761b46ddbbc9d2add6e40632193d2d53038fef419673dd512984b3a8ef80d05464736f6c63430008040033",
  "linkReferences": {},
  "deployedLinkReferences": {}
}