{
  "_format": "hh-sol-artifact-1",
  "contractName": "NFTDutchAuction_ERC20BidsV2",
  "sourceName": "contracts/NFTDutchAuction_ERC20BidsV2.sol",
  "abi": [
    {
      "anonymous": false,
      "inputs": [
        {
          "indexed": false,
          "internalType": "address",
          "name": "previousAdmin",
          "type": "address"
        },
        {
          "indexed": false,
          "internalType": "address",
          "name": "newAdmin",
          "type": "address"
        }
      ],
      "name": "AdminChanged",
      "type": "event"
    },
    {
      "anonymous": false,
      "inputs": [
        {
          "indexed": true,
          "internalType": "address",
          "name": "beacon",
          "type": "address"
        }
      ],
      "name": "BeaconUpgraded",
      "type": "event"
    },
    {
      "anonymous": false,
      "inputs": [
        {
          "indexed": false,
          "internalType": "uint8",
          "name": "version",
          "type": "uint8"
        }
      ],
      "name": "Initialized",
      "type": "event"
    },
    {
      "anonymous": false,
      "inputs": [
        {
          "indexed": true,
          "internalType": "address",
          "name": "previousOwner",
          "type": "address"
        },
        {
          "indexed": true,
          "internalType": "address",
          "name": "newOwner",
          "type": "address"
        }
      ],
      "name": "OwnershipTransferred",
      "type": "event"
    },
    {
      "anonymous": false,
      "inputs": [
        {
          "indexed": true,
          "internalType": "address",
          "name": "implementation",
          "type": "address"
        }
      ],
      "name": "Upgraded",
      "type": "event"
    },
    {
      "inputs": [],
      "name": "ended",
      "outputs": [
        {
          "internalType": "bool",
          "name": "",
          "type": "bool"
        }
      ],
      "stateMutability": "view",
      "type": "function"
    },
    {
      "inputs": [],
      "name": "erc20Token",
      "outputs": [
        {
          "internalType": "contract ERC20",
          "name": "",
          "type": "address"
        }
      ],
      "stateMutability": "view",
      "type": "function"
    },
    {
      "inputs": [],
      "name": "erc721Token",
      "outputs": [
        {
          "internalType": "contract ERC721",
          "name": "",
          "type": "address"
        }
      ],
      "stateMutability": "view",
      "type": "function"
    },
    {
      "inputs": [],
      "name": "highestBid",
      "outputs": [
        {
          "internalType": "uint256",
          "name": "",
          "type": "uint256"
        }
      ],
      "stateMutability": "view",
      "type": "function"
    },
    {
      "inputs": [],
      "name": "highestBidder",
      "outputs": [
        {
          "internalType": "address",
          "name": "",
          "type": "address"
        }
      ],
      "stateMutability": "view",
      "type": "function"
    },
    {
      "inputs": [],
      "name": "initialPrice",
      "outputs": [
        {
          "internalType": "uint256",
          "name": "",
          "type": "uint256"
        }
      ],
      "stateMutability": "view",
      "type": "function"
    },
    {
      "inputs": [
        {
          "internalType": "address",
          "name": "erc20TokenAddress",
          "type": "address"
        },
        {
          "internalType": "address",
          "name": "erc721TokenAddress",
          "type": "address"
        },
        {
          "internalType": "uint256",
          "name": "nftTokenId",
          "type": "uint256"
        },
        {
          "internalType": "uint256",
          "name": "_reservePrice",
          "type": "uint256"
        },
        {
          "internalType": "uint256",
          "name": "_numBlocksAuctionOpen",
          "type": "uint256"
        },
        {
          "internalType": "uint256",
          "name": "_offerPriceDecrement",
          "type": "uint256"
        }
      ],
      "name": "initialize",
      "outputs": [],
      "stateMutability": "nonpayable",
      "type": "function"
    },
    {
      "inputs": [],
      "name": "newFunction",
      "outputs": [
        {
          "internalType": "string",
          "name": "",
          "type": "string"
        }
      ],
      "stateMutability": "pure",
      "type": "function"
    },
    {
      "inputs": [],
      "name": "numBlocksAuctionOpen",
      "outputs": [
        {
          "internalType": "uint256",
          "name": "",
          "type": "uint256"
        }
      ],
      "stateMutability": "view",
      "type": "function"
    },
    {
      "inputs": [],
      "name": "offerPriceDecrement",
      "outputs": [
        {
          "internalType": "uint256",
          "name": "",
          "type": "uint256"
        }
      ],
      "stateMutability": "view",
      "type": "function"
    },
    {
      "inputs": [],
      "name": "owner",
      "outputs": [
        {
          "internalType": "address",
          "name": "",
          "type": "address"
        }
      ],
      "stateMutability": "view",
      "type": "function"
    },
    {
      "inputs": [],
      "name": "proxiableUUID",
      "outputs": [
        {
          "internalType": "bytes32",
          "name": "",
          "type": "bytes32"
        }
      ],
      "stateMutability": "view",
      "type": "function"
    },
    {
      "inputs": [
        {
          "internalType": "address",
          "name": "",
          "type": "address"
        }
      ],
      "name": "refunds",
      "outputs": [
        {
          "internalType": "uint256",
          "name": "",
          "type": "uint256"
        }
      ],
      "stateMutability": "view",
      "type": "function"
    },
    {
      "inputs": [],
      "name": "renounceOwnership",
      "outputs": [],
      "stateMutability": "nonpayable",
      "type": "function"
    },
    {
      "inputs": [],
      "name": "reservePrice",
      "outputs": [
        {
          "internalType": "uint256",
          "name": "",
          "type": "uint256"
        }
      ],
      "stateMutability": "view",
      "type": "function"
    },
    {
      "inputs": [],
      "name": "startBlock",
      "outputs": [
        {
          "internalType": "uint256",
          "name": "",
          "type": "uint256"
        }
      ],
      "stateMutability": "view",
      "type": "function"
    },
    {
      "inputs": [
        {
          "internalType": "address",
          "name": "newOwner",
          "type": "address"
        }
      ],
      "name": "transferOwnership",
      "outputs": [],
      "stateMutability": "nonpayable",
      "type": "function"
    },
    {
      "inputs": [
        {
          "internalType": "address",
          "name": "newImplementation",
          "type": "address"
        }
      ],
      "name": "upgradeTo",
      "outputs": [],
      "stateMutability": "nonpayable",
      "type": "function"
    },
    {
      "inputs": [
        {
          "internalType": "address",
          "name": "newImplementation",
          "type": "address"
        },
        {
          "internalType": "bytes",
          "name": "data",
          "type": "bytes"
        }
      ],
      "name": "upgradeToAndCall",
      "outputs": [],
      "stateMutability": "payable",
      "type": "function"
    }
  ],
  "bytecode": "0x60a06040523073ffffffffffffffffffffffffffffffffffffffff1660809073ffffffffffffffffffffffffffffffffffffffff1660601b81525034801561004657600080fd5b5060805160601c612182610081600039600081816104930152818161052201528181610649015281816106d8015261078801526121826000f3fe6080604052600436106101145760003560e01c8063715018a6116100a0578063bc3da53511610064578063bc3da5351461034c578063d3642a8814610389578063d57bde79146103b4578063db2e1eed146103df578063f2fde38b1461040a57610114565b8063715018a61461028b57806386489ba9146102a25780638a13eea7146102cb5780638da5cb5b146102f657806391f901571461032157610114565b80633659cfe6116100e75780633659cfe6146101c557806348cd4cb1146101ee5780634f1ef2861461021957806352d1902d146102355780635f2d6bcd1461026057610114565b806312fa6feb146101195780631b28d63e146101445780631d0806ae1461016f5780633103ea621461019a575b600080fd5b34801561012557600080fd5b5061012e610433565b60405161013b919061183b565b60405180910390f35b34801561015057600080fd5b50610159610447565b60405161016691906118c2565b60405180910390f35b34801561017b57600080fd5b50610184610484565b6040516101919190611a64565b60405180910390f35b3480156101a657600080fd5b506101af61048b565b6040516101bc9190611a64565b60405180910390f35b3480156101d157600080fd5b506101ec60048036038101906101e79190611463565b610491565b005b3480156101fa57600080fd5b50610203610640565b6040516102109190611a64565b60405180910390f35b610233600480360381019061022e9190611515565b610647565b005b34801561024157600080fd5b5061024a610784565b6040516102579190611856565b60405180910390f35b34801561026c57600080fd5b5061027561083d565b604051610282919061188c565b60405180910390f35b34801561029757600080fd5b506102a0610863565b005b3480156102ae57600080fd5b506102c960048036038101906102c4919061148c565b610877565b005b3480156102d757600080fd5b506102e0610aaa565b6040516102ed9190611871565b60405180910390f35b34801561030257600080fd5b5061030b610ad0565b6040516103189190611820565b60405180910390f35b34801561032d57600080fd5b50610336610afa565b6040516103439190611820565b60405180910390f35b34801561035857600080fd5b50610373600480360381019061036e9190611463565b610b21565b6040516103809190611a64565b60405180910390f35b34801561039557600080fd5b5061039e610b3a565b6040516103ab9190611a64565b60405180910390f35b3480156103c057600080fd5b506103c9610b40565b6040516103d69190611a64565b60405180910390f35b3480156103eb57600080fd5b506103f4610b47565b6040516104019190611a64565b60405180910390f35b34801561041657600080fd5b50610431600480360381019061042c9190611463565b610b4d565b005b61010260009054906101000a900460ff1681565b60606040518060400160405280601c81526020017f546869732069732061206e65772066756e6374696f6e20696e20563200000000815250905090565b6101005481565b60fe5481565b7f000000000000000000000000000000000000000000000000000000000000000073ffffffffffffffffffffffffffffffffffffffff163073ffffffffffffffffffffffffffffffffffffffff161415610520576040517f08c379a000000000000000000000000000000000000000000000000000000000815260040161051790611904565b60405180910390fd5b7f000000000000000000000000000000000000000000000000000000000000000073ffffffffffffffffffffffffffffffffffffffff1661055f610bd1565b73ffffffffffffffffffffffffffffffffffffffff16146105b5576040517f08c379a00000000000000000000000000000000000000000000000000000000081526004016105ac90611924565b60405180910390fd5b6105be81610c28565b61063d81600067ffffffffffffffff811115610603577f4e487b7100000000000000000000000000000000000000000000000000000000600052604160045260246000fd5b6040519080825280601f01601f1916602001820160405280156106355781602001600182028036833780820191505090505b506000610ca3565b50565b6101015481565b7f000000000000000000000000000000000000000000000000000000000000000073ffffffffffffffffffffffffffffffffffffffff163073ffffffffffffffffffffffffffffffffffffffff1614156106d6576040517f08c379a00000000000000000000000000000000000000000000000000000000081526004016106cd90611904565b60405180910390fd5b7f000000000000000000000000000000000000000000000000000000000000000073ffffffffffffffffffffffffffffffffffffffff16610715610bd1565b73ffffffffffffffffffffffffffffffffffffffff161461076b576040517f08c379a000000000000000000000000000000000000000000000000000000000815260040161076290611924565b60405180910390fd5b61077482610c28565b61078082826001610ca3565b5050565b60007f000000000000000000000000000000000000000000000000000000000000000073ffffffffffffffffffffffffffffffffffffffff163073ffffffffffffffffffffffffffffffffffffffff1614610814576040517f08c379a000000000000000000000000000000000000000000000000000000000815260040161080b90611944565b60405180910390fd5b7f360894a13ba1a3210667c828492db98dca3e2076cc3735a920a3ca505d382bbc60001b905090565b60fb60009054906101000a900473ffffffffffffffffffffffffffffffffffffffff1681565b61086b610e20565b6108756000610e9e565b565b60008060019054906101000a900460ff161590508080156108a85750600160008054906101000a900460ff1660ff16105b806108d557506108b730610f64565b1580156108d45750600160008054906101000a900460ff1660ff16145b5b610914576040517f08c379a000000000000000000000000000000000000000000000000000000000815260040161090b90611984565b60405180910390fd5b60016000806101000a81548160ff021916908360ff1602179055508015610951576001600060016101000a81548160ff0219169083151502179055505b610959610f87565b610961610fe0565b8560fb60006101000a81548173ffffffffffffffffffffffffffffffffffffffff021916908373ffffffffffffffffffffffffffffffffffffffff1602179055508660fc60006101000a81548173ffffffffffffffffffffffffffffffffffffffff021916908373ffffffffffffffffffffffffffffffffffffffff16021790555084610105819055508360fd819055508260fe819055508160ff8190555060ff5460fe54610a109190611b5d565b60fd54610a1d9190611b07565b610100819055504361010181905550600061010260006101000a81548160ff0219169083151502179055508015610aa15760008060016101000a81548160ff0219169083151502179055507f7f26b83ff96e1f2b6a682f133852f6798a09c465da95921460cefb38474024986001604051610a9891906118a7565b60405180910390a15b50505050505050565b60fc60009054906101000a900473ffffffffffffffffffffffffffffffffffffffff1681565b6000609760009054906101000a900473ffffffffffffffffffffffffffffffffffffffff16905090565b61010260019054906101000a900473ffffffffffffffffffffffffffffffffffffffff1681565b6101046020528060005260406000206000915090505481565b60ff5481565b6101035481565b60fd5481565b610b55610e20565b600073ffffffffffffffffffffffffffffffffffffffff168173ffffffffffffffffffffffffffffffffffffffff161415610bc5576040517f08c379a0000000000000000000000000000000000000000000000000000000008152600401610bbc906118e4565b60405180910390fd5b610bce81610e9e565b50565b6000610bff7f360894a13ba1a3210667c828492db98dca3e2076cc3735a920a3ca505d382bbc60001b611039565b60000160009054906101000a900473ffffffffffffffffffffffffffffffffffffffff16905090565b610c30610e20565b600073ffffffffffffffffffffffffffffffffffffffff168173ffffffffffffffffffffffffffffffffffffffff161415610ca0576040517f08c379a0000000000000000000000000000000000000000000000000000000008152600401610c9790611a04565b60405180910390fd5b50565b610ccf7f4910fdfa16fed3260ed0e7147f7cc6da11a60208b5b9406d12a635614ffd914360001b611043565b60000160009054906101000a900460ff1615610cf357610cee8361104d565b610e1b565b8273ffffffffffffffffffffffffffffffffffffffff166352d1902d6040518163ffffffff1660e01b815260040160206040518083038186803b158015610d3957600080fd5b505afa925050508015610d6a57506040513d601f19601f82011682018060405250810190610d679190611569565b60015b610da9576040517f08c379a0000000000000000000000000000000000000000000000000000000008152600401610da0906119a4565b60405180910390fd5b7f360894a13ba1a3210667c828492db98dca3e2076cc3735a920a3ca505d382bbc60001b8114610e0e576040517f08c379a0000000000000000000000000000000000000000000000000000000008152600401610e0590611964565b60405180910390fd5b50610e1a838383611106565b5b505050565b610e28611132565b73ffffffffffffffffffffffffffffffffffffffff16610e46610ad0565b73ffffffffffffffffffffffffffffffffffffffff1614610e9c576040517f08c379a0000000000000000000000000000000000000000000000000000000008152600401610e93906119e4565b60405180910390fd5b565b6000609760009054906101000a900473ffffffffffffffffffffffffffffffffffffffff16905081609760006101000a81548173ffffffffffffffffffffffffffffffffffffffff021916908373ffffffffffffffffffffffffffffffffffffffff1602179055508173ffffffffffffffffffffffffffffffffffffffff168173ffffffffffffffffffffffffffffffffffffffff167f8be0079c531659141344cd1fd0a4f28419497f9722a3daafe3b4186f6b6457e060405160405180910390a35050565b6000808273ffffffffffffffffffffffffffffffffffffffff163b119050919050565b600060019054906101000a900460ff16610fd6576040517f08c379a0000000000000000000000000000000000000000000000000000000008152600401610fcd90611a44565b60405180910390fd5b610fde61113a565b565b600060019054906101000a900460ff1661102f576040517f08c379a000000000000000000000000000000000000000000000000000000000815260040161102690611a44565b60405180910390fd5b611037611193565b565b6000819050919050565b6000819050919050565b61105681610f64565b611095576040517f08c379a000000000000000000000000000000000000000000000000000000000815260040161108c906119c4565b60405180910390fd5b806110c27f360894a13ba1a3210667c828492db98dca3e2076cc3735a920a3ca505d382bbc60001b611039565b60000160006101000a81548173ffffffffffffffffffffffffffffffffffffffff021916908373ffffffffffffffffffffffffffffffffffffffff16021790555050565b61110f836111f4565b60008251118061111c5750805b1561112d5761112b8383611243565b505b505050565b600033905090565b600060019054906101000a900460ff16611189576040517f08c379a000000000000000000000000000000000000000000000000000000000815260040161118090611a44565b60405180910390fd5b600160c981905550565b600060019054906101000a900460ff166111e2576040517f08c379a00000000000000000000000000000000000000000000000000000000081526004016111d990611a44565b60405180910390fd5b6111f26111ed611132565b610e9e565b565b6111fd8161104d565b8073ffffffffffffffffffffffffffffffffffffffff167fbc7cd75a20ee27fd9adebab32041f755214dbc6bffa90cc0225b39da2e5c2d3b60405160405180910390a250565b6060611268838360405180606001604052806027815260200161212660279139611270565b905092915050565b60606000808573ffffffffffffffffffffffffffffffffffffffff168560405161129a9190611809565b600060405180830381855af49150503d80600081146112d5576040519150601f19603f3d011682016040523d82523d6000602084013e6112da565b606091505b50915091506112eb868383876112f6565b925050509392505050565b60608315611359576000835114156113515761131185610f64565b611350576040517f08c379a000000000000000000000000000000000000000000000000000000000815260040161134790611a24565b60405180910390fd5b5b829050611364565b611363838361136c565b5b949350505050565b60008251111561137f5781518083602001fd5b806040517f08c379a00000000000000000000000000000000000000000000000000000000081526004016113b391906118c2565b60405180910390fd5b60006113cf6113ca84611aa4565b611a7f565b9050828152602081018484840111156113e757600080fd5b6113f2848285611c70565b509392505050565b600081359050611409816120e0565b92915050565b60008151905061141e816120f7565b92915050565b600082601f83011261143557600080fd5b81356114458482602086016113bc565b91505092915050565b60008135905061145d8161210e565b92915050565b60006020828403121561147557600080fd5b6000611483848285016113fa565b91505092915050565b60008060008060008060c087890312156114a557600080fd5b60006114b389828a016113fa565b96505060206114c489828a016113fa565b95505060406114d589828a0161144e565b94505060606114e689828a0161144e565b93505060806114f789828a0161144e565b92505060a061150889828a0161144e565b9150509295509295509295565b6000806040838503121561152857600080fd5b6000611536858286016113fa565b925050602083013567ffffffffffffffff81111561155357600080fd5b61155f85828601611424565b9150509250929050565b60006020828403121561157b57600080fd5b60006115898482850161140f565b91505092915050565b61159b81611bb7565b82525050565b6115aa81611bc9565b82525050565b6115b981611bd5565b82525050565b60006115ca82611ad5565b6115d48185611aeb565b93506115e4818560208601611c7f565b80840191505092915050565b6115f981611c16565b82525050565b61160881611c3a565b82525050565b61161781611c5e565b82525050565b600061162882611ae0565b6116328185611af6565b9350611642818560208601611c7f565b61164b81611d41565b840191505092915050565b6000611663602683611af6565b915061166e82611d52565b604082019050919050565b6000611686602c83611af6565b915061169182611da1565b604082019050919050565b60006116a9602c83611af6565b91506116b482611df0565b604082019050919050565b60006116cc603883611af6565b91506116d782611e3f565b604082019050919050565b60006116ef602983611af6565b91506116fa82611e8e565b604082019050919050565b6000611712602e83611af6565b915061171d82611edd565b604082019050919050565b6000611735602e83611af6565b915061174082611f2c565b604082019050919050565b6000611758602d83611af6565b915061176382611f7b565b604082019050919050565b600061177b602083611af6565b915061178682611fca565b602082019050919050565b600061179e604483611af6565b91506117a982611ff3565b606082019050919050565b60006117c1601d83611af6565b91506117cc82612068565b602082019050919050565b60006117e4602b83611af6565b91506117ef82612091565b604082019050919050565b61180381611bff565b82525050565b600061181582846115bf565b915081905092915050565b60006020820190506118356000830184611592565b92915050565b600060208201905061185060008301846115a1565b92915050565b600060208201905061186b60008301846115b0565b92915050565b600060208201905061188660008301846115f0565b92915050565b60006020820190506118a160008301846115ff565b92915050565b60006020820190506118bc600083018461160e565b92915050565b600060208201905081810360008301526118dc818461161d565b905092915050565b600060208201905081810360008301526118fd81611656565b9050919050565b6000602082019050818103600083015261191d81611679565b9050919050565b6000602082019050818103600083015261193d8161169c565b9050919050565b6000602082019050818103600083015261195d816116bf565b9050919050565b6000602082019050818103600083015261197d816116e2565b9050919050565b6000602082019050818103600083015261199d81611705565b9050919050565b600060208201905081810360008301526119bd81611728565b9050919050565b600060208201905081810360008301526119dd8161174b565b9050919050565b600060208201905081810360008301526119fd8161176e565b9050919050565b60006020820190508181036000830152611a1d81611791565b9050919050565b60006020820190508181036000830152611a3d816117b4565b9050919050565b60006020820190508181036000830152611a5d816117d7565b9050919050565b6000602082019050611a7960008301846117fa565b92915050565b6000611a89611a9a565b9050611a958282611cb2565b919050565b6000604051905090565b600067ffffffffffffffff821115611abf57611abe611d12565b5b611ac882611d41565b9050602081019050919050565b600081519050919050565b600081519050919050565b600081905092915050565b600082825260208201905092915050565b6000611b1282611bff565b9150611b1d83611bff565b9250827fffffffffffffffffffffffffffffffffffffffffffffffffffffffffffffffff03821115611b5257611b51611ce3565b5b828201905092915050565b6000611b6882611bff565b9150611b7383611bff565b9250817fffffffffffffffffffffffffffffffffffffffffffffffffffffffffffffffff0483118215151615611bac57611bab611ce3565b5b828202905092915050565b6000611bc282611bdf565b9050919050565b60008115159050919050565b6000819050919050565b600073ffffffffffffffffffffffffffffffffffffffff82169050919050565b6000819050919050565b600060ff82169050919050565b6000611c2182611c28565b9050919050565b6000611c3382611bdf565b9050919050565b6000611c4582611c4c565b9050919050565b6000611c5782611bdf565b9050919050565b6000611c6982611c09565b9050919050565b82818337600083830152505050565b60005b83811015611c9d578082015181840152602081019050611c82565b83811115611cac576000848401525b50505050565b611cbb82611d41565b810181811067ffffffffffffffff82111715611cda57611cd9611d12565b5b80604052505050565b7f4e487b7100000000000000000000000000000000000000000000000000000000600052601160045260246000fd5b7f4e487b7100000000000000000000000000000000000000000000000000000000600052604160045260246000fd5b6000601f19601f8301169050919050565b7f4f776e61626c653a206e6577206f776e657220697320746865207a65726f206160008201527f6464726573730000000000000000000000000000000000000000000000000000602082015250565b7f46756e6374696f6e206d7573742062652063616c6c6564207468726f7567682060008201527f64656c656761746563616c6c0000000000000000000000000000000000000000602082015250565b7f46756e6374696f6e206d7573742062652063616c6c6564207468726f7567682060008201527f6163746976652070726f78790000000000000000000000000000000000000000602082015250565b7f555550535570677261646561626c653a206d757374206e6f742062652063616c60008201527f6c6564207468726f7567682064656c656761746563616c6c0000000000000000602082015250565b7f45524331393637557067726164653a20756e737570706f727465642070726f7860008201527f6961626c65555549440000000000000000000000000000000000000000000000602082015250565b7f496e697469616c697a61626c653a20636f6e747261637420697320616c72656160008201527f647920696e697469616c697a6564000000000000000000000000000000000000602082015250565b7f45524331393637557067726164653a206e657720696d706c656d656e7461746960008201527f6f6e206973206e6f742055555053000000000000000000000000000000000000602082015250565b7f455243313936373a206e657720696d706c656d656e746174696f6e206973206e60008201527f6f74206120636f6e747261637400000000000000000000000000000000000000602082015250565b7f4f776e61626c653a2063616c6c6572206973206e6f7420746865206f776e6572600082015250565b7f4e4654447574636841756374696f6e5f4552433230426964733a207a65726f2060008201527f6164647265737320676976656e20666f72206e657720696d706c656d656e746160208201527f74696f6e00000000000000000000000000000000000000000000000000000000604082015250565b7f416464726573733a2063616c6c20746f206e6f6e2d636f6e7472616374000000600082015250565b7f496e697469616c697a61626c653a20636f6e7472616374206973206e6f74206960008201527f6e697469616c697a696e67000000000000000000000000000000000000000000602082015250565b6120e981611bb7565b81146120f457600080fd5b50565b61210081611bd5565b811461210b57600080fd5b50565b61211781611bff565b811461212257600080fd5b5056fe416464726573733a206c6f772d6c6576656c2064656c65676174652063616c6c206661696c6564a26469706673582212208595c9dcd544740e05b049a3a7331fe7b2bc12c47bee61da9672fefb60313a0064736f6c63430008040033",
  "linkReferences": {},
  "deployedLinkReferences": {}
}