{"contracts/NFTDutchAuction.sol":{"NFTDutchAuction":{"abi":[{"inputs":[{"internalType":"string","name":"name","type":"string"},{"internalType":"string","name":"symbol","type":"string"},{"internalType":"uint256","name":"nftTokenId","type":"uint256"},{"internalType":"uint256","name":"_reservePrice","type":"uint256"},{"internalType":"uint256","name":"_numBlocksAuctionOpen","type":"uint256"},{"internalType":"uint256","name":"_offerPriceDecrement","type":"uint256"}],"stateMutability":"nonpayable","type":"constructor"},{"anonymous":false,"inputs":[{"indexed":true,"internalType":"address","name":"owner","type":"address"},{"indexed":true,"internalType":"address","name":"approved","type":"address"},{"indexed":true,"internalType":"uint256","name":"tokenId","type":"uint256"}],"name":"Approval","type":"event"},{"anonymous":false,"inputs":[{"indexed":true,"internalType":"address","name":"owner","type":"address"},{"indexed":true,"internalType":"address","name":"operator","type":"address"},{"indexed":false,"internalType":"bool","name":"approved","type":"bool"}],"name":"ApprovalForAll","type":"event"},{"anonymous":false,"inputs":[{"indexed":true,"internalType":"address","name":"previousOwner","type":"address"},{"indexed":true,"internalType":"address","name":"newOwner","type":"address"}],"name":"OwnershipTransferred","type":"event"},{"anonymous":false,"inputs":[{"indexed":true,"internalType":"address","name":"from","type":"address"},{"indexed":true,"internalType":"address","name":"to","type":"address"},{"indexed":true,"internalType":"uint256","name":"tokenId","type":"uint256"}],"name":"Transfer","type":"event"},{"inputs":[{"internalType":"address","name":"to","type":"address"},{"internalType":"uint256","name":"tokenId","type":"uint256"}],"name":"approve","outputs":[],"stateMutability":"nonpayable","type":"function"},{"inputs":[{"internalType":"address","name":"owner","type":"address"}],"name":"balanceOf","outputs":[{"internalType":"uint256","name":"","type":"uint256"}],"stateMutability":"view","type":"function"},{"inputs":[],"name":"bid","outputs":[],"stateMutability":"payable","type":"function"},{"inputs":[],"name":"currentPrice","outputs":[{"internalType":"uint256","name":"","type":"uint256"}],"stateMutability":"view","type":"function"},{"inputs":[],"name":"endAuction","outputs":[],"stateMutability":"nonpayable","type":"function"},{"inputs":[],"name":"ended","outputs":[{"internalType":"bool","name":"","type":"bool"}],"stateMutability":"view","type":"function"},{"inputs":[{"internalType":"uint256","name":"tokenId","type":"uint256"}],"name":"getApproved","outputs":[{"internalType":"address","name":"","type":"address"}],"stateMutability":"view","type":"function"},{"inputs":[],"name":"highestBid","outputs":[{"internalType":"uint256","name":"","type":"uint256"}],"stateMutability":"view","type":"function"},{"inputs":[],"name":"highestBidder","outputs":[{"internalType":"address payable","name":"","type":"address"}],"stateMutability":"view","type":"function"},{"inputs":[],"name":"initialPrice","outputs":[{"internalType":"uint256","name":"","type":"uint256"}],"stateMutability":"view","type":"function"},{"inputs":[{"internalType":"address","name":"owner","type":"address"},{"internalType":"address","name":"operator","type":"address"}],"name":"isApprovedForAll","outputs":[{"internalType":"bool","name":"","type":"bool"}],"stateMutability":"view","type":"function"},{"inputs":[],"name":"name","outputs":[{"internalType":"string","name":"","type":"string"}],"stateMutability":"view","type":"function"},{"inputs":[],"name":"numBlocksAuctionOpen","outputs":[{"internalType":"uint256","name":"","type":"uint256"}],"stateMutability":"view","type":"function"},{"inputs":[],"name":"offerPriceDecrement","outputs":[{"internalType":"uint256","name":"","type":"uint256"}],"stateMutability":"view","type":"function"},{"inputs":[],"name":"owner","outputs":[{"internalType":"address","name":"","type":"address"}],"stateMutability":"view","type":"function"},{"inputs":[{"internalType":"uint256","name":"tokenId","type":"uint256"}],"name":"ownerOf","outputs":[{"internalType":"address","name":"","type":"address"}],"stateMutability":"view","type":"function"},{"inputs":[{"internalType":"address","name":"","type":"address"}],"name":"refunds","outputs":[{"internalType":"uint256","name":"","type":"uint256"}],"stateMutability":"view","type":"function"},{"inputs":[],"name":"renounceOwnership","outputs":[],"stateMutability":"nonpayable","type":"function"},{"inputs":[],"name":"reservePrice","outputs":[{"internalType":"uint256","name":"","type":"uint256"}],"stateMutability":"view","type":"function"},{"inputs":[{"internalType":"address","name":"from","type":"address"},{"internalType":"address","name":"to","type":"address"},{"internalType":"uint256","name":"tokenId","type":"uint256"}],"name":"safeTransferFrom","outputs":[],"stateMutability":"nonpayable","type":"function"},{"inputs":[{"internalType":"address","name":"from","type":"address"},{"internalType":"address","name":"to","type":"address"},{"internalType":"uint256","name":"tokenId","type":"uint256"},{"internalType":"bytes","name":"data","type":"bytes"}],"name":"safeTransferFrom","outputs":[],"stateMutability":"nonpayable","type":"function"},{"inputs":[{"internalType":"address","name":"operator","type":"address"},{"internalType":"bool","name":"approved","type":"bool"}],"name":"setApprovalForAll","outputs":[],"stateMutability":"nonpayable","type":"function"},{"inputs":[],"name":"startBlock","outputs":[{"internalType":"uint256","name":"","type":"uint256"}],"stateMutability":"view","type":"function"},{"inputs":[{"internalType":"bytes4","name":"interfaceId","type":"bytes4"}],"name":"supportsInterface","outputs":[{"internalType":"bool","name":"","type":"bool"}],"stateMutability":"view","type":"function"},{"inputs":[],"name":"symbol","outputs":[{"internalType":"string","name":"","type":"string"}],"stateMutability":"view","type":"function"},{"inputs":[{"internalType":"uint256","name":"tokenId","type":"uint256"}],"name":"tokenURI","outputs":[{"internalType":"string","name":"","type":"string"}],"stateMutability":"view","type":"function"},{"inputs":[{"internalType":"address","name":"from","type":"address"},{"internalType":"address","name":"to","type":"address"},{"internalType":"uint256","name":"tokenId","type":"uint256"}],"name":"transferFrom","outputs":[],"stateMutability":"nonpayable","type":"function"},{"inputs":[{"internalType":"address","name":"newOwner","type":"address"}],"name":"transferOwnership","outputs":[],"stateMutability":"nonpayable","type":"function"},{"inputs":[],"name":"withdraw","outputs":[],"stateMutability":"nonpayable","type":"function"}],"evm":{"bytecode":{"linkReferences":{},"object":"60806040523480156200001157600080fd5b5060405162003d8e38038062003d8e8339818101604052810190620000379190620003f0565b8585816000908051906020019062000051929190620002b7565b5080600190805190602001906200006a929190620002b7565b50505060016006819055506200009562000089620001e660201b60201c565b620001ee60201b60201c565b620000b1676fa93b11b334c40460c01b620002b460201b60201c565b620000cd67b42a32be86ceb3d060c01b620002b460201b60201c565b83601081905550620000f067bf77a7224d89aeda60c01b620002b460201b60201c565b826008819055506200011367403251871bb0cc9f60c01b620002b460201b60201c565b816009819055506200013667bf10650275d72d0f60c01b620002b460201b60201c565b80600a81905550620001596703a05918d177670a60c01b620002b460201b60201c565b600a546009546200016b919062000574565b6008546200017a919062000517565b600b819055506200019c67930a6ee0a32ea2f160c01b620002b460201b60201c565b43600c81905550620001bf677100898f2625abcf60c01b620002b460201b60201c565b6000600d60006101000a81548160ff02191690831515021790555050505050505062000739565b600033905090565b6000600760009054906101000a900473ffffffffffffffffffffffffffffffffffffffff16905081600760006101000a81548173ffffffffffffffffffffffffffffffffffffffff021916908373ffffffffffffffffffffffffffffffffffffffff1602179055508173ffffffffffffffffffffffffffffffffffffffff168173ffffffffffffffffffffffffffffffffffffffff167f8be0079c531659141344cd1fd0a4f28419497f9722a3daafe3b4186f6b6457e060405160405180910390a35050565b50565b828054620002c59062000615565b90600052602060002090601f016020900481019282620002e9576000855562000335565b82601f106200030457805160ff191683800117855562000335565b8280016001018555821562000335579182015b828111156200033457825182559160200191906001019062000317565b5b50905062000344919062000348565b5090565b5b808211156200036357600081600090555060010162000349565b5090565b60006200037e6200037884620004e1565b620004b8565b9050828152602081018484840111156200039757600080fd5b620003a4848285620005df565b509392505050565b600082601f830112620003be57600080fd5b8151620003d084826020860162000367565b91505092915050565b600081519050620003ea816200071f565b92915050565b60008060008060008060c087890312156200040a57600080fd5b600087015167ffffffffffffffff8111156200042557600080fd5b6200043389828a01620003ac565b965050602087015167ffffffffffffffff8111156200045157600080fd5b6200045f89828a01620003ac565b95505060406200047289828a01620003d9565b94505060606200048589828a01620003d9565b93505060806200049889828a01620003d9565b92505060a0620004ab89828a01620003d9565b9150509295509295509295565b6000620004c4620004d7565b9050620004d282826200064b565b919050565b6000604051905090565b600067ffffffffffffffff821115620004ff57620004fe620006df565b5b6200050a826200070e565b9050602081019050919050565b60006200052482620005d5565b91506200053183620005d5565b9250827fffffffffffffffffffffffffffffffffffffffffffffffffffffffffffffffff0382111562000569576200056862000681565b5b828201905092915050565b60006200058182620005d5565b91506200058e83620005d5565b9250817fffffffffffffffffffffffffffffffffffffffffffffffffffffffffffffffff0483118215151615620005ca57620005c962000681565b5b828202905092915050565b6000819050919050565b60005b83811015620005ff578082015181840152602081019050620005e2565b838111156200060f576000848401525b50505050565b600060028204905060018216806200062e57607f821691505b60208210811415620006455762000644620006b0565b5b50919050565b62000656826200070e565b810181811067ffffffffffffffff82111715620006785762000677620006df565b5b80604052505050565b7f4e487b7100000000000000000000000000000000000000000000000000000000600052601160045260246000fd5b7f4e487b7100000000000000000000000000000000000000000000000000000000600052602260045260246000fd5b7f4e487b7100000000000000000000000000000000000000000000000000000000600052604160045260246000fd5b6000601f19601f8301169050919050565b6200072a81620005d5565b81146200073657600080fd5b50565b61364580620007496000396000f3fe6080604052600436106101c25760003560e01c8063715018a6116100f7578063bc3da53511610095578063db2e1eed11610064578063db2e1eed14610613578063e985e9c51461063e578063f2fde38b1461067b578063fe67a54b146106a4576101c2565b8063bc3da53514610543578063c87b56dd14610580578063d3642a88146105bd578063d57bde79146105e8576101c2565b806395d89b41116100d157806395d89b411461049b5780639d1b464a146104c6578063a22cb465146104f1578063b88d4fde1461051a576101c2565b8063715018a61461042e5780638da5cb5b1461044557806391f9015714610470576101c2565b806323b872dd1161016457806342842e0e1161013e57806342842e0e1461036057806348cd4cb1146103895780636352211e146103b457806370a08231146103f1576101c2565b806323b872dd146102f55780633103ea621461031e5780633ccfd60b14610349576101c2565b8063095ea7b3116101a0578063095ea7b31461026c57806312fa6feb146102955780631998aeef146102c05780631d0806ae146102ca576101c2565b806301ffc9a7146101c757806306fdde0314610204578063081812fc1461022f575b600080fd5b3480156101d357600080fd5b506101ee60048036038101906101e991906127ff565b6106bb565b6040516101fb9190612c2f565b60405180910390f35b34801561021057600080fd5b5061021961079d565b6040516102269190612c4a565b60405180910390f35b34801561023b57600080fd5b5061025660048036038101906102519190612851565b61082f565b6040516102639190612bad565b60405180910390f35b34801561027857600080fd5b50610293600480360381019061028e91906127c3565b610875565b005b3480156102a157600080fd5b506102aa61098d565b6040516102b79190612c2f565b60405180910390f35b6102c86109a0565b005b3480156102d657600080fd5b506102df610dad565b6040516102ec9190612e6c565b60405180910390f35b34801561030157600080fd5b5061031c600480360381019061031791906126bd565b610db3565b005b34801561032a57600080fd5b50610333610e13565b6040516103409190612e6c565b60405180910390f35b34801561035557600080fd5b5061035e610e19565b005b34801561036c57600080fd5b50610387600480360381019061038291906126bd565b610ff7565b005b34801561039557600080fd5b5061039e611017565b6040516103ab9190612e6c565b60405180910390f35b3480156103c057600080fd5b506103db60048036038101906103d69190612851565b61101d565b6040516103e89190612bad565b60405180910390f35b3480156103fd57600080fd5b5061041860048036038101906104139190612658565b6110a4565b6040516104259190612e6c565b60405180910390f35b34801561043a57600080fd5b5061044361115c565b005b34801561045157600080fd5b5061045a611170565b6040516104679190612bad565b60405180910390f35b34801561047c57600080fd5b5061048561119a565b6040516104929190612bc8565b60405180910390f35b3480156104a757600080fd5b506104b06111c0565b6040516104bd9190612c4a565b60405180910390f35b3480156104d257600080fd5b506104db611252565b6040516104e89190612e6c565b60405180910390f35b3480156104fd57600080fd5b5061051860048036038101906105139190612787565b611378565b005b34801561052657600080fd5b50610541600480360381019061053c919061270c565b61138e565b005b34801561054f57600080fd5b5061056a60048036038101906105659190612658565b6113f0565b6040516105779190612e6c565b60405180910390f35b34801561058c57600080fd5b506105a760048036038101906105a29190612851565b611408565b6040516105b49190612c4a565b60405180910390f35b3480156105c957600080fd5b506105d2611470565b6040516105df9190612e6c565b60405180910390f35b3480156105f457600080fd5b506105fd611476565b60405161060a9190612e6c565b60405180910390f35b34801561061f57600080fd5b5061062861147c565b6040516106359190612e6c565b60405180910390f35b34801561064a57600080fd5b5061066560048036038101906106609190612681565b611482565b6040516106729190612c2f565b60405180910390f35b34801561068757600080fd5b506106a2600480360381019061069d9190612658565b611516565b005b3480156106b057600080fd5b506106b961159a565b005b60007f80ac58cd000000000000000000000000000000000000000000000000000000007bffffffffffffffffffffffffffffffffffffffffffffffffffffffff1916827bffffffffffffffffffffffffffffffffffffffffffffffffffffffff1916148061078657507f5b5e139f000000000000000000000000000000000000000000000000000000007bffffffffffffffffffffffffffffffffffffffffffffffffffffffff1916827bffffffffffffffffffffffffffffffffffffffffffffffffffffffff1916145b806107965750610795826117bc565b5b9050919050565b6060600080546107ac906130cc565b80601f01602080910402602001604051908101604052809291908181526020018280546107d8906130cc565b80156108255780601f106107fa57610100808354040283529160200191610825565b820191906000526020600020905b81548152906001019060200180831161080857829003601f168201915b5050505050905090565b600061083a82611826565b6004600083815260200190815260200160002060009054906101000a900473ffffffffffffffffffffffffffffffffffffffff169050919050565b60006108808261101d565b90508073ffffffffffffffffffffffffffffffffffffffff168373ffffffffffffffffffffffffffffffffffffffff1614156108f1576040517f08c379a00000000000000000000000000000000000000000000000000000000081526004016108e890612e0c565b60405180910390fd5b8073ffffffffffffffffffffffffffffffffffffffff16610910611871565b73ffffffffffffffffffffffffffffffffffffffff16148061093f575061093e81610939611871565b611482565b5b61097e576040517f08c379a000000000000000000000000000000000000000000000000000000000815260040161097590612e2c565b60405180910390fd5b6109888383611879565b505050565b600d60009054906101000a900460ff1681565b6109b467771586707458425e60c01b611932565b6109c8675f01b8f87aa1189c60c01b611932565b6109dc67a08058c22965828f60c01b611932565b6109f067525cf6ea3f45e20360c01b611932565b600954600c54610a009190612f20565b431115610a42576040517f08c379a0000000000000000000000000000000000000000000000000000000008152600401610a3990612dac565b60405180910390fd5b610a5667e47f1ff549988a7660c01b611932565b610a6a670942e6111e0b723a60c01b611932565b610a7e67a1cda5b81b0864ba60c01b611932565b610a9267515a3c81e2bdaa0560c01b611932565b610a9a611252565b341015610adc576040517f08c379a0000000000000000000000000000000000000000000000000000000008152600401610ad390612d6c565b60405180910390fd5b610af0678d46b756eae2732460c01b611932565b610b0467f075f51f78b7da8260c01b611932565b610b18678eea84a92210cce460c01b611932565b600073ffffffffffffffffffffffffffffffffffffffff16600d60019054906101000a900473ffffffffffffffffffffffffffffffffffffffff1673ffffffffffffffffffffffffffffffffffffffff1614610c1557610b8267720cd21bb8ff963960c01b611932565b610b96677f04bd53e9b638e360c01b611932565b600e54600f6000600d60019054906101000a900473ffffffffffffffffffffffffffffffffffffffff1673ffffffffffffffffffffffffffffffffffffffff1673ffffffffffffffffffffffffffffffffffffffff1681526020019081526020016000206000828254610c099190612f20565b92505081905550610c2a565b610c2967c57521875fff9a0260c01b611932565b5b610c3e67773dce921be017e860c01b611932565b34600e81905550610c5967ba6c63d02b0f77f960c01b611932565b33600d60016101000a81548173ffffffffffffffffffffffffffffffffffffffff021916908373ffffffffffffffffffffffffffffffffffffffff160217905550610cae676a5316cca291e40e60c01b611932565b610cc26781f6b888b11e29ff60c01b611932565b600954600c54610cd29190612f20565b4310610d9657610cec67ac890df7e785623d60c01b611932565b610d00679a503b925826b98060c01b611932565b6001600d60006101000a81548160ff021916908315150217905550610d2f67ee1e1790687d152860c01b611932565b610d43675fd8149b401055f960c01b611932565b610d4b611170565b73ffffffffffffffffffffffffffffffffffffffff166108fc349081150290604051600060405180830381858888f19350505050158015610d90573d6000803e3d6000fd5b50610dab565b610daa671b6c3ec8e1fcfdd560c01b611932565b5b565b600b5481565b610dc4610dbe611871565b82611935565b610e03576040517f08c379a0000000000000000000000000000000000000000000000000000000008152600401610dfa90612c8c565b60405180910390fd5b610e0e8383836119ca565b505050565b60095481565b610e2d67658f2459af952cb160c01b611932565b610e416708cb26ac94c254f460c01b611932565b610e5567b046437c5cb49f4b60c01b611932565b6000600f60003373ffffffffffffffffffffffffffffffffffffffff1673ffffffffffffffffffffffffffffffffffffffff168152602001908152602001600020549050610ead67f1dbfd3c41c0d9e260c01b611932565b610ec16763f3774b79f3d6c060c01b611932565b610ed5672532490fe624bd1160c01b611932565b60008111610f18576040517f08c379a0000000000000000000000000000000000000000000000000000000008152600401610f0f90612e4c565b60405180910390fd5b610f2c677d6c6daeb13d878e60c01b611932565b610f406747db354ace15a4cc60c01b611932565b6000600f60003373ffffffffffffffffffffffffffffffffffffffff1673ffffffffffffffffffffffffffffffffffffffff16815260200190815260200160002081905550610f9967c846b2330390501060c01b611932565b610fad678d84a86427f3e8c960c01b611932565b3373ffffffffffffffffffffffffffffffffffffffff166108fc829081150290604051600060405180830381858888f19350505050158015610ff3573d6000803e3d6000fd5b5050565b6110128383836040518060200160405280600081525061138e565b505050565b600c5481565b60008061102983611cc4565b9050600073ffffffffffffffffffffffffffffffffffffffff168173ffffffffffffffffffffffffffffffffffffffff16141561109b576040517f08c379a000000000000000000000000000000000000000000000000000000000815260040161109290612dcc565b60405180910390fd5b80915050919050565b60008073ffffffffffffffffffffffffffffffffffffffff168273ffffffffffffffffffffffffffffffffffffffff161415611115576040517f08c379a000000000000000000000000000000000000000000000000000000000815260040161110c90612d4c565b60405180910390fd5b600360008373ffffffffffffffffffffffffffffffffffffffff1673ffffffffffffffffffffffffffffffffffffffff168152602001908152602001600020549050919050565b611164611d01565b61116e6000611d7f565b565b6000600760009054906101000a900473ffffffffffffffffffffffffffffffffffffffff16905090565b600d60019054906101000a900473ffffffffffffffffffffffffffffffffffffffff1681565b6060600180546111cf906130cc565b80601f01602080910402602001604051908101604052809291908181526020018280546111fb906130cc565b80156112485780601f1061121d57610100808354040283529160200191611248565b820191906000526020600020905b81548152906001019060200180831161122b57829003601f168201915b5050505050905090565b600061126867b29d9f84acac9b2160c01b611932565b61127c67a32e82ba4ae9daf860c01b611932565b611290674e516b36d831f22f60c01b611932565b6000600c54436112a09190612fd0565b90506112b6677b34ec86b9f2899360c01b611932565b6112ca67b647c95677b5656c60c01b611932565b600954811061131a576112e767ee7a4d2e399fcacc60c01b611932565b6112fb6731e2c5cd4944d8dc60c01b611932565b61130f671415b2fd91a7a2c060c01b611932565b600854915050611375565b61132e679f72e9b174c38b6c60c01b611932565b6113426702e9e64cfbd7559c60c01b611932565b611356678e7b12addad3804560c01b611932565b600a54816113649190612f76565b600b546113719190612fd0565b9150505b90565b61138a611383611871565b8383611e45565b5050565b61139f611399611871565b83611935565b6113de576040517f08c379a00000000000000000000000000000000000000000000000000000000081526004016113d590612c8c565b60405180910390fd5b6113ea84848484611fb2565b50505050565b600f6020528060005260406000206000915090505481565b606061141382611826565b600061141d61200e565b9050600081511161143d5760405180602001604052806000815250611468565b8061144784612025565b604051602001611458929190612b89565b6040516020818303038152906040525b915050919050565b600a5481565b600e5481565b60085481565b6000600560008473ffffffffffffffffffffffffffffffffffffffff1673ffffffffffffffffffffffffffffffffffffffff16815260200190815260200160002060008373ffffffffffffffffffffffffffffffffffffffff1673ffffffffffffffffffffffffffffffffffffffff16815260200190815260200160002060009054906101000a900460ff16905092915050565b61151e611d01565b600073ffffffffffffffffffffffffffffffffffffffff168173ffffffffffffffffffffffffffffffffffffffff16141561158e576040517f08c379a000000000000000000000000000000000000000000000000000000000815260040161158590612ccc565b60405180910390fd5b61159781611d7f565b50565b6115ae67371b5b7bac21caf060c01b611932565b6115c2678a33d6a16b86a01d60c01b611932565b6115d667fc758d29b192752060c01b611932565b6115ea679388582fc9b5d16a60c01b611932565b6115f2611170565b73ffffffffffffffffffffffffffffffffffffffff163373ffffffffffffffffffffffffffffffffffffffff161461165f576040517f08c379a000000000000000000000000000000000000000000000000000000000815260040161165690612c6c565b60405180910390fd5b611673672a4d734853e2dcc560c01b611932565b61168767cc8181709ab898bc60c01b611932565b61169b674b7103ebcb29c4e160c01b611932565b6116af67a464ff668119d77860c01b611932565b600d60009054906101000a900460ff16156116ff576040517f08c379a00000000000000000000000000000000000000000000000000000000081526004016116f690612dec565b60405180910390fd5b611713675c3ceb7dc257676260c01b611932565b6117276736e33c282c4982ad60c01b611932565b6001600d60006101000a81548160ff021916908315150217905550611756679726717c7fe2a6da60c01b611932565b61176a67c313030348b2bc4e60c01b611932565b611772611170565b73ffffffffffffffffffffffffffffffffffffffff166108fc600e549081150290604051600060405180830381858888f193505050501580156117b9573d6000803e3d6000fd5b50565b60007f01ffc9a7000000000000000000000000000000000000000000000000000000007bffffffffffffffffffffffffffffffffffffffffffffffffffffffff1916827bffffffffffffffffffffffffffffffffffffffffffffffffffffffff1916149050919050565b61182f81612149565b61186e576040517f08c379a000000000000000000000000000000000000000000000000000000000815260040161186590612dcc565b60405180910390fd5b50565b600033905090565b816004600083815260200190815260200160002060006101000a81548173ffffffffffffffffffffffffffffffffffffffff021916908373ffffffffffffffffffffffffffffffffffffffff160217905550808273ffffffffffffffffffffffffffffffffffffffff166118ec8361101d565b73ffffffffffffffffffffffffffffffffffffffff167f8c5be1e5ebec7d5bd14f71427d1e84f3dd0314c0f7b2291e5b200ac8c7c3b92560405160405180910390a45050565b50565b6000806119418361101d565b90508073ffffffffffffffffffffffffffffffffffffffff168473ffffffffffffffffffffffffffffffffffffffff16148061198357506119828185611482565b5b806119c157508373ffffffffffffffffffffffffffffffffffffffff166119a98461082f565b73ffffffffffffffffffffffffffffffffffffffff16145b91505092915050565b8273ffffffffffffffffffffffffffffffffffffffff166119ea8261101d565b73ffffffffffffffffffffffffffffffffffffffff1614611a40576040517f08c379a0000000000000000000000000000000000000000000000000000000008152600401611a3790612cec565b60405180910390fd5b600073ffffffffffffffffffffffffffffffffffffffff168273ffffffffffffffffffffffffffffffffffffffff161415611ab0576040517f08c379a0000000000000000000000000000000000000000000000000000000008152600401611aa790612d0c565b60405180910390fd5b611abd838383600161218a565b8273ffffffffffffffffffffffffffffffffffffffff16611add8261101d565b73ffffffffffffffffffffffffffffffffffffffff1614611b33576040517f08c379a0000000000000000000000000000000000000000000000000000000008152600401611b2a90612cec565b60405180910390fd5b6004600082815260200190815260200160002060006101000a81549073ffffffffffffffffffffffffffffffffffffffff02191690556001600360008573ffffffffffffffffffffffffffffffffffffffff1673ffffffffffffffffffffffffffffffffffffffff168152602001908152602001600020600082825403925050819055506001600360008473ffffffffffffffffffffffffffffffffffffffff1673ffffffffffffffffffffffffffffffffffffffff16815260200190815260200160002060008282540192505081905550816002600083815260200190815260200160002060006101000a81548173ffffffffffffffffffffffffffffffffffffffff021916908373ffffffffffffffffffffffffffffffffffffffff160217905550808273ffffffffffffffffffffffffffffffffffffffff168473ffffffffffffffffffffffffffffffffffffffff167fddf252ad1be2c89b69c2b068fc378daa952ba7f163c4a11628f55a4df523b3ef60405160405180910390a4611cbf8383836001612190565b505050565b60006002600083815260200190815260200160002060009054906101000a900473ffffffffffffffffffffffffffffffffffffffff169050919050565b611d09611871565b73ffffffffffffffffffffffffffffffffffffffff16611d27611170565b73ffffffffffffffffffffffffffffffffffffffff1614611d7d576040517f08c379a0000000000000000000000000000000000000000000000000000000008152600401611d7490612d8c565b60405180910390fd5b565b6000600760009054906101000a900473ffffffffffffffffffffffffffffffffffffffff16905081600760006101000a81548173ffffffffffffffffffffffffffffffffffffffff021916908373ffffffffffffffffffffffffffffffffffffffff1602179055508173ffffffffffffffffffffffffffffffffffffffff168173ffffffffffffffffffffffffffffffffffffffff167f8be0079c531659141344cd1fd0a4f28419497f9722a3daafe3b4186f6b6457e060405160405180910390a35050565b8173ffffffffffffffffffffffffffffffffffffffff168373ffffffffffffffffffffffffffffffffffffffff161415611eb4576040517f08c379a0000000000000000000000000000000000000000000000000000000008152600401611eab90612d2c565b60405180910390fd5b80600560008573ffffffffffffffffffffffffffffffffffffffff1673ffffffffffffffffffffffffffffffffffffffff16815260200190815260200160002060008473ffffffffffffffffffffffffffffffffffffffff1673ffffffffffffffffffffffffffffffffffffffff16815260200190815260200160002060006101000a81548160ff0219169083151502179055508173ffffffffffffffffffffffffffffffffffffffff168373ffffffffffffffffffffffffffffffffffffffff167f17307eab39ab6107e8899845ad3d59bd9653f200f220920489ca2b5937696c3183604051611fa59190612c2f565b60405180910390a3505050565b611fbd8484846119ca565b611fc984848484612196565b612008576040517f08c379a0000000000000000000000000000000000000000000000000000000008152600401611fff90612cac565b60405180910390fd5b50505050565b606060405180602001604052806000815250905090565b6060600060016120348461232d565b01905060008167ffffffffffffffff811115612079577f4e487b7100000000000000000000000000000000000000000000000000000000600052604160045260246000fd5b6040519080825280601f01601f1916602001820160405280156120ab5781602001600182028036833780820191505090505b509050600082602001820190505b60011561213e578080600190039150507f3031323334353637383961626364656600000000000000000000000000000000600a86061a8153600a8581612128577f4e487b7100000000000000000000000000000000000000000000000000000000600052601260045260246000fd5b04945060008514156121395761213e565b6120b9565b819350505050919050565b60008073ffffffffffffffffffffffffffffffffffffffff1661216b83611cc4565b73ffffffffffffffffffffffffffffffffffffffff1614159050919050565b50505050565b50505050565b60006121b78473ffffffffffffffffffffffffffffffffffffffff16612564565b15612320578373ffffffffffffffffffffffffffffffffffffffff1663150b7a026121e0611871565b8786866040518563ffffffff1660e01b81526004016122029493929190612be3565b602060405180830381600087803b15801561221c57600080fd5b505af192505050801561224d57506040513d601f19601f8201168201806040525081019061224a9190612828565b60015b6122d0573d806000811461227d576040519150601f19603f3d011682016040523d82523d6000602084013e612282565b606091505b506000815114156122c8576040517f08c379a00000000000000000000000000000000000000000000000000000000081526004016122bf90612cac565b60405180910390fd5b805181602001fd5b63150b7a0260e01b7bffffffffffffffffffffffffffffffffffffffffffffffffffffffff1916817bffffffffffffffffffffffffffffffffffffffffffffffffffffffff191614915050612325565b600190505b949350505050565b600080600090507a184f03e93ff9f4daa797ed6e38ed64bf6a1f01000000000000000083106123b1577a184f03e93ff9f4daa797ed6e38ed64bf6a1f01000000000000000083816123a7577f4e487b7100000000000000000000000000000000000000000000000000000000600052601260045260246000fd5b0492506040810190505b6d04ee2d6d415b85acef81000000008310612414576d04ee2d6d415b85acef8100000000838161240a577f4e487b7100000000000000000000000000000000000000000000000000000000600052601260045260246000fd5b0492506020810190505b662386f26fc10000831061246957662386f26fc10000838161245f577f4e487b7100000000000000000000000000000000000000000000000000000000600052601260045260246000fd5b0492506010810190505b6305f5e10083106124b8576305f5e10083816124ae577f4e487b7100000000000000000000000000000000000000000000000000000000600052601260045260246000fd5b0492506008810190505b61271083106125035761271083816124f9577f4e487b7100000000000000000000000000000000000000000000000000000000600052601260045260246000fd5b0492506004810190505b6064831061254c5760648381612542577f4e487b7100000000000000000000000000000000000000000000000000000000600052601260045260246000fd5b0492506002810190505b600a831061255b576001810190505b80915050919050565b6000808273ffffffffffffffffffffffffffffffffffffffff163b119050919050565b600061259a61259584612eac565b612e87565b9050828152602081018484840111156125b257600080fd5b6125bd84828561308a565b509392505050565b6000813590506125d4816135b3565b92915050565b6000813590506125e9816135ca565b92915050565b6000813590506125fe816135e1565b92915050565b600081519050612613816135e1565b92915050565b600082601f83011261262a57600080fd5b813561263a848260208601612587565b91505092915050565b600081359050612652816135f8565b92915050565b60006020828403121561266a57600080fd5b6000612678848285016125c5565b91505092915050565b6000806040838503121561269457600080fd5b60006126a2858286016125c5565b92505060206126b3858286016125c5565b9150509250929050565b6000806000606084860312156126d257600080fd5b60006126e0868287016125c5565b93505060206126f1868287016125c5565b925050604061270286828701612643565b9150509250925092565b6000806000806080858703121561272257600080fd5b6000612730878288016125c5565b9450506020612741878288016125c5565b935050604061275287828801612643565b925050606085013567ffffffffffffffff81111561276f57600080fd5b61277b87828801612619565b91505092959194509250565b6000806040838503121561279a57600080fd5b60006127a8858286016125c5565b92505060206127b9858286016125da565b9150509250929050565b600080604083850312156127d657600080fd5b60006127e4858286016125c5565b92505060206127f585828601612643565b9150509250929050565b60006020828403121561281157600080fd5b600061281f848285016125ef565b91505092915050565b60006020828403121561283a57600080fd5b600061284884828501612604565b91505092915050565b60006020828403121561286357600080fd5b600061287184828501612643565b91505092915050565b61288381613016565b82525050565b61289281613004565b82525050565b6128a181613028565b82525050565b60006128b282612edd565b6128bc8185612ef3565b93506128cc818560208601613099565b6128d5816131bc565b840191505092915050565b60006128eb82612ee8565b6128f58185612f04565b9350612905818560208601613099565b61290e816131bc565b840191505092915050565b600061292482612ee8565b61292e8185612f15565b935061293e818560208601613099565b80840191505092915050565b6000612957602283612f04565b9150612962826131cd565b604082019050919050565b600061297a602d83612f04565b91506129858261321c565b604082019050919050565b600061299d603283612f04565b91506129a88261326b565b604082019050919050565b60006129c0602683612f04565b91506129cb826132ba565b604082019050919050565b60006129e3602583612f04565b91506129ee82613309565b604082019050919050565b6000612a06602483612f04565b9150612a1182613358565b604082019050919050565b6000612a29601983612f04565b9150612a34826133a7565b602082019050919050565b6000612a4c602983612f04565b9150612a57826133d0565b604082019050919050565b6000612a6f601783612f04565b9150612a7a8261341f565b602082019050919050565b6000612a92602083612f04565b9150612a9d82613448565b602082019050919050565b6000612ab5601a83612f04565b9150612ac082613471565b602082019050919050565b6000612ad8601883612f04565b9150612ae38261349a565b602082019050919050565b6000612afb601c83612f04565b9150612b06826134c3565b602082019050919050565b6000612b1e602183612f04565b9150612b29826134ec565b604082019050919050565b6000612b41603d83612f04565b9150612b4c8261353b565b604082019050919050565b6000612b64601383612f04565b9150612b6f8261358a565b602082019050919050565b612b8381613080565b82525050565b6000612b958285612919565b9150612ba18284612919565b91508190509392505050565b6000602082019050612bc26000830184612889565b92915050565b6000602082019050612bdd600083018461287a565b92915050565b6000608082019050612bf86000830187612889565b612c056020830186612889565b612c126040830185612b7a565b8181036060830152612c2481846128a7565b905095945050505050565b6000602082019050612c446000830184612898565b92915050565b60006020820190508181036000830152612c6481846128e0565b905092915050565b60006020820190508181036000830152612c858161294a565b9050919050565b60006020820190508181036000830152612ca58161296d565b9050919050565b60006020820190508181036000830152612cc581612990565b9050919050565b60006020820190508181036000830152612ce5816129b3565b9050919050565b60006020820190508181036000830152612d05816129d6565b9050919050565b60006020820190508181036000830152612d25816129f9565b9050919050565b60006020820190508181036000830152612d4581612a1c565b9050919050565b60006020820190508181036000830152612d6581612a3f565b9050919050565b60006020820190508181036000830152612d8581612a62565b9050919050565b60006020820190508181036000830152612da581612a85565b9050919050565b60006020820190508181036000830152612dc581612aa8565b9050919050565b60006020820190508181036000830152612de581612acb565b9050919050565b60006020820190508181036000830152612e0581612aee565b9050919050565b60006020820190508181036000830152612e2581612b11565b9050919050565b60006020820190508181036000830152612e4581612b34565b9050919050565b60006020820190508181036000830152612e6581612b57565b9050919050565b6000602082019050612e816000830184612b7a565b92915050565b6000612e91612ea2565b9050612e9d82826130fe565b919050565b6000604051905090565b600067ffffffffffffffff821115612ec757612ec661318d565b5b612ed0826131bc565b9050602081019050919050565b600081519050919050565b600081519050919050565b600082825260208201905092915050565b600082825260208201905092915050565b600081905092915050565b6000612f2b82613080565b9150612f3683613080565b9250827fffffffffffffffffffffffffffffffffffffffffffffffffffffffffffffffff03821115612f6b57612f6a61312f565b5b828201905092915050565b6000612f8182613080565b9150612f8c83613080565b9250817fffffffffffffffffffffffffffffffffffffffffffffffffffffffffffffffff0483118215151615612fc557612fc461312f565b5b828202905092915050565b6000612fdb82613080565b9150612fe683613080565b925082821015612ff957612ff861312f565b5b828203905092915050565b600061300f82613060565b9050919050565b600061302182613060565b9050919050565b60008115159050919050565b60007fffffffff0000000000000000000000000000000000000000000000000000000082169050919050565b600073ffffffffffffffffffffffffffffffffffffffff82169050919050565b6000819050919050565b82818337600083830152505050565b60005b838110156130b757808201518184015260208101905061309c565b838111156130c6576000848401525b50505050565b600060028204905060018216806130e457607f821691505b602082108114156130f8576130f761315e565b5b50919050565b613107826131bc565b810181811067ffffffffffffffff821117156131265761312561318d565b5b80604052505050565b7f4e487b7100000000000000000000000000000000000000000000000000000000600052601160045260246000fd5b7f4e487b7100000000000000000000000000000000000000000000000000000000600052602260045260246000fd5b7f4e487b7100000000000000000000000000000000000000000000000000000000600052604160045260246000fd5b6000601f19601f8301169050919050565b7f4f6e6c7920746865206f776e65722063616e20656e642074686520617563746960008201527f6f6e000000000000000000000000000000000000000000000000000000000000602082015250565b7f4552433732313a2063616c6c6572206973206e6f7420746f6b656e206f776e6560008201527f72206f7220617070726f76656400000000000000000000000000000000000000602082015250565b7f4552433732313a207472616e7366657220746f206e6f6e20455243373231526560008201527f63656976657220696d706c656d656e7465720000000000000000000000000000602082015250565b7f4f776e61626c653a206e6577206f776e657220697320746865207a65726f206160008201527f6464726573730000000000000000000000000000000000000000000000000000602082015250565b7f4552433732313a207472616e736665722066726f6d20696e636f72726563742060008201527f6f776e6572000000000000000000000000000000000000000000000000000000602082015250565b7f4552433732313a207472616e7366657220746f20746865207a65726f2061646460008201527f7265737300000000000000000000000000000000000000000000000000000000602082015250565b7f4552433732313a20617070726f766520746f2063616c6c657200000000000000600082015250565b7f4552433732313a2061646472657373207a65726f206973206e6f74206120766160008201527f6c6964206f776e65720000000000000000000000000000000000000000000000602082015250565b7f426964206973206e6f74206869676820656e6f7567682e000000000000000000600082015250565b7f4f776e61626c653a2063616c6c6572206973206e6f7420746865206f776e6572600082015250565b7f41756374696f6e20697320616c726561647920636c6f7365642e000000000000600082015250565b7f4552433732313a20696e76616c696420746f6b656e2049440000000000000000600082015250565b7f5468652061756374696f6e20697320616c726561647920656e64656400000000600082015250565b7f4552433732313a20617070726f76616c20746f2063757272656e74206f776e6560008201527f7200000000000000000000000000000000000000000000000000000000000000602082015250565b7f4552433732313a20617070726f76652063616c6c6572206973206e6f7420746f60008201527f6b656e206f776e6572206f7220617070726f76656420666f7220616c6c000000602082015250565b7f4e6f20726566756e6420617661696c61626c6500000000000000000000000000600082015250565b6135bc81613004565b81146135c757600080fd5b50565b6135d381613028565b81146135de57600080fd5b50565b6135ea81613034565b81146135f557600080fd5b50565b61360181613080565b811461360c57600080fd5b5056fea264697066735822122097384287af2c94e215d469e70eee9a75d2d9f80a8a20ae3680a77eaed02fd08a64736f6c63430008040033","opcodes":"PUSH1 0x80 PUSH1 0x40 MSTORE CALLVALUE DUP1 ISZERO PUSH3 0x11 JUMPI PUSH1 0x0 DUP1 REVERT JUMPDEST POP PUSH1 0x40 MLOAD PUSH3 0x3D8E CODESIZE SUB DUP1 PUSH3 0x3D8E DUP4 CODECOPY DUP2 DUP2 ADD PUSH1 0x40 MSTORE DUP2 ADD SWAP1 PUSH3 0x37 SWAP2 SWAP1 PUSH3 0x3F0 JUMP JUMPDEST DUP6 DUP6 DUP2 PUSH1 0x0 SWAP1 DUP1 MLOAD SWAP1 PUSH1 0x20 ADD SWAP1 PUSH3 0x51 SWAP3 SWAP2 SWAP1 PUSH3 0x2B7 JUMP JUMPDEST POP DUP1 PUSH1 0x1 SWAP1 DUP1 MLOAD SWAP1 PUSH1 0x20 ADD SWAP1 PUSH3 0x6A SWAP3 SWAP2 SWAP1 PUSH3 0x2B7 JUMP JUMPDEST POP POP POP PUSH1 0x1 PUSH1 0x6 DUP2 SWAP1 SSTORE POP PUSH3 0x95 PUSH3 0x89 PUSH3 0x1E6 PUSH1 0x20 SHL PUSH1 0x20 SHR JUMP JUMPDEST PUSH3 0x1EE PUSH1 0x20 SHL PUSH1 0x20 SHR JUMP JUMPDEST PUSH3 0xB1 PUSH8 0x6FA93B11B334C404 PUSH1 0xC0 SHL PUSH3 0x2B4 PUSH1 0x20 SHL PUSH1 0x20 SHR JUMP JUMPDEST PUSH3 0xCD PUSH8 0xB42A32BE86CEB3D0 PUSH1 0xC0 SHL PUSH3 0x2B4 PUSH1 0x20 SHL PUSH1 0x20 SHR JUMP JUMPDEST DUP4 PUSH1 0x10 DUP2 SWAP1 SSTORE POP PUSH3 0xF0 PUSH8 0xBF77A7224D89AEDA PUSH1 0xC0 SHL PUSH3 0x2B4 PUSH1 0x20 SHL PUSH1 0x20 SHR JUMP JUMPDEST DUP3 PUSH1 0x8 DUP2 SWAP1 SSTORE POP PUSH3 0x113 PUSH8 0x403251871BB0CC9F PUSH1 0xC0 SHL PUSH3 0x2B4 PUSH1 0x20 SHL PUSH1 0x20 SHR JUMP JUMPDEST DUP2 PUSH1 0x9 DUP2 SWAP1 SSTORE POP PUSH3 0x136 PUSH8 0xBF10650275D72D0F PUSH1 0xC0 SHL PUSH3 0x2B4 PUSH1 0x20 SHL PUSH1 0x20 SHR JUMP JUMPDEST DUP1 PUSH1 0xA DUP2 SWAP1 SSTORE POP PUSH3 0x159 PUSH8 0x3A05918D177670A PUSH1 0xC0 SHL PUSH3 0x2B4 PUSH1 0x20 SHL PUSH1 0x20 SHR JUMP JUMPDEST PUSH1 0xA SLOAD PUSH1 0x9 SLOAD PUSH3 0x16B SWAP2 SWAP1 PUSH3 0x574 JUMP JUMPDEST PUSH1 0x8 SLOAD PUSH3 0x17A SWAP2 SWAP1 PUSH3 0x517 JUMP JUMPDEST PUSH1 0xB DUP2 SWAP1 SSTORE POP PUSH3 0x19C PUSH8 0x930A6EE0A32EA2F1 PUSH1 0xC0 SHL PUSH3 0x2B4 PUSH1 0x20 SHL PUSH1 0x20 SHR JUMP JUMPDEST NUMBER PUSH1 0xC DUP2 SWAP1 SSTORE POP PUSH3 0x1BF PUSH8 0x7100898F2625ABCF PUSH1 0xC0 SHL PUSH3 0x2B4 PUSH1 0x20 SHL PUSH1 0x20 SHR JUMP JUMPDEST PUSH1 0x0 PUSH1 0xD PUSH1 0x0 PUSH2 0x100 EXP DUP2 SLOAD DUP2 PUSH1 0xFF MUL NOT AND SWAP1 DUP4 ISZERO ISZERO MUL OR SWAP1 SSTORE POP POP POP POP POP POP POP PUSH3 0x739 JUMP JUMPDEST PUSH1 0x0 CALLER SWAP1 POP SWAP1 JUMP JUMPDEST PUSH1 0x0 PUSH1 0x7 PUSH1 0x0 SWAP1 SLOAD SWAP1 PUSH2 0x100 EXP SWAP1 DIV PUSH20 0xFFFFFFFFFFFFFFFFFFFFFFFFFFFFFFFFFFFFFFFF AND SWAP1 POP DUP2 PUSH1 0x7 PUSH1 0x0 PUSH2 0x100 EXP DUP2 SLOAD DUP2 PUSH20 0xFFFFFFFFFFFFFFFFFFFFFFFFFFFFFFFFFFFFFFFF MUL NOT AND SWAP1 DUP4 PUSH20 0xFFFFFFFFFFFFFFFFFFFFFFFFFFFFFFFFFFFFFFFF AND MUL OR SWAP1 SSTORE POP DUP2 PUSH20 0xFFFFFFFFFFFFFFFFFFFFFFFFFFFFFFFFFFFFFFFF AND DUP2 PUSH20 0xFFFFFFFFFFFFFFFFFFFFFFFFFFFFFFFFFFFFFFFF AND PUSH32 0x8BE0079C531659141344CD1FD0A4F28419497F9722A3DAAFE3B4186F6B6457E0 PUSH1 0x40 MLOAD PUSH1 0x40 MLOAD DUP1 SWAP2 SUB SWAP1 LOG3 POP POP JUMP JUMPDEST POP JUMP JUMPDEST DUP3 DUP1 SLOAD PUSH3 0x2C5 SWAP1 PUSH3 0x615 JUMP JUMPDEST SWAP1 PUSH1 0x0 MSTORE PUSH1 0x20 PUSH1 0x0 KECCAK256 SWAP1 PUSH1 0x1F ADD PUSH1 0x20 SWAP1 DIV DUP2 ADD SWAP3 DUP3 PUSH3 0x2E9 JUMPI PUSH1 0x0 DUP6 SSTORE PUSH3 0x335 JUMP JUMPDEST DUP3 PUSH1 0x1F LT PUSH3 0x304 JUMPI DUP1 MLOAD PUSH1 0xFF NOT AND DUP4 DUP1 ADD OR DUP6 SSTORE PUSH3 0x335 JUMP JUMPDEST DUP3 DUP1 ADD PUSH1 0x1 ADD DUP6 SSTORE DUP3 ISZERO PUSH3 0x335 JUMPI SWAP2 DUP3 ADD JUMPDEST DUP3 DUP2 GT ISZERO PUSH3 0x334 JUMPI DUP3 MLOAD DUP3 SSTORE SWAP2 PUSH1 0x20 ADD SWAP2 SWAP1 PUSH1 0x1 ADD SWAP1 PUSH3 0x317 JUMP JUMPDEST JUMPDEST POP SWAP1 POP PUSH3 0x344 SWAP2 SWAP1 PUSH3 0x348 JUMP JUMPDEST POP SWAP1 JUMP JUMPDEST JUMPDEST DUP1 DUP3 GT ISZERO PUSH3 0x363 JUMPI PUSH1 0x0 DUP2 PUSH1 0x0 SWAP1 SSTORE POP PUSH1 0x1 ADD PUSH3 0x349 JUMP JUMPDEST POP SWAP1 JUMP JUMPDEST PUSH1 0x0 PUSH3 0x37E PUSH3 0x378 DUP5 PUSH3 0x4E1 JUMP JUMPDEST PUSH3 0x4B8 JUMP JUMPDEST SWAP1 POP DUP3 DUP2 MSTORE PUSH1 0x20 DUP2 ADD DUP5 DUP5 DUP5 ADD GT ISZERO PUSH3 0x397 JUMPI PUSH1 0x0 DUP1 REVERT JUMPDEST PUSH3 0x3A4 DUP5 DUP3 DUP6 PUSH3 0x5DF JUMP JUMPDEST POP SWAP4 SWAP3 POP POP POP JUMP JUMPDEST PUSH1 0x0 DUP3 PUSH1 0x1F DUP4 ADD SLT PUSH3 0x3BE JUMPI PUSH1 0x0 DUP1 REVERT JUMPDEST DUP2 MLOAD PUSH3 0x3D0 DUP5 DUP3 PUSH1 0x20 DUP7 ADD PUSH3 0x367 JUMP JUMPDEST SWAP2 POP POP SWAP3 SWAP2 POP POP JUMP JUMPDEST PUSH1 0x0 DUP2 MLOAD SWAP1 POP PUSH3 0x3EA DUP2 PUSH3 0x71F JUMP JUMPDEST SWAP3 SWAP2 POP POP JUMP JUMPDEST PUSH1 0x0 DUP1 PUSH1 0x0 DUP1 PUSH1 0x0 DUP1 PUSH1 0xC0 DUP8 DUP10 SUB SLT ISZERO PUSH3 0x40A JUMPI PUSH1 0x0 DUP1 REVERT JUMPDEST PUSH1 0x0 DUP8 ADD MLOAD PUSH8 0xFFFFFFFFFFFFFFFF DUP2 GT ISZERO PUSH3 0x425 JUMPI PUSH1 0x0 DUP1 REVERT JUMPDEST PUSH3 0x433 DUP10 DUP3 DUP11 ADD PUSH3 0x3AC JUMP JUMPDEST SWAP7 POP POP PUSH1 0x20 DUP8 ADD MLOAD PUSH8 0xFFFFFFFFFFFFFFFF DUP2 GT ISZERO PUSH3 0x451 JUMPI PUSH1 0x0 DUP1 REVERT JUMPDEST PUSH3 0x45F DUP10 DUP3 DUP11 ADD PUSH3 0x3AC JUMP JUMPDEST SWAP6 POP POP PUSH1 0x40 PUSH3 0x472 DUP10 DUP3 DUP11 ADD PUSH3 0x3D9 JUMP JUMPDEST SWAP5 POP POP PUSH1 0x60 PUSH3 0x485 DUP10 DUP3 DUP11 ADD PUSH3 0x3D9 JUMP JUMPDEST SWAP4 POP POP PUSH1 0x80 PUSH3 0x498 DUP10 DUP3 DUP11 ADD PUSH3 0x3D9 JUMP JUMPDEST SWAP3 POP POP PUSH1 0xA0 PUSH3 0x4AB DUP10 DUP3 DUP11 ADD PUSH3 0x3D9 JUMP JUMPDEST SWAP2 POP POP SWAP3 SWAP6 POP SWAP3 SWAP6 POP SWAP3 SWAP6 JUMP JUMPDEST PUSH1 0x0 PUSH3 0x4C4 PUSH3 0x4D7 JUMP JUMPDEST SWAP1 POP PUSH3 0x4D2 DUP3 DUP3 PUSH3 0x64B JUMP JUMPDEST SWAP2 SWAP1 POP JUMP JUMPDEST PUSH1 0x0 PUSH1 0x40 MLOAD SWAP1 POP SWAP1 JUMP JUMPDEST PUSH1 0x0 PUSH8 0xFFFFFFFFFFFFFFFF DUP3 GT ISZERO PUSH3 0x4FF JUMPI PUSH3 0x4FE PUSH3 0x6DF JUMP JUMPDEST JUMPDEST PUSH3 0x50A DUP3 PUSH3 0x70E JUMP JUMPDEST SWAP1 POP PUSH1 0x20 DUP2 ADD SWAP1 POP SWAP2 SWAP1 POP JUMP JUMPDEST PUSH1 0x0 PUSH3 0x524 DUP3 PUSH3 0x5D5 JUMP JUMPDEST SWAP2 POP PUSH3 0x531 DUP4 PUSH3 0x5D5 JUMP JUMPDEST SWAP3 POP DUP3 PUSH32 0xFFFFFFFFFFFFFFFFFFFFFFFFFFFFFFFFFFFFFFFFFFFFFFFFFFFFFFFFFFFFFFFF SUB DUP3 GT ISZERO PUSH3 0x569 JUMPI PUSH3 0x568 PUSH3 0x681 JUMP JUMPDEST JUMPDEST DUP3 DUP3 ADD SWAP1 POP SWAP3 SWAP2 POP POP JUMP JUMPDEST PUSH1 0x0 PUSH3 0x581 DUP3 PUSH3 0x5D5 JUMP JUMPDEST SWAP2 POP PUSH3 0x58E DUP4 PUSH3 0x5D5 JUMP JUMPDEST SWAP3 POP DUP2 PUSH32 0xFFFFFFFFFFFFFFFFFFFFFFFFFFFFFFFFFFFFFFFFFFFFFFFFFFFFFFFFFFFFFFFF DIV DUP4 GT DUP3 ISZERO ISZERO AND ISZERO PUSH3 0x5CA JUMPI PUSH3 0x5C9 PUSH3 0x681 JUMP JUMPDEST JUMPDEST DUP3 DUP3 MUL SWAP1 POP SWAP3 SWAP2 POP POP JUMP JUMPDEST PUSH1 0x0 DUP2 SWAP1 POP SWAP2 SWAP1 POP JUMP JUMPDEST PUSH1 0x0 JUMPDEST DUP4 DUP2 LT ISZERO PUSH3 0x5FF JUMPI DUP1 DUP3 ADD MLOAD DUP2 DUP5 ADD MSTORE PUSH1 0x20 DUP2 ADD SWAP1 POP PUSH3 0x5E2 JUMP JUMPDEST DUP4 DUP2 GT ISZERO PUSH3 0x60F JUMPI PUSH1 0x0 DUP5 DUP5 ADD MSTORE JUMPDEST POP POP POP POP JUMP JUMPDEST PUSH1 0x0 PUSH1 0x2 DUP3 DIV SWAP1 POP PUSH1 0x1 DUP3 AND DUP1 PUSH3 0x62E JUMPI PUSH1 0x7F DUP3 AND SWAP2 POP JUMPDEST PUSH1 0x20 DUP3 LT DUP2 EQ ISZERO PUSH3 0x645 JUMPI PUSH3 0x644 PUSH3 0x6B0 JUMP JUMPDEST JUMPDEST POP SWAP2 SWAP1 POP JUMP JUMPDEST PUSH3 0x656 DUP3 PUSH3 0x70E JUMP JUMPDEST DUP2 ADD DUP2 DUP2 LT PUSH8 0xFFFFFFFFFFFFFFFF DUP3 GT OR ISZERO PUSH3 0x678 JUMPI PUSH3 0x677 PUSH3 0x6DF JUMP JUMPDEST JUMPDEST DUP1 PUSH1 0x40 MSTORE POP POP POP JUMP JUMPDEST PUSH32 0x4E487B7100000000000000000000000000000000000000000000000000000000 PUSH1 0x0 MSTORE PUSH1 0x11 PUSH1 0x4 MSTORE PUSH1 0x24 PUSH1 0x0 REVERT JUMPDEST PUSH32 0x4E487B7100000000000000000000000000000000000000000000000000000000 PUSH1 0x0 MSTORE PUSH1 0x22 PUSH1 0x4 MSTORE PUSH1 0x24 PUSH1 0x0 REVERT JUMPDEST PUSH32 0x4E487B7100000000000000000000000000000000000000000000000000000000 PUSH1 0x0 MSTORE PUSH1 0x41 PUSH1 0x4 MSTORE PUSH1 0x24 PUSH1 0x0 REVERT JUMPDEST PUSH1 0x0 PUSH1 0x1F NOT PUSH1 0x1F DUP4 ADD AND SWAP1 POP SWAP2 SWAP1 POP JUMP JUMPDEST PUSH3 0x72A DUP2 PUSH3 0x5D5 JUMP JUMPDEST DUP2 EQ PUSH3 0x736 JUMPI PUSH1 0x0 DUP1 REVERT JUMPDEST POP JUMP JUMPDEST PUSH2 0x3645 DUP1 PUSH3 0x749 PUSH1 0x0 CODECOPY PUSH1 0x0 RETURN INVALID PUSH1 0x80 PUSH1 0x40 MSTORE PUSH1 0x4 CALLDATASIZE LT PUSH2 0x1C2 JUMPI PUSH1 0x0 CALLDATALOAD PUSH1 0xE0 SHR DUP1 PUSH4 0x715018A6 GT PUSH2 0xF7 JUMPI DUP1 PUSH4 0xBC3DA535 GT PUSH2 0x95 JUMPI DUP1 PUSH4 0xDB2E1EED GT PUSH2 0x64 JUMPI DUP1 PUSH4 0xDB2E1EED EQ PUSH2 0x613 JUMPI DUP1 PUSH4 0xE985E9C5 EQ PUSH2 0x63E JUMPI DUP1 PUSH4 0xF2FDE38B EQ PUSH2 0x67B JUMPI DUP1 PUSH4 0xFE67A54B EQ PUSH2 0x6A4 JUMPI PUSH2 0x1C2 JUMP JUMPDEST DUP1 PUSH4 0xBC3DA535 EQ PUSH2 0x543 JUMPI DUP1 PUSH4 0xC87B56DD EQ PUSH2 0x580 JUMPI DUP1 PUSH4 0xD3642A88 EQ PUSH2 0x5BD JUMPI DUP1 PUSH4 0xD57BDE79 EQ PUSH2 0x5E8 JUMPI PUSH2 0x1C2 JUMP JUMPDEST DUP1 PUSH4 0x95D89B41 GT PUSH2 0xD1 JUMPI DUP1 PUSH4 0x95D89B41 EQ PUSH2 0x49B JUMPI DUP1 PUSH4 0x9D1B464A EQ PUSH2 0x4C6 JUMPI DUP1 PUSH4 0xA22CB465 EQ PUSH2 0x4F1 JUMPI DUP1 PUSH4 0xB88D4FDE EQ PUSH2 0x51A JUMPI PUSH2 0x1C2 JUMP JUMPDEST DUP1 PUSH4 0x715018A6 EQ PUSH2 0x42E JUMPI DUP1 PUSH4 0x8DA5CB5B EQ PUSH2 0x445 JUMPI DUP1 PUSH4 0x91F90157 EQ PUSH2 0x470 JUMPI PUSH2 0x1C2 JUMP JUMPDEST DUP1 PUSH4 0x23B872DD GT PUSH2 0x164 JUMPI DUP1 PUSH4 0x42842E0E GT PUSH2 0x13E JUMPI DUP1 PUSH4 0x42842E0E EQ PUSH2 0x360 JUMPI DUP1 PUSH4 0x48CD4CB1 EQ PUSH2 0x389 JUMPI DUP1 PUSH4 0x6352211E EQ PUSH2 0x3B4 JUMPI DUP1 PUSH4 0x70A08231 EQ PUSH2 0x3F1 JUMPI PUSH2 0x1C2 JUMP JUMPDEST DUP1 PUSH4 0x23B872DD EQ PUSH2 0x2F5 JUMPI DUP1 PUSH4 0x3103EA62 EQ PUSH2 0x31E JUMPI DUP1 PUSH4 0x3CCFD60B EQ PUSH2 0x349 JUMPI PUSH2 0x1C2 JUMP JUMPDEST DUP1 PUSH4 0x95EA7B3 GT PUSH2 0x1A0 JUMPI DUP1 PUSH4 0x95EA7B3 EQ PUSH2 0x26C JUMPI DUP1 PUSH4 0x12FA6FEB EQ PUSH2 0x295 JUMPI DUP1 PUSH4 0x1998AEEF EQ PUSH2 0x2C0 JUMPI DUP1 PUSH4 0x1D0806AE EQ PUSH2 0x2CA JUMPI PUSH2 0x1C2 JUMP JUMPDEST DUP1 PUSH4 0x1FFC9A7 EQ PUSH2 0x1C7 JUMPI DUP1 PUSH4 0x6FDDE03 EQ PUSH2 0x204 JUMPI DUP1 PUSH4 0x81812FC EQ PUSH2 0x22F JUMPI JUMPDEST PUSH1 0x0 DUP1 REVERT JUMPDEST CALLVALUE DUP1 ISZERO PUSH2 0x1D3 JUMPI PUSH1 0x0 DUP1 REVERT JUMPDEST POP PUSH2 0x1EE PUSH1 0x4 DUP1 CALLDATASIZE SUB DUP2 ADD SWAP1 PUSH2 0x1E9 SWAP2 SWAP1 PUSH2 0x27FF JUMP JUMPDEST PUSH2 0x6BB JUMP JUMPDEST PUSH1 0x40 MLOAD PUSH2 0x1FB SWAP2 SWAP1 PUSH2 0x2C2F JUMP JUMPDEST PUSH1 0x40 MLOAD DUP1 SWAP2 SUB SWAP1 RETURN JUMPDEST CALLVALUE DUP1 ISZERO PUSH2 0x210 JUMPI PUSH1 0x0 DUP1 REVERT JUMPDEST POP PUSH2 0x219 PUSH2 0x79D JUMP JUMPDEST PUSH1 0x40 MLOAD PUSH2 0x226 SWAP2 SWAP1 PUSH2 0x2C4A JUMP JUMPDEST PUSH1 0x40 MLOAD DUP1 SWAP2 SUB SWAP1 RETURN JUMPDEST CALLVALUE DUP1 ISZERO PUSH2 0x23B JUMPI PUSH1 0x0 DUP1 REVERT JUMPDEST POP PUSH2 0x256 PUSH1 0x4 DUP1 CALLDATASIZE SUB DUP2 ADD SWAP1 PUSH2 0x251 SWAP2 SWAP1 PUSH2 0x2851 JUMP JUMPDEST PUSH2 0x82F JUMP JUMPDEST PUSH1 0x40 MLOAD PUSH2 0x263 SWAP2 SWAP1 PUSH2 0x2BAD JUMP JUMPDEST PUSH1 0x40 MLOAD DUP1 SWAP2 SUB SWAP1 RETURN JUMPDEST CALLVALUE DUP1 ISZERO PUSH2 0x278 JUMPI PUSH1 0x0 DUP1 REVERT JUMPDEST POP PUSH2 0x293 PUSH1 0x4 DUP1 CALLDATASIZE SUB DUP2 ADD SWAP1 PUSH2 0x28E SWAP2 SWAP1 PUSH2 0x27C3 JUMP JUMPDEST PUSH2 0x875 JUMP JUMPDEST STOP JUMPDEST CALLVALUE DUP1 ISZERO PUSH2 0x2A1 JUMPI PUSH1 0x0 DUP1 REVERT JUMPDEST POP PUSH2 0x2AA PUSH2 0x98D JUMP JUMPDEST PUSH1 0x40 MLOAD PUSH2 0x2B7 SWAP2 SWAP1 PUSH2 0x2C2F JUMP JUMPDEST PUSH1 0x40 MLOAD DUP1 SWAP2 SUB SWAP1 RETURN JUMPDEST PUSH2 0x2C8 PUSH2 0x9A0 JUMP JUMPDEST STOP JUMPDEST CALLVALUE DUP1 ISZERO PUSH2 0x2D6 JUMPI PUSH1 0x0 DUP1 REVERT JUMPDEST POP PUSH2 0x2DF PUSH2 0xDAD JUMP JUMPDEST PUSH1 0x40 MLOAD PUSH2 0x2EC SWAP2 SWAP1 PUSH2 0x2E6C JUMP JUMPDEST PUSH1 0x40 MLOAD DUP1 SWAP2 SUB SWAP1 RETURN JUMPDEST CALLVALUE DUP1 ISZERO PUSH2 0x301 JUMPI PUSH1 0x0 DUP1 REVERT JUMPDEST POP PUSH2 0x31C PUSH1 0x4 DUP1 CALLDATASIZE SUB DUP2 ADD SWAP1 PUSH2 0x317 SWAP2 SWAP1 PUSH2 0x26BD JUMP JUMPDEST PUSH2 0xDB3 JUMP JUMPDEST STOP JUMPDEST CALLVALUE DUP1 ISZERO PUSH2 0x32A JUMPI PUSH1 0x0 DUP1 REVERT JUMPDEST POP PUSH2 0x333 PUSH2 0xE13 JUMP JUMPDEST PUSH1 0x40 MLOAD PUSH2 0x340 SWAP2 SWAP1 PUSH2 0x2E6C JUMP JUMPDEST PUSH1 0x40 MLOAD DUP1 SWAP2 SUB SWAP1 RETURN JUMPDEST CALLVALUE DUP1 ISZERO PUSH2 0x355 JUMPI PUSH1 0x0 DUP1 REVERT JUMPDEST POP PUSH2 0x35E PUSH2 0xE19 JUMP JUMPDEST STOP JUMPDEST CALLVALUE DUP1 ISZERO PUSH2 0x36C JUMPI PUSH1 0x0 DUP1 REVERT JUMPDEST POP PUSH2 0x387 PUSH1 0x4 DUP1 CALLDATASIZE SUB DUP2 ADD SWAP1 PUSH2 0x382 SWAP2 SWAP1 PUSH2 0x26BD JUMP JUMPDEST PUSH2 0xFF7 JUMP JUMPDEST STOP JUMPDEST CALLVALUE DUP1 ISZERO PUSH2 0x395 JUMPI PUSH1 0x0 DUP1 REVERT JUMPDEST POP PUSH2 0x39E PUSH2 0x1017 JUMP JUMPDEST PUSH1 0x40 MLOAD PUSH2 0x3AB SWAP2 SWAP1 PUSH2 0x2E6C JUMP JUMPDEST PUSH1 0x40 MLOAD DUP1 SWAP2 SUB SWAP1 RETURN JUMPDEST CALLVALUE DUP1 ISZERO PUSH2 0x3C0 JUMPI PUSH1 0x0 DUP1 REVERT JUMPDEST POP PUSH2 0x3DB PUSH1 0x4 DUP1 CALLDATASIZE SUB DUP2 ADD SWAP1 PUSH2 0x3D6 SWAP2 SWAP1 PUSH2 0x2851 JUMP JUMPDEST PUSH2 0x101D JUMP JUMPDEST PUSH1 0x40 MLOAD PUSH2 0x3E8 SWAP2 SWAP1 PUSH2 0x2BAD JUMP JUMPDEST PUSH1 0x40 MLOAD DUP1 SWAP2 SUB SWAP1 RETURN JUMPDEST CALLVALUE DUP1 ISZERO PUSH2 0x3FD JUMPI PUSH1 0x0 DUP1 REVERT JUMPDEST POP PUSH2 0x418 PUSH1 0x4 DUP1 CALLDATASIZE SUB DUP2 ADD SWAP1 PUSH2 0x413 SWAP2 SWAP1 PUSH2 0x2658 JUMP JUMPDEST PUSH2 0x10A4 JUMP JUMPDEST PUSH1 0x40 MLOAD PUSH2 0x425 SWAP2 SWAP1 PUSH2 0x2E6C JUMP JUMPDEST PUSH1 0x40 MLOAD DUP1 SWAP2 SUB SWAP1 RETURN JUMPDEST CALLVALUE DUP1 ISZERO PUSH2 0x43A JUMPI PUSH1 0x0 DUP1 REVERT JUMPDEST POP PUSH2 0x443 PUSH2 0x115C JUMP JUMPDEST STOP JUMPDEST CALLVALUE DUP1 ISZERO PUSH2 0x451 JUMPI PUSH1 0x0 DUP1 REVERT JUMPDEST POP PUSH2 0x45A PUSH2 0x1170 JUMP JUMPDEST PUSH1 0x40 MLOAD PUSH2 0x467 SWAP2 SWAP1 PUSH2 0x2BAD JUMP JUMPDEST PUSH1 0x40 MLOAD DUP1 SWAP2 SUB SWAP1 RETURN JUMPDEST CALLVALUE DUP1 ISZERO PUSH2 0x47C JUMPI PUSH1 0x0 DUP1 REVERT JUMPDEST POP PUSH2 0x485 PUSH2 0x119A JUMP JUMPDEST PUSH1 0x40 MLOAD PUSH2 0x492 SWAP2 SWAP1 PUSH2 0x2BC8 JUMP JUMPDEST PUSH1 0x40 MLOAD DUP1 SWAP2 SUB SWAP1 RETURN JUMPDEST CALLVALUE DUP1 ISZERO PUSH2 0x4A7 JUMPI PUSH1 0x0 DUP1 REVERT JUMPDEST POP PUSH2 0x4B0 PUSH2 0x11C0 JUMP JUMPDEST PUSH1 0x40 MLOAD PUSH2 0x4BD SWAP2 SWAP1 PUSH2 0x2C4A JUMP JUMPDEST PUSH1 0x40 MLOAD DUP1 SWAP2 SUB SWAP1 RETURN JUMPDEST CALLVALUE DUP1 ISZERO PUSH2 0x4D2 JUMPI PUSH1 0x0 DUP1 REVERT JUMPDEST POP PUSH2 0x4DB PUSH2 0x1252 JUMP JUMPDEST PUSH1 0x40 MLOAD PUSH2 0x4E8 SWAP2 SWAP1 PUSH2 0x2E6C JUMP JUMPDEST PUSH1 0x40 MLOAD DUP1 SWAP2 SUB SWAP1 RETURN JUMPDEST CALLVALUE DUP1 ISZERO PUSH2 0x4FD JUMPI PUSH1 0x0 DUP1 REVERT JUMPDEST POP PUSH2 0x518 PUSH1 0x4 DUP1 CALLDATASIZE SUB DUP2 ADD SWAP1 PUSH2 0x513 SWAP2 SWAP1 PUSH2 0x2787 JUMP JUMPDEST PUSH2 0x1378 JUMP JUMPDEST STOP JUMPDEST CALLVALUE DUP1 ISZERO PUSH2 0x526 JUMPI PUSH1 0x0 DUP1 REVERT JUMPDEST POP PUSH2 0x541 PUSH1 0x4 DUP1 CALLDATASIZE SUB DUP2 ADD SWAP1 PUSH2 0x53C SWAP2 SWAP1 PUSH2 0x270C JUMP JUMPDEST PUSH2 0x138E JUMP JUMPDEST STOP JUMPDEST CALLVALUE DUP1 ISZERO PUSH2 0x54F JUMPI PUSH1 0x0 DUP1 REVERT JUMPDEST POP PUSH2 0x56A PUSH1 0x4 DUP1 CALLDATASIZE SUB DUP2 ADD SWAP1 PUSH2 0x565 SWAP2 SWAP1 PUSH2 0x2658 JUMP JUMPDEST PUSH2 0x13F0 JUMP JUMPDEST PUSH1 0x40 MLOAD PUSH2 0x577 SWAP2 SWAP1 PUSH2 0x2E6C JUMP JUMPDEST PUSH1 0x40 MLOAD DUP1 SWAP2 SUB SWAP1 RETURN JUMPDEST CALLVALUE DUP1 ISZERO PUSH2 0x58C JUMPI PUSH1 0x0 DUP1 REVERT JUMPDEST POP PUSH2 0x5A7 PUSH1 0x4 DUP1 CALLDATASIZE SUB DUP2 ADD SWAP1 PUSH2 0x5A2 SWAP2 SWAP1 PUSH2 0x2851 JUMP JUMPDEST PUSH2 0x1408 JUMP JUMPDEST PUSH1 0x40 MLOAD PUSH2 0x5B4 SWAP2 SWAP1 PUSH2 0x2C4A JUMP JUMPDEST PUSH1 0x40 MLOAD DUP1 SWAP2 SUB SWAP1 RETURN JUMPDEST CALLVALUE DUP1 ISZERO PUSH2 0x5C9 JUMPI PUSH1 0x0 DUP1 REVERT JUMPDEST POP PUSH2 0x5D2 PUSH2 0x1470 JUMP JUMPDEST PUSH1 0x40 MLOAD PUSH2 0x5DF SWAP2 SWAP1 PUSH2 0x2E6C JUMP JUMPDEST PUSH1 0x40 MLOAD DUP1 SWAP2 SUB SWAP1 RETURN JUMPDEST CALLVALUE DUP1 ISZERO PUSH2 0x5F4 JUMPI PUSH1 0x0 DUP1 REVERT JUMPDEST POP PUSH2 0x5FD PUSH2 0x1476 JUMP JUMPDEST PUSH1 0x40 MLOAD PUSH2 0x60A SWAP2 SWAP1 PUSH2 0x2E6C JUMP JUMPDEST PUSH1 0x40 MLOAD DUP1 SWAP2 SUB SWAP1 RETURN JUMPDEST CALLVALUE DUP1 ISZERO PUSH2 0x61F JUMPI PUSH1 0x0 DUP1 REVERT JUMPDEST POP PUSH2 0x628 PUSH2 0x147C JUMP JUMPDEST PUSH1 0x40 MLOAD PUSH2 0x635 SWAP2 SWAP1 PUSH2 0x2E6C JUMP JUMPDEST PUSH1 0x40 MLOAD DUP1 SWAP2 SUB SWAP1 RETURN JUMPDEST CALLVALUE DUP1 ISZERO PUSH2 0x64A JUMPI PUSH1 0x0 DUP1 REVERT JUMPDEST POP PUSH2 0x665 PUSH1 0x4 DUP1 CALLDATASIZE SUB DUP2 ADD SWAP1 PUSH2 0x660 SWAP2 SWAP1 PUSH2 0x2681 JUMP JUMPDEST PUSH2 0x1482 JUMP JUMPDEST PUSH1 0x40 MLOAD PUSH2 0x672 SWAP2 SWAP1 PUSH2 0x2C2F JUMP JUMPDEST PUSH1 0x40 MLOAD DUP1 SWAP2 SUB SWAP1 RETURN JUMPDEST CALLVALUE DUP1 ISZERO PUSH2 0x687 JUMPI PUSH1 0x0 DUP1 REVERT JUMPDEST POP PUSH2 0x6A2 PUSH1 0x4 DUP1 CALLDATASIZE SUB DUP2 ADD SWAP1 PUSH2 0x69D SWAP2 SWAP1 PUSH2 0x2658 JUMP JUMPDEST PUSH2 0x1516 JUMP JUMPDEST STOP JUMPDEST CALLVALUE DUP1 ISZERO PUSH2 0x6B0 JUMPI PUSH1 0x0 DUP1 REVERT JUMPDEST POP PUSH2 0x6B9 PUSH2 0x159A JUMP JUMPDEST STOP JUMPDEST PUSH1 0x0 PUSH32 0x80AC58CD00000000000000000000000000000000000000000000000000000000 PUSH28 0xFFFFFFFFFFFFFFFFFFFFFFFFFFFFFFFFFFFFFFFFFFFFFFFFFFFFFFFF NOT AND DUP3 PUSH28 0xFFFFFFFFFFFFFFFFFFFFFFFFFFFFFFFFFFFFFFFFFFFFFFFFFFFFFFFF NOT AND EQ DUP1 PUSH2 0x786 JUMPI POP PUSH32 0x5B5E139F00000000000000000000000000000000000000000000000000000000 PUSH28 0xFFFFFFFFFFFFFFFFFFFFFFFFFFFFFFFFFFFFFFFFFFFFFFFFFFFFFFFF NOT AND DUP3 PUSH28 0xFFFFFFFFFFFFFFFFFFFFFFFFFFFFFFFFFFFFFFFFFFFFFFFFFFFFFFFF NOT AND EQ JUMPDEST DUP1 PUSH2 0x796 JUMPI POP PUSH2 0x795 DUP3 PUSH2 0x17BC JUMP JUMPDEST JUMPDEST SWAP1 POP SWAP2 SWAP1 POP JUMP JUMPDEST PUSH1 0x60 PUSH1 0x0 DUP1 SLOAD PUSH2 0x7AC SWAP1 PUSH2 0x30CC JUMP JUMPDEST DUP1 PUSH1 0x1F ADD PUSH1 0x20 DUP1 SWAP2 DIV MUL PUSH1 0x20 ADD PUSH1 0x40 MLOAD SWAP1 DUP2 ADD PUSH1 0x40 MSTORE DUP1 SWAP3 SWAP2 SWAP1 DUP2 DUP2 MSTORE PUSH1 0x20 ADD DUP3 DUP1 SLOAD PUSH2 0x7D8 SWAP1 PUSH2 0x30CC JUMP JUMPDEST DUP1 ISZERO PUSH2 0x825 JUMPI DUP1 PUSH1 0x1F LT PUSH2 0x7FA JUMPI PUSH2 0x100 DUP1 DUP4 SLOAD DIV MUL DUP4 MSTORE SWAP2 PUSH1 0x20 ADD SWAP2 PUSH2 0x825 JUMP JUMPDEST DUP3 ADD SWAP2 SWAP1 PUSH1 0x0 MSTORE PUSH1 0x20 PUSH1 0x0 KECCAK256 SWAP1 JUMPDEST DUP2 SLOAD DUP2 MSTORE SWAP1 PUSH1 0x1 ADD SWAP1 PUSH1 0x20 ADD DUP1 DUP4 GT PUSH2 0x808 JUMPI DUP3 SWAP1 SUB PUSH1 0x1F AND DUP3 ADD SWAP2 JUMPDEST POP POP POP POP POP SWAP1 POP SWAP1 JUMP JUMPDEST PUSH1 0x0 PUSH2 0x83A DUP3 PUSH2 0x1826 JUMP JUMPDEST PUSH1 0x4 PUSH1 0x0 DUP4 DUP2 MSTORE PUSH1 0x20 ADD SWAP1 DUP2 MSTORE PUSH1 0x20 ADD PUSH1 0x0 KECCAK256 PUSH1 0x0 SWAP1 SLOAD SWAP1 PUSH2 0x100 EXP SWAP1 DIV PUSH20 0xFFFFFFFFFFFFFFFFFFFFFFFFFFFFFFFFFFFFFFFF AND SWAP1 POP SWAP2 SWAP1 POP JUMP JUMPDEST PUSH1 0x0 PUSH2 0x880 DUP3 PUSH2 0x101D JUMP JUMPDEST SWAP1 POP DUP1 PUSH20 0xFFFFFFFFFFFFFFFFFFFFFFFFFFFFFFFFFFFFFFFF AND DUP4 PUSH20 0xFFFFFFFFFFFFFFFFFFFFFFFFFFFFFFFFFFFFFFFF AND EQ ISZERO PUSH2 0x8F1 JUMPI PUSH1 0x40 MLOAD PUSH32 0x8C379A000000000000000000000000000000000000000000000000000000000 DUP2 MSTORE PUSH1 0x4 ADD PUSH2 0x8E8 SWAP1 PUSH2 0x2E0C JUMP JUMPDEST PUSH1 0x40 MLOAD DUP1 SWAP2 SUB SWAP1 REVERT JUMPDEST DUP1 PUSH20 0xFFFFFFFFFFFFFFFFFFFFFFFFFFFFFFFFFFFFFFFF AND PUSH2 0x910 PUSH2 0x1871 JUMP JUMPDEST PUSH20 0xFFFFFFFFFFFFFFFFFFFFFFFFFFFFFFFFFFFFFFFF AND EQ DUP1 PUSH2 0x93F JUMPI POP PUSH2 0x93E DUP2 PUSH2 0x939 PUSH2 0x1871 JUMP JUMPDEST PUSH2 0x1482 JUMP JUMPDEST JUMPDEST PUSH2 0x97E JUMPI PUSH1 0x40 MLOAD PUSH32 0x8C379A000000000000000000000000000000000000000000000000000000000 DUP2 MSTORE PUSH1 0x4 ADD PUSH2 0x975 SWAP1 PUSH2 0x2E2C JUMP JUMPDEST PUSH1 0x40 MLOAD DUP1 SWAP2 SUB SWAP1 REVERT JUMPDEST PUSH2 0x988 DUP4 DUP4 PUSH2 0x1879 JUMP JUMPDEST POP POP POP JUMP JUMPDEST PUSH1 0xD PUSH1 0x0 SWAP1 SLOAD SWAP1 PUSH2 0x100 EXP SWAP1 DIV PUSH1 0xFF AND DUP2 JUMP JUMPDEST PUSH2 0x9B4 PUSH8 0x771586707458425E PUSH1 0xC0 SHL PUSH2 0x1932 JUMP JUMPDEST PUSH2 0x9C8 PUSH8 0x5F01B8F87AA1189C PUSH1 0xC0 SHL PUSH2 0x1932 JUMP JUMPDEST PUSH2 0x9DC PUSH8 0xA08058C22965828F PUSH1 0xC0 SHL PUSH2 0x1932 JUMP JUMPDEST PUSH2 0x9F0 PUSH8 0x525CF6EA3F45E203 PUSH1 0xC0 SHL PUSH2 0x1932 JUMP JUMPDEST PUSH1 0x9 SLOAD PUSH1 0xC SLOAD PUSH2 0xA00 SWAP2 SWAP1 PUSH2 0x2F20 JUMP JUMPDEST NUMBER GT ISZERO PUSH2 0xA42 JUMPI PUSH1 0x40 MLOAD PUSH32 0x8C379A000000000000000000000000000000000000000000000000000000000 DUP2 MSTORE PUSH1 0x4 ADD PUSH2 0xA39 SWAP1 PUSH2 0x2DAC JUMP JUMPDEST PUSH1 0x40 MLOAD DUP1 SWAP2 SUB SWAP1 REVERT JUMPDEST PUSH2 0xA56 PUSH8 0xE47F1FF549988A76 PUSH1 0xC0 SHL PUSH2 0x1932 JUMP JUMPDEST PUSH2 0xA6A PUSH8 0x942E6111E0B723A PUSH1 0xC0 SHL PUSH2 0x1932 JUMP JUMPDEST PUSH2 0xA7E PUSH8 0xA1CDA5B81B0864BA PUSH1 0xC0 SHL PUSH2 0x1932 JUMP JUMPDEST PUSH2 0xA92 PUSH8 0x515A3C81E2BDAA05 PUSH1 0xC0 SHL PUSH2 0x1932 JUMP JUMPDEST PUSH2 0xA9A PUSH2 0x1252 JUMP JUMPDEST CALLVALUE LT ISZERO PUSH2 0xADC JUMPI PUSH1 0x40 MLOAD PUSH32 0x8C379A000000000000000000000000000000000000000000000000000000000 DUP2 MSTORE PUSH1 0x4 ADD PUSH2 0xAD3 SWAP1 PUSH2 0x2D6C JUMP JUMPDEST PUSH1 0x40 MLOAD DUP1 SWAP2 SUB SWAP1 REVERT JUMPDEST PUSH2 0xAF0 PUSH8 0x8D46B756EAE27324 PUSH1 0xC0 SHL PUSH2 0x1932 JUMP JUMPDEST PUSH2 0xB04 PUSH8 0xF075F51F78B7DA82 PUSH1 0xC0 SHL PUSH2 0x1932 JUMP JUMPDEST PUSH2 0xB18 PUSH8 0x8EEA84A92210CCE4 PUSH1 0xC0 SHL PUSH2 0x1932 JUMP JUMPDEST PUSH1 0x0 PUSH20 0xFFFFFFFFFFFFFFFFFFFFFFFFFFFFFFFFFFFFFFFF AND PUSH1 0xD PUSH1 0x1 SWAP1 SLOAD SWAP1 PUSH2 0x100 EXP SWAP1 DIV PUSH20 0xFFFFFFFFFFFFFFFFFFFFFFFFFFFFFFFFFFFFFFFF AND PUSH20 0xFFFFFFFFFFFFFFFFFFFFFFFFFFFFFFFFFFFFFFFF AND EQ PUSH2 0xC15 JUMPI PUSH2 0xB82 PUSH8 0x720CD21BB8FF9639 PUSH1 0xC0 SHL PUSH2 0x1932 JUMP JUMPDEST PUSH2 0xB96 PUSH8 0x7F04BD53E9B638E3 PUSH1 0xC0 SHL PUSH2 0x1932 JUMP JUMPDEST PUSH1 0xE SLOAD PUSH1 0xF PUSH1 0x0 PUSH1 0xD PUSH1 0x1 SWAP1 SLOAD SWAP1 PUSH2 0x100 EXP SWAP1 DIV PUSH20 0xFFFFFFFFFFFFFFFFFFFFFFFFFFFFFFFFFFFFFFFF AND PUSH20 0xFFFFFFFFFFFFFFFFFFFFFFFFFFFFFFFFFFFFFFFF AND PUSH20 0xFFFFFFFFFFFFFFFFFFFFFFFFFFFFFFFFFFFFFFFF AND DUP2 MSTORE PUSH1 0x20 ADD SWAP1 DUP2 MSTORE PUSH1 0x20 ADD PUSH1 0x0 KECCAK256 PUSH1 0x0 DUP3 DUP3 SLOAD PUSH2 0xC09 SWAP2 SWAP1 PUSH2 0x2F20 JUMP JUMPDEST SWAP3 POP POP DUP2 SWAP1 SSTORE POP PUSH2 0xC2A JUMP JUMPDEST PUSH2 0xC29 PUSH8 0xC57521875FFF9A02 PUSH1 0xC0 SHL PUSH2 0x1932 JUMP JUMPDEST JUMPDEST PUSH2 0xC3E PUSH8 0x773DCE921BE017E8 PUSH1 0xC0 SHL PUSH2 0x1932 JUMP JUMPDEST CALLVALUE PUSH1 0xE DUP2 SWAP1 SSTORE POP PUSH2 0xC59 PUSH8 0xBA6C63D02B0F77F9 PUSH1 0xC0 SHL PUSH2 0x1932 JUMP JUMPDEST CALLER PUSH1 0xD PUSH1 0x1 PUSH2 0x100 EXP DUP2 SLOAD DUP2 PUSH20 0xFFFFFFFFFFFFFFFFFFFFFFFFFFFFFFFFFFFFFFFF MUL NOT AND SWAP1 DUP4 PUSH20 0xFFFFFFFFFFFFFFFFFFFFFFFFFFFFFFFFFFFFFFFF AND MUL OR SWAP1 SSTORE POP PUSH2 0xCAE PUSH8 0x6A5316CCA291E40E PUSH1 0xC0 SHL PUSH2 0x1932 JUMP JUMPDEST PUSH2 0xCC2 PUSH8 0x81F6B888B11E29FF PUSH1 0xC0 SHL PUSH2 0x1932 JUMP JUMPDEST PUSH1 0x9 SLOAD PUSH1 0xC SLOAD PUSH2 0xCD2 SWAP2 SWAP1 PUSH2 0x2F20 JUMP JUMPDEST NUMBER LT PUSH2 0xD96 JUMPI PUSH2 0xCEC PUSH8 0xAC890DF7E785623D PUSH1 0xC0 SHL PUSH2 0x1932 JUMP JUMPDEST PUSH2 0xD00 PUSH8 0x9A503B925826B980 PUSH1 0xC0 SHL PUSH2 0x1932 JUMP JUMPDEST PUSH1 0x1 PUSH1 0xD PUSH1 0x0 PUSH2 0x100 EXP DUP2 SLOAD DUP2 PUSH1 0xFF MUL NOT AND SWAP1 DUP4 ISZERO ISZERO MUL OR SWAP1 SSTORE POP PUSH2 0xD2F PUSH8 0xEE1E1790687D1528 PUSH1 0xC0 SHL PUSH2 0x1932 JUMP JUMPDEST PUSH2 0xD43 PUSH8 0x5FD8149B401055F9 PUSH1 0xC0 SHL PUSH2 0x1932 JUMP JUMPDEST PUSH2 0xD4B PUSH2 0x1170 JUMP JUMPDEST PUSH20 0xFFFFFFFFFFFFFFFFFFFFFFFFFFFFFFFFFFFFFFFF AND PUSH2 0x8FC CALLVALUE SWAP1 DUP2 ISZERO MUL SWAP1 PUSH1 0x40 MLOAD PUSH1 0x0 PUSH1 0x40 MLOAD DUP1 DUP4 SUB DUP2 DUP6 DUP9 DUP9 CALL SWAP4 POP POP POP POP ISZERO DUP1 ISZERO PUSH2 0xD90 JUMPI RETURNDATASIZE PUSH1 0x0 DUP1 RETURNDATACOPY RETURNDATASIZE PUSH1 0x0 REVERT JUMPDEST POP PUSH2 0xDAB JUMP JUMPDEST PUSH2 0xDAA PUSH8 0x1B6C3EC8E1FCFDD5 PUSH1 0xC0 SHL PUSH2 0x1932 JUMP JUMPDEST JUMPDEST JUMP JUMPDEST PUSH1 0xB SLOAD DUP2 JUMP JUMPDEST PUSH2 0xDC4 PUSH2 0xDBE PUSH2 0x1871 JUMP JUMPDEST DUP3 PUSH2 0x1935 JUMP JUMPDEST PUSH2 0xE03 JUMPI PUSH1 0x40 MLOAD PUSH32 0x8C379A000000000000000000000000000000000000000000000000000000000 DUP2 MSTORE PUSH1 0x4 ADD PUSH2 0xDFA SWAP1 PUSH2 0x2C8C JUMP JUMPDEST PUSH1 0x40 MLOAD DUP1 SWAP2 SUB SWAP1 REVERT JUMPDEST PUSH2 0xE0E DUP4 DUP4 DUP4 PUSH2 0x19CA JUMP JUMPDEST POP POP POP JUMP JUMPDEST PUSH1 0x9 SLOAD DUP2 JUMP JUMPDEST PUSH2 0xE2D PUSH8 0x658F2459AF952CB1 PUSH1 0xC0 SHL PUSH2 0x1932 JUMP JUMPDEST PUSH2 0xE41 PUSH8 0x8CB26AC94C254F4 PUSH1 0xC0 SHL PUSH2 0x1932 JUMP JUMPDEST PUSH2 0xE55 PUSH8 0xB046437C5CB49F4B PUSH1 0xC0 SHL PUSH2 0x1932 JUMP JUMPDEST PUSH1 0x0 PUSH1 0xF PUSH1 0x0 CALLER PUSH20 0xFFFFFFFFFFFFFFFFFFFFFFFFFFFFFFFFFFFFFFFF AND PUSH20 0xFFFFFFFFFFFFFFFFFFFFFFFFFFFFFFFFFFFFFFFF AND DUP2 MSTORE PUSH1 0x20 ADD SWAP1 DUP2 MSTORE PUSH1 0x20 ADD PUSH1 0x0 KECCAK256 SLOAD SWAP1 POP PUSH2 0xEAD PUSH8 0xF1DBFD3C41C0D9E2 PUSH1 0xC0 SHL PUSH2 0x1932 JUMP JUMPDEST PUSH2 0xEC1 PUSH8 0x63F3774B79F3D6C0 PUSH1 0xC0 SHL PUSH2 0x1932 JUMP JUMPDEST PUSH2 0xED5 PUSH8 0x2532490FE624BD11 PUSH1 0xC0 SHL PUSH2 0x1932 JUMP JUMPDEST PUSH1 0x0 DUP2 GT PUSH2 0xF18 JUMPI PUSH1 0x40 MLOAD PUSH32 0x8C379A000000000000000000000000000000000000000000000000000000000 DUP2 MSTORE PUSH1 0x4 ADD PUSH2 0xF0F SWAP1 PUSH2 0x2E4C JUMP JUMPDEST PUSH1 0x40 MLOAD DUP1 SWAP2 SUB SWAP1 REVERT JUMPDEST PUSH2 0xF2C PUSH8 0x7D6C6DAEB13D878E PUSH1 0xC0 SHL PUSH2 0x1932 JUMP JUMPDEST PUSH2 0xF40 PUSH8 0x47DB354ACE15A4CC PUSH1 0xC0 SHL PUSH2 0x1932 JUMP JUMPDEST PUSH1 0x0 PUSH1 0xF PUSH1 0x0 CALLER PUSH20 0xFFFFFFFFFFFFFFFFFFFFFFFFFFFFFFFFFFFFFFFF AND PUSH20 0xFFFFFFFFFFFFFFFFFFFFFFFFFFFFFFFFFFFFFFFF AND DUP2 MSTORE PUSH1 0x20 ADD SWAP1 DUP2 MSTORE PUSH1 0x20 ADD PUSH1 0x0 KECCAK256 DUP2 SWAP1 SSTORE POP PUSH2 0xF99 PUSH8 0xC846B23303905010 PUSH1 0xC0 SHL PUSH2 0x1932 JUMP JUMPDEST PUSH2 0xFAD PUSH8 0x8D84A86427F3E8C9 PUSH1 0xC0 SHL PUSH2 0x1932 JUMP JUMPDEST CALLER PUSH20 0xFFFFFFFFFFFFFFFFFFFFFFFFFFFFFFFFFFFFFFFF AND PUSH2 0x8FC DUP3 SWAP1 DUP2 ISZERO MUL SWAP1 PUSH1 0x40 MLOAD PUSH1 0x0 PUSH1 0x40 MLOAD DUP1 DUP4 SUB DUP2 DUP6 DUP9 DUP9 CALL SWAP4 POP POP POP POP ISZERO DUP1 ISZERO PUSH2 0xFF3 JUMPI RETURNDATASIZE PUSH1 0x0 DUP1 RETURNDATACOPY RETURNDATASIZE PUSH1 0x0 REVERT JUMPDEST POP POP JUMP JUMPDEST PUSH2 0x1012 DUP4 DUP4 DUP4 PUSH1 0x40 MLOAD DUP1 PUSH1 0x20 ADD PUSH1 0x40 MSTORE DUP1 PUSH1 0x0 DUP2 MSTORE POP PUSH2 0x138E JUMP JUMPDEST POP POP POP JUMP JUMPDEST PUSH1 0xC SLOAD DUP2 JUMP JUMPDEST PUSH1 0x0 DUP1 PUSH2 0x1029 DUP4 PUSH2 0x1CC4 JUMP JUMPDEST SWAP1 POP PUSH1 0x0 PUSH20 0xFFFFFFFFFFFFFFFFFFFFFFFFFFFFFFFFFFFFFFFF AND DUP2 PUSH20 0xFFFFFFFFFFFFFFFFFFFFFFFFFFFFFFFFFFFFFFFF AND EQ ISZERO PUSH2 0x109B JUMPI PUSH1 0x40 MLOAD PUSH32 0x8C379A000000000000000000000000000000000000000000000000000000000 DUP2 MSTORE PUSH1 0x4 ADD PUSH2 0x1092 SWAP1 PUSH2 0x2DCC JUMP JUMPDEST PUSH1 0x40 MLOAD DUP1 SWAP2 SUB SWAP1 REVERT JUMPDEST DUP1 SWAP2 POP POP SWAP2 SWAP1 POP JUMP JUMPDEST PUSH1 0x0 DUP1 PUSH20 0xFFFFFFFFFFFFFFFFFFFFFFFFFFFFFFFFFFFFFFFF AND DUP3 PUSH20 0xFFFFFFFFFFFFFFFFFFFFFFFFFFFFFFFFFFFFFFFF AND EQ ISZERO PUSH2 0x1115 JUMPI PUSH1 0x40 MLOAD PUSH32 0x8C379A000000000000000000000000000000000000000000000000000000000 DUP2 MSTORE PUSH1 0x4 ADD PUSH2 0x110C SWAP1 PUSH2 0x2D4C JUMP JUMPDEST PUSH1 0x40 MLOAD DUP1 SWAP2 SUB SWAP1 REVERT JUMPDEST PUSH1 0x3 PUSH1 0x0 DUP4 PUSH20 0xFFFFFFFFFFFFFFFFFFFFFFFFFFFFFFFFFFFFFFFF AND PUSH20 0xFFFFFFFFFFFFFFFFFFFFFFFFFFFFFFFFFFFFFFFF AND DUP2 MSTORE PUSH1 0x20 ADD SWAP1 DUP2 MSTORE PUSH1 0x20 ADD PUSH1 0x0 KECCAK256 SLOAD SWAP1 POP SWAP2 SWAP1 POP JUMP JUMPDEST PUSH2 0x1164 PUSH2 0x1D01 JUMP JUMPDEST PUSH2 0x116E PUSH1 0x0 PUSH2 0x1D7F JUMP JUMPDEST JUMP JUMPDEST PUSH1 0x0 PUSH1 0x7 PUSH1 0x0 SWAP1 SLOAD SWAP1 PUSH2 0x100 EXP SWAP1 DIV PUSH20 0xFFFFFFFFFFFFFFFFFFFFFFFFFFFFFFFFFFFFFFFF AND SWAP1 POP SWAP1 JUMP JUMPDEST PUSH1 0xD PUSH1 0x1 SWAP1 SLOAD SWAP1 PUSH2 0x100 EXP SWAP1 DIV PUSH20 0xFFFFFFFFFFFFFFFFFFFFFFFFFFFFFFFFFFFFFFFF AND DUP2 JUMP JUMPDEST PUSH1 0x60 PUSH1 0x1 DUP1 SLOAD PUSH2 0x11CF SWAP1 PUSH2 0x30CC JUMP JUMPDEST DUP1 PUSH1 0x1F ADD PUSH1 0x20 DUP1 SWAP2 DIV MUL PUSH1 0x20 ADD PUSH1 0x40 MLOAD SWAP1 DUP2 ADD PUSH1 0x40 MSTORE DUP1 SWAP3 SWAP2 SWAP1 DUP2 DUP2 MSTORE PUSH1 0x20 ADD DUP3 DUP1 SLOAD PUSH2 0x11FB SWAP1 PUSH2 0x30CC JUMP JUMPDEST DUP1 ISZERO PUSH2 0x1248 JUMPI DUP1 PUSH1 0x1F LT PUSH2 0x121D JUMPI PUSH2 0x100 DUP1 DUP4 SLOAD DIV MUL DUP4 MSTORE SWAP2 PUSH1 0x20 ADD SWAP2 PUSH2 0x1248 JUMP JUMPDEST DUP3 ADD SWAP2 SWAP1 PUSH1 0x0 MSTORE PUSH1 0x20 PUSH1 0x0 KECCAK256 SWAP1 JUMPDEST DUP2 SLOAD DUP2 MSTORE SWAP1 PUSH1 0x1 ADD SWAP1 PUSH1 0x20 ADD DUP1 DUP4 GT PUSH2 0x122B JUMPI DUP3 SWAP1 SUB PUSH1 0x1F AND DUP3 ADD SWAP2 JUMPDEST POP POP POP POP POP SWAP1 POP SWAP1 JUMP JUMPDEST PUSH1 0x0 PUSH2 0x1268 PUSH8 0xB29D9F84ACAC9B21 PUSH1 0xC0 SHL PUSH2 0x1932 JUMP JUMPDEST PUSH2 0x127C PUSH8 0xA32E82BA4AE9DAF8 PUSH1 0xC0 SHL PUSH2 0x1932 JUMP JUMPDEST PUSH2 0x1290 PUSH8 0x4E516B36D831F22F PUSH1 0xC0 SHL PUSH2 0x1932 JUMP JUMPDEST PUSH1 0x0 PUSH1 0xC SLOAD NUMBER PUSH2 0x12A0 SWAP2 SWAP1 PUSH2 0x2FD0 JUMP JUMPDEST SWAP1 POP PUSH2 0x12B6 PUSH8 0x7B34EC86B9F28993 PUSH1 0xC0 SHL PUSH2 0x1932 JUMP JUMPDEST PUSH2 0x12CA PUSH8 0xB647C95677B5656C PUSH1 0xC0 SHL PUSH2 0x1932 JUMP JUMPDEST PUSH1 0x9 SLOAD DUP2 LT PUSH2 0x131A JUMPI PUSH2 0x12E7 PUSH8 0xEE7A4D2E399FCACC PUSH1 0xC0 SHL PUSH2 0x1932 JUMP JUMPDEST PUSH2 0x12FB PUSH8 0x31E2C5CD4944D8DC PUSH1 0xC0 SHL PUSH2 0x1932 JUMP JUMPDEST PUSH2 0x130F PUSH8 0x1415B2FD91A7A2C0 PUSH1 0xC0 SHL PUSH2 0x1932 JUMP JUMPDEST PUSH1 0x8 SLOAD SWAP2 POP POP PUSH2 0x1375 JUMP JUMPDEST PUSH2 0x132E PUSH8 0x9F72E9B174C38B6C PUSH1 0xC0 SHL PUSH2 0x1932 JUMP JUMPDEST PUSH2 0x1342 PUSH8 0x2E9E64CFBD7559C PUSH1 0xC0 SHL PUSH2 0x1932 JUMP JUMPDEST PUSH2 0x1356 PUSH8 0x8E7B12ADDAD38045 PUSH1 0xC0 SHL PUSH2 0x1932 JUMP JUMPDEST PUSH1 0xA SLOAD DUP2 PUSH2 0x1364 SWAP2 SWAP1 PUSH2 0x2F76 JUMP JUMPDEST PUSH1 0xB SLOAD PUSH2 0x1371 SWAP2 SWAP1 PUSH2 0x2FD0 JUMP JUMPDEST SWAP2 POP POP JUMPDEST SWAP1 JUMP JUMPDEST PUSH2 0x138A PUSH2 0x1383 PUSH2 0x1871 JUMP JUMPDEST DUP4 DUP4 PUSH2 0x1E45 JUMP JUMPDEST POP POP JUMP JUMPDEST PUSH2 0x139F PUSH2 0x1399 PUSH2 0x1871 JUMP JUMPDEST DUP4 PUSH2 0x1935 JUMP JUMPDEST PUSH2 0x13DE JUMPI PUSH1 0x40 MLOAD PUSH32 0x8C379A000000000000000000000000000000000000000000000000000000000 DUP2 MSTORE PUSH1 0x4 ADD PUSH2 0x13D5 SWAP1 PUSH2 0x2C8C JUMP JUMPDEST PUSH1 0x40 MLOAD DUP1 SWAP2 SUB SWAP1 REVERT JUMPDEST PUSH2 0x13EA DUP5 DUP5 DUP5 DUP5 PUSH2 0x1FB2 JUMP JUMPDEST POP POP POP POP JUMP JUMPDEST PUSH1 0xF PUSH1 0x20 MSTORE DUP1 PUSH1 0x0 MSTORE PUSH1 0x40 PUSH1 0x0 KECCAK256 PUSH1 0x0 SWAP2 POP SWAP1 POP SLOAD DUP2 JUMP JUMPDEST PUSH1 0x60 PUSH2 0x1413 DUP3 PUSH2 0x1826 JUMP JUMPDEST PUSH1 0x0 PUSH2 0x141D PUSH2 0x200E JUMP JUMPDEST SWAP1 POP PUSH1 0x0 DUP2 MLOAD GT PUSH2 0x143D JUMPI PUSH1 0x40 MLOAD DUP1 PUSH1 0x20 ADD PUSH1 0x40 MSTORE DUP1 PUSH1 0x0 DUP2 MSTORE POP PUSH2 0x1468 JUMP JUMPDEST DUP1 PUSH2 0x1447 DUP5 PUSH2 0x2025 JUMP JUMPDEST PUSH1 0x40 MLOAD PUSH1 0x20 ADD PUSH2 0x1458 SWAP3 SWAP2 SWAP1 PUSH2 0x2B89 JUMP JUMPDEST PUSH1 0x40 MLOAD PUSH1 0x20 DUP2 DUP4 SUB SUB DUP2 MSTORE SWAP1 PUSH1 0x40 MSTORE JUMPDEST SWAP2 POP POP SWAP2 SWAP1 POP JUMP JUMPDEST PUSH1 0xA SLOAD DUP2 JUMP JUMPDEST PUSH1 0xE SLOAD DUP2 JUMP JUMPDEST PUSH1 0x8 SLOAD DUP2 JUMP JUMPDEST PUSH1 0x0 PUSH1 0x5 PUSH1 0x0 DUP5 PUSH20 0xFFFFFFFFFFFFFFFFFFFFFFFFFFFFFFFFFFFFFFFF AND PUSH20 0xFFFFFFFFFFFFFFFFFFFFFFFFFFFFFFFFFFFFFFFF AND DUP2 MSTORE PUSH1 0x20 ADD SWAP1 DUP2 MSTORE PUSH1 0x20 ADD PUSH1 0x0 KECCAK256 PUSH1 0x0 DUP4 PUSH20 0xFFFFFFFFFFFFFFFFFFFFFFFFFFFFFFFFFFFFFFFF AND PUSH20 0xFFFFFFFFFFFFFFFFFFFFFFFFFFFFFFFFFFFFFFFF AND DUP2 MSTORE PUSH1 0x20 ADD SWAP1 DUP2 MSTORE PUSH1 0x20 ADD PUSH1 0x0 KECCAK256 PUSH1 0x0 SWAP1 SLOAD SWAP1 PUSH2 0x100 EXP SWAP1 DIV PUSH1 0xFF AND SWAP1 POP SWAP3 SWAP2 POP POP JUMP JUMPDEST PUSH2 0x151E PUSH2 0x1D01 JUMP JUMPDEST PUSH1 0x0 PUSH20 0xFFFFFFFFFFFFFFFFFFFFFFFFFFFFFFFFFFFFFFFF AND DUP2 PUSH20 0xFFFFFFFFFFFFFFFFFFFFFFFFFFFFFFFFFFFFFFFF AND EQ ISZERO PUSH2 0x158E JUMPI PUSH1 0x40 MLOAD PUSH32 0x8C379A000000000000000000000000000000000000000000000000000000000 DUP2 MSTORE PUSH1 0x4 ADD PUSH2 0x1585 SWAP1 PUSH2 0x2CCC JUMP JUMPDEST PUSH1 0x40 MLOAD DUP1 SWAP2 SUB SWAP1 REVERT JUMPDEST PUSH2 0x1597 DUP2 PUSH2 0x1D7F JUMP JUMPDEST POP JUMP JUMPDEST PUSH2 0x15AE PUSH8 0x371B5B7BAC21CAF0 PUSH1 0xC0 SHL PUSH2 0x1932 JUMP JUMPDEST PUSH2 0x15C2 PUSH8 0x8A33D6A16B86A01D PUSH1 0xC0 SHL PUSH2 0x1932 JUMP JUMPDEST PUSH2 0x15D6 PUSH8 0xFC758D29B1927520 PUSH1 0xC0 SHL PUSH2 0x1932 JUMP JUMPDEST PUSH2 0x15EA PUSH8 0x9388582FC9B5D16A PUSH1 0xC0 SHL PUSH2 0x1932 JUMP JUMPDEST PUSH2 0x15F2 PUSH2 0x1170 JUMP JUMPDEST PUSH20 0xFFFFFFFFFFFFFFFFFFFFFFFFFFFFFFFFFFFFFFFF AND CALLER PUSH20 0xFFFFFFFFFFFFFFFFFFFFFFFFFFFFFFFFFFFFFFFF AND EQ PUSH2 0x165F JUMPI PUSH1 0x40 MLOAD PUSH32 0x8C379A000000000000000000000000000000000000000000000000000000000 DUP2 MSTORE PUSH1 0x4 ADD PUSH2 0x1656 SWAP1 PUSH2 0x2C6C JUMP JUMPDEST PUSH1 0x40 MLOAD DUP1 SWAP2 SUB SWAP1 REVERT JUMPDEST PUSH2 0x1673 PUSH8 0x2A4D734853E2DCC5 PUSH1 0xC0 SHL PUSH2 0x1932 JUMP JUMPDEST PUSH2 0x1687 PUSH8 0xCC8181709AB898BC PUSH1 0xC0 SHL PUSH2 0x1932 JUMP JUMPDEST PUSH2 0x169B PUSH8 0x4B7103EBCB29C4E1 PUSH1 0xC0 SHL PUSH2 0x1932 JUMP JUMPDEST PUSH2 0x16AF PUSH8 0xA464FF668119D778 PUSH1 0xC0 SHL PUSH2 0x1932 JUMP JUMPDEST PUSH1 0xD PUSH1 0x0 SWAP1 SLOAD SWAP1 PUSH2 0x100 EXP SWAP1 DIV PUSH1 0xFF AND ISZERO PUSH2 0x16FF JUMPI PUSH1 0x40 MLOAD PUSH32 0x8C379A000000000000000000000000000000000000000000000000000000000 DUP2 MSTORE PUSH1 0x4 ADD PUSH2 0x16F6 SWAP1 PUSH2 0x2DEC JUMP JUMPDEST PUSH1 0x40 MLOAD DUP1 SWAP2 SUB SWAP1 REVERT JUMPDEST PUSH2 0x1713 PUSH8 0x5C3CEB7DC2576762 PUSH1 0xC0 SHL PUSH2 0x1932 JUMP JUMPDEST PUSH2 0x1727 PUSH8 0x36E33C282C4982AD PUSH1 0xC0 SHL PUSH2 0x1932 JUMP JUMPDEST PUSH1 0x1 PUSH1 0xD PUSH1 0x0 PUSH2 0x100 EXP DUP2 SLOAD DUP2 PUSH1 0xFF MUL NOT AND SWAP1 DUP4 ISZERO ISZERO MUL OR SWAP1 SSTORE POP PUSH2 0x1756 PUSH8 0x9726717C7FE2A6DA PUSH1 0xC0 SHL PUSH2 0x1932 JUMP JUMPDEST PUSH2 0x176A PUSH8 0xC313030348B2BC4E PUSH1 0xC0 SHL PUSH2 0x1932 JUMP JUMPDEST PUSH2 0x1772 PUSH2 0x1170 JUMP JUMPDEST PUSH20 0xFFFFFFFFFFFFFFFFFFFFFFFFFFFFFFFFFFFFFFFF AND PUSH2 0x8FC PUSH1 0xE SLOAD SWAP1 DUP2 ISZERO MUL SWAP1 PUSH1 0x40 MLOAD PUSH1 0x0 PUSH1 0x40 MLOAD DUP1 DUP4 SUB DUP2 DUP6 DUP9 DUP9 CALL SWAP4 POP POP POP POP ISZERO DUP1 ISZERO PUSH2 0x17B9 JUMPI RETURNDATASIZE PUSH1 0x0 DUP1 RETURNDATACOPY RETURNDATASIZE PUSH1 0x0 REVERT JUMPDEST POP JUMP JUMPDEST PUSH1 0x0 PUSH32 0x1FFC9A700000000000000000000000000000000000000000000000000000000 PUSH28 0xFFFFFFFFFFFFFFFFFFFFFFFFFFFFFFFFFFFFFFFFFFFFFFFFFFFFFFFF NOT AND DUP3 PUSH28 0xFFFFFFFFFFFFFFFFFFFFFFFFFFFFFFFFFFFFFFFFFFFFFFFFFFFFFFFF NOT AND EQ SWAP1 POP SWAP2 SWAP1 POP JUMP JUMPDEST PUSH2 0x182F DUP2 PUSH2 0x2149 JUMP JUMPDEST PUSH2 0x186E JUMPI PUSH1 0x40 MLOAD PUSH32 0x8C379A000000000000000000000000000000000000000000000000000000000 DUP2 MSTORE PUSH1 0x4 ADD PUSH2 0x1865 SWAP1 PUSH2 0x2DCC JUMP JUMPDEST PUSH1 0x40 MLOAD DUP1 SWAP2 SUB SWAP1 REVERT JUMPDEST POP JUMP JUMPDEST PUSH1 0x0 CALLER SWAP1 POP SWAP1 JUMP JUMPDEST DUP2 PUSH1 0x4 PUSH1 0x0 DUP4 DUP2 MSTORE PUSH1 0x20 ADD SWAP1 DUP2 MSTORE PUSH1 0x20 ADD PUSH1 0x0 KECCAK256 PUSH1 0x0 PUSH2 0x100 EXP DUP2 SLOAD DUP2 PUSH20 0xFFFFFFFFFFFFFFFFFFFFFFFFFFFFFFFFFFFFFFFF MUL NOT AND SWAP1 DUP4 PUSH20 0xFFFFFFFFFFFFFFFFFFFFFFFFFFFFFFFFFFFFFFFF AND MUL OR SWAP1 SSTORE POP DUP1 DUP3 PUSH20 0xFFFFFFFFFFFFFFFFFFFFFFFFFFFFFFFFFFFFFFFF AND PUSH2 0x18EC DUP4 PUSH2 0x101D JUMP JUMPDEST PUSH20 0xFFFFFFFFFFFFFFFFFFFFFFFFFFFFFFFFFFFFFFFF AND PUSH32 0x8C5BE1E5EBEC7D5BD14F71427D1E84F3DD0314C0F7B2291E5B200AC8C7C3B925 PUSH1 0x40 MLOAD PUSH1 0x40 MLOAD DUP1 SWAP2 SUB SWAP1 LOG4 POP POP JUMP JUMPDEST POP JUMP JUMPDEST PUSH1 0x0 DUP1 PUSH2 0x1941 DUP4 PUSH2 0x101D JUMP JUMPDEST SWAP1 POP DUP1 PUSH20 0xFFFFFFFFFFFFFFFFFFFFFFFFFFFFFFFFFFFFFFFF AND DUP5 PUSH20 0xFFFFFFFFFFFFFFFFFFFFFFFFFFFFFFFFFFFFFFFF AND EQ DUP1 PUSH2 0x1983 JUMPI POP PUSH2 0x1982 DUP2 DUP6 PUSH2 0x1482 JUMP JUMPDEST JUMPDEST DUP1 PUSH2 0x19C1 JUMPI POP DUP4 PUSH20 0xFFFFFFFFFFFFFFFFFFFFFFFFFFFFFFFFFFFFFFFF AND PUSH2 0x19A9 DUP5 PUSH2 0x82F JUMP JUMPDEST PUSH20 0xFFFFFFFFFFFFFFFFFFFFFFFFFFFFFFFFFFFFFFFF AND EQ JUMPDEST SWAP2 POP POP SWAP3 SWAP2 POP POP JUMP JUMPDEST DUP3 PUSH20 0xFFFFFFFFFFFFFFFFFFFFFFFFFFFFFFFFFFFFFFFF AND PUSH2 0x19EA DUP3 PUSH2 0x101D JUMP JUMPDEST PUSH20 0xFFFFFFFFFFFFFFFFFFFFFFFFFFFFFFFFFFFFFFFF AND EQ PUSH2 0x1A40 JUMPI PUSH1 0x40 MLOAD PUSH32 0x8C379A000000000000000000000000000000000000000000000000000000000 DUP2 MSTORE PUSH1 0x4 ADD PUSH2 0x1A37 SWAP1 PUSH2 0x2CEC JUMP JUMPDEST PUSH1 0x40 MLOAD DUP1 SWAP2 SUB SWAP1 REVERT JUMPDEST PUSH1 0x0 PUSH20 0xFFFFFFFFFFFFFFFFFFFFFFFFFFFFFFFFFFFFFFFF AND DUP3 PUSH20 0xFFFFFFFFFFFFFFFFFFFFFFFFFFFFFFFFFFFFFFFF AND EQ ISZERO PUSH2 0x1AB0 JUMPI PUSH1 0x40 MLOAD PUSH32 0x8C379A000000000000000000000000000000000000000000000000000000000 DUP2 MSTORE PUSH1 0x4 ADD PUSH2 0x1AA7 SWAP1 PUSH2 0x2D0C JUMP JUMPDEST PUSH1 0x40 MLOAD DUP1 SWAP2 SUB SWAP1 REVERT JUMPDEST PUSH2 0x1ABD DUP4 DUP4 DUP4 PUSH1 0x1 PUSH2 0x218A JUMP JUMPDEST DUP3 PUSH20 0xFFFFFFFFFFFFFFFFFFFFFFFFFFFFFFFFFFFFFFFF AND PUSH2 0x1ADD DUP3 PUSH2 0x101D JUMP JUMPDEST PUSH20 0xFFFFFFFFFFFFFFFFFFFFFFFFFFFFFFFFFFFFFFFF AND EQ PUSH2 0x1B33 JUMPI PUSH1 0x40 MLOAD PUSH32 0x8C379A000000000000000000000000000000000000000000000000000000000 DUP2 MSTORE PUSH1 0x4 ADD PUSH2 0x1B2A SWAP1 PUSH2 0x2CEC JUMP JUMPDEST PUSH1 0x40 MLOAD DUP1 SWAP2 SUB SWAP1 REVERT JUMPDEST PUSH1 0x4 PUSH1 0x0 DUP3 DUP2 MSTORE PUSH1 0x20 ADD SWAP1 DUP2 MSTORE PUSH1 0x20 ADD PUSH1 0x0 KECCAK256 PUSH1 0x0 PUSH2 0x100 EXP DUP2 SLOAD SWAP1 PUSH20 0xFFFFFFFFFFFFFFFFFFFFFFFFFFFFFFFFFFFFFFFF MUL NOT AND SWAP1 SSTORE PUSH1 0x1 PUSH1 0x3 PUSH1 0x0 DUP6 PUSH20 0xFFFFFFFFFFFFFFFFFFFFFFFFFFFFFFFFFFFFFFFF AND PUSH20 0xFFFFFFFFFFFFFFFFFFFFFFFFFFFFFFFFFFFFFFFF AND DUP2 MSTORE PUSH1 0x20 ADD SWAP1 DUP2 MSTORE PUSH1 0x20 ADD PUSH1 0x0 KECCAK256 PUSH1 0x0 DUP3 DUP3 SLOAD SUB SWAP3 POP POP DUP2 SWAP1 SSTORE POP PUSH1 0x1 PUSH1 0x3 PUSH1 0x0 DUP5 PUSH20 0xFFFFFFFFFFFFFFFFFFFFFFFFFFFFFFFFFFFFFFFF AND PUSH20 0xFFFFFFFFFFFFFFFFFFFFFFFFFFFFFFFFFFFFFFFF AND DUP2 MSTORE PUSH1 0x20 ADD SWAP1 DUP2 MSTORE PUSH1 0x20 ADD PUSH1 0x0 KECCAK256 PUSH1 0x0 DUP3 DUP3 SLOAD ADD SWAP3 POP POP DUP2 SWAP1 SSTORE POP DUP2 PUSH1 0x2 PUSH1 0x0 DUP4 DUP2 MSTORE PUSH1 0x20 ADD SWAP1 DUP2 MSTORE PUSH1 0x20 ADD PUSH1 0x0 KECCAK256 PUSH1 0x0 PUSH2 0x100 EXP DUP2 SLOAD DUP2 PUSH20 0xFFFFFFFFFFFFFFFFFFFFFFFFFFFFFFFFFFFFFFFF MUL NOT AND SWAP1 DUP4 PUSH20 0xFFFFFFFFFFFFFFFFFFFFFFFFFFFFFFFFFFFFFFFF AND MUL OR SWAP1 SSTORE POP DUP1 DUP3 PUSH20 0xFFFFFFFFFFFFFFFFFFFFFFFFFFFFFFFFFFFFFFFF AND DUP5 PUSH20 0xFFFFFFFFFFFFFFFFFFFFFFFFFFFFFFFFFFFFFFFF AND PUSH32 0xDDF252AD1BE2C89B69C2B068FC378DAA952BA7F163C4A11628F55A4DF523B3EF PUSH1 0x40 MLOAD PUSH1 0x40 MLOAD DUP1 SWAP2 SUB SWAP1 LOG4 PUSH2 0x1CBF DUP4 DUP4 DUP4 PUSH1 0x1 PUSH2 0x2190 JUMP JUMPDEST POP POP POP JUMP JUMPDEST PUSH1 0x0 PUSH1 0x2 PUSH1 0x0 DUP4 DUP2 MSTORE PUSH1 0x20 ADD SWAP1 DUP2 MSTORE PUSH1 0x20 ADD PUSH1 0x0 KECCAK256 PUSH1 0x0 SWAP1 SLOAD SWAP1 PUSH2 0x100 EXP SWAP1 DIV PUSH20 0xFFFFFFFFFFFFFFFFFFFFFFFFFFFFFFFFFFFFFFFF AND SWAP1 POP SWAP2 SWAP1 POP JUMP JUMPDEST PUSH2 0x1D09 PUSH2 0x1871 JUMP JUMPDEST PUSH20 0xFFFFFFFFFFFFFFFFFFFFFFFFFFFFFFFFFFFFFFFF AND PUSH2 0x1D27 PUSH2 0x1170 JUMP JUMPDEST PUSH20 0xFFFFFFFFFFFFFFFFFFFFFFFFFFFFFFFFFFFFFFFF AND EQ PUSH2 0x1D7D JUMPI PUSH1 0x40 MLOAD PUSH32 0x8C379A000000000000000000000000000000000000000000000000000000000 DUP2 MSTORE PUSH1 0x4 ADD PUSH2 0x1D74 SWAP1 PUSH2 0x2D8C JUMP JUMPDEST PUSH1 0x40 MLOAD DUP1 SWAP2 SUB SWAP1 REVERT JUMPDEST JUMP JUMPDEST PUSH1 0x0 PUSH1 0x7 PUSH1 0x0 SWAP1 SLOAD SWAP1 PUSH2 0x100 EXP SWAP1 DIV PUSH20 0xFFFFFFFFFFFFFFFFFFFFFFFFFFFFFFFFFFFFFFFF AND SWAP1 POP DUP2 PUSH1 0x7 PUSH1 0x0 PUSH2 0x100 EXP DUP2 SLOAD DUP2 PUSH20 0xFFFFFFFFFFFFFFFFFFFFFFFFFFFFFFFFFFFFFFFF MUL NOT AND SWAP1 DUP4 PUSH20 0xFFFFFFFFFFFFFFFFFFFFFFFFFFFFFFFFFFFFFFFF AND MUL OR SWAP1 SSTORE POP DUP2 PUSH20 0xFFFFFFFFFFFFFFFFFFFFFFFFFFFFFFFFFFFFFFFF AND DUP2 PUSH20 0xFFFFFFFFFFFFFFFFFFFFFFFFFFFFFFFFFFFFFFFF AND PUSH32 0x8BE0079C531659141344CD1FD0A4F28419497F9722A3DAAFE3B4186F6B6457E0 PUSH1 0x40 MLOAD PUSH1 0x40 MLOAD DUP1 SWAP2 SUB SWAP1 LOG3 POP POP JUMP JUMPDEST DUP2 PUSH20 0xFFFFFFFFFFFFFFFFFFFFFFFFFFFFFFFFFFFFFFFF AND DUP4 PUSH20 0xFFFFFFFFFFFFFFFFFFFFFFFFFFFFFFFFFFFFFFFF AND EQ ISZERO PUSH2 0x1EB4 JUMPI PUSH1 0x40 MLOAD PUSH32 0x8C379A000000000000000000000000000000000000000000000000000000000 DUP2 MSTORE PUSH1 0x4 ADD PUSH2 0x1EAB SWAP1 PUSH2 0x2D2C JUMP JUMPDEST PUSH1 0x40 MLOAD DUP1 SWAP2 SUB SWAP1 REVERT JUMPDEST DUP1 PUSH1 0x5 PUSH1 0x0 DUP6 PUSH20 0xFFFFFFFFFFFFFFFFFFFFFFFFFFFFFFFFFFFFFFFF AND PUSH20 0xFFFFFFFFFFFFFFFFFFFFFFFFFFFFFFFFFFFFFFFF AND DUP2 MSTORE PUSH1 0x20 ADD SWAP1 DUP2 MSTORE PUSH1 0x20 ADD PUSH1 0x0 KECCAK256 PUSH1 0x0 DUP5 PUSH20 0xFFFFFFFFFFFFFFFFFFFFFFFFFFFFFFFFFFFFFFFF AND PUSH20 0xFFFFFFFFFFFFFFFFFFFFFFFFFFFFFFFFFFFFFFFF AND DUP2 MSTORE PUSH1 0x20 ADD SWAP1 DUP2 MSTORE PUSH1 0x20 ADD PUSH1 0x0 KECCAK256 PUSH1 0x0 PUSH2 0x100 EXP DUP2 SLOAD DUP2 PUSH1 0xFF MUL NOT AND SWAP1 DUP4 ISZERO ISZERO MUL OR SWAP1 SSTORE POP DUP2 PUSH20 0xFFFFFFFFFFFFFFFFFFFFFFFFFFFFFFFFFFFFFFFF AND DUP4 PUSH20 0xFFFFFFFFFFFFFFFFFFFFFFFFFFFFFFFFFFFFFFFF AND PUSH32 0x17307EAB39AB6107E8899845AD3D59BD9653F200F220920489CA2B5937696C31 DUP4 PUSH1 0x40 MLOAD PUSH2 0x1FA5 SWAP2 SWAP1 PUSH2 0x2C2F JUMP JUMPDEST PUSH1 0x40 MLOAD DUP1 SWAP2 SUB SWAP1 LOG3 POP POP POP JUMP JUMPDEST PUSH2 0x1FBD DUP5 DUP5 DUP5 PUSH2 0x19CA JUMP JUMPDEST PUSH2 0x1FC9 DUP5 DUP5 DUP5 DUP5 PUSH2 0x2196 JUMP JUMPDEST PUSH2 0x2008 JUMPI PUSH1 0x40 MLOAD PUSH32 0x8C379A000000000000000000000000000000000000000000000000000000000 DUP2 MSTORE PUSH1 0x4 ADD PUSH2 0x1FFF SWAP1 PUSH2 0x2CAC JUMP JUMPDEST PUSH1 0x40 MLOAD DUP1 SWAP2 SUB SWAP1 REVERT JUMPDEST POP POP POP POP JUMP JUMPDEST PUSH1 0x60 PUSH1 0x40 MLOAD DUP1 PUSH1 0x20 ADD PUSH1 0x40 MSTORE DUP1 PUSH1 0x0 DUP2 MSTORE POP SWAP1 POP SWAP1 JUMP JUMPDEST PUSH1 0x60 PUSH1 0x0 PUSH1 0x1 PUSH2 0x2034 DUP5 PUSH2 0x232D JUMP JUMPDEST ADD SWAP1 POP PUSH1 0x0 DUP2 PUSH8 0xFFFFFFFFFFFFFFFF DUP2 GT ISZERO PUSH2 0x2079 JUMPI PUSH32 0x4E487B7100000000000000000000000000000000000000000000000000000000 PUSH1 0x0 MSTORE PUSH1 0x41 PUSH1 0x4 MSTORE PUSH1 0x24 PUSH1 0x0 REVERT JUMPDEST PUSH1 0x40 MLOAD SWAP1 DUP1 DUP3 MSTORE DUP1 PUSH1 0x1F ADD PUSH1 0x1F NOT AND PUSH1 0x20 ADD DUP3 ADD PUSH1 0x40 MSTORE DUP1 ISZERO PUSH2 0x20AB JUMPI DUP2 PUSH1 0x20 ADD PUSH1 0x1 DUP3 MUL DUP1 CALLDATASIZE DUP4 CALLDATACOPY DUP1 DUP3 ADD SWAP2 POP POP SWAP1 POP JUMPDEST POP SWAP1 POP PUSH1 0x0 DUP3 PUSH1 0x20 ADD DUP3 ADD SWAP1 POP JUMPDEST PUSH1 0x1 ISZERO PUSH2 0x213E JUMPI DUP1 DUP1 PUSH1 0x1 SWAP1 SUB SWAP2 POP POP PUSH32 0x3031323334353637383961626364656600000000000000000000000000000000 PUSH1 0xA DUP7 MOD BYTE DUP2 MSTORE8 PUSH1 0xA DUP6 DUP2 PUSH2 0x2128 JUMPI PUSH32 0x4E487B7100000000000000000000000000000000000000000000000000000000 PUSH1 0x0 MSTORE PUSH1 0x12 PUSH1 0x4 MSTORE PUSH1 0x24 PUSH1 0x0 REVERT JUMPDEST DIV SWAP5 POP PUSH1 0x0 DUP6 EQ ISZERO PUSH2 0x2139 JUMPI PUSH2 0x213E JUMP JUMPDEST PUSH2 0x20B9 JUMP JUMPDEST DUP2 SWAP4 POP POP POP POP SWAP2 SWAP1 POP JUMP JUMPDEST PUSH1 0x0 DUP1 PUSH20 0xFFFFFFFFFFFFFFFFFFFFFFFFFFFFFFFFFFFFFFFF AND PUSH2 0x216B DUP4 PUSH2 0x1CC4 JUMP JUMPDEST PUSH20 0xFFFFFFFFFFFFFFFFFFFFFFFFFFFFFFFFFFFFFFFF AND EQ ISZERO SWAP1 POP SWAP2 SWAP1 POP JUMP JUMPDEST POP POP POP POP JUMP JUMPDEST POP POP POP POP JUMP JUMPDEST PUSH1 0x0 PUSH2 0x21B7 DUP5 PUSH20 0xFFFFFFFFFFFFFFFFFFFFFFFFFFFFFFFFFFFFFFFF AND PUSH2 0x2564 JUMP JUMPDEST ISZERO PUSH2 0x2320 JUMPI DUP4 PUSH20 0xFFFFFFFFFFFFFFFFFFFFFFFFFFFFFFFFFFFFFFFF AND PUSH4 0x150B7A02 PUSH2 0x21E0 PUSH2 0x1871 JUMP JUMPDEST DUP8 DUP7 DUP7 PUSH1 0x40 MLOAD DUP6 PUSH4 0xFFFFFFFF AND PUSH1 0xE0 SHL DUP2 MSTORE PUSH1 0x4 ADD PUSH2 0x2202 SWAP5 SWAP4 SWAP3 SWAP2 SWAP1 PUSH2 0x2BE3 JUMP JUMPDEST PUSH1 0x20 PUSH1 0x40 MLOAD DUP1 DUP4 SUB DUP2 PUSH1 0x0 DUP8 DUP1 EXTCODESIZE ISZERO DUP1 ISZERO PUSH2 0x221C JUMPI PUSH1 0x0 DUP1 REVERT JUMPDEST POP GAS CALL SWAP3 POP POP POP DUP1 ISZERO PUSH2 0x224D JUMPI POP PUSH1 0x40 MLOAD RETURNDATASIZE PUSH1 0x1F NOT PUSH1 0x1F DUP3 ADD AND DUP3 ADD DUP1 PUSH1 0x40 MSTORE POP DUP2 ADD SWAP1 PUSH2 0x224A SWAP2 SWAP1 PUSH2 0x2828 JUMP JUMPDEST PUSH1 0x1 JUMPDEST PUSH2 0x22D0 JUMPI RETURNDATASIZE DUP1 PUSH1 0x0 DUP2 EQ PUSH2 0x227D JUMPI PUSH1 0x40 MLOAD SWAP2 POP PUSH1 0x1F NOT PUSH1 0x3F RETURNDATASIZE ADD AND DUP3 ADD PUSH1 0x40 MSTORE RETURNDATASIZE DUP3 MSTORE RETURNDATASIZE PUSH1 0x0 PUSH1 0x20 DUP5 ADD RETURNDATACOPY PUSH2 0x2282 JUMP JUMPDEST PUSH1 0x60 SWAP2 POP JUMPDEST POP PUSH1 0x0 DUP2 MLOAD EQ ISZERO PUSH2 0x22C8 JUMPI PUSH1 0x40 MLOAD PUSH32 0x8C379A000000000000000000000000000000000000000000000000000000000 DUP2 MSTORE PUSH1 0x4 ADD PUSH2 0x22BF SWAP1 PUSH2 0x2CAC JUMP JUMPDEST PUSH1 0x40 MLOAD DUP1 SWAP2 SUB SWAP1 REVERT JUMPDEST DUP1 MLOAD DUP2 PUSH1 0x20 ADD REVERT JUMPDEST PUSH4 0x150B7A02 PUSH1 0xE0 SHL PUSH28 0xFFFFFFFFFFFFFFFFFFFFFFFFFFFFFFFFFFFFFFFFFFFFFFFFFFFFFFFF NOT AND DUP2 PUSH28 0xFFFFFFFFFFFFFFFFFFFFFFFFFFFFFFFFFFFFFFFFFFFFFFFFFFFFFFFF NOT AND EQ SWAP2 POP POP PUSH2 0x2325 JUMP JUMPDEST PUSH1 0x1 SWAP1 POP JUMPDEST SWAP5 SWAP4 POP POP POP POP JUMP JUMPDEST PUSH1 0x0 DUP1 PUSH1 0x0 SWAP1 POP PUSH27 0x184F03E93FF9F4DAA797ED6E38ED64BF6A1F010000000000000000 DUP4 LT PUSH2 0x23B1 JUMPI PUSH27 0x184F03E93FF9F4DAA797ED6E38ED64BF6A1F010000000000000000 DUP4 DUP2 PUSH2 0x23A7 JUMPI PUSH32 0x4E487B7100000000000000000000000000000000000000000000000000000000 PUSH1 0x0 MSTORE PUSH1 0x12 PUSH1 0x4 MSTORE PUSH1 0x24 PUSH1 0x0 REVERT JUMPDEST DIV SWAP3 POP PUSH1 0x40 DUP2 ADD SWAP1 POP JUMPDEST PUSH14 0x4EE2D6D415B85ACEF8100000000 DUP4 LT PUSH2 0x2414 JUMPI PUSH14 0x4EE2D6D415B85ACEF8100000000 DUP4 DUP2 PUSH2 0x240A JUMPI PUSH32 0x4E487B7100000000000000000000000000000000000000000000000000000000 PUSH1 0x0 MSTORE PUSH1 0x12 PUSH1 0x4 MSTORE PUSH1 0x24 PUSH1 0x0 REVERT JUMPDEST DIV SWAP3 POP PUSH1 0x20 DUP2 ADD SWAP1 POP JUMPDEST PUSH7 0x2386F26FC10000 DUP4 LT PUSH2 0x2469 JUMPI PUSH7 0x2386F26FC10000 DUP4 DUP2 PUSH2 0x245F JUMPI PUSH32 0x4E487B7100000000000000000000000000000000000000000000000000000000 PUSH1 0x0 MSTORE PUSH1 0x12 PUSH1 0x4 MSTORE PUSH1 0x24 PUSH1 0x0 REVERT JUMPDEST DIV SWAP3 POP PUSH1 0x10 DUP2 ADD SWAP1 POP JUMPDEST PUSH4 0x5F5E100 DUP4 LT PUSH2 0x24B8 JUMPI PUSH4 0x5F5E100 DUP4 DUP2 PUSH2 0x24AE JUMPI PUSH32 0x4E487B7100000000000000000000000000000000000000000000000000000000 PUSH1 0x0 MSTORE PUSH1 0x12 PUSH1 0x4 MSTORE PUSH1 0x24 PUSH1 0x0 REVERT JUMPDEST DIV SWAP3 POP PUSH1 0x8 DUP2 ADD SWAP1 POP JUMPDEST PUSH2 0x2710 DUP4 LT PUSH2 0x2503 JUMPI PUSH2 0x2710 DUP4 DUP2 PUSH2 0x24F9 JUMPI PUSH32 0x4E487B7100000000000000000000000000000000000000000000000000000000 PUSH1 0x0 MSTORE PUSH1 0x12 PUSH1 0x4 MSTORE PUSH1 0x24 PUSH1 0x0 REVERT JUMPDEST DIV SWAP3 POP PUSH1 0x4 DUP2 ADD SWAP1 POP JUMPDEST PUSH1 0x64 DUP4 LT PUSH2 0x254C JUMPI PUSH1 0x64 DUP4 DUP2 PUSH2 0x2542 JUMPI PUSH32 0x4E487B7100000000000000000000000000000000000000000000000000000000 PUSH1 0x0 MSTORE PUSH1 0x12 PUSH1 0x4 MSTORE PUSH1 0x24 PUSH1 0x0 REVERT JUMPDEST DIV SWAP3 POP PUSH1 0x2 DUP2 ADD SWAP1 POP JUMPDEST PUSH1 0xA DUP4 LT PUSH2 0x255B JUMPI PUSH1 0x1 DUP2 ADD SWAP1 POP JUMPDEST DUP1 SWAP2 POP POP SWAP2 SWAP1 POP JUMP JUMPDEST PUSH1 0x0 DUP1 DUP3 PUSH20 0xFFFFFFFFFFFFFFFFFFFFFFFFFFFFFFFFFFFFFFFF AND EXTCODESIZE GT SWAP1 POP SWAP2 SWAP1 POP JUMP JUMPDEST PUSH1 0x0 PUSH2 0x259A PUSH2 0x2595 DUP5 PUSH2 0x2EAC JUMP JUMPDEST PUSH2 0x2E87 JUMP JUMPDEST SWAP1 POP DUP3 DUP2 MSTORE PUSH1 0x20 DUP2 ADD DUP5 DUP5 DUP5 ADD GT ISZERO PUSH2 0x25B2 JUMPI PUSH1 0x0 DUP1 REVERT JUMPDEST PUSH2 0x25BD DUP5 DUP3 DUP6 PUSH2 0x308A JUMP JUMPDEST POP SWAP4 SWAP3 POP POP POP JUMP JUMPDEST PUSH1 0x0 DUP2 CALLDATALOAD SWAP1 POP PUSH2 0x25D4 DUP2 PUSH2 0x35B3 JUMP JUMPDEST SWAP3 SWAP2 POP POP JUMP JUMPDEST PUSH1 0x0 DUP2 CALLDATALOAD SWAP1 POP PUSH2 0x25E9 DUP2 PUSH2 0x35CA JUMP JUMPDEST SWAP3 SWAP2 POP POP JUMP JUMPDEST PUSH1 0x0 DUP2 CALLDATALOAD SWAP1 POP PUSH2 0x25FE DUP2 PUSH2 0x35E1 JUMP JUMPDEST SWAP3 SWAP2 POP POP JUMP JUMPDEST PUSH1 0x0 DUP2 MLOAD SWAP1 POP PUSH2 0x2613 DUP2 PUSH2 0x35E1 JUMP JUMPDEST SWAP3 SWAP2 POP POP JUMP JUMPDEST PUSH1 0x0 DUP3 PUSH1 0x1F DUP4 ADD SLT PUSH2 0x262A JUMPI PUSH1 0x0 DUP1 REVERT JUMPDEST DUP2 CALLDATALOAD PUSH2 0x263A DUP5 DUP3 PUSH1 0x20 DUP7 ADD PUSH2 0x2587 JUMP JUMPDEST SWAP2 POP POP SWAP3 SWAP2 POP POP JUMP JUMPDEST PUSH1 0x0 DUP2 CALLDATALOAD SWAP1 POP PUSH2 0x2652 DUP2 PUSH2 0x35F8 JUMP JUMPDEST SWAP3 SWAP2 POP POP JUMP JUMPDEST PUSH1 0x0 PUSH1 0x20 DUP3 DUP5 SUB SLT ISZERO PUSH2 0x266A JUMPI PUSH1 0x0 DUP1 REVERT JUMPDEST PUSH1 0x0 PUSH2 0x2678 DUP5 DUP3 DUP6 ADD PUSH2 0x25C5 JUMP JUMPDEST SWAP2 POP POP SWAP3 SWAP2 POP POP JUMP JUMPDEST PUSH1 0x0 DUP1 PUSH1 0x40 DUP4 DUP6 SUB SLT ISZERO PUSH2 0x2694 JUMPI PUSH1 0x0 DUP1 REVERT JUMPDEST PUSH1 0x0 PUSH2 0x26A2 DUP6 DUP3 DUP7 ADD PUSH2 0x25C5 JUMP JUMPDEST SWAP3 POP POP PUSH1 0x20 PUSH2 0x26B3 DUP6 DUP3 DUP7 ADD PUSH2 0x25C5 JUMP JUMPDEST SWAP2 POP POP SWAP3 POP SWAP3 SWAP1 POP JUMP JUMPDEST PUSH1 0x0 DUP1 PUSH1 0x0 PUSH1 0x60 DUP5 DUP7 SUB SLT ISZERO PUSH2 0x26D2 JUMPI PUSH1 0x0 DUP1 REVERT JUMPDEST PUSH1 0x0 PUSH2 0x26E0 DUP7 DUP3 DUP8 ADD PUSH2 0x25C5 JUMP JUMPDEST SWAP4 POP POP PUSH1 0x20 PUSH2 0x26F1 DUP7 DUP3 DUP8 ADD PUSH2 0x25C5 JUMP JUMPDEST SWAP3 POP POP PUSH1 0x40 PUSH2 0x2702 DUP7 DUP3 DUP8 ADD PUSH2 0x2643 JUMP JUMPDEST SWAP2 POP POP SWAP3 POP SWAP3 POP SWAP3 JUMP JUMPDEST PUSH1 0x0 DUP1 PUSH1 0x0 DUP1 PUSH1 0x80 DUP6 DUP8 SUB SLT ISZERO PUSH2 0x2722 JUMPI PUSH1 0x0 DUP1 REVERT JUMPDEST PUSH1 0x0 PUSH2 0x2730 DUP8 DUP3 DUP9 ADD PUSH2 0x25C5 JUMP JUMPDEST SWAP5 POP POP PUSH1 0x20 PUSH2 0x2741 DUP8 DUP3 DUP9 ADD PUSH2 0x25C5 JUMP JUMPDEST SWAP4 POP POP PUSH1 0x40 PUSH2 0x2752 DUP8 DUP3 DUP9 ADD PUSH2 0x2643 JUMP JUMPDEST SWAP3 POP POP PUSH1 0x60 DUP6 ADD CALLDATALOAD PUSH8 0xFFFFFFFFFFFFFFFF DUP2 GT ISZERO PUSH2 0x276F JUMPI PUSH1 0x0 DUP1 REVERT JUMPDEST PUSH2 0x277B DUP8 DUP3 DUP9 ADD PUSH2 0x2619 JUMP JUMPDEST SWAP2 POP POP SWAP3 SWAP6 SWAP2 SWAP5 POP SWAP3 POP JUMP JUMPDEST PUSH1 0x0 DUP1 PUSH1 0x40 DUP4 DUP6 SUB SLT ISZERO PUSH2 0x279A JUMPI PUSH1 0x0 DUP1 REVERT JUMPDEST PUSH1 0x0 PUSH2 0x27A8 DUP6 DUP3 DUP7 ADD PUSH2 0x25C5 JUMP JUMPDEST SWAP3 POP POP PUSH1 0x20 PUSH2 0x27B9 DUP6 DUP3 DUP7 ADD PUSH2 0x25DA JUMP JUMPDEST SWAP2 POP POP SWAP3 POP SWAP3 SWAP1 POP JUMP JUMPDEST PUSH1 0x0 DUP1 PUSH1 0x40 DUP4 DUP6 SUB SLT ISZERO PUSH2 0x27D6 JUMPI PUSH1 0x0 DUP1 REVERT JUMPDEST PUSH1 0x0 PUSH2 0x27E4 DUP6 DUP3 DUP7 ADD PUSH2 0x25C5 JUMP JUMPDEST SWAP3 POP POP PUSH1 0x20 PUSH2 0x27F5 DUP6 DUP3 DUP7 ADD PUSH2 0x2643 JUMP JUMPDEST SWAP2 POP POP SWAP3 POP SWAP3 SWAP1 POP JUMP JUMPDEST PUSH1 0x0 PUSH1 0x20 DUP3 DUP5 SUB SLT ISZERO PUSH2 0x2811 JUMPI PUSH1 0x0 DUP1 REVERT JUMPDEST PUSH1 0x0 PUSH2 0x281F DUP5 DUP3 DUP6 ADD PUSH2 0x25EF JUMP JUMPDEST SWAP2 POP POP SWAP3 SWAP2 POP POP JUMP JUMPDEST PUSH1 0x0 PUSH1 0x20 DUP3 DUP5 SUB SLT ISZERO PUSH2 0x283A JUMPI PUSH1 0x0 DUP1 REVERT JUMPDEST PUSH1 0x0 PUSH2 0x2848 DUP5 DUP3 DUP6 ADD PUSH2 0x2604 JUMP JUMPDEST SWAP2 POP POP SWAP3 SWAP2 POP POP JUMP JUMPDEST PUSH1 0x0 PUSH1 0x20 DUP3 DUP5 SUB SLT ISZERO PUSH2 0x2863 JUMPI PUSH1 0x0 DUP1 REVERT JUMPDEST PUSH1 0x0 PUSH2 0x2871 DUP5 DUP3 DUP6 ADD PUSH2 0x2643 JUMP JUMPDEST SWAP2 POP POP SWAP3 SWAP2 POP POP JUMP JUMPDEST PUSH2 0x2883 DUP2 PUSH2 0x3016 JUMP JUMPDEST DUP3 MSTORE POP POP JUMP JUMPDEST PUSH2 0x2892 DUP2 PUSH2 0x3004 JUMP JUMPDEST DUP3 MSTORE POP POP JUMP JUMPDEST PUSH2 0x28A1 DUP2 PUSH2 0x3028 JUMP JUMPDEST DUP3 MSTORE POP POP JUMP JUMPDEST PUSH1 0x0 PUSH2 0x28B2 DUP3 PUSH2 0x2EDD JUMP JUMPDEST PUSH2 0x28BC DUP2 DUP6 PUSH2 0x2EF3 JUMP JUMPDEST SWAP4 POP PUSH2 0x28CC DUP2 DUP6 PUSH1 0x20 DUP7 ADD PUSH2 0x3099 JUMP JUMPDEST PUSH2 0x28D5 DUP2 PUSH2 0x31BC JUMP JUMPDEST DUP5 ADD SWAP2 POP POP SWAP3 SWAP2 POP POP JUMP JUMPDEST PUSH1 0x0 PUSH2 0x28EB DUP3 PUSH2 0x2EE8 JUMP JUMPDEST PUSH2 0x28F5 DUP2 DUP6 PUSH2 0x2F04 JUMP JUMPDEST SWAP4 POP PUSH2 0x2905 DUP2 DUP6 PUSH1 0x20 DUP7 ADD PUSH2 0x3099 JUMP JUMPDEST PUSH2 0x290E DUP2 PUSH2 0x31BC JUMP JUMPDEST DUP5 ADD SWAP2 POP POP SWAP3 SWAP2 POP POP JUMP JUMPDEST PUSH1 0x0 PUSH2 0x2924 DUP3 PUSH2 0x2EE8 JUMP JUMPDEST PUSH2 0x292E DUP2 DUP6 PUSH2 0x2F15 JUMP JUMPDEST SWAP4 POP PUSH2 0x293E DUP2 DUP6 PUSH1 0x20 DUP7 ADD PUSH2 0x3099 JUMP JUMPDEST DUP1 DUP5 ADD SWAP2 POP POP SWAP3 SWAP2 POP POP JUMP JUMPDEST PUSH1 0x0 PUSH2 0x2957 PUSH1 0x22 DUP4 PUSH2 0x2F04 JUMP JUMPDEST SWAP2 POP PUSH2 0x2962 DUP3 PUSH2 0x31CD JUMP JUMPDEST PUSH1 0x40 DUP3 ADD SWAP1 POP SWAP2 SWAP1 POP JUMP JUMPDEST PUSH1 0x0 PUSH2 0x297A PUSH1 0x2D DUP4 PUSH2 0x2F04 JUMP JUMPDEST SWAP2 POP PUSH2 0x2985 DUP3 PUSH2 0x321C JUMP JUMPDEST PUSH1 0x40 DUP3 ADD SWAP1 POP SWAP2 SWAP1 POP JUMP JUMPDEST PUSH1 0x0 PUSH2 0x299D PUSH1 0x32 DUP4 PUSH2 0x2F04 JUMP JUMPDEST SWAP2 POP PUSH2 0x29A8 DUP3 PUSH2 0x326B JUMP JUMPDEST PUSH1 0x40 DUP3 ADD SWAP1 POP SWAP2 SWAP1 POP JUMP JUMPDEST PUSH1 0x0 PUSH2 0x29C0 PUSH1 0x26 DUP4 PUSH2 0x2F04 JUMP JUMPDEST SWAP2 POP PUSH2 0x29CB DUP3 PUSH2 0x32BA JUMP JUMPDEST PUSH1 0x40 DUP3 ADD SWAP1 POP SWAP2 SWAP1 POP JUMP JUMPDEST PUSH1 0x0 PUSH2 0x29E3 PUSH1 0x25 DUP4 PUSH2 0x2F04 JUMP JUMPDEST SWAP2 POP PUSH2 0x29EE DUP3 PUSH2 0x3309 JUMP JUMPDEST PUSH1 0x40 DUP3 ADD SWAP1 POP SWAP2 SWAP1 POP JUMP JUMPDEST PUSH1 0x0 PUSH2 0x2A06 PUSH1 0x24 DUP4 PUSH2 0x2F04 JUMP JUMPDEST SWAP2 POP PUSH2 0x2A11 DUP3 PUSH2 0x3358 JUMP JUMPDEST PUSH1 0x40 DUP3 ADD SWAP1 POP SWAP2 SWAP1 POP JUMP JUMPDEST PUSH1 0x0 PUSH2 0x2A29 PUSH1 0x19 DUP4 PUSH2 0x2F04 JUMP JUMPDEST SWAP2 POP PUSH2 0x2A34 DUP3 PUSH2 0x33A7 JUMP JUMPDEST PUSH1 0x20 DUP3 ADD SWAP1 POP SWAP2 SWAP1 POP JUMP JUMPDEST PUSH1 0x0 PUSH2 0x2A4C PUSH1 0x29 DUP4 PUSH2 0x2F04 JUMP JUMPDEST SWAP2 POP PUSH2 0x2A57 DUP3 PUSH2 0x33D0 JUMP JUMPDEST PUSH1 0x40 DUP3 ADD SWAP1 POP SWAP2 SWAP1 POP JUMP JUMPDEST PUSH1 0x0 PUSH2 0x2A6F PUSH1 0x17 DUP4 PUSH2 0x2F04 JUMP JUMPDEST SWAP2 POP PUSH2 0x2A7A DUP3 PUSH2 0x341F JUMP JUMPDEST PUSH1 0x20 DUP3 ADD SWAP1 POP SWAP2 SWAP1 POP JUMP JUMPDEST PUSH1 0x0 PUSH2 0x2A92 PUSH1 0x20 DUP4 PUSH2 0x2F04 JUMP JUMPDEST SWAP2 POP PUSH2 0x2A9D DUP3 PUSH2 0x3448 JUMP JUMPDEST PUSH1 0x20 DUP3 ADD SWAP1 POP SWAP2 SWAP1 POP JUMP JUMPDEST PUSH1 0x0 PUSH2 0x2AB5 PUSH1 0x1A DUP4 PUSH2 0x2F04 JUMP JUMPDEST SWAP2 POP PUSH2 0x2AC0 DUP3 PUSH2 0x3471 JUMP JUMPDEST PUSH1 0x20 DUP3 ADD SWAP1 POP SWAP2 SWAP1 POP JUMP JUMPDEST PUSH1 0x0 PUSH2 0x2AD8 PUSH1 0x18 DUP4 PUSH2 0x2F04 JUMP JUMPDEST SWAP2 POP PUSH2 0x2AE3 DUP3 PUSH2 0x349A JUMP JUMPDEST PUSH1 0x20 DUP3 ADD SWAP1 POP SWAP2 SWAP1 POP JUMP JUMPDEST PUSH1 0x0 PUSH2 0x2AFB PUSH1 0x1C DUP4 PUSH2 0x2F04 JUMP JUMPDEST SWAP2 POP PUSH2 0x2B06 DUP3 PUSH2 0x34C3 JUMP JUMPDEST PUSH1 0x20 DUP3 ADD SWAP1 POP SWAP2 SWAP1 POP JUMP JUMPDEST PUSH1 0x0 PUSH2 0x2B1E PUSH1 0x21 DUP4 PUSH2 0x2F04 JUMP JUMPDEST SWAP2 POP PUSH2 0x2B29 DUP3 PUSH2 0x34EC JUMP JUMPDEST PUSH1 0x40 DUP3 ADD SWAP1 POP SWAP2 SWAP1 POP JUMP JUMPDEST PUSH1 0x0 PUSH2 0x2B41 PUSH1 0x3D DUP4 PUSH2 0x2F04 JUMP JUMPDEST SWAP2 POP PUSH2 0x2B4C DUP3 PUSH2 0x353B JUMP JUMPDEST PUSH1 0x40 DUP3 ADD SWAP1 POP SWAP2 SWAP1 POP JUMP JUMPDEST PUSH1 0x0 PUSH2 0x2B64 PUSH1 0x13 DUP4 PUSH2 0x2F04 JUMP JUMPDEST SWAP2 POP PUSH2 0x2B6F DUP3 PUSH2 0x358A JUMP JUMPDEST PUSH1 0x20 DUP3 ADD SWAP1 POP SWAP2 SWAP1 POP JUMP JUMPDEST PUSH2 0x2B83 DUP2 PUSH2 0x3080 JUMP JUMPDEST DUP3 MSTORE POP POP JUMP JUMPDEST PUSH1 0x0 PUSH2 0x2B95 DUP3 DUP6 PUSH2 0x2919 JUMP JUMPDEST SWAP2 POP PUSH2 0x2BA1 DUP3 DUP5 PUSH2 0x2919 JUMP JUMPDEST SWAP2 POP DUP2 SWAP1 POP SWAP4 SWAP3 POP POP POP JUMP JUMPDEST PUSH1 0x0 PUSH1 0x20 DUP3 ADD SWAP1 POP PUSH2 0x2BC2 PUSH1 0x0 DUP4 ADD DUP5 PUSH2 0x2889 JUMP JUMPDEST SWAP3 SWAP2 POP POP JUMP JUMPDEST PUSH1 0x0 PUSH1 0x20 DUP3 ADD SWAP1 POP PUSH2 0x2BDD PUSH1 0x0 DUP4 ADD DUP5 PUSH2 0x287A JUMP JUMPDEST SWAP3 SWAP2 POP POP JUMP JUMPDEST PUSH1 0x0 PUSH1 0x80 DUP3 ADD SWAP1 POP PUSH2 0x2BF8 PUSH1 0x0 DUP4 ADD DUP8 PUSH2 0x2889 JUMP JUMPDEST PUSH2 0x2C05 PUSH1 0x20 DUP4 ADD DUP7 PUSH2 0x2889 JUMP JUMPDEST PUSH2 0x2C12 PUSH1 0x40 DUP4 ADD DUP6 PUSH2 0x2B7A JUMP JUMPDEST DUP2 DUP2 SUB PUSH1 0x60 DUP4 ADD MSTORE PUSH2 0x2C24 DUP2 DUP5 PUSH2 0x28A7 JUMP JUMPDEST SWAP1 POP SWAP6 SWAP5 POP POP POP POP POP JUMP JUMPDEST PUSH1 0x0 PUSH1 0x20 DUP3 ADD SWAP1 POP PUSH2 0x2C44 PUSH1 0x0 DUP4 ADD DUP5 PUSH2 0x2898 JUMP JUMPDEST SWAP3 SWAP2 POP POP JUMP JUMPDEST PUSH1 0x0 PUSH1 0x20 DUP3 ADD SWAP1 POP DUP2 DUP2 SUB PUSH1 0x0 DUP4 ADD MSTORE PUSH2 0x2C64 DUP2 DUP5 PUSH2 0x28E0 JUMP JUMPDEST SWAP1 POP SWAP3 SWAP2 POP POP JUMP JUMPDEST PUSH1 0x0 PUSH1 0x20 DUP3 ADD SWAP1 POP DUP2 DUP2 SUB PUSH1 0x0 DUP4 ADD MSTORE PUSH2 0x2C85 DUP2 PUSH2 0x294A JUMP JUMPDEST SWAP1 POP SWAP2 SWAP1 POP JUMP JUMPDEST PUSH1 0x0 PUSH1 0x20 DUP3 ADD SWAP1 POP DUP2 DUP2 SUB PUSH1 0x0 DUP4 ADD MSTORE PUSH2 0x2CA5 DUP2 PUSH2 0x296D JUMP JUMPDEST SWAP1 POP SWAP2 SWAP1 POP JUMP JUMPDEST PUSH1 0x0 PUSH1 0x20 DUP3 ADD SWAP1 POP DUP2 DUP2 SUB PUSH1 0x0 DUP4 ADD MSTORE PUSH2 0x2CC5 DUP2 PUSH2 0x2990 JUMP JUMPDEST SWAP1 POP SWAP2 SWAP1 POP JUMP JUMPDEST PUSH1 0x0 PUSH1 0x20 DUP3 ADD SWAP1 POP DUP2 DUP2 SUB PUSH1 0x0 DUP4 ADD MSTORE PUSH2 0x2CE5 DUP2 PUSH2 0x29B3 JUMP JUMPDEST SWAP1 POP SWAP2 SWAP1 POP JUMP JUMPDEST PUSH1 0x0 PUSH1 0x20 DUP3 ADD SWAP1 POP DUP2 DUP2 SUB PUSH1 0x0 DUP4 ADD MSTORE PUSH2 0x2D05 DUP2 PUSH2 0x29D6 JUMP JUMPDEST SWAP1 POP SWAP2 SWAP1 POP JUMP JUMPDEST PUSH1 0x0 PUSH1 0x20 DUP3 ADD SWAP1 POP DUP2 DUP2 SUB PUSH1 0x0 DUP4 ADD MSTORE PUSH2 0x2D25 DUP2 PUSH2 0x29F9 JUMP JUMPDEST SWAP1 POP SWAP2 SWAP1 POP JUMP JUMPDEST PUSH1 0x0 PUSH1 0x20 DUP3 ADD SWAP1 POP DUP2 DUP2 SUB PUSH1 0x0 DUP4 ADD MSTORE PUSH2 0x2D45 DUP2 PUSH2 0x2A1C JUMP JUMPDEST SWAP1 POP SWAP2 SWAP1 POP JUMP JUMPDEST PUSH1 0x0 PUSH1 0x20 DUP3 ADD SWAP1 POP DUP2 DUP2 SUB PUSH1 0x0 DUP4 ADD MSTORE PUSH2 0x2D65 DUP2 PUSH2 0x2A3F JUMP JUMPDEST SWAP1 POP SWAP2 SWAP1 POP JUMP JUMPDEST PUSH1 0x0 PUSH1 0x20 DUP3 ADD SWAP1 POP DUP2 DUP2 SUB PUSH1 0x0 DUP4 ADD MSTORE PUSH2 0x2D85 DUP2 PUSH2 0x2A62 JUMP JUMPDEST SWAP1 POP SWAP2 SWAP1 POP JUMP JUMPDEST PUSH1 0x0 PUSH1 0x20 DUP3 ADD SWAP1 POP DUP2 DUP2 SUB PUSH1 0x0 DUP4 ADD MSTORE PUSH2 0x2DA5 DUP2 PUSH2 0x2A85 JUMP JUMPDEST SWAP1 POP SWAP2 SWAP1 POP JUMP JUMPDEST PUSH1 0x0 PUSH1 0x20 DUP3 ADD SWAP1 POP DUP2 DUP2 SUB PUSH1 0x0 DUP4 ADD MSTORE PUSH2 0x2DC5 DUP2 PUSH2 0x2AA8 JUMP JUMPDEST SWAP1 POP SWAP2 SWAP1 POP JUMP JUMPDEST PUSH1 0x0 PUSH1 0x20 DUP3 ADD SWAP1 POP DUP2 DUP2 SUB PUSH1 0x0 DUP4 ADD MSTORE PUSH2 0x2DE5 DUP2 PUSH2 0x2ACB JUMP JUMPDEST SWAP1 POP SWAP2 SWAP1 POP JUMP JUMPDEST PUSH1 0x0 PUSH1 0x20 DUP3 ADD SWAP1 POP DUP2 DUP2 SUB PUSH1 0x0 DUP4 ADD MSTORE PUSH2 0x2E05 DUP2 PUSH2 0x2AEE JUMP JUMPDEST SWAP1 POP SWAP2 SWAP1 POP JUMP JUMPDEST PUSH1 0x0 PUSH1 0x20 DUP3 ADD SWAP1 POP DUP2 DUP2 SUB PUSH1 0x0 DUP4 ADD MSTORE PUSH2 0x2E25 DUP2 PUSH2 0x2B11 JUMP JUMPDEST SWAP1 POP SWAP2 SWAP1 POP JUMP JUMPDEST PUSH1 0x0 PUSH1 0x20 DUP3 ADD SWAP1 POP DUP2 DUP2 SUB PUSH1 0x0 DUP4 ADD MSTORE PUSH2 0x2E45 DUP2 PUSH2 0x2B34 JUMP JUMPDEST SWAP1 POP SWAP2 SWAP1 POP JUMP JUMPDEST PUSH1 0x0 PUSH1 0x20 DUP3 ADD SWAP1 POP DUP2 DUP2 SUB PUSH1 0x0 DUP4 ADD MSTORE PUSH2 0x2E65 DUP2 PUSH2 0x2B57 JUMP JUMPDEST SWAP1 POP SWAP2 SWAP1 POP JUMP JUMPDEST PUSH1 0x0 PUSH1 0x20 DUP3 ADD SWAP1 POP PUSH2 0x2E81 PUSH1 0x0 DUP4 ADD DUP5 PUSH2 0x2B7A JUMP JUMPDEST SWAP3 SWAP2 POP POP JUMP JUMPDEST PUSH1 0x0 PUSH2 0x2E91 PUSH2 0x2EA2 JUMP JUMPDEST SWAP1 POP PUSH2 0x2E9D DUP3 DUP3 PUSH2 0x30FE JUMP JUMPDEST SWAP2 SWAP1 POP JUMP JUMPDEST PUSH1 0x0 PUSH1 0x40 MLOAD SWAP1 POP SWAP1 JUMP JUMPDEST PUSH1 0x0 PUSH8 0xFFFFFFFFFFFFFFFF DUP3 GT ISZERO PUSH2 0x2EC7 JUMPI PUSH2 0x2EC6 PUSH2 0x318D JUMP JUMPDEST JUMPDEST PUSH2 0x2ED0 DUP3 PUSH2 0x31BC JUMP JUMPDEST SWAP1 POP PUSH1 0x20 DUP2 ADD SWAP1 POP SWAP2 SWAP1 POP JUMP JUMPDEST PUSH1 0x0 DUP2 MLOAD SWAP1 POP SWAP2 SWAP1 POP JUMP JUMPDEST PUSH1 0x0 DUP2 MLOAD SWAP1 POP SWAP2 SWAP1 POP JUMP JUMPDEST PUSH1 0x0 DUP3 DUP3 MSTORE PUSH1 0x20 DUP3 ADD SWAP1 POP SWAP3 SWAP2 POP POP JUMP JUMPDEST PUSH1 0x0 DUP3 DUP3 MSTORE PUSH1 0x20 DUP3 ADD SWAP1 POP SWAP3 SWAP2 POP POP JUMP JUMPDEST PUSH1 0x0 DUP2 SWAP1 POP SWAP3 SWAP2 POP POP JUMP JUMPDEST PUSH1 0x0 PUSH2 0x2F2B DUP3 PUSH2 0x3080 JUMP JUMPDEST SWAP2 POP PUSH2 0x2F36 DUP4 PUSH2 0x3080 JUMP JUMPDEST SWAP3 POP DUP3 PUSH32 0xFFFFFFFFFFFFFFFFFFFFFFFFFFFFFFFFFFFFFFFFFFFFFFFFFFFFFFFFFFFFFFFF SUB DUP3 GT ISZERO PUSH2 0x2F6B JUMPI PUSH2 0x2F6A PUSH2 0x312F JUMP JUMPDEST JUMPDEST DUP3 DUP3 ADD SWAP1 POP SWAP3 SWAP2 POP POP JUMP JUMPDEST PUSH1 0x0 PUSH2 0x2F81 DUP3 PUSH2 0x3080 JUMP JUMPDEST SWAP2 POP PUSH2 0x2F8C DUP4 PUSH2 0x3080 JUMP JUMPDEST SWAP3 POP DUP2 PUSH32 0xFFFFFFFFFFFFFFFFFFFFFFFFFFFFFFFFFFFFFFFFFFFFFFFFFFFFFFFFFFFFFFFF DIV DUP4 GT DUP3 ISZERO ISZERO AND ISZERO PUSH2 0x2FC5 JUMPI PUSH2 0x2FC4 PUSH2 0x312F JUMP JUMPDEST JUMPDEST DUP3 DUP3 MUL SWAP1 POP SWAP3 SWAP2 POP POP JUMP JUMPDEST PUSH1 0x0 PUSH2 0x2FDB DUP3 PUSH2 0x3080 JUMP JUMPDEST SWAP2 POP PUSH2 0x2FE6 DUP4 PUSH2 0x3080 JUMP JUMPDEST SWAP3 POP DUP3 DUP3 LT ISZERO PUSH2 0x2FF9 JUMPI PUSH2 0x2FF8 PUSH2 0x312F JUMP JUMPDEST JUMPDEST DUP3 DUP3 SUB SWAP1 POP SWAP3 SWAP2 POP POP JUMP JUMPDEST PUSH1 0x0 PUSH2 0x300F DUP3 PUSH2 0x3060 JUMP JUMPDEST SWAP1 POP SWAP2 SWAP1 POP JUMP JUMPDEST PUSH1 0x0 PUSH2 0x3021 DUP3 PUSH2 0x3060 JUMP JUMPDEST SWAP1 POP SWAP2 SWAP1 POP JUMP JUMPDEST PUSH1 0x0 DUP2 ISZERO ISZERO SWAP1 POP SWAP2 SWAP1 POP JUMP JUMPDEST PUSH1 0x0 PUSH32 0xFFFFFFFF00000000000000000000000000000000000000000000000000000000 DUP3 AND SWAP1 POP SWAP2 SWAP1 POP JUMP JUMPDEST PUSH1 0x0 PUSH20 0xFFFFFFFFFFFFFFFFFFFFFFFFFFFFFFFFFFFFFFFF DUP3 AND SWAP1 POP SWAP2 SWAP1 POP JUMP JUMPDEST PUSH1 0x0 DUP2 SWAP1 POP SWAP2 SWAP1 POP JUMP JUMPDEST DUP3 DUP2 DUP4 CALLDATACOPY PUSH1 0x0 DUP4 DUP4 ADD MSTORE POP POP POP JUMP JUMPDEST PUSH1 0x0 JUMPDEST DUP4 DUP2 LT ISZERO PUSH2 0x30B7 JUMPI DUP1 DUP3 ADD MLOAD DUP2 DUP5 ADD MSTORE PUSH1 0x20 DUP2 ADD SWAP1 POP PUSH2 0x309C JUMP JUMPDEST DUP4 DUP2 GT ISZERO PUSH2 0x30C6 JUMPI PUSH1 0x0 DUP5 DUP5 ADD MSTORE JUMPDEST POP POP POP POP JUMP JUMPDEST PUSH1 0x0 PUSH1 0x2 DUP3 DIV SWAP1 POP PUSH1 0x1 DUP3 AND DUP1 PUSH2 0x30E4 JUMPI PUSH1 0x7F DUP3 AND SWAP2 POP JUMPDEST PUSH1 0x20 DUP3 LT DUP2 EQ ISZERO PUSH2 0x30F8 JUMPI PUSH2 0x30F7 PUSH2 0x315E JUMP JUMPDEST JUMPDEST POP SWAP2 SWAP1 POP JUMP JUMPDEST PUSH2 0x3107 DUP3 PUSH2 0x31BC JUMP JUMPDEST DUP2 ADD DUP2 DUP2 LT PUSH8 0xFFFFFFFFFFFFFFFF DUP3 GT OR ISZERO PUSH2 0x3126 JUMPI PUSH2 0x3125 PUSH2 0x318D JUMP JUMPDEST JUMPDEST DUP1 PUSH1 0x40 MSTORE POP POP POP JUMP JUMPDEST PUSH32 0x4E487B7100000000000000000000000000000000000000000000000000000000 PUSH1 0x0 MSTORE PUSH1 0x11 PUSH1 0x4 MSTORE PUSH1 0x24 PUSH1 0x0 REVERT JUMPDEST PUSH32 0x4E487B7100000000000000000000000000000000000000000000000000000000 PUSH1 0x0 MSTORE PUSH1 0x22 PUSH1 0x4 MSTORE PUSH1 0x24 PUSH1 0x0 REVERT JUMPDEST PUSH32 0x4E487B7100000000000000000000000000000000000000000000000000000000 PUSH1 0x0 MSTORE PUSH1 0x41 PUSH1 0x4 MSTORE PUSH1 0x24 PUSH1 0x0 REVERT JUMPDEST PUSH1 0x0 PUSH1 0x1F NOT PUSH1 0x1F DUP4 ADD AND SWAP1 POP SWAP2 SWAP1 POP JUMP JUMPDEST PUSH32 0x4F6E6C7920746865206F776E65722063616E20656E6420746865206175637469 PUSH1 0x0 DUP3 ADD MSTORE PUSH32 0x6F6E000000000000000000000000000000000000000000000000000000000000 PUSH1 0x20 DUP3 ADD MSTORE POP JUMP JUMPDEST PUSH32 0x4552433732313A2063616C6C6572206973206E6F7420746F6B656E206F776E65 PUSH1 0x0 DUP3 ADD MSTORE PUSH32 0x72206F7220617070726F76656400000000000000000000000000000000000000 PUSH1 0x20 DUP3 ADD MSTORE POP JUMP JUMPDEST PUSH32 0x4552433732313A207472616E7366657220746F206E6F6E204552433732315265 PUSH1 0x0 DUP3 ADD MSTORE PUSH32 0x63656976657220696D706C656D656E7465720000000000000000000000000000 PUSH1 0x20 DUP3 ADD MSTORE POP JUMP JUMPDEST PUSH32 0x4F776E61626C653A206E6577206F776E657220697320746865207A65726F2061 PUSH1 0x0 DUP3 ADD MSTORE PUSH32 0x6464726573730000000000000000000000000000000000000000000000000000 PUSH1 0x20 DUP3 ADD MSTORE POP JUMP JUMPDEST PUSH32 0x4552433732313A207472616E736665722066726F6D20696E636F727265637420 PUSH1 0x0 DUP3 ADD MSTORE PUSH32 0x6F776E6572000000000000000000000000000000000000000000000000000000 PUSH1 0x20 DUP3 ADD MSTORE POP JUMP JUMPDEST PUSH32 0x4552433732313A207472616E7366657220746F20746865207A65726F20616464 PUSH1 0x0 DUP3 ADD MSTORE PUSH32 0x7265737300000000000000000000000000000000000000000000000000000000 PUSH1 0x20 DUP3 ADD MSTORE POP JUMP JUMPDEST PUSH32 0x4552433732313A20617070726F766520746F2063616C6C657200000000000000 PUSH1 0x0 DUP3 ADD MSTORE POP JUMP JUMPDEST PUSH32 0x4552433732313A2061646472657373207A65726F206973206E6F742061207661 PUSH1 0x0 DUP3 ADD MSTORE PUSH32 0x6C6964206F776E65720000000000000000000000000000000000000000000000 PUSH1 0x20 DUP3 ADD MSTORE POP JUMP JUMPDEST PUSH32 0x426964206973206E6F74206869676820656E6F7567682E000000000000000000 PUSH1 0x0 DUP3 ADD MSTORE POP JUMP JUMPDEST PUSH32 0x4F776E61626C653A2063616C6C6572206973206E6F7420746865206F776E6572 PUSH1 0x0 DUP3 ADD MSTORE POP JUMP JUMPDEST PUSH32 0x41756374696F6E20697320616C726561647920636C6F7365642E000000000000 PUSH1 0x0 DUP3 ADD MSTORE POP JUMP JUMPDEST PUSH32 0x4552433732313A20696E76616C696420746F6B656E2049440000000000000000 PUSH1 0x0 DUP3 ADD MSTORE POP JUMP JUMPDEST PUSH32 0x5468652061756374696F6E20697320616C726561647920656E64656400000000 PUSH1 0x0 DUP3 ADD MSTORE POP JUMP JUMPDEST PUSH32 0x4552433732313A20617070726F76616C20746F2063757272656E74206F776E65 PUSH1 0x0 DUP3 ADD MSTORE PUSH32 0x7200000000000000000000000000000000000000000000000000000000000000 PUSH1 0x20 DUP3 ADD MSTORE POP JUMP JUMPDEST PUSH32 0x4552433732313A20617070726F76652063616C6C6572206973206E6F7420746F PUSH1 0x0 DUP3 ADD MSTORE PUSH32 0x6B656E206F776E6572206F7220617070726F76656420666F7220616C6C000000 PUSH1 0x20 DUP3 ADD MSTORE POP JUMP JUMPDEST PUSH32 0x4E6F20726566756E6420617661696C61626C6500000000000000000000000000 PUSH1 0x0 DUP3 ADD MSTORE POP JUMP JUMPDEST PUSH2 0x35BC DUP2 PUSH2 0x3004 JUMP JUMPDEST DUP2 EQ PUSH2 0x35C7 JUMPI PUSH1 0x0 DUP1 REVERT JUMPDEST POP JUMP JUMPDEST PUSH2 0x35D3 DUP2 PUSH2 0x3028 JUMP JUMPDEST DUP2 EQ PUSH2 0x35DE JUMPI PUSH1 0x0 DUP1 REVERT JUMPDEST POP JUMP JUMPDEST PUSH2 0x35EA DUP2 PUSH2 0x3034 JUMP JUMPDEST DUP2 EQ PUSH2 0x35F5 JUMPI PUSH1 0x0 DUP1 REVERT JUMPDEST POP JUMP JUMPDEST PUSH2 0x3601 DUP2 PUSH2 0x3080 JUMP JUMPDEST DUP2 EQ PUSH2 0x360C JUMPI PUSH1 0x0 DUP1 REVERT JUMPDEST POP JUMP INVALID LOG2 PUSH5 0x6970667358 0x22 SLT KECCAK256 SWAP8 CODESIZE TIMESTAMP DUP8 0xAF 0x2C SWAP5 0xE2 ISZERO 0xD4 PUSH10 0xE70EEE9A75D2D9F80A8A KECCAK256 0xAE CALLDATASIZE DUP1 0xA7 PUSH31 0xAED02FD08A64736F6C63430008040033000000000000000000000000000000 "},"methodIdentifiers":{"approve(address,uint256)":"095ea7b3","balanceOf(address)":"70a08231","bid()":"1998aeef","currentPrice()":"9d1b464a","endAuction()":"fe67a54b","ended()":"12fa6feb","getApproved(uint256)":"081812fc","highestBid()":"d57bde79","highestBidder()":"91f90157","initialPrice()":"1d0806ae","isApprovedForAll(address,address)":"e985e9c5","name()":"06fdde03","numBlocksAuctionOpen()":"3103ea62","offerPriceDecrement()":"d3642a88","owner()":"8da5cb5b","ownerOf(uint256)":"6352211e","refunds(address)":"bc3da535","renounceOwnership()":"715018a6","reservePrice()":"db2e1eed","safeTransferFrom(address,address,uint256)":"42842e0e","safeTransferFrom(address,address,uint256,bytes)":"b88d4fde","setApprovalForAll(address,bool)":"a22cb465","startBlock()":"48cd4cb1","supportsInterface(bytes4)":"01ffc9a7","symbol()":"95d89b41","tokenURI(uint256)":"c87b56dd","transferFrom(address,address,uint256)":"23b872dd","transferOwnership(address)":"f2fde38b","withdraw()":"3ccfd60b"}}}}}