{
  "_format": "hh-sol-artifact-1",
  "contractName": "MyToken",
  "sourceName": "contracts/MyToken.sol",
  "abi": [
    {
      "inputs": [
        {
          "internalType": "uint256",
          "name": "initialSupply",
          "type": "uint256"
        }
      ],
      "stateMutability": "nonpayable",
      "type": "constructor"
    },
    {
      "inputs": [],
      "name": "InvalidShortString",
      "type": "error"
    },
    {
      "inputs": [
        {
          "internalType": "string",
          "name": "str",
          "type": "string"
        }
      ],
      "name": "StringTooLong",
      "type": "error"
    },
    {
      "anonymous": false,
      "inputs": [
        {
          "indexed": true,
          "internalType": "address",
          "name": "owner",
          "type": "address"
        },
        {
          "indexed": true,
          "internalType": "address",
          "name": "spender",
          "type": "address"
        },
        {
          "indexed": false,
          "internalType": "uint256",
          "name": "value",
          "type": "uint256"
        }
      ],
      "name": "Approval",
      "type": "event"
    },
    {
      "anonymous": false,
      "inputs": [],
      "name": "EIP712DomainChanged",
      "type": "event"
    },
    {
      "anonymous": false,
      "inputs": [
        {
          "indexed": true,
          "internalType": "address",
          "name": "from",
          "type": "address"
        },
        {
          "indexed": true,
          "internalType": "address",
          "name": "to",
          "type": "address"
        },
        {
          "indexed": false,
          "internalType": "uint256",
          "name": "value",
          "type": "uint256"
        }
      ],
      "name": "Transfer",
      "type": "event"
    },
    {
      "inputs": [],
      "name": "DOMAIN_SEPARATOR",
      "outputs": [
        {
          "internalType": "bytes32",
          "name": "",
          "type": "bytes32"
        }
      ],
      "stateMutability": "view",
      "type": "function"
    },
    {
      "inputs": [
        {
          "internalType": "address",
          "name": "owner",
          "type": "address"
        },
        {
          "internalType": "address",
          "name": "spender",
          "type": "address"
        }
      ],
      "name": "allowance",
      "outputs": [
        {
          "internalType": "uint256",
          "name": "",
          "type": "uint256"
        }
      ],
      "stateMutability": "view",
      "type": "function"
    },
    {
      "inputs": [
        {
          "internalType": "address",
          "name": "spender",
          "type": "address"
        },
        {
          "internalType": "uint256",
          "name": "amount",
          "type": "uint256"
        }
      ],
      "name": "approve",
      "outputs": [
        {
          "internalType": "bool",
          "name": "",
          "type": "bool"
        }
      ],
      "stateMutability": "nonpayable",
      "type": "function"
    },
    {
      "inputs": [
        {
          "internalType": "address",
          "name": "account",
          "type": "address"
        }
      ],
      "name": "balanceOf",
      "outputs": [
        {
          "internalType": "uint256",
          "name": "",
          "type": "uint256"
        }
      ],
      "stateMutability": "view",
      "type": "function"
    },
    {
      "inputs": [],
      "name": "decimals",
      "outputs": [
        {
          "internalType": "uint8",
          "name": "",
          "type": "uint8"
        }
      ],
      "stateMutability": "view",
      "type": "function"
    },
    {
      "inputs": [
        {
          "internalType": "address",
          "name": "spender",
          "type": "address"
        },
        {
          "internalType": "uint256",
          "name": "subtractedValue",
          "type": "uint256"
        }
      ],
      "name": "decreaseAllowance",
      "outputs": [
        {
          "internalType": "bool",
          "name": "",
          "type": "bool"
        }
      ],
      "stateMutability": "nonpayable",
      "type": "function"
    },
    {
      "inputs": [],
      "name": "eip712Domain",
      "outputs": [
        {
          "internalType": "bytes1",
          "name": "fields",
          "type": "bytes1"
        },
        {
          "internalType": "string",
          "name": "name",
          "type": "string"
        },
        {
          "internalType": "string",
          "name": "version",
          "type": "string"
        },
        {
          "internalType": "uint256",
          "name": "chainId",
          "type": "uint256"
        },
        {
          "internalType": "address",
          "name": "verifyingContract",
          "type": "address"
        },
        {
          "internalType": "bytes32",
          "name": "salt",
          "type": "bytes32"
        },
        {
          "internalType": "uint256[]",
          "name": "extensions",
          "type": "uint256[]"
        }
      ],
      "stateMutability": "view",
      "type": "function"
    },
    {
      "inputs": [
        {
          "internalType": "address",
          "name": "spender",
          "type": "address"
        },
        {
          "internalType": "uint256",
          "name": "addedValue",
          "type": "uint256"
        }
      ],
      "name": "increaseAllowance",
      "outputs": [
        {
          "internalType": "bool",
          "name": "",
          "type": "bool"
        }
      ],
      "stateMutability": "nonpayable",
      "type": "function"
    },
    {
      "inputs": [],
      "name": "name",
      "outputs": [
        {
          "internalType": "string",
          "name": "",
          "type": "string"
        }
      ],
      "stateMutability": "view",
      "type": "function"
    },
    {
      "inputs": [
        {
          "internalType": "address",
          "name": "owner",
          "type": "address"
        }
      ],
      "name": "nonces",
      "outputs": [
        {
          "internalType": "uint256",
          "name": "",
          "type": "uint256"
        }
      ],
      "stateMutability": "view",
      "type": "function"
    },
    {
      "inputs": [
        {
          "internalType": "address",
          "name": "owner",
          "type": "address"
        },
        {
          "internalType": "address",
          "name": "spender",
          "type": "address"
        },
        {
          "internalType": "uint256",
          "name": "value",
          "type": "uint256"
        },
        {
          "internalType": "uint256",
          "name": "deadline",
          "type": "uint256"
        },
        {
          "internalType": "uint8",
          "name": "v",
          "type": "uint8"
        },
        {
          "internalType": "bytes32",
          "name": "r",
          "type": "bytes32"
        },
        {
          "internalType": "bytes32",
          "name": "s",
          "type": "bytes32"
        }
      ],
      "name": "permit",
      "outputs": [],
      "stateMutability": "nonpayable",
      "type": "function"
    },
    {
      "inputs": [],
      "name": "symbol",
      "outputs": [
        {
          "internalType": "string",
          "name": "",
          "type": "string"
        }
      ],
      "stateMutability": "view",
      "type": "function"
    },
    {
      "inputs": [],
      "name": "totalSupply",
      "outputs": [
        {
          "internalType": "uint256",
          "name": "",
          "type": "uint256"
        }
      ],
      "stateMutability": "view",
      "type": "function"
    },
    {
      "inputs": [
        {
          "internalType": "address",
          "name": "to",
          "type": "address"
        },
        {
          "internalType": "uint256",
          "name": "amount",
          "type": "uint256"
        }
      ],
      "name": "transfer",
      "outputs": [
        {
          "internalType": "bool",
          "name": "",
          "type": "bool"
        }
      ],
      "stateMutability": "nonpayable",
      "type": "function"
    },
    {
      "inputs": [
        {
          "internalType": "address",
          "name": "from",
          "type": "address"
        },
        {
          "internalType": "address",
          "name": "to",
          "type": "address"
        },
        {
          "internalType": "uint256",
          "name": "amount",
          "type": "uint256"
        }
      ],
      "name": "transferFrom",
      "outputs": [
        {
          "internalType": "bool",
          "name": "",
          "type": "bool"
        }
      ],
      "stateMutability": "nonpayable",
      "type": "function"
    }
  ],
  "bytecode": "0x6101606040523480156200001257600080fd5b5060405162002e5e38038062002e5e8339818101604052810190620000389190620005bc565b6040518060400160405280600781526020017f4d79546f6b656e00000000000000000000000000000000000000000000000000815250806040518060400160405280600181526020017f31000000000000000000000000000000000000000000000000000000000000008152506040518060400160405280600781526020017f4d79546f6b656e000000000000000000000000000000000000000000000000008152506040518060400160405280600381526020017f4d544b0000000000000000000000000000000000000000000000000000000000815250816003908051906020019062000129929190620004cc565b50806004908051906020019062000142929190620004cc565b505050620001606005836200021c60201b6200091c1790919060201c565b6101208181525050620001836006826200021c60201b6200091c1790919060201c565b6101408181525050818051906020012060e08181525050808051906020012061010081815250504660a08181525050620001c26200028060201b60201c565b608081815250503073ffffffffffffffffffffffffffffffffffffffff1660c08173ffffffffffffffffffffffffffffffffffffffff1660601b81525050505050620002153382620002dd60201b60201c565b50620009b3565b600060208351101562000242576200023a836200044b60201b60201c565b90506200027a565b826200025983620004b860201b620009671760201c565b600001908051906020019062000271929190620004cc565b5060ff60001b90505b92915050565b60007f8b73c3c69bb8fe3d512ecc4cf759cc79239f7b179b0ffacaa9a75d522b39400f60e051610100514630604051602001620002c29594939291906200065f565b60405160208183030381529060405280519060200120905090565b600073ffffffffffffffffffffffffffffffffffffffff168273ffffffffffffffffffffffffffffffffffffffff16141562000350576040517f08c379a000000000000000000000000000000000000000000000000000000000815260040162000347906200071d565b60405180910390fd5b6200036460008383620004c260201b60201c565b80600260008282546200037891906200076e565b92505081905550806000808473ffffffffffffffffffffffffffffffffffffffff1673ffffffffffffffffffffffffffffffffffffffff168152602001908152602001600020600082825401925050819055508173ffffffffffffffffffffffffffffffffffffffff16600073ffffffffffffffffffffffffffffffffffffffff167fddf252ad1be2c89b69c2b068fc378daa952ba7f163c4a11628f55a4df523b3ef836040516200042b9190620007cb565b60405180910390a36200044760008383620004c760201b60201c565b5050565b600080829050601f815111156200049b57826040517f305a27a90000000000000000000000000000000000000000000000000000000081526004016200049291906200087b565b60405180910390fd5b805181620004a990620008de565b60001c1760001b915050919050565b6000819050919050565b505050565b505050565b828054620004da906200097d565b90600052602060002090601f016020900481019282620004fe57600085556200054a565b82601f106200051957805160ff19168380011785556200054a565b828001600101855582156200054a579182015b82811115620005495782518255916020019190600101906200052c565b5b5090506200055991906200055d565b5090565b5b80821115620005785760008160009055506001016200055e565b5090565b600080fd5b6000819050919050565b620005968162000581565b8114620005a257600080fd5b50565b600081519050620005b6816200058b565b92915050565b600060208284031215620005d557620005d46200057c565b5b6000620005e584828501620005a5565b91505092915050565b6000819050919050565b6200060381620005ee565b82525050565b620006148162000581565b82525050565b600073ffffffffffffffffffffffffffffffffffffffff82169050919050565b600062000647826200061a565b9050919050565b62000659816200063a565b82525050565b600060a082019050620006766000830188620005f8565b620006856020830187620005f8565b620006946040830186620005f8565b620006a3606083018562000609565b620006b260808301846200064e565b9695505050505050565b600082825260208201905092915050565b7f45524332303a206d696e7420746f20746865207a65726f206164647265737300600082015250565b600062000705601f83620006bc565b91506200071282620006cd565b602082019050919050565b600060208201905081810360008301526200073881620006f6565b9050919050565b7f4e487b7100000000000000000000000000000000000000000000000000000000600052601160045260246000fd5b60006200077b8262000581565b9150620007888362000581565b9250827fffffffffffffffffffffffffffffffffffffffffffffffffffffffffffffffff03821115620007c057620007bf6200073f565b5b828201905092915050565b6000602082019050620007e2600083018462000609565b92915050565b600081519050919050565b60005b8381101562000813578082015181840152602081019050620007f6565b8381111562000823576000848401525b50505050565b6000601f19601f8301169050919050565b60006200084782620007e8565b620008538185620006bc565b935062000865818560208601620007f3565b620008708162000829565b840191505092915050565b600060208201905081810360008301526200089781846200083a565b905092915050565b600081519050919050565b6000819050602082019050919050565b6000620008c88251620005ee565b80915050919050565b600082821b905092915050565b6000620008eb826200089f565b82620008f784620008aa565b90506200090481620008ba565b925060208210156200094757620009427fffffffffffffffffffffffffffffffffffffffffffffffffffffffffffffffff83602003600802620008d1565b831692505b5050919050565b7f4e487b7100000000000000000000000000000000000000000000000000000000600052602260045260246000fd5b600060028204905060018216806200099657607f821691505b60208210811415620009ad57620009ac6200094e565b5b50919050565b60805160a05160c05160601c60e05161010051610120516101405161244d62000a11600039600061056c0152600061053801526000611118015260006110f701526000610e4c01526000610ea201526000610ecb015261244d6000f3fe608060405234801561001057600080fd5b50600436106100f55760003560e01c806370a0823111610097578063a457c2d711610066578063a457c2d7146102a4578063a9059cbb146102d4578063d505accf14610304578063dd62ed3e14610320576100f5565b806370a08231146102025780637ecebe001461023257806384b0196e1461026257806395d89b4114610286576100f5565b806323b872dd116100d357806323b872dd14610166578063313ce567146101965780633644e515146101b457806339509351146101d2576100f5565b806306fdde03146100fa578063095ea7b31461011857806318160ddd14610148575b600080fd5b610102610350565b60405161010f9190611610565b60405180910390f35b610132600480360381019061012d91906116cb565b6103e2565b60405161013f9190611726565b60405180910390f35b610150610405565b60405161015d9190611750565b60405180910390f35b610180600480360381019061017b919061176b565b61040f565b60405161018d9190611726565b60405180910390f35b61019e61043e565b6040516101ab91906117da565b60405180910390f35b6101bc610447565b6040516101c9919061180e565b60405180910390f35b6101ec60048036038101906101e791906116cb565b610456565b6040516101f99190611726565b60405180910390f35b61021c60048036038101906102179190611829565b61048d565b6040516102299190611750565b60405180910390f35b61024c60048036038101906102479190611829565b6104d5565b6040516102599190611750565b60405180910390f35b61026a610525565b60405161027d979695949392919061195e565b60405180910390f35b61028e610627565b60405161029b9190611610565b60405180910390f35b6102be60048036038101906102b991906116cb565b6106b9565b6040516102cb9190611726565b60405180910390f35b6102ee60048036038101906102e991906116cb565b610730565b6040516102fb9190611726565b60405180910390f35b61031e60048036038101906103199190611a3a565b610753565b005b61033a60048036038101906103359190611adc565b610895565b6040516103479190611750565b60405180910390f35b60606003805461035f90611b4b565b80601f016020809104026020016040519081016040528092919081815260200182805461038b90611b4b565b80156103d85780601f106103ad576101008083540402835291602001916103d8565b820191906000526020600020905b8154815290600101906020018083116103bb57829003601f168201915b5050505050905090565b6000806103ed610971565b90506103fa818585610979565b600191505092915050565b6000600254905090565b60008061041a610971565b9050610427858285610b44565b610432858585610bd0565b60019150509392505050565b60006012905090565b6000610451610e48565b905090565b600080610461610971565b90506104828185856104738589610895565b61047d9190611bac565b610979565b600191505092915050565b60008060008373ffffffffffffffffffffffffffffffffffffffff1673ffffffffffffffffffffffffffffffffffffffff168152602001908152602001600020549050919050565b600061051e600760008473ffffffffffffffffffffffffffffffffffffffff1673ffffffffffffffffffffffffffffffffffffffff168152602001908152602001600020610eff565b9050919050565b60006060806000806000606061056560057f0000000000000000000000000000000000000000000000000000000000000000610f0d90919063ffffffff16565b61059960067f0000000000000000000000000000000000000000000000000000000000000000610f0d90919063ffffffff16565b46306000801b600067ffffffffffffffff8111156105ba576105b9611c02565b5b6040519080825280602002602001820160405280156105e85781602001602082028036833780820191505090505b507f0f00000000000000000000000000000000000000000000000000000000000000959493929190965096509650965096509650965090919293949596565b60606004805461063690611b4b565b80601f016020809104026020016040519081016040528092919081815260200182805461066290611b4b565b80156106af5780601f10610684576101008083540402835291602001916106af565b820191906000526020600020905b81548152906001019060200180831161069257829003601f168201915b5050505050905090565b6000806106c4610971565b905060006106d28286610895565b905083811015610717576040517f08c379a000000000000000000000000000000000000000000000000000000000815260040161070e90611ca3565b60405180910390fd5b6107248286868403610979565b60019250505092915050565b60008061073b610971565b9050610748818585610bd0565b600191505092915050565b83421115610796576040517f08c379a000000000000000000000000000000000000000000000000000000000815260040161078d90611d0f565b60405180910390fd5b60007f6e71edae12b1b97f4d1f60370fef10105fa2faae0126114a169c64845d6126c98888886107c58c610fbd565b896040516020016107db96959493929190611d2f565b60405160208183030381529060405280519060200120905060006107fe8261101b565b9050600061080e82878787611035565b90508973ffffffffffffffffffffffffffffffffffffffff168173ffffffffffffffffffffffffffffffffffffffff161461087e576040517f08c379a000000000000000000000000000000000000000000000000000000000815260040161087590611ddc565b60405180910390fd5b6108898a8a8a610979565b50505050505050505050565b6000600160008473ffffffffffffffffffffffffffffffffffffffff1673ffffffffffffffffffffffffffffffffffffffff16815260200190815260200160002060008373ffffffffffffffffffffffffffffffffffffffff1673ffffffffffffffffffffffffffffffffffffffff16815260200190815260200160002054905092915050565b60006020835110156109385761093183611060565b9050610961565b8261094283610967565b60000190805190602001906109589291906114d4565b5060ff60001b90505b92915050565b6000819050919050565b600033905090565b600073ffffffffffffffffffffffffffffffffffffffff168373ffffffffffffffffffffffffffffffffffffffff1614156109e9576040517f08c379a00000000000000000000000000000000000000000000000000000000081526004016109e090611e6e565b60405180910390fd5b600073ffffffffffffffffffffffffffffffffffffffff168273ffffffffffffffffffffffffffffffffffffffff161415610a59576040517f08c379a0000000000000000000000000000000000000000000000000000000008152600401610a5090611f00565b60405180910390fd5b80600160008573ffffffffffffffffffffffffffffffffffffffff1673ffffffffffffffffffffffffffffffffffffffff16815260200190815260200160002060008473ffffffffffffffffffffffffffffffffffffffff1673ffffffffffffffffffffffffffffffffffffffff168152602001908152602001600020819055508173ffffffffffffffffffffffffffffffffffffffff168373ffffffffffffffffffffffffffffffffffffffff167f8c5be1e5ebec7d5bd14f71427d1e84f3dd0314c0f7b2291e5b200ac8c7c3b92583604051610b379190611750565b60405180910390a3505050565b6000610b508484610895565b90507fffffffffffffffffffffffffffffffffffffffffffffffffffffffffffffffff8114610bca5781811015610bbc576040517f08c379a0000000000000000000000000000000000000000000000000000000008152600401610bb390611f6c565b60405180910390fd5b610bc98484848403610979565b5b50505050565b600073ffffffffffffffffffffffffffffffffffffffff168373ffffffffffffffffffffffffffffffffffffffff161415610c40576040517f08c379a0000000000000000000000000000000000000000000000000000000008152600401610c3790611ffe565b60405180910390fd5b600073ffffffffffffffffffffffffffffffffffffffff168273ffffffffffffffffffffffffffffffffffffffff161415610cb0576040517f08c379a0000000000000000000000000000000000000000000000000000000008152600401610ca790612090565b60405180910390fd5b610cbb8383836110c8565b60008060008573ffffffffffffffffffffffffffffffffffffffff1673ffffffffffffffffffffffffffffffffffffffff16815260200190815260200160002054905081811015610d41576040517f08c379a0000000000000000000000000000000000000000000000000000000008152600401610d3890612122565b60405180910390fd5b8181036000808673ffffffffffffffffffffffffffffffffffffffff1673ffffffffffffffffffffffffffffffffffffffff16815260200190815260200160002081905550816000808573ffffffffffffffffffffffffffffffffffffffff1673ffffffffffffffffffffffffffffffffffffffff168152602001908152602001600020600082825401925050819055508273ffffffffffffffffffffffffffffffffffffffff168473ffffffffffffffffffffffffffffffffffffffff167fddf252ad1be2c89b69c2b068fc378daa952ba7f163c4a11628f55a4df523b3ef84604051610e2f9190611750565b60405180910390a3610e428484846110cd565b50505050565b60007f000000000000000000000000000000000000000000000000000000000000000073ffffffffffffffffffffffffffffffffffffffff163073ffffffffffffffffffffffffffffffffffffffff16148015610ec457507f000000000000000000000000000000000000000000000000000000000000000046145b15610ef1577f00000000000000000000000000000000000000000000000000000000000000009050610efc565b610ef96110d2565b90505b90565b600081600001549050919050565b606060ff60001b8314610f2a57610f2383611168565b9050610fb7565b818054610f3690611b4b565b80601f0160208091040260200160405190810160405280929190818152602001828054610f6290611b4b565b8015610faf5780601f10610f8457610100808354040283529160200191610faf565b820191906000526020600020905b815481529060010190602001808311610f9257829003601f168201915b505050505090505b92915050565b600080600760008473ffffffffffffffffffffffffffffffffffffffff1673ffffffffffffffffffffffffffffffffffffffff168152602001908152602001600020905061100a81610eff565b9150611015816111dc565b50919050565b600061102e611028610e48565b836111f2565b9050919050565b600080600061104687878787611233565b9150915061105381611316565b8192505050949350505050565b600080829050601f815111156110ad57826040517f305a27a90000000000000000000000000000000000000000000000000000000081526004016110a49190611610565b60405180910390fd5b8051816110b99061217f565b60001c1760001b915050919050565b505050565b505050565b60007f8b73c3c69bb8fe3d512ecc4cf759cc79239f7b179b0ffacaa9a75d522b39400f7f00000000000000000000000000000000000000000000000000000000000000007f0000000000000000000000000000000000000000000000000000000000000000463060405160200161114d9594939291906121e6565b60405160208183030381529060405280519060200120905090565b6060600061117583611484565b90506000602067ffffffffffffffff81111561119457611193611c02565b5b6040519080825280601f01601f1916602001820160405280156111c65781602001600182028036833780820191505090505b5090508181528360208201528092505050919050565b6001816000016000828254019250508190555050565b60006040517f190100000000000000000000000000000000000000000000000000000000000081528360028201528260228201526042812091505092915050565b6000807f7fffffffffffffffffffffffffffffff5d576e7357a4501ddfe92f46681b20a08360001c111561126e57600060039150915061130d565b6000600187878787604051600081526020016040526040516112939493929190612239565b6020604051602081039080840390855afa1580156112b5573d6000803e3d6000fd5b505050602060405103519050600073ffffffffffffffffffffffffffffffffffffffff168173ffffffffffffffffffffffffffffffffffffffff1614156113045760006001925092505061130d565b80600092509250505b94509492505050565b6000600481111561132a5761132961227e565b5b81600481111561133d5761133c61227e565b5b141561134857611481565b6001600481111561135c5761135b61227e565b5b81600481111561136f5761136e61227e565b5b14156113b0576040517f08c379a00000000000000000000000000000000000000000000000000000000081526004016113a7906122f9565b60405180910390fd5b600260048111156113c4576113c361227e565b5b8160048111156113d7576113d661227e565b5b1415611418576040517f08c379a000000000000000000000000000000000000000000000000000000000815260040161140f90612365565b60405180910390fd5b6003600481111561142c5761142b61227e565b5b81600481111561143f5761143e61227e565b5b1415611480576040517f08c379a0000000000000000000000000000000000000000000000000000000008152600401611477906123f7565b60405180910390fd5b5b50565b60008060ff8360001c169050601f8111156114cb576040517fb3512b0c00000000000000000000000000000000000000000000000000000000815260040160405180910390fd5b80915050919050565b8280546114e090611b4b565b90600052602060002090601f0160209004810192826115025760008555611549565b82601f1061151b57805160ff1916838001178555611549565b82800160010185558215611549579182015b8281111561154857825182559160200191906001019061152d565b5b509050611556919061155a565b5090565b5b8082111561157357600081600090555060010161155b565b5090565b600081519050919050565b600082825260208201905092915050565b60005b838110156115b1578082015181840152602081019050611596565b838111156115c0576000848401525b50505050565b6000601f19601f8301169050919050565b60006115e282611577565b6115ec8185611582565b93506115fc818560208601611593565b611605816115c6565b840191505092915050565b6000602082019050818103600083015261162a81846115d7565b905092915050565b600080fd5b600073ffffffffffffffffffffffffffffffffffffffff82169050919050565b600061166282611637565b9050919050565b61167281611657565b811461167d57600080fd5b50565b60008135905061168f81611669565b92915050565b6000819050919050565b6116a881611695565b81146116b357600080fd5b50565b6000813590506116c58161169f565b92915050565b600080604083850312156116e2576116e1611632565b5b60006116f085828601611680565b9250506020611701858286016116b6565b9150509250929050565b60008115159050919050565b6117208161170b565b82525050565b600060208201905061173b6000830184611717565b92915050565b61174a81611695565b82525050565b60006020820190506117656000830184611741565b92915050565b60008060006060848603121561178457611783611632565b5b600061179286828701611680565b93505060206117a386828701611680565b92505060406117b4868287016116b6565b9150509250925092565b600060ff82169050919050565b6117d4816117be565b82525050565b60006020820190506117ef60008301846117cb565b92915050565b6000819050919050565b611808816117f5565b82525050565b600060208201905061182360008301846117ff565b92915050565b60006020828403121561183f5761183e611632565b5b600061184d84828501611680565b91505092915050565b60007fff0000000000000000000000000000000000000000000000000000000000000082169050919050565b61188b81611856565b82525050565b61189a81611657565b82525050565b600081519050919050565b600082825260208201905092915050565b6000819050602082019050919050565b6118d581611695565b82525050565b60006118e783836118cc565b60208301905092915050565b6000602082019050919050565b600061190b826118a0565b61191581856118ab565b9350611920836118bc565b8060005b8381101561195157815161193888826118db565b9750611943836118f3565b925050600181019050611924565b5085935050505092915050565b600060e082019050611973600083018a611882565b818103602083015261198581896115d7565b9050818103604083015261199981886115d7565b90506119a86060830187611741565b6119b56080830186611891565b6119c260a08301856117ff565b81810360c08301526119d48184611900565b905098975050505050505050565b6119eb816117be565b81146119f657600080fd5b50565b600081359050611a08816119e2565b92915050565b611a17816117f5565b8114611a2257600080fd5b50565b600081359050611a3481611a0e565b92915050565b600080600080600080600060e0888a031215611a5957611a58611632565b5b6000611a678a828b01611680565b9750506020611a788a828b01611680565b9650506040611a898a828b016116b6565b9550506060611a9a8a828b016116b6565b9450506080611aab8a828b016119f9565b93505060a0611abc8a828b01611a25565b92505060c0611acd8a828b01611a25565b91505092959891949750929550565b60008060408385031215611af357611af2611632565b5b6000611b0185828601611680565b9250506020611b1285828601611680565b9150509250929050565b7f4e487b7100000000000000000000000000000000000000000000000000000000600052602260045260246000fd5b60006002820490506001821680611b6357607f821691505b60208210811415611b7757611b76611b1c565b5b50919050565b7f4e487b7100000000000000000000000000000000000000000000000000000000600052601160045260246000fd5b6000611bb782611695565b9150611bc283611695565b9250827fffffffffffffffffffffffffffffffffffffffffffffffffffffffffffffffff03821115611bf757611bf6611b7d565b5b828201905092915050565b7f4e487b7100000000000000000000000000000000000000000000000000000000600052604160045260246000fd5b7f45524332303a2064656372656173656420616c6c6f77616e63652062656c6f7760008201527f207a65726f000000000000000000000000000000000000000000000000000000602082015250565b6000611c8d602583611582565b9150611c9882611c31565b604082019050919050565b60006020820190508181036000830152611cbc81611c80565b9050919050565b7f45524332305065726d69743a206578706972656420646561646c696e65000000600082015250565b6000611cf9601d83611582565b9150611d0482611cc3565b602082019050919050565b60006020820190508181036000830152611d2881611cec565b9050919050565b600060c082019050611d4460008301896117ff565b611d516020830188611891565b611d5e6040830187611891565b611d6b6060830186611741565b611d786080830185611741565b611d8560a0830184611741565b979650505050505050565b7f45524332305065726d69743a20696e76616c6964207369676e61747572650000600082015250565b6000611dc6601e83611582565b9150611dd182611d90565b602082019050919050565b60006020820190508181036000830152611df581611db9565b9050919050565b7f45524332303a20617070726f76652066726f6d20746865207a65726f2061646460008201527f7265737300000000000000000000000000000000000000000000000000000000602082015250565b6000611e58602483611582565b9150611e6382611dfc565b604082019050919050565b60006020820190508181036000830152611e8781611e4b565b9050919050565b7f45524332303a20617070726f766520746f20746865207a65726f20616464726560008201527f7373000000000000000000000000000000000000000000000000000000000000602082015250565b6000611eea602283611582565b9150611ef582611e8e565b604082019050919050565b60006020820190508181036000830152611f1981611edd565b9050919050565b7f45524332303a20696e73756666696369656e7420616c6c6f77616e6365000000600082015250565b6000611f56601d83611582565b9150611f6182611f20565b602082019050919050565b60006020820190508181036000830152611f8581611f49565b9050919050565b7f45524332303a207472616e736665722066726f6d20746865207a65726f20616460008201527f6472657373000000000000000000000000000000000000000000000000000000602082015250565b6000611fe8602583611582565b9150611ff382611f8c565b604082019050919050565b6000602082019050818103600083015261201781611fdb565b9050919050565b7f45524332303a207472616e7366657220746f20746865207a65726f206164647260008201527f6573730000000000000000000000000000000000000000000000000000000000602082015250565b600061207a602383611582565b91506120858261201e565b604082019050919050565b600060208201905081810360008301526120a98161206d565b9050919050565b7f45524332303a207472616e7366657220616d6f756e742065786365656473206260008201527f616c616e63650000000000000000000000000000000000000000000000000000602082015250565b600061210c602683611582565b9150612117826120b0565b604082019050919050565b6000602082019050818103600083015261213b816120ff565b9050919050565b600081519050919050565b6000819050602082019050919050565b600061216982516117f5565b80915050919050565b600082821b905092915050565b600061218a82612142565b826121948461214d565b905061219f8161215d565b925060208210156121df576121da7fffffffffffffffffffffffffffffffffffffffffffffffffffffffffffffffff83602003600802612172565b831692505b5050919050565b600060a0820190506121fb60008301886117ff565b61220860208301876117ff565b61221560408301866117ff565b6122226060830185611741565b61222f6080830184611891565b9695505050505050565b600060808201905061224e60008301876117ff565b61225b60208301866117cb565b61226860408301856117ff565b61227560608301846117ff565b95945050505050565b7f4e487b7100000000000000000000000000000000000000000000000000000000600052602160045260246000fd5b7f45434453413a20696e76616c6964207369676e61747572650000000000000000600082015250565b60006122e3601883611582565b91506122ee826122ad565b602082019050919050565b60006020820190508181036000830152612312816122d6565b9050919050565b7f45434453413a20696e76616c6964207369676e6174757265206c656e67746800600082015250565b600061234f601f83611582565b915061235a82612319565b602082019050919050565b6000602082019050818103600083015261237e81612342565b9050919050565b7f45434453413a20696e76616c6964207369676e6174757265202773272076616c60008201527f7565000000000000000000000000000000000000000000000000000000000000602082015250565b60006123e1602283611582565b91506123ec82612385565b604082019050919050565b60006020820190508181036000830152612410816123d4565b905091905056fea264697066735822122006a76104e61a1f2c705908994c5ac23de579b0628c52e5f38b87833fbc8148f164736f6c63430008080033",
  "linkReferences": {},
  "deployedLinkReferences": {}
}