{
  "_format": "hh-sol-artifact-1",
  "contractName": "MyNFT",
  "sourceName": "contracts/MyNFT.sol",
  "abi": [
    {
      "inputs": [
        {
          "internalType": "string",
          "name": "name",
          "type": "string"
        },
        {
          "internalType": "string",
          "name": "symbol",
          "type": "string"
        }
      ],
      "stateMutability": "nonpayable",
      "type": "constructor"
    },
    {
      "anonymous": false,
      "inputs": [
        {
          "indexed": true,
          "internalType": "address",
          "name": "owner",
          "type": "address"
        },
        {
          "indexed": true,
          "internalType": "address",
          "name": "approved",
          "type": "address"
        },
        {
          "indexed": true,
          "internalType": "uint256",
          "name": "tokenId",
          "type": "uint256"
        }
      ],
      "name": "Approval",
      "type": "event"
    },
    {
      "anonymous": false,
      "inputs": [
        {
          "indexed": true,
          "internalType": "address",
          "name": "owner",
          "type": "address"
        },
        {
          "indexed": true,
          "internalType": "address",
          "name": "operator",
          "type": "address"
        },
        {
          "indexed": false,
          "internalType": "bool",
          "name": "approved",
          "type": "bool"
        }
      ],
      "name": "ApprovalForAll",
      "type": "event"
    },
    {
      "anonymous": false,
      "inputs": [
        {
          "indexed": true,
          "internalType": "address",
          "name": "from",
          "type": "address"
        },
        {
          "indexed": true,
          "internalType": "address",
          "name": "to",
          "type": "address"
        },
        {
          "indexed": true,
          "internalType": "uint256",
          "name": "tokenId",
          "type": "uint256"
        }
      ],
      "name": "Transfer",
      "type": "event"
    },
    {
      "inputs": [
        {
          "internalType": "address",
          "name": "to",
          "type": "address"
        },
        {
          "internalType": "uint256",
          "name": "tokenId",
          "type": "uint256"
        }
      ],
      "name": "approve",
      "outputs": [],
      "stateMutability": "nonpayable",
      "type": "function"
    },
    {
      "inputs": [
        {
          "internalType": "address",
          "name": "owner",
          "type": "address"
        }
      ],
      "name": "balanceOf",
      "outputs": [
        {
          "internalType": "uint256",
          "name": "",
          "type": "uint256"
        }
      ],
      "stateMutability": "view",
      "type": "function"
    },
    {
      "inputs": [],
      "name": "createCollectible",
      "outputs": [
        {
          "internalType": "uint256",
          "name": "",
          "type": "uint256"
        }
      ],
      "stateMutability": "nonpayable",
      "type": "function"
    },
    {
      "inputs": [
        {
          "internalType": "uint256",
          "name": "tokenId",
          "type": "uint256"
        }
      ],
      "name": "getApproved",
      "outputs": [
        {
          "internalType": "address",
          "name": "",
          "type": "address"
        }
      ],
      "stateMutability": "view",
      "type": "function"
    },
    {
      "inputs": [
        {
          "internalType": "address",
          "name": "owner",
          "type": "address"
        },
        {
          "internalType": "address",
          "name": "operator",
          "type": "address"
        }
      ],
      "name": "isApprovedForAll",
      "outputs": [
        {
          "internalType": "bool",
          "name": "",
          "type": "bool"
        }
      ],
      "stateMutability": "view",
      "type": "function"
    },
    {
      "inputs": [],
      "name": "name",
      "outputs": [
        {
          "internalType": "string",
          "name": "",
          "type": "string"
        }
      ],
      "stateMutability": "view",
      "type": "function"
    },
    {
      "inputs": [
        {
          "internalType": "uint256",
          "name": "tokenId",
          "type": "uint256"
        }
      ],
      "name": "ownerOf",
      "outputs": [
        {
          "internalType": "address",
          "name": "",
          "type": "address"
        }
      ],
      "stateMutability": "view",
      "type": "function"
    },
    {
      "inputs": [
        {
          "internalType": "address",
          "name": "from",
          "type": "address"
        },
        {
          "internalType": "address",
          "name": "to",
          "type": "address"
        },
        {
          "internalType": "uint256",
          "name": "tokenId",
          "type": "uint256"
        }
      ],
      "name": "safeTransferFrom",
      "outputs": [],
      "stateMutability": "nonpayable",
      "type": "function"
    },
    {
      "inputs": [
        {
          "internalType": "address",
          "name": "from",
          "type": "address"
        },
        {
          "internalType": "address",
          "name": "to",
          "type": "address"
        },
        {
          "internalType": "uint256",
          "name": "tokenId",
          "type": "uint256"
        },
        {
          "internalType": "bytes",
          "name": "data",
          "type": "bytes"
        }
      ],
      "name": "safeTransferFrom",
      "outputs": [],
      "stateMutability": "nonpayable",
      "type": "function"
    },
    {
      "inputs": [
        {
          "internalType": "address",
          "name": "operator",
          "type": "address"
        },
        {
          "internalType": "bool",
          "name": "approved",
          "type": "bool"
        }
      ],
      "name": "setApprovalForAll",
      "outputs": [],
      "stateMutability": "nonpayable",
      "type": "function"
    },
    {
      "inputs": [
        {
          "internalType": "bytes4",
          "name": "interfaceId",
          "type": "bytes4"
        }
      ],
      "name": "supportsInterface",
      "outputs": [
        {
          "internalType": "bool",
          "name": "",
          "type": "bool"
        }
      ],
      "stateMutability": "view",
      "type": "function"
    },
    {
      "inputs": [],
      "name": "symbol",
      "outputs": [
        {
          "internalType": "string",
          "name": "",
          "type": "string"
        }
      ],
      "stateMutability": "view",
      "type": "function"
    },
    {
      "inputs": [],
      "name": "tokenCounter",
      "outputs": [
        {
          "internalType": "uint256",
          "name": "",
          "type": "uint256"
        }
      ],
      "stateMutability": "view",
      "type": "function"
    },
    {
      "inputs": [
        {
          "internalType": "uint256",
          "name": "tokenId",
          "type": "uint256"
        }
      ],
      "name": "tokenURI",
      "outputs": [
        {
          "internalType": "string",
          "name": "",
          "type": "string"
        }
      ],
      "stateMutability": "view",
      "type": "function"
    },
    {
      "inputs": [
        {
          "internalType": "address",
          "name": "from",
          "type": "address"
        },
        {
          "internalType": "address",
          "name": "to",
          "type": "address"
        },
        {
          "internalType": "uint256",
          "name": "tokenId",
          "type": "uint256"
        }
      ],
      "name": "transferFrom",
      "outputs": [],
      "stateMutability": "nonpayable",
      "type": "function"
    }
  ],
  "bytecode": "0x60806040523480156200001157600080fd5b5060405162002997380380620029978339818101604052810190620000379190620002ca565b81818160009080519060200190620000519291906200007d565b5080600190805190602001906200006a9291906200007d565b50505060006006819055505050620003b4565b8280546200008b906200037e565b90600052602060002090601f016020900481019282620000af5760008555620000fb565b82601f10620000ca57805160ff1916838001178555620000fb565b82800160010185558215620000fb579182015b82811115620000fa578251825591602001919060010190620000dd565b5b5090506200010a91906200010e565b5090565b5b80821115620001295760008160009055506001016200010f565b5090565b6000604051905090565b600080fd5b600080fd5b600080fd5b600080fd5b6000601f19601f8301169050919050565b7f4e487b7100000000000000000000000000000000000000000000000000000000600052604160045260246000fd5b62000196826200014b565b810181811067ffffffffffffffff82111715620001b857620001b76200015c565b5b80604052505050565b6000620001cd6200012d565b9050620001db82826200018b565b919050565b600067ffffffffffffffff821115620001fe57620001fd6200015c565b5b62000209826200014b565b9050602081019050919050565b60005b838110156200023657808201518184015260208101905062000219565b8381111562000246576000848401525b50505050565b6000620002636200025d84620001e0565b620001c1565b90508281526020810184848401111562000282576200028162000146565b5b6200028f84828562000216565b509392505050565b600082601f830112620002af57620002ae62000141565b5b8151620002c18482602086016200024c565b91505092915050565b60008060408385031215620002e457620002e362000137565b5b600083015167ffffffffffffffff8111156200030557620003046200013c565b5b620003138582860162000297565b925050602083015167ffffffffffffffff8111156200033757620003366200013c565b5b620003458582860162000297565b9150509250929050565b7f4e487b7100000000000000000000000000000000000000000000000000000000600052602260045260246000fd5b600060028204905060018216806200039757607f821691505b60208210811415620003ae57620003ad6200034f565b5b50919050565b6125d380620003c46000396000f3fe608060405234801561001057600080fd5b50600436106100f55760003560e01c80636352211e11610097578063b88d4fde11610066578063b88d4fde14610284578063c87b56dd146102a0578063d082e381146102d0578063e985e9c5146102ee576100f5565b80636352211e146101ea57806370a082311461021a57806395d89b411461024a578063a22cb46514610268576100f5565b8063095ea7b3116100d3578063095ea7b3146101785780631e6617101461019457806323b872dd146101b257806342842e0e146101ce576100f5565b806301ffc9a7146100fa57806306fdde031461012a578063081812fc14610148575b600080fd5b610114600480360381019061010f9190611840565b61031e565b6040516101219190611888565b60405180910390f35b610132610400565b60405161013f919061193c565b60405180910390f35b610162600480360381019061015d9190611994565b610492565b60405161016f9190611a02565b60405180910390f35b610192600480360381019061018d9190611a49565b6104d8565b005b61019c6105f0565b6040516101a99190611a98565b60405180910390f35b6101cc60048036038101906101c79190611ab3565b61061e565b005b6101e860048036038101906101e39190611ab3565b61067e565b005b61020460048036038101906101ff9190611994565b61069e565b6040516102119190611a02565b60405180910390f35b610234600480360381019061022f9190611b06565b610725565b6040516102419190611a98565b60405180910390f35b6102526107dd565b60405161025f919061193c565b60405180910390f35b610282600480360381019061027d9190611b5f565b61086f565b005b61029e60048036038101906102999190611cd4565b610885565b005b6102ba60048036038101906102b59190611994565b6108e7565b6040516102c7919061193c565b60405180910390f35b6102d861094f565b6040516102e59190611a98565b60405180910390f35b61030860048036038101906103039190611d57565b610955565b6040516103159190611888565b60405180910390f35b60007f80ac58cd000000000000000000000000000000000000000000000000000000007bffffffffffffffffffffffffffffffffffffffffffffffffffffffff1916827bffffffffffffffffffffffffffffffffffffffffffffffffffffffff191614806103e957507f5b5e139f000000000000000000000000000000000000000000000000000000007bffffffffffffffffffffffffffffffffffffffffffffffffffffffff1916827bffffffffffffffffffffffffffffffffffffffffffffffffffffffff1916145b806103f957506103f8826109e9565b5b9050919050565b60606000805461040f90611dc6565b80601f016020809104026020016040519081016040528092919081815260200182805461043b90611dc6565b80156104885780601f1061045d57610100808354040283529160200191610488565b820191906000526020600020905b81548152906001019060200180831161046b57829003601f168201915b5050505050905090565b600061049d82610a53565b6004600083815260200190815260200160002060009054906101000a900473ffffffffffffffffffffffffffffffffffffffff169050919050565b60006104e38261069e565b90508073ffffffffffffffffffffffffffffffffffffffff168373ffffffffffffffffffffffffffffffffffffffff161415610554576040517f08c379a000000000000000000000000000000000000000000000000000000000815260040161054b90611e6a565b60405180910390fd5b8073ffffffffffffffffffffffffffffffffffffffff16610573610a9e565b73ffffffffffffffffffffffffffffffffffffffff1614806105a257506105a18161059c610a9e565b610955565b5b6105e1576040517f08c379a00000000000000000000000000000000000000000000000000000000081526004016105d890611efc565b60405180910390fd5b6105eb8383610aa6565b505050565b60008060065490506106023382610b5f565b60016006546106119190611f4b565b6006819055508091505090565b61062f610629610a9e565b82610b7d565b61066e576040517f08c379a000000000000000000000000000000000000000000000000000000000815260040161066590612013565b60405180910390fd5b610679838383610c12565b505050565b61069983838360405180602001604052806000815250610885565b505050565b6000806106aa83610f0c565b9050600073ffffffffffffffffffffffffffffffffffffffff168173ffffffffffffffffffffffffffffffffffffffff16141561071c576040517f08c379a00000000000000000000000000000000000000000000000000000000081526004016107139061207f565b60405180910390fd5b80915050919050565b60008073ffffffffffffffffffffffffffffffffffffffff168273ffffffffffffffffffffffffffffffffffffffff161415610796576040517f08c379a000000000000000000000000000000000000000000000000000000000815260040161078d90612111565b60405180910390fd5b600360008373ffffffffffffffffffffffffffffffffffffffff1673ffffffffffffffffffffffffffffffffffffffff168152602001908152602001600020549050919050565b6060600180546107ec90611dc6565b80601f016020809104026020016040519081016040528092919081815260200182805461081890611dc6565b80156108655780601f1061083a57610100808354040283529160200191610865565b820191906000526020600020905b81548152906001019060200180831161084857829003601f168201915b5050505050905090565b61088161087a610a9e565b8383610f49565b5050565b610896610890610a9e565b83610b7d565b6108d5576040517f08c379a00000000000000000000000000000000000000000000000000000000081526004016108cc90612013565b60405180910390fd5b6108e1848484846110b6565b50505050565b60606108f282610a53565b60006108fc611112565b9050600081511161091c5760405180602001604052806000815250610947565b8061092684611129565b60405160200161093792919061216d565b6040516020818303038152906040525b915050919050565b60065481565b6000600560008473ffffffffffffffffffffffffffffffffffffffff1673ffffffffffffffffffffffffffffffffffffffff16815260200190815260200160002060008373ffffffffffffffffffffffffffffffffffffffff1673ffffffffffffffffffffffffffffffffffffffff16815260200190815260200160002060009054906101000a900460ff16905092915050565b60007f01ffc9a7000000000000000000000000000000000000000000000000000000007bffffffffffffffffffffffffffffffffffffffffffffffffffffffff1916827bffffffffffffffffffffffffffffffffffffffffffffffffffffffff1916149050919050565b610a5c81611201565b610a9b576040517f08c379a0000000000000000000000000000000000000000000000000000000008152600401610a929061207f565b60405180910390fd5b50565b600033905090565b816004600083815260200190815260200160002060006101000a81548173ffffffffffffffffffffffffffffffffffffffff021916908373ffffffffffffffffffffffffffffffffffffffff160217905550808273ffffffffffffffffffffffffffffffffffffffff16610b198361069e565b73ffffffffffffffffffffffffffffffffffffffff167f8c5be1e5ebec7d5bd14f71427d1e84f3dd0314c0f7b2291e5b200ac8c7c3b92560405160405180910390a45050565b610b79828260405180602001604052806000815250611242565b5050565b600080610b898361069e565b90508073ffffffffffffffffffffffffffffffffffffffff168473ffffffffffffffffffffffffffffffffffffffff161480610bcb5750610bca8185610955565b5b80610c0957508373ffffffffffffffffffffffffffffffffffffffff16610bf184610492565b73ffffffffffffffffffffffffffffffffffffffff16145b91505092915050565b8273ffffffffffffffffffffffffffffffffffffffff16610c328261069e565b73ffffffffffffffffffffffffffffffffffffffff1614610c88576040517f08c379a0000000000000000000000000000000000000000000000000000000008152600401610c7f90612203565b60405180910390fd5b600073ffffffffffffffffffffffffffffffffffffffff168273ffffffffffffffffffffffffffffffffffffffff161415610cf8576040517f08c379a0000000000000000000000000000000000000000000000000000000008152600401610cef90612295565b60405180910390fd5b610d05838383600161129d565b8273ffffffffffffffffffffffffffffffffffffffff16610d258261069e565b73ffffffffffffffffffffffffffffffffffffffff1614610d7b576040517f08c379a0000000000000000000000000000000000000000000000000000000008152600401610d7290612203565b60405180910390fd5b6004600082815260200190815260200160002060006101000a81549073ffffffffffffffffffffffffffffffffffffffff02191690556001600360008573ffffffffffffffffffffffffffffffffffffffff1673ffffffffffffffffffffffffffffffffffffffff168152602001908152602001600020600082825403925050819055506001600360008473ffffffffffffffffffffffffffffffffffffffff1673ffffffffffffffffffffffffffffffffffffffff16815260200190815260200160002060008282540192505081905550816002600083815260200190815260200160002060006101000a81548173ffffffffffffffffffffffffffffffffffffffff021916908373ffffffffffffffffffffffffffffffffffffffff160217905550808273ffffffffffffffffffffffffffffffffffffffff168473ffffffffffffffffffffffffffffffffffffffff167fddf252ad1be2c89b69c2b068fc378daa952ba7f163c4a11628f55a4df523b3ef60405160405180910390a4610f0783838360016112a3565b505050565b60006002600083815260200190815260200160002060009054906101000a900473ffffffffffffffffffffffffffffffffffffffff169050919050565b8173ffffffffffffffffffffffffffffffffffffffff168373ffffffffffffffffffffffffffffffffffffffff161415610fb8576040517f08c379a0000000000000000000000000000000000000000000000000000000008152600401610faf90612301565b60405180910390fd5b80600560008573ffffffffffffffffffffffffffffffffffffffff1673ffffffffffffffffffffffffffffffffffffffff16815260200190815260200160002060008473ffffffffffffffffffffffffffffffffffffffff1673ffffffffffffffffffffffffffffffffffffffff16815260200190815260200160002060006101000a81548160ff0219169083151502179055508173ffffffffffffffffffffffffffffffffffffffff168373ffffffffffffffffffffffffffffffffffffffff167f17307eab39ab6107e8899845ad3d59bd9653f200f220920489ca2b5937696c31836040516110a99190611888565b60405180910390a3505050565b6110c1848484610c12565b6110cd848484846112a9565b61110c576040517f08c379a000000000000000000000000000000000000000000000000000000000815260040161110390612393565b60405180910390fd5b50505050565b606060405180602001604052806000815250905090565b60606000600161113884611440565b01905060008167ffffffffffffffff81111561115757611156611ba9565b5b6040519080825280601f01601f1916602001820160405280156111895781602001600182028036833780820191505090505b509050600082602001820190505b6001156111f6578080600190039150507f3031323334353637383961626364656600000000000000000000000000000000600a86061a8153600a85816111e0576111df6123b3565b5b04945060008514156111f1576111f6565b611197565b819350505050919050565b60008073ffffffffffffffffffffffffffffffffffffffff1661122383610f0c565b73ffffffffffffffffffffffffffffffffffffffff1614159050919050565b61124c8383611593565b61125960008484846112a9565b611298576040517f08c379a000000000000000000000000000000000000000000000000000000000815260040161128f90612393565b60405180910390fd5b505050565b50505050565b50505050565b60006112ca8473ffffffffffffffffffffffffffffffffffffffff166117b1565b15611433578373ffffffffffffffffffffffffffffffffffffffff1663150b7a026112f3610a9e565b8786866040518563ffffffff1660e01b81526004016113159493929190612437565b602060405180830381600087803b15801561132f57600080fd5b505af192505050801561136057506040513d601f19601f8201168201806040525081019061135d9190612498565b60015b6113e3573d8060008114611390576040519150601f19603f3d011682016040523d82523d6000602084013e611395565b606091505b506000815114156113db576040517f08c379a00000000000000000000000000000000000000000000000000000000081526004016113d290612393565b60405180910390fd5b805181602001fd5b63150b7a0260e01b7bffffffffffffffffffffffffffffffffffffffffffffffffffffffff1916817bffffffffffffffffffffffffffffffffffffffffffffffffffffffff191614915050611438565b600190505b949350505050565b600080600090507a184f03e93ff9f4daa797ed6e38ed64bf6a1f010000000000000000831061149e577a184f03e93ff9f4daa797ed6e38ed64bf6a1f0100000000000000008381611494576114936123b3565b5b0492506040810190505b6d04ee2d6d415b85acef810000000083106114db576d04ee2d6d415b85acef810000000083816114d1576114d06123b3565b5b0492506020810190505b662386f26fc10000831061150a57662386f26fc100008381611500576114ff6123b3565b5b0492506010810190505b6305f5e1008310611533576305f5e1008381611529576115286123b3565b5b0492506008810190505b612710831061155857612710838161154e5761154d6123b3565b5b0492506004810190505b6064831061157b5760648381611571576115706123b3565b5b0492506002810190505b600a831061158a576001810190505b80915050919050565b600073ffffffffffffffffffffffffffffffffffffffff168273ffffffffffffffffffffffffffffffffffffffff161415611603576040517f08c379a00000000000000000000000000000000000000000000000000000000081526004016115fa90612511565b60405180910390fd5b61160c81611201565b1561164c576040517f08c379a00000000000000000000000000000000000000000000000000000000081526004016116439061257d565b60405180910390fd5b61165a60008383600161129d565b61166381611201565b156116a3576040517f08c379a000000000000000000000000000000000000000000000000000000000815260040161169a9061257d565b60405180910390fd5b6001600360008473ffffffffffffffffffffffffffffffffffffffff1673ffffffffffffffffffffffffffffffffffffffff16815260200190815260200160002060008282540192505081905550816002600083815260200190815260200160002060006101000a81548173ffffffffffffffffffffffffffffffffffffffff021916908373ffffffffffffffffffffffffffffffffffffffff160217905550808273ffffffffffffffffffffffffffffffffffffffff16600073ffffffffffffffffffffffffffffffffffffffff167fddf252ad1be2c89b69c2b068fc378daa952ba7f163c4a11628f55a4df523b3ef60405160405180910390a46117ad6000838360016112a3565b5050565b6000808273ffffffffffffffffffffffffffffffffffffffff163b119050919050565b6000604051905090565b600080fd5b600080fd5b60007fffffffff0000000000000000000000000000000000000000000000000000000082169050919050565b61181d816117e8565b811461182857600080fd5b50565b60008135905061183a81611814565b92915050565b600060208284031215611856576118556117de565b5b60006118648482850161182b565b91505092915050565b60008115159050919050565b6118828161186d565b82525050565b600060208201905061189d6000830184611879565b92915050565b600081519050919050565b600082825260208201905092915050565b60005b838110156118dd5780820151818401526020810190506118c2565b838111156118ec576000848401525b50505050565b6000601f19601f8301169050919050565b600061190e826118a3565b61191881856118ae565b93506119288185602086016118bf565b611931816118f2565b840191505092915050565b600060208201905081810360008301526119568184611903565b905092915050565b6000819050919050565b6119718161195e565b811461197c57600080fd5b50565b60008135905061198e81611968565b92915050565b6000602082840312156119aa576119a96117de565b5b60006119b88482850161197f565b91505092915050565b600073ffffffffffffffffffffffffffffffffffffffff82169050919050565b60006119ec826119c1565b9050919050565b6119fc816119e1565b82525050565b6000602082019050611a1760008301846119f3565b92915050565b611a26816119e1565b8114611a3157600080fd5b50565b600081359050611a4381611a1d565b92915050565b60008060408385031215611a6057611a5f6117de565b5b6000611a6e85828601611a34565b9250506020611a7f8582860161197f565b9150509250929050565b611a928161195e565b82525050565b6000602082019050611aad6000830184611a89565b92915050565b600080600060608486031215611acc57611acb6117de565b5b6000611ada86828701611a34565b9350506020611aeb86828701611a34565b9250506040611afc8682870161197f565b9150509250925092565b600060208284031215611b1c57611b1b6117de565b5b6000611b2a84828501611a34565b91505092915050565b611b3c8161186d565b8114611b4757600080fd5b50565b600081359050611b5981611b33565b92915050565b60008060408385031215611b7657611b756117de565b5b6000611b8485828601611a34565b9250506020611b9585828601611b4a565b9150509250929050565b600080fd5b600080fd5b7f4e487b7100000000000000000000000000000000000000000000000000000000600052604160045260246000fd5b611be1826118f2565b810181811067ffffffffffffffff82111715611c0057611bff611ba9565b5b80604052505050565b6000611c136117d4565b9050611c1f8282611bd8565b919050565b600067ffffffffffffffff821115611c3f57611c3e611ba9565b5b611c48826118f2565b9050602081019050919050565b82818337600083830152505050565b6000611c77611c7284611c24565b611c09565b905082815260208101848484011115611c9357611c92611ba4565b5b611c9e848285611c55565b509392505050565b600082601f830112611cbb57611cba611b9f565b5b8135611ccb848260208601611c64565b91505092915050565b60008060008060808587031215611cee57611ced6117de565b5b6000611cfc87828801611a34565b9450506020611d0d87828801611a34565b9350506040611d1e8782880161197f565b925050606085013567ffffffffffffffff811115611d3f57611d3e6117e3565b5b611d4b87828801611ca6565b91505092959194509250565b60008060408385031215611d6e57611d6d6117de565b5b6000611d7c85828601611a34565b9250506020611d8d85828601611a34565b9150509250929050565b7f4e487b7100000000000000000000000000000000000000000000000000000000600052602260045260246000fd5b60006002820490506001821680611dde57607f821691505b60208210811415611df257611df1611d97565b5b50919050565b7f4552433732313a20617070726f76616c20746f2063757272656e74206f776e6560008201527f7200000000000000000000000000000000000000000000000000000000000000602082015250565b6000611e546021836118ae565b9150611e5f82611df8565b604082019050919050565b60006020820190508181036000830152611e8381611e47565b9050919050565b7f4552433732313a20617070726f76652063616c6c6572206973206e6f7420746f60008201527f6b656e206f776e6572206f7220617070726f76656420666f7220616c6c000000602082015250565b6000611ee6603d836118ae565b9150611ef182611e8a565b604082019050919050565b60006020820190508181036000830152611f1581611ed9565b9050919050565b7f4e487b7100000000000000000000000000000000000000000000000000000000600052601160045260246000fd5b6000611f568261195e565b9150611f618361195e565b9250827fffffffffffffffffffffffffffffffffffffffffffffffffffffffffffffffff03821115611f9657611f95611f1c565b5b828201905092915050565b7f4552433732313a2063616c6c6572206973206e6f7420746f6b656e206f776e6560008201527f72206f7220617070726f76656400000000000000000000000000000000000000602082015250565b6000611ffd602d836118ae565b915061200882611fa1565b604082019050919050565b6000602082019050818103600083015261202c81611ff0565b9050919050565b7f4552433732313a20696e76616c696420746f6b656e2049440000000000000000600082015250565b60006120696018836118ae565b915061207482612033565b602082019050919050565b600060208201905081810360008301526120988161205c565b9050919050565b7f4552433732313a2061646472657373207a65726f206973206e6f74206120766160008201527f6c6964206f776e65720000000000000000000000000000000000000000000000602082015250565b60006120fb6029836118ae565b91506121068261209f565b604082019050919050565b6000602082019050818103600083015261212a816120ee565b9050919050565b600081905092915050565b6000612147826118a3565b6121518185612131565b93506121618185602086016118bf565b80840191505092915050565b6000612179828561213c565b9150612185828461213c565b91508190509392505050565b7f4552433732313a207472616e736665722066726f6d20696e636f72726563742060008201527f6f776e6572000000000000000000000000000000000000000000000000000000602082015250565b60006121ed6025836118ae565b91506121f882612191565b604082019050919050565b6000602082019050818103600083015261221c816121e0565b9050919050565b7f4552433732313a207472616e7366657220746f20746865207a65726f2061646460008201527f7265737300000000000000000000000000000000000000000000000000000000602082015250565b600061227f6024836118ae565b915061228a82612223565b604082019050919050565b600060208201905081810360008301526122ae81612272565b9050919050565b7f4552433732313a20617070726f766520746f2063616c6c657200000000000000600082015250565b60006122eb6019836118ae565b91506122f6826122b5565b602082019050919050565b6000602082019050818103600083015261231a816122de565b9050919050565b7f4552433732313a207472616e7366657220746f206e6f6e20455243373231526560008201527f63656976657220696d706c656d656e7465720000000000000000000000000000602082015250565b600061237d6032836118ae565b915061238882612321565b604082019050919050565b600060208201905081810360008301526123ac81612370565b9050919050565b7f4e487b7100000000000000000000000000000000000000000000000000000000600052601260045260246000fd5b600081519050919050565b600082825260208201905092915050565b6000612409826123e2565b61241381856123ed565b93506124238185602086016118bf565b61242c816118f2565b840191505092915050565b600060808201905061244c60008301876119f3565b61245960208301866119f3565b6124666040830185611a89565b818103606083015261247881846123fe565b905095945050505050565b60008151905061249281611814565b92915050565b6000602082840312156124ae576124ad6117de565b5b60006124bc84828501612483565b91505092915050565b7f4552433732313a206d696e7420746f20746865207a65726f2061646472657373600082015250565b60006124fb6020836118ae565b9150612506826124c5565b602082019050919050565b6000602082019050818103600083015261252a816124ee565b9050919050565b7f4552433732313a20746f6b656e20616c7265616479206d696e74656400000000600082015250565b6000612567601c836118ae565b915061257282612531565b602082019050919050565b600060208201905081810360008301526125968161255a565b905091905056fea26469706673582212204a2f02ef56f098bc5450503f6a0d1f0c305ab29ad5ca61003c773d1f08fd35de64736f6c63430008080033",
  "linkReferences": {},
  "deployedLinkReferences": {}
}