{
  "_format": "hh-sol-artifact-1",
  "contractName": "BasicDutchAuction",
  "sourceName": "contracts/BasicDutchAuction.sol",
  "abi": [
    {
      "inputs": [
        {
          "internalType": "uint256",
          "name": "_reservePrice",
          "type": "uint256"
        },
        {
          "internalType": "uint256",
          "name": "_numBlocksAuctionOpen",
          "type": "uint256"
        },
        {
          "internalType": "uint256",
          "name": "_offerPriceDecrement",
          "type": "uint256"
        }
      ],
      "stateMutability": "nonpayable",
      "type": "constructor"
    },
    {
      "inputs": [],
      "name": "bid",
      "outputs": [],
      "stateMutability": "payable",
      "type": "function"
    },
    {
      "inputs": [],
      "name": "checkIfAuctionEnded",
      "outputs": [
        {
          "internalType": "bool",
          "name": "",
          "type": "bool"
        }
      ],
      "stateMutability": "view",
      "type": "function"
    },
    {
      "inputs": [],
      "name": "currentPrice",
      "outputs": [
        {
          "internalType": "uint256",
          "name": "",
          "type": "uint256"
        }
      ],
      "stateMutability": "view",
      "type": "function"
    },
    {
      "inputs": [],
      "name": "endAuction",
      "outputs": [],
      "stateMutability": "nonpayable",
      "type": "function"
    },
    {
      "inputs": [],
      "name": "ended",
      "outputs": [
        {
          "internalType": "bool",
          "name": "",
          "type": "bool"
        }
      ],
      "stateMutability": "view",
      "type": "function"
    },
    {
      "inputs": [],
      "name": "highestBid",
      "outputs": [
        {
          "internalType": "uint256",
          "name": "",
          "type": "uint256"
        }
      ],
      "stateMutability": "view",
      "type": "function"
    },
    {
      "inputs": [],
      "name": "highestBidder",
      "outputs": [
        {
          "internalType": "address payable",
          "name": "",
          "type": "address"
        }
      ],
      "stateMutability": "view",
      "type": "function"
    },
    {
      "inputs": [],
      "name": "initialPrice",
      "outputs": [
        {
          "internalType": "uint256",
          "name": "",
          "type": "uint256"
        }
      ],
      "stateMutability": "view",
      "type": "function"
    },
    {
      "inputs": [],
      "name": "numBlocksAuctionOpen",
      "outputs": [
        {
          "internalType": "uint256",
          "name": "",
          "type": "uint256"
        }
      ],
      "stateMutability": "view",
      "type": "function"
    },
    {
      "inputs": [],
      "name": "offerPriceDecrement",
      "outputs": [
        {
          "internalType": "uint256",
          "name": "",
          "type": "uint256"
        }
      ],
      "stateMutability": "view",
      "type": "function"
    },
    {
      "inputs": [],
      "name": "owner",
      "outputs": [
        {
          "internalType": "address",
          "name": "",
          "type": "address"
        }
      ],
      "stateMutability": "view",
      "type": "function"
    },
    {
      "inputs": [
        {
          "internalType": "address",
          "name": "",
          "type": "address"
        }
      ],
      "name": "refunds",
      "outputs": [
        {
          "internalType": "uint256",
          "name": "",
          "type": "uint256"
        }
      ],
      "stateMutability": "view",
      "type": "function"
    },
    {
      "inputs": [],
      "name": "reservePrice",
      "outputs": [
        {
          "internalType": "uint256",
          "name": "",
          "type": "uint256"
        }
      ],
      "stateMutability": "view",
      "type": "function"
    },
    {
      "inputs": [],
      "name": "startBlock",
      "outputs": [
        {
          "internalType": "uint256",
          "name": "",
          "type": "uint256"
        }
      ],
      "stateMutability": "view",
      "type": "function"
    }
  ],
  "bytecode": "0x60806040523480156200001157600080fd5b5060405162000f7538038062000f758339818101604052810190620000379190620000f5565b336000806101000a81548173ffffffffffffffffffffffffffffffffffffffff021916908373ffffffffffffffffffffffffffffffffffffffff1602179055508260018190555081600281905550806003819055506003546002546200009e9190620001a8565b600154620000ad91906200014b565b600481905550436005819055506000600660006101000a81548160ff0219169083151502179055505050506200025c565b600081519050620000ef8162000242565b92915050565b6000806000606084860312156200010b57600080fd5b60006200011b86828701620000de565b93505060206200012e86828701620000de565b92505060406200014186828701620000de565b9150509250925092565b6000620001588262000209565b9150620001658362000209565b9250827fffffffffffffffffffffffffffffffffffffffffffffffffffffffffffffffff038211156200019d576200019c62000213565b5b828201905092915050565b6000620001b58262000209565b9150620001c28362000209565b9250817fffffffffffffffffffffffffffffffffffffffffffffffffffffffffffffffff0483118215151615620001fe57620001fd62000213565b5b828202905092915050565b6000819050919050565b7f4e487b7100000000000000000000000000000000000000000000000000000000600052601160045260246000fd5b6200024d8162000209565b81146200025957600080fd5b50565b610d09806200026c6000396000f3fe6080604052600436106100dd5760003560e01c80639d1b464a1161007f578063d3642a8811610059578063d3642a8814610281578063d57bde79146102ac578063db2e1eed146102d7578063fe67a54b14610302576100dd565b80639d1b464a146101ee578063bc3da53514610219578063cf1f297414610256576100dd565b80633103ea62116100bb5780633103ea621461014257806348cd4cb11461016d5780638da5cb5b1461019857806391f90157146101c3576100dd565b806312fa6feb146100e25780631998aeef1461010d5780631d0806ae14610117575b600080fd5b3480156100ee57600080fd5b506100f7610319565b6040516101049190610975565b60405180910390f35b61011561032c565b005b34801561012357600080fd5b5061012c6105cc565b6040516101399190610a30565b60405180910390f35b34801561014e57600080fd5b506101576105d2565b6040516101649190610a30565b60405180910390f35b34801561017957600080fd5b506101826105d8565b60405161018f9190610a30565b60405180910390f35b3480156101a457600080fd5b506101ad6105de565b6040516101ba919061093f565b60405180910390f35b3480156101cf57600080fd5b506101d8610602565b6040516101e5919061095a565b60405180910390f35b3480156101fa57600080fd5b50610203610628565b6040516102109190610a30565b60405180910390f35b34801561022557600080fd5b50610240600480360381019061023b919061082b565b610671565b60405161024d9190610a30565b60405180910390f35b34801561026257600080fd5b5061026b610689565b6040516102789190610975565b60405180910390f35b34801561028d57600080fd5b506102966106a0565b6040516102a39190610a30565b60405180910390f35b3480156102b857600080fd5b506102c16106a6565b6040516102ce9190610a30565b60405180910390f35b3480156102e357600080fd5b506102ec6106ac565b6040516102f99190610a30565b60405180910390f35b34801561030e57600080fd5b506103176106b2565b005b600660009054906101000a900460ff1681565b60025460055461033c9190610a5c565b43111561037e576040517f08c379a0000000000000000000000000000000000000000000000000000000008152600401610375906109f0565b60405180910390fd5b600660009054906101000a900460ff16156103ce576040517f08c379a00000000000000000000000000000000000000000000000000000000081526004016103c5906109b0565b60405180910390fd5b6103d6610628565b341015610418576040517f08c379a000000000000000000000000000000000000000000000000000000000815260040161040f906109d0565b60405180910390fd5b600073ffffffffffffffffffffffffffffffffffffffff16600660019054906101000a900473ffffffffffffffffffffffffffffffffffffffff1673ffffffffffffffffffffffffffffffffffffffff16146104e95760075460086000600660019054906101000a900473ffffffffffffffffffffffffffffffffffffffff1673ffffffffffffffffffffffffffffffffffffffff1673ffffffffffffffffffffffffffffffffffffffff16815260200190815260200160002060008282546104e19190610a5c565b925050819055505b3460078190555033600660016101000a81548173ffffffffffffffffffffffffffffffffffffffff021916908373ffffffffffffffffffffffffffffffffffffffff1602179055506002546005546105419190610a5c565b43106105ca576001600660006101000a81548160ff02191690831515021790555060008054906101000a900473ffffffffffffffffffffffffffffffffffffffff1673ffffffffffffffffffffffffffffffffffffffff166108fc349081150290604051600060405180830381858888f193505050501580156105c8573d6000803e3d6000fd5b505b565b60045481565b60025481565b60055481565b60008054906101000a900473ffffffffffffffffffffffffffffffffffffffff1681565b600660019054906101000a900473ffffffffffffffffffffffffffffffffffffffff1681565b600080600554436106399190610b0c565b9050600254811061064f5760015491505061066e565b6003548161065d9190610ab2565b60045461066a9190610b0c565b9150505b90565b60086020528060005260406000206000915090505481565b6000600660009054906101000a900460ff16905090565b60035481565b60075481565b60015481565b60008054906101000a900473ffffffffffffffffffffffffffffffffffffffff1673ffffffffffffffffffffffffffffffffffffffff163373ffffffffffffffffffffffffffffffffffffffff1614610740576040517f08c379a000000000000000000000000000000000000000000000000000000000815260040161073790610990565b60405180910390fd5b600660009054906101000a900460ff1615610790576040517f08c379a000000000000000000000000000000000000000000000000000000000815260040161078790610a10565b60405180910390fd5b6001600660006101000a81548160ff02191690831515021790555060008054906101000a900473ffffffffffffffffffffffffffffffffffffffff1673ffffffffffffffffffffffffffffffffffffffff166108fc6007549081150290604051600060405180830381858888f19350505050158015610813573d6000803e3d6000fd5b50565b60008135905061082581610cbc565b92915050565b60006020828403121561083d57600080fd5b600061084b84828501610816565b91505092915050565b61085d81610b52565b82525050565b61086c81610b40565b82525050565b61087b81610b64565b82525050565b600061088e602283610a4b565b915061089982610bc9565b604082019050919050565b60006108b1601983610a4b565b91506108bc82610c18565b602082019050919050565b60006108d4601783610a4b565b91506108df82610c41565b602082019050919050565b60006108f7601a83610a4b565b915061090282610c6a565b602082019050919050565b600061091a601c83610a4b565b915061092582610c93565b602082019050919050565b61093981610b90565b82525050565b60006020820190506109546000830184610863565b92915050565b600060208201905061096f6000830184610854565b92915050565b600060208201905061098a6000830184610872565b92915050565b600060208201905081810360008301526109a981610881565b9050919050565b600060208201905081810360008301526109c9816108a4565b9050919050565b600060208201905081810360008301526109e9816108c7565b9050919050565b60006020820190508181036000830152610a09816108ea565b9050919050565b60006020820190508181036000830152610a298161090d565b9050919050565b6000602082019050610a456000830184610930565b92915050565b600082825260208201905092915050565b6000610a6782610b90565b9150610a7283610b90565b9250827fffffffffffffffffffffffffffffffffffffffffffffffffffffffffffffffff03821115610aa757610aa6610b9a565b5b828201905092915050565b6000610abd82610b90565b9150610ac883610b90565b9250817fffffffffffffffffffffffffffffffffffffffffffffffffffffffffffffffff0483118215151615610b0157610b00610b9a565b5b828202905092915050565b6000610b1782610b90565b9150610b2283610b90565b925082821015610b3557610b34610b9a565b5b828203905092915050565b6000610b4b82610b70565b9050919050565b6000610b5d82610b70565b9050919050565b60008115159050919050565b600073ffffffffffffffffffffffffffffffffffffffff82169050919050565b6000819050919050565b7f4e487b7100000000000000000000000000000000000000000000000000000000600052601160045260246000fd5b7f4f6e6c7920746865206f776e65722063616e20656e642074686520617563746960008201527f6f6e000000000000000000000000000000000000000000000000000000000000602082015250565b7f41756374696f6e20697320616c726561647920656e6465642e00000000000000600082015250565b7f426964206973206e6f74206869676820656e6f7567682e000000000000000000600082015250565b7f41756374696f6e20697320616c726561647920636c6f7365642e000000000000600082015250565b7f5468652061756374696f6e20697320616c726561647920656e64656400000000600082015250565b610cc581610b40565b8114610cd057600080fd5b5056fea26469706673582212209dde36b5d24da10cd613982a9526a10ca5d89c820f55e59ee8021f72e35cb6d464736f6c63430008040033",
  "linkReferences": {},
  "deployedLinkReferences": {}
}