{
  "_format": "hh-sol-artifact-1",
  "contractName": "NFTDutchAuction_ERC20Bids",
  "sourceName": "contracts/NFTDutchAuction_ERC20Bids.sol",
  "abi": [
    {
      "inputs": [
        {
          "internalType": "address",
          "name": "erc20TokenAddress",
          "type": "address"
        },
        {
          "internalType": "address",
          "name": "erc721TokenAddress",
          "type": "address"
        },
        {
          "internalType": "uint256",
          "name": "nftTokenId",
          "type": "uint256"
        },
        {
          "internalType": "uint256",
          "name": "_reservePrice",
          "type": "uint256"
        },
        {
          "internalType": "uint256",
          "name": "_numBlocksAuctionOpen",
          "type": "uint256"
        },
        {
          "internalType": "uint256",
          "name": "_offerPriceDecrement",
          "type": "uint256"
        }
      ],
      "stateMutability": "nonpayable",
      "type": "constructor"
    },
    {
      "anonymous": false,
      "inputs": [
        {
          "indexed": true,
          "internalType": "address",
          "name": "previousOwner",
          "type": "address"
        },
        {
          "indexed": true,
          "internalType": "address",
          "name": "newOwner",
          "type": "address"
        }
      ],
      "name": "OwnershipTransferred",
      "type": "event"
    },
    {
      "inputs": [
        {
          "internalType": "uint256",
          "name": "bidAmount",
          "type": "uint256"
        },
        {
          "internalType": "uint256",
          "name": "deadline",
          "type": "uint256"
        },
        {
          "internalType": "uint8",
          "name": "v",
          "type": "uint8"
        },
        {
          "internalType": "bytes32",
          "name": "r",
          "type": "bytes32"
        },
        {
          "internalType": "bytes32",
          "name": "s",
          "type": "bytes32"
        }
      ],
      "name": "bid",
      "outputs": [],
      "stateMutability": "nonpayable",
      "type": "function"
    },
    {
      "inputs": [],
      "name": "currentPrice",
      "outputs": [
        {
          "internalType": "uint256",
          "name": "",
          "type": "uint256"
        }
      ],
      "stateMutability": "view",
      "type": "function"
    },
    {
      "inputs": [],
      "name": "endAuction",
      "outputs": [],
      "stateMutability": "nonpayable",
      "type": "function"
    },
    {
      "inputs": [],
      "name": "ended",
      "outputs": [
        {
          "internalType": "bool",
          "name": "",
          "type": "bool"
        }
      ],
      "stateMutability": "view",
      "type": "function"
    },
    {
      "inputs": [],
      "name": "erc20Token",
      "outputs": [
        {
          "internalType": "contract MyToken",
          "name": "",
          "type": "address"
        }
      ],
      "stateMutability": "view",
      "type": "function"
    },
    {
      "inputs": [],
      "name": "erc721Token",
      "outputs": [
        {
          "internalType": "contract ERC721",
          "name": "",
          "type": "address"
        }
      ],
      "stateMutability": "view",
      "type": "function"
    },
    {
      "inputs": [],
      "name": "getNftTokenId",
      "outputs": [
        {
          "internalType": "uint256",
          "name": "",
          "type": "uint256"
        }
      ],
      "stateMutability": "view",
      "type": "function"
    },
    {
      "inputs": [],
      "name": "highestBid",
      "outputs": [
        {
          "internalType": "uint256",
          "name": "",
          "type": "uint256"
        }
      ],
      "stateMutability": "view",
      "type": "function"
    },
    {
      "inputs": [],
      "name": "highestBidder",
      "outputs": [
        {
          "internalType": "address",
          "name": "",
          "type": "address"
        }
      ],
      "stateMutability": "view",
      "type": "function"
    },
    {
      "inputs": [],
      "name": "initialPrice",
      "outputs": [
        {
          "internalType": "uint256",
          "name": "",
          "type": "uint256"
        }
      ],
      "stateMutability": "view",
      "type": "function"
    },
    {
      "inputs": [],
      "name": "numBlocksAuctionOpen",
      "outputs": [
        {
          "internalType": "uint256",
          "name": "",
          "type": "uint256"
        }
      ],
      "stateMutability": "view",
      "type": "function"
    },
    {
      "inputs": [],
      "name": "offerPriceDecrement",
      "outputs": [
        {
          "internalType": "uint256",
          "name": "",
          "type": "uint256"
        }
      ],
      "stateMutability": "view",
      "type": "function"
    },
    {
      "inputs": [],
      "name": "owner",
      "outputs": [
        {
          "internalType": "address",
          "name": "",
          "type": "address"
        }
      ],
      "stateMutability": "view",
      "type": "function"
    },
    {
      "inputs": [
        {
          "internalType": "address",
          "name": "",
          "type": "address"
        }
      ],
      "name": "refunds",
      "outputs": [
        {
          "internalType": "uint256",
          "name": "",
          "type": "uint256"
        }
      ],
      "stateMutability": "view",
      "type": "function"
    },
    {
      "inputs": [],
      "name": "renounceOwnership",
      "outputs": [],
      "stateMutability": "nonpayable",
      "type": "function"
    },
    {
      "inputs": [],
      "name": "reservePrice",
      "outputs": [
        {
          "internalType": "uint256",
          "name": "",
          "type": "uint256"
        }
      ],
      "stateMutability": "view",
      "type": "function"
    },
    {
      "inputs": [],
      "name": "startBlock",
      "outputs": [
        {
          "internalType": "uint256",
          "name": "",
          "type": "uint256"
        }
      ],
      "stateMutability": "view",
      "type": "function"
    },
    {
      "inputs": [
        {
          "internalType": "address",
          "name": "newOwner",
          "type": "address"
        }
      ],
      "name": "transferOwnership",
      "outputs": [],
      "stateMutability": "nonpayable",
      "type": "function"
    },
    {
      "inputs": [],
      "name": "withdraw",
      "outputs": [],
      "stateMutability": "nonpayable",
      "type": "function"
    }
  ],
  "bytecode": "0x60806040523480156200001157600080fd5b50604051620019f0380380620019f08339818101604052810190620000379190620002c5565b60016000819055506200005f620000536200015260201b60201c565b6200015a60201b60201c565b84600260006101000a81548173ffffffffffffffffffffffffffffffffffffffff021916908373ffffffffffffffffffffffffffffffffffffffff16021790555085600360006101000a81548173ffffffffffffffffffffffffffffffffffffffff021916908373ffffffffffffffffffffffffffffffffffffffff16021790555083600c819055508260048190555081600581905550806006819055506006546005546200010f919062000390565b6004546200011e9190620003f1565b600781905550436008819055506000600960006101000a81548160ff0219169083151502179055505050505050506200044e565b600033905090565b6000600160009054906101000a900473ffffffffffffffffffffffffffffffffffffffff16905081600160006101000a81548173ffffffffffffffffffffffffffffffffffffffff021916908373ffffffffffffffffffffffffffffffffffffffff1602179055508173ffffffffffffffffffffffffffffffffffffffff168173ffffffffffffffffffffffffffffffffffffffff167f8be0079c531659141344cd1fd0a4f28419497f9722a3daafe3b4186f6b6457e060405160405180910390a35050565b600080fd5b600073ffffffffffffffffffffffffffffffffffffffff82169050919050565b6000620002528262000225565b9050919050565b620002648162000245565b81146200027057600080fd5b50565b600081519050620002848162000259565b92915050565b6000819050919050565b6200029f816200028a565b8114620002ab57600080fd5b50565b600081519050620002bf8162000294565b92915050565b60008060008060008060c08789031215620002e557620002e462000220565b5b6000620002f589828a0162000273565b96505060206200030889828a0162000273565b95505060406200031b89828a01620002ae565b94505060606200032e89828a01620002ae565b93505060806200034189828a01620002ae565b92505060a06200035489828a01620002ae565b9150509295509295509295565b7f4e487b7100000000000000000000000000000000000000000000000000000000600052601160045260246000fd5b60006200039d826200028a565b9150620003aa836200028a565b9250817fffffffffffffffffffffffffffffffffffffffffffffffffffffffffffffffff0483118215151615620003e657620003e562000361565b5b828202905092915050565b6000620003fe826200028a565b91506200040b836200028a565b9250827fffffffffffffffffffffffffffffffffffffffffffffffffffffffffffffffff0382111562000443576200044262000361565b5b828201905092915050565b611592806200045e6000396000f3fe608060405234801561001057600080fd5b50600436106101215760003560e01c806391f90157116100ad578063d57bde7911610071578063d57bde79146102b4578063d7d86b0c146102d2578063db2e1eed146102ee578063f2fde38b1461030c578063fe67a54b1461032857610121565b806391f901571461020c5780639d1b464a1461022a578063bc3da53514610248578063d327d15514610278578063d3642a881461029657610121565b806348cd4cb1116100f457806348cd4cb11461018a5780635f2d6bcd146101a8578063715018a6146101c65780638a13eea7146101d05780638da5cb5b146101ee57610121565b806312fa6feb146101265780631d0806ae146101445780633103ea62146101625780633ccfd60b14610180575b600080fd5b61012e610332565b60405161013b9190610ddb565b60405180910390f35b61014c610345565b6040516101599190610e0f565b60405180910390f35b61016a61034b565b6040516101779190610e0f565b60405180910390f35b610188610351565b005b6101926104d0565b60405161019f9190610e0f565b60405180910390f35b6101b06104d6565b6040516101bd9190610ea9565b60405180910390f35b6101ce6104fc565b005b6101d8610510565b6040516101e59190610ee5565b60405180910390f35b6101f6610536565b6040516102039190610f21565b60405180910390f35b610214610560565b6040516102219190610f21565b60405180910390f35b610232610586565b60405161023f9190610e0f565b60405180910390f35b610262600480360381019061025d9190610f6d565b6105cf565b60405161026f9190610e0f565b60405180910390f35b6102806105e7565b60405161028d9190610e0f565b60405180910390f35b61029e6105f1565b6040516102ab9190610e0f565b60405180910390f35b6102bc6105f7565b6040516102c99190610e0f565b60405180910390f35b6102ec60048036038101906102e79190611035565b6105fd565b005b6102f66106a6565b6040516103039190610e0f565b60405180910390f35b61032660048036038101906103219190610f6d565b6106ac565b005b610330610730565b005b600960009054906101000a900460ff1681565b60075481565b60055481565b6000600b60003373ffffffffffffffffffffffffffffffffffffffff1673ffffffffffffffffffffffffffffffffffffffff168152602001908152602001600020549050600081116103d8576040517f08c379a00000000000000000000000000000000000000000000000000000000081526004016103cf9061110d565b60405180910390fd5b6000600b60003373ffffffffffffffffffffffffffffffffffffffff1673ffffffffffffffffffffffffffffffffffffffff16815260200190815260200160002081905550600360009054906101000a900473ffffffffffffffffffffffffffffffffffffffff1673ffffffffffffffffffffffffffffffffffffffff1663a9059cbb33836040518363ffffffff1660e01b815260040161047a92919061112d565b602060405180830381600087803b15801561049457600080fd5b505af11580156104a8573d6000803e3d6000fd5b505050506040513d601f19601f820116820180604052508101906104cc9190611182565b5050565b60085481565b600260009054906101000a900473ffffffffffffffffffffffffffffffffffffffff1681565b610504610971565b61050e60006109ef565b565b600360009054906101000a900473ffffffffffffffffffffffffffffffffffffffff1681565b6000600160009054906101000a900473ffffffffffffffffffffffffffffffffffffffff16905090565b600960019054906101000a900473ffffffffffffffffffffffffffffffffffffffff1681565b6000806008544361059791906111de565b905060055481106105ad576004549150506105cc565b600654816105bb9190611212565b6007546105c891906111de565b9150505b90565b600b6020528060005260406000206000915090505481565b6000600c54905090565b60065481565b600a5481565b600360009054906101000a900473ffffffffffffffffffffffffffffffffffffffff1673ffffffffffffffffffffffffffffffffffffffff1663d505accf333088888888886040518863ffffffff1660e01b8152600401610664979695949392919061128a565b600060405180830381600087803b15801561067e57600080fd5b505af1158015610692573d6000803e3d6000fd5b5050505061069f85610ab5565b5050505050565b60045481565b6106b4610971565b600073ffffffffffffffffffffffffffffffffffffffff168173ffffffffffffffffffffffffffffffffffffffff161415610724576040517f08c379a000000000000000000000000000000000000000000000000000000000815260040161071b9061136b565b60405180910390fd5b61072d816109ef565b50565b610738610971565b600960009054906101000a900460ff1615610788576040517f08c379a000000000000000000000000000000000000000000000000000000000815260040161077f906113d7565b60405180910390fd5b6001600960006101000a81548160ff021916908315150217905550600073ffffffffffffffffffffffffffffffffffffffff16600960019054906101000a900473ffffffffffffffffffffffffffffffffffffffff1673ffffffffffffffffffffffffffffffffffffffff161461096f57600260009054906101000a900473ffffffffffffffffffffffffffffffffffffffff1673ffffffffffffffffffffffffffffffffffffffff166323b872dd61083f610536565b600960019054906101000a900473ffffffffffffffffffffffffffffffffffffffff16600c546040518463ffffffff1660e01b8152600401610883939291906113f7565b600060405180830381600087803b15801561089d57600080fd5b505af11580156108b1573d6000803e3d6000fd5b50505050600360009054906101000a900473ffffffffffffffffffffffffffffffffffffffff1673ffffffffffffffffffffffffffffffffffffffff1663a9059cbb6108fb610536565b600a546040518363ffffffff1660e01b815260040161091b92919061112d565b602060405180830381600087803b15801561093557600080fd5b505af1158015610949573d6000803e3d6000fd5b505050506040513d601f19601f8201168201806040525081019061096d9190611182565b505b565b610979610db8565b73ffffffffffffffffffffffffffffffffffffffff16610997610536565b73ffffffffffffffffffffffffffffffffffffffff16146109ed576040517f08c379a00000000000000000000000000000000000000000000000000000000081526004016109e49061147a565b60405180910390fd5b565b6000600160009054906101000a900473ffffffffffffffffffffffffffffffffffffffff16905081600160006101000a81548173ffffffffffffffffffffffffffffffffffffffff021916908373ffffffffffffffffffffffffffffffffffffffff1602179055508173ffffffffffffffffffffffffffffffffffffffff168173ffffffffffffffffffffffffffffffffffffffff167f8be0079c531659141344cd1fd0a4f28419497f9722a3daafe3b4186f6b6457e060405160405180910390a35050565b610abd610586565b811015610aff576040517f08c379a0000000000000000000000000000000000000000000000000000000008152600401610af6906114e6565b60405180910390fd5b600360009054906101000a900473ffffffffffffffffffffffffffffffffffffffff1673ffffffffffffffffffffffffffffffffffffffff166323b872dd3330846040518463ffffffff1660e01b8152600401610b5e939291906113f7565b602060405180830381600087803b158015610b7857600080fd5b505af1158015610b8c573d6000803e3d6000fd5b505050506040513d601f19601f82011682018060405250810190610bb09190611182565b50600073ffffffffffffffffffffffffffffffffffffffff16600960019054906101000a900473ffffffffffffffffffffffffffffffffffffffff1673ffffffffffffffffffffffffffffffffffffffff1614610c8257600a54600b6000600960019054906101000a900473ffffffffffffffffffffffffffffffffffffffff1673ffffffffffffffffffffffffffffffffffffffff1673ffffffffffffffffffffffffffffffffffffffff1681526020019081526020016000206000828254610c7a9190611506565b925050819055505b80600a8190555033600960016101000a81548173ffffffffffffffffffffffffffffffffffffffff021916908373ffffffffffffffffffffffffffffffffffffffff160217905550600554600854610cda9190611506565b4310610db5576001600960006101000a81548160ff021916908315150217905550600360009054906101000a900473ffffffffffffffffffffffffffffffffffffffff1673ffffffffffffffffffffffffffffffffffffffff1663a9059cbb610d41610536565b600a546040518363ffffffff1660e01b8152600401610d6192919061112d565b602060405180830381600087803b158015610d7b57600080fd5b505af1158015610d8f573d6000803e3d6000fd5b505050506040513d601f19601f82011682018060405250810190610db39190611182565b505b50565b600033905090565b60008115159050919050565b610dd581610dc0565b82525050565b6000602082019050610df06000830184610dcc565b92915050565b6000819050919050565b610e0981610df6565b82525050565b6000602082019050610e246000830184610e00565b92915050565b600073ffffffffffffffffffffffffffffffffffffffff82169050919050565b6000819050919050565b6000610e6f610e6a610e6584610e2a565b610e4a565b610e2a565b9050919050565b6000610e8182610e54565b9050919050565b6000610e9382610e76565b9050919050565b610ea381610e88565b82525050565b6000602082019050610ebe6000830184610e9a565b92915050565b6000610ecf82610e76565b9050919050565b610edf81610ec4565b82525050565b6000602082019050610efa6000830184610ed6565b92915050565b6000610f0b82610e2a565b9050919050565b610f1b81610f00565b82525050565b6000602082019050610f366000830184610f12565b92915050565b600080fd5b610f4a81610f00565b8114610f5557600080fd5b50565b600081359050610f6781610f41565b92915050565b600060208284031215610f8357610f82610f3c565b5b6000610f9184828501610f58565b91505092915050565b610fa381610df6565b8114610fae57600080fd5b50565b600081359050610fc081610f9a565b92915050565b600060ff82169050919050565b610fdc81610fc6565b8114610fe757600080fd5b50565b600081359050610ff981610fd3565b92915050565b6000819050919050565b61101281610fff565b811461101d57600080fd5b50565b60008135905061102f81611009565b92915050565b600080600080600060a0868803121561105157611050610f3c565b5b600061105f88828901610fb1565b955050602061107088828901610fb1565b945050604061108188828901610fea565b935050606061109288828901611020565b92505060806110a388828901611020565b9150509295509295909350565b600082825260208201905092915050565b7f4e6f20726566756e6420617661696c61626c6500000000000000000000000000600082015250565b60006110f76013836110b0565b9150611102826110c1565b602082019050919050565b60006020820190508181036000830152611126816110ea565b9050919050565b60006040820190506111426000830185610f12565b61114f6020830184610e00565b9392505050565b61115f81610dc0565b811461116a57600080fd5b50565b60008151905061117c81611156565b92915050565b60006020828403121561119857611197610f3c565b5b60006111a68482850161116d565b91505092915050565b7f4e487b7100000000000000000000000000000000000000000000000000000000600052601160045260246000fd5b60006111e982610df6565b91506111f483610df6565b925082821015611207576112066111af565b5b828203905092915050565b600061121d82610df6565b915061122883610df6565b9250817fffffffffffffffffffffffffffffffffffffffffffffffffffffffffffffffff0483118215151615611261576112606111af565b5b828202905092915050565b61127581610fc6565b82525050565b61128481610fff565b82525050565b600060e08201905061129f600083018a610f12565b6112ac6020830189610f12565b6112b96040830188610e00565b6112c66060830187610e00565b6112d3608083018661126c565b6112e060a083018561127b565b6112ed60c083018461127b565b98975050505050505050565b7f4f776e61626c653a206e6577206f776e657220697320746865207a65726f206160008201527f6464726573730000000000000000000000000000000000000000000000000000602082015250565b60006113556026836110b0565b9150611360826112f9565b604082019050919050565b6000602082019050818103600083015261138481611348565b9050919050565b7f5468652061756374696f6e20697320616c726561647920656e64656400000000600082015250565b60006113c1601c836110b0565b91506113cc8261138b565b602082019050919050565b600060208201905081810360008301526113f0816113b4565b9050919050565b600060608201905061140c6000830186610f12565b6114196020830185610f12565b6114266040830184610e00565b949350505050565b7f4f776e61626c653a2063616c6c6572206973206e6f7420746865206f776e6572600082015250565b60006114646020836110b0565b915061146f8261142e565b602082019050919050565b6000602082019050818103600083015261149381611457565b9050919050565b7f426964206973206e6f74206869676820656e6f7567682e000000000000000000600082015250565b60006114d06017836110b0565b91506114db8261149a565b602082019050919050565b600060208201905081810360008301526114ff816114c3565b9050919050565b600061151182610df6565b915061151c83610df6565b9250827fffffffffffffffffffffffffffffffffffffffffffffffffffffffffffffffff03821115611551576115506111af565b5b82820190509291505056fea26469706673582212202ec31f7a9e3efe3712029505c4a9bc6c443b70d2a3290da75c97b53b19ded2da64736f6c63430008080033",
  "linkReferences": {},
  "deployedLinkReferences": {}
}