{
  "_format": "hh-sol-artifact-1",
  "contractName": "MyNFT",
  "sourceName": "contracts/MyNFT.sol",
  "abi": [
    {
      "anonymous": false,
      "inputs": [
        {
          "indexed": true,
          "internalType": "address",
          "name": "owner",
          "type": "address"
        },
        {
          "indexed": true,
          "internalType": "address",
          "name": "approved",
          "type": "address"
        },
        {
          "indexed": true,
          "internalType": "uint256",
          "name": "tokenId",
          "type": "uint256"
        }
      ],
      "name": "Approval",
      "type": "event"
    },
    {
      "anonymous": false,
      "inputs": [
        {
          "indexed": true,
          "internalType": "address",
          "name": "owner",
          "type": "address"
        },
        {
          "indexed": true,
          "internalType": "address",
          "name": "operator",
          "type": "address"
        },
        {
          "indexed": false,
          "internalType": "bool",
          "name": "approved",
          "type": "bool"
        }
      ],
      "name": "ApprovalForAll",
      "type": "event"
    },
    {
      "anonymous": false,
      "inputs": [
        {
          "indexed": false,
          "internalType": "uint8",
          "name": "version",
          "type": "uint8"
        }
      ],
      "name": "Initialized",
      "type": "event"
    },
    {
      "anonymous": false,
      "inputs": [
        {
          "indexed": true,
          "internalType": "address",
          "name": "from",
          "type": "address"
        },
        {
          "indexed": true,
          "internalType": "address",
          "name": "to",
          "type": "address"
        },
        {
          "indexed": true,
          "internalType": "uint256",
          "name": "tokenId",
          "type": "uint256"
        }
      ],
      "name": "Transfer",
      "type": "event"
    },
    {
      "inputs": [
        {
          "internalType": "address",
          "name": "to",
          "type": "address"
        },
        {
          "internalType": "uint256",
          "name": "tokenId",
          "type": "uint256"
        }
      ],
      "name": "approve",
      "outputs": [],
      "stateMutability": "nonpayable",
      "type": "function"
    },
    {
      "inputs": [
        {
          "internalType": "address",
          "name": "owner",
          "type": "address"
        }
      ],
      "name": "balanceOf",
      "outputs": [
        {
          "internalType": "uint256",
          "name": "",
          "type": "uint256"
        }
      ],
      "stateMutability": "view",
      "type": "function"
    },
    {
      "inputs": [],
      "name": "createCollectible",
      "outputs": [
        {
          "internalType": "uint256",
          "name": "",
          "type": "uint256"
        }
      ],
      "stateMutability": "nonpayable",
      "type": "function"
    },
    {
      "inputs": [
        {
          "internalType": "uint256",
          "name": "tokenId",
          "type": "uint256"
        }
      ],
      "name": "getApproved",
      "outputs": [
        {
          "internalType": "address",
          "name": "",
          "type": "address"
        }
      ],
      "stateMutability": "view",
      "type": "function"
    },
    {
      "inputs": [
        {
          "internalType": "string",
          "name": "name",
          "type": "string"
        },
        {
          "internalType": "string",
          "name": "symbol",
          "type": "string"
        }
      ],
      "name": "initialize",
      "outputs": [],
      "stateMutability": "nonpayable",
      "type": "function"
    },
    {
      "inputs": [
        {
          "internalType": "address",
          "name": "owner",
          "type": "address"
        },
        {
          "internalType": "address",
          "name": "operator",
          "type": "address"
        }
      ],
      "name": "isApprovedForAll",
      "outputs": [
        {
          "internalType": "bool",
          "name": "",
          "type": "bool"
        }
      ],
      "stateMutability": "view",
      "type": "function"
    },
    {
      "inputs": [],
      "name": "name",
      "outputs": [
        {
          "internalType": "string",
          "name": "",
          "type": "string"
        }
      ],
      "stateMutability": "view",
      "type": "function"
    },
    {
      "inputs": [
        {
          "internalType": "uint256",
          "name": "tokenId",
          "type": "uint256"
        }
      ],
      "name": "ownerOf",
      "outputs": [
        {
          "internalType": "address",
          "name": "",
          "type": "address"
        }
      ],
      "stateMutability": "view",
      "type": "function"
    },
    {
      "inputs": [
        {
          "internalType": "address",
          "name": "from",
          "type": "address"
        },
        {
          "internalType": "address",
          "name": "to",
          "type": "address"
        },
        {
          "internalType": "uint256",
          "name": "tokenId",
          "type": "uint256"
        }
      ],
      "name": "safeTransferFrom",
      "outputs": [],
      "stateMutability": "nonpayable",
      "type": "function"
    },
    {
      "inputs": [
        {
          "internalType": "address",
          "name": "from",
          "type": "address"
        },
        {
          "internalType": "address",
          "name": "to",
          "type": "address"
        },
        {
          "internalType": "uint256",
          "name": "tokenId",
          "type": "uint256"
        },
        {
          "internalType": "bytes",
          "name": "data",
          "type": "bytes"
        }
      ],
      "name": "safeTransferFrom",
      "outputs": [],
      "stateMutability": "nonpayable",
      "type": "function"
    },
    {
      "inputs": [
        {
          "internalType": "address",
          "name": "operator",
          "type": "address"
        },
        {
          "internalType": "bool",
          "name": "approved",
          "type": "bool"
        }
      ],
      "name": "setApprovalForAll",
      "outputs": [],
      "stateMutability": "nonpayable",
      "type": "function"
    },
    {
      "inputs": [
        {
          "internalType": "bytes4",
          "name": "interfaceId",
          "type": "bytes4"
        }
      ],
      "name": "supportsInterface",
      "outputs": [
        {
          "internalType": "bool",
          "name": "",
          "type": "bool"
        }
      ],
      "stateMutability": "view",
      "type": "function"
    },
    {
      "inputs": [],
      "name": "symbol",
      "outputs": [
        {
          "internalType": "string",
          "name": "",
          "type": "string"
        }
      ],
      "stateMutability": "view",
      "type": "function"
    },
    {
      "inputs": [],
      "name": "tokenCounter",
      "outputs": [
        {
          "internalType": "uint256",
          "name": "",
          "type": "uint256"
        }
      ],
      "stateMutability": "view",
      "type": "function"
    },
    {
      "inputs": [
        {
          "internalType": "uint256",
          "name": "tokenId",
          "type": "uint256"
        }
      ],
      "name": "tokenURI",
      "outputs": [
        {
          "internalType": "string",
          "name": "",
          "type": "string"
        }
      ],
      "stateMutability": "view",
      "type": "function"
    },
    {
      "inputs": [
        {
          "internalType": "address",
          "name": "from",
          "type": "address"
        },
        {
          "internalType": "address",
          "name": "to",
          "type": "address"
        },
        {
          "internalType": "uint256",
          "name": "tokenId",
          "type": "uint256"
        }
      ],
      "name": "transferFrom",
      "outputs": [],
      "stateMutability": "nonpayable",
      "type": "function"
    }
  ],
  "bytecode": "0x608060405234801561001057600080fd5b50612bf4806100206000396000f3fe608060405234801561001057600080fd5b50600436106101005760003560e01c80636352211e11610097578063b88d4fde11610066578063b88d4fde146102ab578063c87b56dd146102c7578063d082e381146102f7578063e985e9c51461031557610100565b80636352211e1461021157806370a082311461024157806395d89b4114610271578063a22cb4651461028f57610100565b80631e661710116100d35780631e6617101461019f57806323b872dd146101bd57806342842e0e146101d95780634cd88b76146101f557610100565b806301ffc9a71461010557806306fdde0314610135578063081812fc14610153578063095ea7b314610183575b600080fd5b61011f600480360381019061011a9190611ed6565b610345565b60405161012c91906122ee565b60405180910390f35b61013d610427565b60405161014a9190612324565b60405180910390f35b61016d60048036038101906101689190611f94565b6104b9565b60405161017a9190612287565b60405180910390f35b61019d60048036038101906101989190611e9a565b6104ff565b005b6101a7610617565b6040516101b491906124e6565b60405180910390f35b6101d760048036038101906101d29190611d94565b610645565b005b6101f360048036038101906101ee9190611d94565b6106a5565b005b61020f600480360381019061020a9190611f28565b6106c5565b005b61022b60048036038101906102269190611f94565b61080f565b6040516102389190612287565b60405180910390f35b61025b60048036038101906102569190611d2f565b610896565b60405161026891906124e6565b60405180910390f35b61027961094e565b6040516102869190612324565b60405180910390f35b6102a960048036038101906102a49190611e5e565b6109e0565b005b6102c560048036038101906102c09190611de3565b6109f6565b005b6102e160048036038101906102dc9190611f94565b610a58565b6040516102ee9190612324565b60405180910390f35b6102ff610ac0565b60405161030c91906124e6565b60405180910390f35b61032f600480360381019061032a9190611d58565b610ac6565b60405161033c91906122ee565b60405180910390f35b60007f80ac58cd000000000000000000000000000000000000000000000000000000007bffffffffffffffffffffffffffffffffffffffffffffffffffffffff1916827bffffffffffffffffffffffffffffffffffffffffffffffffffffffff1916148061041057507f5b5e139f000000000000000000000000000000000000000000000000000000007bffffffffffffffffffffffffffffffffffffffffffffffffffffffff1916827bffffffffffffffffffffffffffffffffffffffffffffffffffffffff1916145b80610420575061041f82610b5a565b5b9050919050565b606060658054610436906126f6565b80601f0160208091040260200160405190810160405280929190818152602001828054610462906126f6565b80156104af5780601f10610484576101008083540402835291602001916104af565b820191906000526020600020905b81548152906001019060200180831161049257829003601f168201915b5050505050905090565b60006104c482610bc4565b6069600083815260200190815260200160002060009054906101000a900473ffffffffffffffffffffffffffffffffffffffff169050919050565b600061050a8261080f565b90508073ffffffffffffffffffffffffffffffffffffffff168373ffffffffffffffffffffffffffffffffffffffff16141561057b576040517f08c379a000000000000000000000000000000000000000000000000000000000815260040161057290612486565b60405180910390fd5b8073ffffffffffffffffffffffffffffffffffffffff1661059a610c0f565b73ffffffffffffffffffffffffffffffffffffffff1614806105c957506105c8816105c3610c0f565b610ac6565b5b610608576040517f08c379a00000000000000000000000000000000000000000000000000000000081526004016105ff906124a6565b60405180910390fd5b6106128383610c17565b505050565b60008060975490506106293382610cd0565b600160975461063891906125cb565b6097819055508091505090565b610656610650610c0f565b82610cee565b610695576040517f08c379a000000000000000000000000000000000000000000000000000000000815260040161068c90612346565b60405180910390fd5b6106a0838383610d83565b505050565b6106c0838383604051806020016040528060008152506109f6565b505050565b60008060019054906101000a900460ff161590508080156106f65750600160008054906101000a900460ff1660ff16105b8061072357506107053061107d565b1580156107225750600160008054906101000a900460ff1660ff16145b5b610762576040517f08c379a000000000000000000000000000000000000000000000000000000000815260040161075990612426565b60405180910390fd5b60016000806101000a81548160ff021916908360ff160217905550801561079f576001600060016101000a81548160ff0219169083151502179055505b6107a983836110a0565b6000609781905550801561080a5760008060016101000a81548160ff0219169083151502179055507f7f26b83ff96e1f2b6a682f133852f6798a09c465da95921460cefb384740249860016040516108019190612309565b60405180910390a15b505050565b60008061081b836110fd565b9050600073ffffffffffffffffffffffffffffffffffffffff168173ffffffffffffffffffffffffffffffffffffffff16141561088d576040517f08c379a000000000000000000000000000000000000000000000000000000000815260040161088490612466565b60405180910390fd5b80915050919050565b60008073ffffffffffffffffffffffffffffffffffffffff168273ffffffffffffffffffffffffffffffffffffffff161415610907576040517f08c379a00000000000000000000000000000000000000000000000000000000081526004016108fe90612406565b60405180910390fd5b606860008373ffffffffffffffffffffffffffffffffffffffff1673ffffffffffffffffffffffffffffffffffffffff168152602001908152602001600020549050919050565b60606066805461095d906126f6565b80601f0160208091040260200160405190810160405280929190818152602001828054610989906126f6565b80156109d65780601f106109ab576101008083540402835291602001916109d6565b820191906000526020600020905b8154815290600101906020018083116109b957829003601f168201915b5050505050905090565b6109f26109eb610c0f565b838361113a565b5050565b610a07610a01610c0f565b83610cee565b610a46576040517f08c379a0000000000000000000000000000000000000000000000000000000008152600401610a3d90612346565b60405180910390fd5b610a52848484846112a7565b50505050565b6060610a6382610bc4565b6000610a6d611303565b90506000815111610a8d5760405180602001604052806000815250610ab8565b80610a978461131a565b604051602001610aa8929190612263565b6040516020818303038152906040525b915050919050565b60975481565b6000606a60008473ffffffffffffffffffffffffffffffffffffffff1673ffffffffffffffffffffffffffffffffffffffff16815260200190815260200160002060008373ffffffffffffffffffffffffffffffffffffffff1673ffffffffffffffffffffffffffffffffffffffff16815260200190815260200160002060009054906101000a900460ff16905092915050565b60007f01ffc9a7000000000000000000000000000000000000000000000000000000007bffffffffffffffffffffffffffffffffffffffffffffffffffffffff1916827bffffffffffffffffffffffffffffffffffffffffffffffffffffffff1916149050919050565b610bcd8161143e565b610c0c576040517f08c379a0000000000000000000000000000000000000000000000000000000008152600401610c0390612466565b60405180910390fd5b50565b600033905090565b816069600083815260200190815260200160002060006101000a81548173ffffffffffffffffffffffffffffffffffffffff021916908373ffffffffffffffffffffffffffffffffffffffff160217905550808273ffffffffffffffffffffffffffffffffffffffff16610c8a8361080f565b73ffffffffffffffffffffffffffffffffffffffff167f8c5be1e5ebec7d5bd14f71427d1e84f3dd0314c0f7b2291e5b200ac8c7c3b92560405160405180910390a45050565b610cea82826040518060200160405280600081525061147f565b5050565b600080610cfa8361080f565b90508073ffffffffffffffffffffffffffffffffffffffff168473ffffffffffffffffffffffffffffffffffffffff161480610d3c5750610d3b8185610ac6565b5b80610d7a57508373ffffffffffffffffffffffffffffffffffffffff16610d62846104b9565b73ffffffffffffffffffffffffffffffffffffffff16145b91505092915050565b8273ffffffffffffffffffffffffffffffffffffffff16610da38261080f565b73ffffffffffffffffffffffffffffffffffffffff1614610df9576040517f08c379a0000000000000000000000000000000000000000000000000000000008152600401610df090612386565b60405180910390fd5b600073ffffffffffffffffffffffffffffffffffffffff168273ffffffffffffffffffffffffffffffffffffffff161415610e69576040517f08c379a0000000000000000000000000000000000000000000000000000000008152600401610e60906123c6565b60405180910390fd5b610e7683838360016114da565b8273ffffffffffffffffffffffffffffffffffffffff16610e968261080f565b73ffffffffffffffffffffffffffffffffffffffff1614610eec576040517f08c379a0000000000000000000000000000000000000000000000000000000008152600401610ee390612386565b60405180910390fd5b6069600082815260200190815260200160002060006101000a81549073ffffffffffffffffffffffffffffffffffffffff02191690556001606860008573ffffffffffffffffffffffffffffffffffffffff1673ffffffffffffffffffffffffffffffffffffffff168152602001908152602001600020600082825403925050819055506001606860008473ffffffffffffffffffffffffffffffffffffffff1673ffffffffffffffffffffffffffffffffffffffff16815260200190815260200160002060008282540192505081905550816067600083815260200190815260200160002060006101000a81548173ffffffffffffffffffffffffffffffffffffffff021916908373ffffffffffffffffffffffffffffffffffffffff160217905550808273ffffffffffffffffffffffffffffffffffffffff168473ffffffffffffffffffffffffffffffffffffffff167fddf252ad1be2c89b69c2b068fc378daa952ba7f163c4a11628f55a4df523b3ef60405160405180910390a461107883838360016114e0565b505050565b6000808273ffffffffffffffffffffffffffffffffffffffff163b119050919050565b600060019054906101000a900460ff166110ef576040517f08c379a00000000000000000000000000000000000000000000000000000000081526004016110e6906124c6565b60405180910390fd5b6110f982826114e6565b5050565b60006067600083815260200190815260200160002060009054906101000a900473ffffffffffffffffffffffffffffffffffffffff169050919050565b8173ffffffffffffffffffffffffffffffffffffffff168373ffffffffffffffffffffffffffffffffffffffff1614156111a9576040517f08c379a00000000000000000000000000000000000000000000000000000000081526004016111a0906123e6565b60405180910390fd5b80606a60008573ffffffffffffffffffffffffffffffffffffffff1673ffffffffffffffffffffffffffffffffffffffff16815260200190815260200160002060008473ffffffffffffffffffffffffffffffffffffffff1673ffffffffffffffffffffffffffffffffffffffff16815260200190815260200160002060006101000a81548160ff0219169083151502179055508173ffffffffffffffffffffffffffffffffffffffff168373ffffffffffffffffffffffffffffffffffffffff167f17307eab39ab6107e8899845ad3d59bd9653f200f220920489ca2b5937696c318360405161129a91906122ee565b60405180910390a3505050565b6112b2848484610d83565b6112be84848484611567565b6112fd576040517f08c379a00000000000000000000000000000000000000000000000000000000081526004016112f490612366565b60405180910390fd5b50505050565b606060405180602001604052806000815250905090565b606060006001611329846116fe565b01905060008167ffffffffffffffff81111561136e577f4e487b7100000000000000000000000000000000000000000000000000000000600052604160045260246000fd5b6040519080825280601f01601f1916602001820160405280156113a05781602001600182028036833780820191505090505b509050600082602001820190505b600115611433578080600190039150507f3031323334353637383961626364656600000000000000000000000000000000600a86061a8153600a858161141d577f4e487b7100000000000000000000000000000000000000000000000000000000600052601260045260246000fd5b049450600085141561142e57611433565b6113ae565b819350505050919050565b60008073ffffffffffffffffffffffffffffffffffffffff16611460836110fd565b73ffffffffffffffffffffffffffffffffffffffff1614159050919050565b6114898383611935565b6114966000848484611567565b6114d5576040517f08c379a00000000000000000000000000000000000000000000000000000000081526004016114cc90612366565b60405180910390fd5b505050565b50505050565b50505050565b600060019054906101000a900460ff16611535576040517f08c379a000000000000000000000000000000000000000000000000000000000815260040161152c906124c6565b60405180910390fd5b816065908051906020019061154b929190611b53565b508060669080519060200190611562929190611b53565b505050565b60006115888473ffffffffffffffffffffffffffffffffffffffff1661107d565b156116f1578373ffffffffffffffffffffffffffffffffffffffff1663150b7a026115b1610c0f565b8786866040518563ffffffff1660e01b81526004016115d394939291906122a2565b602060405180830381600087803b1580156115ed57600080fd5b505af192505050801561161e57506040513d601f19601f8201168201806040525081019061161b9190611eff565b60015b6116a1573d806000811461164e576040519150601f19603f3d011682016040523d82523d6000602084013e611653565b606091505b50600081511415611699576040517f08c379a000000000000000000000000000000000000000000000000000000000815260040161169090612366565b60405180910390fd5b805181602001fd5b63150b7a0260e01b7bffffffffffffffffffffffffffffffffffffffffffffffffffffffff1916817bffffffffffffffffffffffffffffffffffffffffffffffffffffffff1916149150506116f6565b600190505b949350505050565b600080600090507a184f03e93ff9f4daa797ed6e38ed64bf6a1f0100000000000000008310611782577a184f03e93ff9f4daa797ed6e38ed64bf6a1f0100000000000000008381611778577f4e487b7100000000000000000000000000000000000000000000000000000000600052601260045260246000fd5b0492506040810190505b6d04ee2d6d415b85acef810000000083106117e5576d04ee2d6d415b85acef810000000083816117db577f4e487b7100000000000000000000000000000000000000000000000000000000600052601260045260246000fd5b0492506020810190505b662386f26fc10000831061183a57662386f26fc100008381611830577f4e487b7100000000000000000000000000000000000000000000000000000000600052601260045260246000fd5b0492506010810190505b6305f5e1008310611889576305f5e100838161187f577f4e487b7100000000000000000000000000000000000000000000000000000000600052601260045260246000fd5b0492506008810190505b61271083106118d45761271083816118ca577f4e487b7100000000000000000000000000000000000000000000000000000000600052601260045260246000fd5b0492506004810190505b6064831061191d5760648381611913577f4e487b7100000000000000000000000000000000000000000000000000000000600052601260045260246000fd5b0492506002810190505b600a831061192c576001810190505b80915050919050565b600073ffffffffffffffffffffffffffffffffffffffff168273ffffffffffffffffffffffffffffffffffffffff1614156119a5576040517f08c379a000000000000000000000000000000000000000000000000000000000815260040161199c90612446565b60405180910390fd5b6119ae8161143e565b156119ee576040517f08c379a00000000000000000000000000000000000000000000000000000000081526004016119e5906123a6565b60405180910390fd5b6119fc6000838360016114da565b611a058161143e565b15611a45576040517f08c379a0000000000000000000000000000000000000000000000000000000008152600401611a3c906123a6565b60405180910390fd5b6001606860008473ffffffffffffffffffffffffffffffffffffffff1673ffffffffffffffffffffffffffffffffffffffff16815260200190815260200160002060008282540192505081905550816067600083815260200190815260200160002060006101000a81548173ffffffffffffffffffffffffffffffffffffffff021916908373ffffffffffffffffffffffffffffffffffffffff160217905550808273ffffffffffffffffffffffffffffffffffffffff16600073ffffffffffffffffffffffffffffffffffffffff167fddf252ad1be2c89b69c2b068fc378daa952ba7f163c4a11628f55a4df523b3ef60405160405180910390a4611b4f6000838360016114e0565b5050565b828054611b5f906126f6565b90600052602060002090601f016020900481019282611b815760008555611bc8565b82601f10611b9a57805160ff1916838001178555611bc8565b82800160010185558215611bc8579182015b82811115611bc7578251825591602001919060010190611bac565b5b509050611bd59190611bd9565b5090565b5b80821115611bf2576000816000905550600101611bda565b5090565b6000611c09611c0484612526565b612501565b905082815260208101848484011115611c2157600080fd5b611c2c8482856126b4565b509392505050565b6000611c47611c4284612557565b612501565b905082815260208101848484011115611c5f57600080fd5b611c6a8482856126b4565b509392505050565b600081359050611c8181612b62565b92915050565b600081359050611c9681612b79565b92915050565b600081359050611cab81612b90565b92915050565b600081519050611cc081612b90565b92915050565b600082601f830112611cd757600080fd5b8135611ce7848260208601611bf6565b91505092915050565b600082601f830112611d0157600080fd5b8135611d11848260208601611c34565b91505092915050565b600081359050611d2981612ba7565b92915050565b600060208284031215611d4157600080fd5b6000611d4f84828501611c72565b91505092915050565b60008060408385031215611d6b57600080fd5b6000611d7985828601611c72565b9250506020611d8a85828601611c72565b9150509250929050565b600080600060608486031215611da957600080fd5b6000611db786828701611c72565b9350506020611dc886828701611c72565b9250506040611dd986828701611d1a565b9150509250925092565b60008060008060808587031215611df957600080fd5b6000611e0787828801611c72565b9450506020611e1887828801611c72565b9350506040611e2987828801611d1a565b925050606085013567ffffffffffffffff811115611e4657600080fd5b611e5287828801611cc6565b91505092959194509250565b60008060408385031215611e7157600080fd5b6000611e7f85828601611c72565b9250506020611e9085828601611c87565b9150509250929050565b60008060408385031215611ead57600080fd5b6000611ebb85828601611c72565b9250506020611ecc85828601611d1a565b9150509250929050565b600060208284031215611ee857600080fd5b6000611ef684828501611c9c565b91505092915050565b600060208284031215611f1157600080fd5b6000611f1f84828501611cb1565b91505092915050565b60008060408385031215611f3b57600080fd5b600083013567ffffffffffffffff811115611f5557600080fd5b611f6185828601611cf0565b925050602083013567ffffffffffffffff811115611f7e57600080fd5b611f8a85828601611cf0565b9150509250929050565b600060208284031215611fa657600080fd5b6000611fb484828501611d1a565b91505092915050565b611fc681612621565b82525050565b611fd581612633565b82525050565b6000611fe682612588565b611ff0818561259e565b93506120008185602086016126c3565b612009816127e6565b840191505092915050565b61201d816126a2565b82525050565b600061202e82612593565b61203881856125af565b93506120488185602086016126c3565b612051816127e6565b840191505092915050565b600061206782612593565b61207181856125c0565b93506120818185602086016126c3565b80840191505092915050565b600061209a602d836125af565b91506120a5826127f7565b604082019050919050565b60006120bd6032836125af565b91506120c882612846565b604082019050919050565b60006120e06025836125af565b91506120eb82612895565b604082019050919050565b6000612103601c836125af565b915061210e826128e4565b602082019050919050565b60006121266024836125af565b91506121318261290d565b604082019050919050565b60006121496019836125af565b91506121548261295c565b602082019050919050565b600061216c6029836125af565b915061217782612985565b604082019050919050565b600061218f602e836125af565b915061219a826129d4565b604082019050919050565b60006121b26020836125af565b91506121bd82612a23565b602082019050919050565b60006121d56018836125af565b91506121e082612a4c565b602082019050919050565b60006121f86021836125af565b915061220382612a75565b604082019050919050565b600061221b603d836125af565b915061222682612ac4565b604082019050919050565b600061223e602b836125af565b915061224982612b13565b604082019050919050565b61225d8161268b565b82525050565b600061226f828561205c565b915061227b828461205c565b91508190509392505050565b600060208201905061229c6000830184611fbd565b92915050565b60006080820190506122b76000830187611fbd565b6122c46020830186611fbd565b6122d16040830185612254565b81810360608301526122e38184611fdb565b905095945050505050565b60006020820190506123036000830184611fcc565b92915050565b600060208201905061231e6000830184612014565b92915050565b6000602082019050818103600083015261233e8184612023565b905092915050565b6000602082019050818103600083015261235f8161208d565b9050919050565b6000602082019050818103600083015261237f816120b0565b9050919050565b6000602082019050818103600083015261239f816120d3565b9050919050565b600060208201905081810360008301526123bf816120f6565b9050919050565b600060208201905081810360008301526123df81612119565b9050919050565b600060208201905081810360008301526123ff8161213c565b9050919050565b6000602082019050818103600083015261241f8161215f565b9050919050565b6000602082019050818103600083015261243f81612182565b9050919050565b6000602082019050818103600083015261245f816121a5565b9050919050565b6000602082019050818103600083015261247f816121c8565b9050919050565b6000602082019050818103600083015261249f816121eb565b9050919050565b600060208201905081810360008301526124bf8161220e565b9050919050565b600060208201905081810360008301526124df81612231565b9050919050565b60006020820190506124fb6000830184612254565b92915050565b600061250b61251c565b90506125178282612728565b919050565b6000604051905090565b600067ffffffffffffffff821115612541576125406127b7565b5b61254a826127e6565b9050602081019050919050565b600067ffffffffffffffff821115612572576125716127b7565b5b61257b826127e6565b9050602081019050919050565b600081519050919050565b600081519050919050565b600082825260208201905092915050565b600082825260208201905092915050565b600081905092915050565b60006125d68261268b565b91506125e18361268b565b9250827fffffffffffffffffffffffffffffffffffffffffffffffffffffffffffffffff0382111561261657612615612759565b5b828201905092915050565b600061262c8261266b565b9050919050565b60008115159050919050565b60007fffffffff0000000000000000000000000000000000000000000000000000000082169050919050565b600073ffffffffffffffffffffffffffffffffffffffff82169050919050565b6000819050919050565b600060ff82169050919050565b60006126ad82612695565b9050919050565b82818337600083830152505050565b60005b838110156126e15780820151818401526020810190506126c6565b838111156126f0576000848401525b50505050565b6000600282049050600182168061270e57607f821691505b6020821081141561272257612721612788565b5b50919050565b612731826127e6565b810181811067ffffffffffffffff821117156127505761274f6127b7565b5b80604052505050565b7f4e487b7100000000000000000000000000000000000000000000000000000000600052601160045260246000fd5b7f4e487b7100000000000000000000000000000000000000000000000000000000600052602260045260246000fd5b7f4e487b7100000000000000000000000000000000000000000000000000000000600052604160045260246000fd5b6000601f19601f8301169050919050565b7f4552433732313a2063616c6c6572206973206e6f7420746f6b656e206f776e6560008201527f72206f7220617070726f76656400000000000000000000000000000000000000602082015250565b7f4552433732313a207472616e7366657220746f206e6f6e20455243373231526560008201527f63656976657220696d706c656d656e7465720000000000000000000000000000602082015250565b7f4552433732313a207472616e736665722066726f6d20696e636f72726563742060008201527f6f776e6572000000000000000000000000000000000000000000000000000000602082015250565b7f4552433732313a20746f6b656e20616c7265616479206d696e74656400000000600082015250565b7f4552433732313a207472616e7366657220746f20746865207a65726f2061646460008201527f7265737300000000000000000000000000000000000000000000000000000000602082015250565b7f4552433732313a20617070726f766520746f2063616c6c657200000000000000600082015250565b7f4552433732313a2061646472657373207a65726f206973206e6f74206120766160008201527f6c6964206f776e65720000000000000000000000000000000000000000000000602082015250565b7f496e697469616c697a61626c653a20636f6e747261637420697320616c72656160008201527f647920696e697469616c697a6564000000000000000000000000000000000000602082015250565b7f4552433732313a206d696e7420746f20746865207a65726f2061646472657373600082015250565b7f4552433732313a20696e76616c696420746f6b656e2049440000000000000000600082015250565b7f4552433732313a20617070726f76616c20746f2063757272656e74206f776e6560008201527f7200000000000000000000000000000000000000000000000000000000000000602082015250565b7f4552433732313a20617070726f76652063616c6c6572206973206e6f7420746f60008201527f6b656e206f776e6572206f7220617070726f76656420666f7220616c6c000000602082015250565b7f496e697469616c697a61626c653a20636f6e7472616374206973206e6f74206960008201527f6e697469616c697a696e67000000000000000000000000000000000000000000602082015250565b612b6b81612621565b8114612b7657600080fd5b50565b612b8281612633565b8114612b8d57600080fd5b50565b612b998161263f565b8114612ba457600080fd5b50565b612bb08161268b565b8114612bbb57600080fd5b5056fea26469706673582212203f0d436810657563664ac0c7df1d7075724c400a4cd57724d837ec966829e92064736f6c63430008040033",
  "linkReferences": {},
  "deployedLinkReferences": {}
}