{
  "_format": "hh-sol-artifact-1",
  "contractName": "NFTDutchAuction_ERC20Bids",
  "sourceName": "contracts/NFTDutchAuction_ERC20Bids.sol",
  "abi": [
    {
      "anonymous": false,
      "inputs": [
        {
          "indexed": false,
          "internalType": "address",
          "name": "previousAdmin",
          "type": "address"
        },
        {
          "indexed": false,
          "internalType": "address",
          "name": "newAdmin",
          "type": "address"
        }
      ],
      "name": "AdminChanged",
      "type": "event"
    },
    {
      "anonymous": false,
      "inputs": [
        {
          "indexed": true,
          "internalType": "address",
          "name": "beacon",
          "type": "address"
        }
      ],
      "name": "BeaconUpgraded",
      "type": "event"
    },
    {
      "anonymous": false,
      "inputs": [
        {
          "indexed": false,
          "internalType": "uint8",
          "name": "version",
          "type": "uint8"
        }
      ],
      "name": "Initialized",
      "type": "event"
    },
    {
      "anonymous": false,
      "inputs": [
        {
          "indexed": true,
          "internalType": "address",
          "name": "previousOwner",
          "type": "address"
        },
        {
          "indexed": true,
          "internalType": "address",
          "name": "newOwner",
          "type": "address"
        }
      ],
      "name": "OwnershipTransferred",
      "type": "event"
    },
    {
      "anonymous": false,
      "inputs": [
        {
          "indexed": true,
          "internalType": "address",
          "name": "implementation",
          "type": "address"
        }
      ],
      "name": "Upgraded",
      "type": "event"
    },
    {
      "inputs": [
        {
          "internalType": "uint256",
          "name": "bidAmount",
          "type": "uint256"
        }
      ],
      "name": "bid",
      "outputs": [],
      "stateMutability": "nonpayable",
      "type": "function"
    },
    {
      "inputs": [],
      "name": "currentPrice",
      "outputs": [
        {
          "internalType": "uint256",
          "name": "",
          "type": "uint256"
        }
      ],
      "stateMutability": "view",
      "type": "function"
    },
    {
      "inputs": [],
      "name": "endAuction",
      "outputs": [],
      "stateMutability": "nonpayable",
      "type": "function"
    },
    {
      "inputs": [],
      "name": "ended",
      "outputs": [
        {
          "internalType": "bool",
          "name": "",
          "type": "bool"
        }
      ],
      "stateMutability": "view",
      "type": "function"
    },
    {
      "inputs": [],
      "name": "erc20Token",
      "outputs": [
        {
          "internalType": "contract ERC20",
          "name": "",
          "type": "address"
        }
      ],
      "stateMutability": "view",
      "type": "function"
    },
    {
      "inputs": [],
      "name": "erc721Token",
      "outputs": [
        {
          "internalType": "contract ERC721",
          "name": "",
          "type": "address"
        }
      ],
      "stateMutability": "view",
      "type": "function"
    },
    {
      "inputs": [],
      "name": "getNftTokenId",
      "outputs": [
        {
          "internalType": "uint256",
          "name": "",
          "type": "uint256"
        }
      ],
      "stateMutability": "view",
      "type": "function"
    },
    {
      "inputs": [],
      "name": "highestBid",
      "outputs": [
        {
          "internalType": "uint256",
          "name": "",
          "type": "uint256"
        }
      ],
      "stateMutability": "view",
      "type": "function"
    },
    {
      "inputs": [],
      "name": "highestBidder",
      "outputs": [
        {
          "internalType": "address",
          "name": "",
          "type": "address"
        }
      ],
      "stateMutability": "view",
      "type": "function"
    },
    {
      "inputs": [],
      "name": "initialPrice",
      "outputs": [
        {
          "internalType": "uint256",
          "name": "",
          "type": "uint256"
        }
      ],
      "stateMutability": "view",
      "type": "function"
    },
    {
      "inputs": [
        {
          "internalType": "address",
          "name": "erc20TokenAddress",
          "type": "address"
        },
        {
          "internalType": "address",
          "name": "erc721TokenAddress",
          "type": "address"
        },
        {
          "internalType": "uint256",
          "name": "nftTokenId",
          "type": "uint256"
        },
        {
          "internalType": "uint256",
          "name": "_reservePrice",
          "type": "uint256"
        },
        {
          "internalType": "uint256",
          "name": "_numBlocksAuctionOpen",
          "type": "uint256"
        },
        {
          "internalType": "uint256",
          "name": "_offerPriceDecrement",
          "type": "uint256"
        }
      ],
      "name": "initialize",
      "outputs": [],
      "stateMutability": "nonpayable",
      "type": "function"
    },
    {
      "inputs": [],
      "name": "numBlocksAuctionOpen",
      "outputs": [
        {
          "internalType": "uint256",
          "name": "",
          "type": "uint256"
        }
      ],
      "stateMutability": "view",
      "type": "function"
    },
    {
      "inputs": [],
      "name": "offerPriceDecrement",
      "outputs": [
        {
          "internalType": "uint256",
          "name": "",
          "type": "uint256"
        }
      ],
      "stateMutability": "view",
      "type": "function"
    },
    {
      "inputs": [],
      "name": "owner",
      "outputs": [
        {
          "internalType": "address",
          "name": "",
          "type": "address"
        }
      ],
      "stateMutability": "view",
      "type": "function"
    },
    {
      "inputs": [],
      "name": "proxiableUUID",
      "outputs": [
        {
          "internalType": "bytes32",
          "name": "",
          "type": "bytes32"
        }
      ],
      "stateMutability": "view",
      "type": "function"
    },
    {
      "inputs": [
        {
          "internalType": "address",
          "name": "",
          "type": "address"
        }
      ],
      "name": "refunds",
      "outputs": [
        {
          "internalType": "uint256",
          "name": "",
          "type": "uint256"
        }
      ],
      "stateMutability": "view",
      "type": "function"
    },
    {
      "inputs": [],
      "name": "renounceOwnership",
      "outputs": [],
      "stateMutability": "nonpayable",
      "type": "function"
    },
    {
      "inputs": [],
      "name": "reservePrice",
      "outputs": [
        {
          "internalType": "uint256",
          "name": "",
          "type": "uint256"
        }
      ],
      "stateMutability": "view",
      "type": "function"
    },
    {
      "inputs": [],
      "name": "startBlock",
      "outputs": [
        {
          "internalType": "uint256",
          "name": "",
          "type": "uint256"
        }
      ],
      "stateMutability": "view",
      "type": "function"
    },
    {
      "inputs": [
        {
          "internalType": "address",
          "name": "newOwner",
          "type": "address"
        }
      ],
      "name": "transferOwnership",
      "outputs": [],
      "stateMutability": "nonpayable",
      "type": "function"
    },
    {
      "inputs": [
        {
          "internalType": "address",
          "name": "newImplementation",
          "type": "address"
        }
      ],
      "name": "upgradeTo",
      "outputs": [],
      "stateMutability": "nonpayable",
      "type": "function"
    },
    {
      "inputs": [
        {
          "internalType": "address",
          "name": "newImplementation",
          "type": "address"
        },
        {
          "internalType": "bytes",
          "name": "data",
          "type": "bytes"
        }
      ],
      "name": "upgradeToAndCall",
      "outputs": [],
      "stateMutability": "payable",
      "type": "function"
    },
    {
      "inputs": [],
      "name": "withdraw",
      "outputs": [],
      "stateMutability": "nonpayable",
      "type": "function"
    }
  ],
  "bytecode": "0x60a06040523073ffffffffffffffffffffffffffffffffffffffff1660809073ffffffffffffffffffffffffffffffffffffffff1660601b81525034801561004657600080fd5b5060805160601c612c32610081600039600081816105040152818161059301528181610b9a01528181610c290152610cd90152612c326000f3fe6080604052600436106101405760003560e01c806386489ba9116100b6578063d327d1551161006f578063d327d155146103f5578063d3642a8814610420578063d57bde791461044b578063db2e1eed14610476578063f2fde38b146104a1578063fe67a54b146104ca57610140565b806386489ba9146102e35780638a13eea71461030c5780638da5cb5b1461033757806391f90157146103625780639d1b464a1461038d578063bc3da535146103b857610140565b8063454a2ab311610108578063454a2ab31461020657806348cd4cb11461022f5780634f1ef2861461025a57806352d1902d146102765780635f2d6bcd146102a1578063715018a6146102cc57610140565b806312fa6feb146101455780631d0806ae146101705780633103ea621461019b5780633659cfe6146101c65780633ccfd60b146101ef575b600080fd5b34801561015157600080fd5b5061015a6104e1565b604051610167919061217c565b60405180910390f35b34801561017c57600080fd5b506101856104f5565b6040516101929190612425565b60405180910390f35b3480156101a757600080fd5b506101b06104fc565b6040516101bd9190612425565b60405180910390f35b3480156101d257600080fd5b506101ed60048036038101906101e89190611c66565b610502565b005b3480156101fb57600080fd5b506102046106b1565b005b34801561021257600080fd5b5061022d60048036038101906102289190611dbe565b610832565b005b34801561023b57600080fd5b50610244610b91565b6040516102519190612425565b60405180910390f35b610274600480360381019061026f9190611d18565b610b98565b005b34801561028257600080fd5b5061028b610cd5565b6040516102989190612197565b60405180910390f35b3480156102ad57600080fd5b506102b6610d8e565b6040516102c391906121cd565b60405180910390f35b3480156102d857600080fd5b506102e1610db4565b005b3480156102ef57600080fd5b5061030a60048036038101906103059190611c8f565b610dc8565b005b34801561031857600080fd5b50610321610ffb565b60405161032e91906121b2565b60405180910390f35b34801561034357600080fd5b5061034c611021565b6040516103599190612101565b60405180910390f35b34801561036e57600080fd5b5061037761104b565b6040516103849190612101565b60405180910390f35b34801561039957600080fd5b506103a2611072565b6040516103af9190612425565b60405180910390f35b3480156103c457600080fd5b506103df60048036038101906103da9190611c66565b6110bd565b6040516103ec9190612425565b60405180910390f35b34801561040157600080fd5b5061040a6110d6565b6040516104179190612425565b60405180910390f35b34801561042c57600080fd5b506104356110e1565b6040516104429190612425565b60405180910390f35b34801561045757600080fd5b506104606110e7565b60405161046d9190612425565b60405180910390f35b34801561048257600080fd5b5061048b6110ee565b6040516104989190612425565b60405180910390f35b3480156104ad57600080fd5b506104c860048036038101906104c39190611c66565b6110f4565b005b3480156104d657600080fd5b506104df611178565b005b61010260009054906101000a900460ff1681565b6101005481565b60fe5481565b7f000000000000000000000000000000000000000000000000000000000000000073ffffffffffffffffffffffffffffffffffffffff163073ffffffffffffffffffffffffffffffffffffffff161415610591576040517f08c379a000000000000000000000000000000000000000000000000000000000815260040161058890612245565b60405180910390fd5b7f000000000000000000000000000000000000000000000000000000000000000073ffffffffffffffffffffffffffffffffffffffff166105d06113bf565b73ffffffffffffffffffffffffffffffffffffffff1614610626576040517f08c379a000000000000000000000000000000000000000000000000000000000815260040161061d90612265565b60405180910390fd5b61062f81611416565b6106ae81600067ffffffffffffffff811115610674577f4e487b7100000000000000000000000000000000000000000000000000000000600052604160045260246000fd5b6040519080825280601f01601f1916602001820160405280156106a65781602001600182028036833780820191505090505b506000611491565b50565b600061010460003373ffffffffffffffffffffffffffffffffffffffff1673ffffffffffffffffffffffffffffffffffffffff16815260200190815260200160002054905060008111610739576040517f08c379a000000000000000000000000000000000000000000000000000000000815260040161073090612405565b60405180910390fd5b600061010460003373ffffffffffffffffffffffffffffffffffffffff1673ffffffffffffffffffffffffffffffffffffffff1681526020019081526020016000208190555060fc60009054906101000a900473ffffffffffffffffffffffffffffffffffffffff1673ffffffffffffffffffffffffffffffffffffffff1663a9059cbb33836040518363ffffffff1660e01b81526004016107dc929190612153565b602060405180830381600087803b1580156107f657600080fd5b505af115801561080a573d6000803e3d6000fd5b505050506040513d601f19601f8201168201806040525081019061082e9190611d6c565b5050565b60fe546101015461084391906124c8565b431115610885576040517f08c379a000000000000000000000000000000000000000000000000000000000815260040161087c90612365565b60405180910390fd5b61088d611072565b8110156108cf576040517f08c379a00000000000000000000000000000000000000000000000000000000081526004016108c6906122e5565b60405180910390fd5b60fc60009054906101000a900473ffffffffffffffffffffffffffffffffffffffff1673ffffffffffffffffffffffffffffffffffffffff166323b872dd3330846040518463ffffffff1660e01b815260040161092e9392919061211c565b602060405180830381600087803b15801561094857600080fd5b505af115801561095c573d6000803e3d6000fd5b505050506040513d601f19601f820116820180604052508101906109809190611d6c565b50600073ffffffffffffffffffffffffffffffffffffffff1661010260019054906101000a900473ffffffffffffffffffffffffffffffffffffffff1673ffffffffffffffffffffffffffffffffffffffff1614610a565761010354610104600061010260019054906101000a900473ffffffffffffffffffffffffffffffffffffffff1673ffffffffffffffffffffffffffffffffffffffff1673ffffffffffffffffffffffffffffffffffffffff1681526020019081526020016000206000828254610a4e91906124c8565b925050819055505b80610103819055503361010260016101000a81548173ffffffffffffffffffffffffffffffffffffffff021916908373ffffffffffffffffffffffffffffffffffffffff16021790555060fe5461010154610ab191906124c8565b4310610b8e57600161010260006101000a81548160ff02191690831515021790555060fc60009054906101000a900473ffffffffffffffffffffffffffffffffffffffff1673ffffffffffffffffffffffffffffffffffffffff1663a9059cbb610b19611021565b610103546040518363ffffffff1660e01b8152600401610b3a929190612153565b602060405180830381600087803b158015610b5457600080fd5b505af1158015610b68573d6000803e3d6000fd5b505050506040513d601f19601f82011682018060405250810190610b8c9190611d6c565b505b50565b6101015481565b7f000000000000000000000000000000000000000000000000000000000000000073ffffffffffffffffffffffffffffffffffffffff163073ffffffffffffffffffffffffffffffffffffffff161415610c27576040517f08c379a0000000000000000000000000000000000000000000000000000000008152600401610c1e90612245565b60405180910390fd5b7f000000000000000000000000000000000000000000000000000000000000000073ffffffffffffffffffffffffffffffffffffffff16610c666113bf565b73ffffffffffffffffffffffffffffffffffffffff1614610cbc576040517f08c379a0000000000000000000000000000000000000000000000000000000008152600401610cb390612265565b60405180910390fd5b610cc582611416565b610cd182826001611491565b5050565b60007f000000000000000000000000000000000000000000000000000000000000000073ffffffffffffffffffffffffffffffffffffffff163073ffffffffffffffffffffffffffffffffffffffff1614610d65576040517f08c379a0000000000000000000000000000000000000000000000000000000008152600401610d5c90612285565b60405180910390fd5b7f360894a13ba1a3210667c828492db98dca3e2076cc3735a920a3ca505d382bbc60001b905090565b60fb60009054906101000a900473ffffffffffffffffffffffffffffffffffffffff1681565b610dbc61160e565b610dc6600061168c565b565b60008060019054906101000a900460ff16159050808015610df95750600160008054906101000a900460ff1660ff16105b80610e265750610e0830611752565b158015610e255750600160008054906101000a900460ff1660ff16145b5b610e65576040517f08c379a0000000000000000000000000000000000000000000000000000000008152600401610e5c906122c5565b60405180910390fd5b60016000806101000a81548160ff021916908360ff1602179055508015610ea2576001600060016101000a81548160ff0219169083151502179055505b610eaa611775565b610eb26117ce565b8560fb60006101000a81548173ffffffffffffffffffffffffffffffffffffffff021916908373ffffffffffffffffffffffffffffffffffffffff1602179055508660fc60006101000a81548173ffffffffffffffffffffffffffffffffffffffff021916908373ffffffffffffffffffffffffffffffffffffffff16021790555084610105819055508360fd819055508260fe819055508160ff8190555060ff5460fe54610f61919061251e565b60fd54610f6e91906124c8565b610100819055504361010181905550600061010260006101000a81548160ff0219169083151502179055508015610ff25760008060016101000a81548160ff0219169083151502179055507f7f26b83ff96e1f2b6a682f133852f6798a09c465da95921460cefb38474024986001604051610fe991906121e8565b60405180910390a15b50505050505050565b60fc60009054906101000a900473ffffffffffffffffffffffffffffffffffffffff1681565b6000609760009054906101000a900473ffffffffffffffffffffffffffffffffffffffff16905090565b61010260019054906101000a900473ffffffffffffffffffffffffffffffffffffffff1681565b60008061010154436110849190612578565b905060fe54811061109a5760fd549150506110ba565b60ff54816110a8919061251e565b610100546110b69190612578565b9150505b90565b6101046020528060005260406000206000915090505481565b600061010554905090565b60ff5481565b6101035481565b60fd5481565b6110fc61160e565b600073ffffffffffffffffffffffffffffffffffffffff168173ffffffffffffffffffffffffffffffffffffffff16141561116c576040517f08c379a000000000000000000000000000000000000000000000000000000000815260040161116390612225565b60405180910390fd5b6111758161168c565b50565b61118061160e565b61010260009054906101000a900460ff16156111d1576040517f08c379a00000000000000000000000000000000000000000000000000000000081526004016111c8906123a5565b60405180910390fd5b600161010260006101000a81548160ff021916908315150217905550600073ffffffffffffffffffffffffffffffffffffffff1661010260019054906101000a900473ffffffffffffffffffffffffffffffffffffffff1673ffffffffffffffffffffffffffffffffffffffff16146113bd5760fb60009054906101000a900473ffffffffffffffffffffffffffffffffffffffff1673ffffffffffffffffffffffffffffffffffffffff166323b872dd61128a611021565b61010260019054906101000a900473ffffffffffffffffffffffffffffffffffffffff16610105546040518463ffffffff1660e01b81526004016112d09392919061211c565b600060405180830381600087803b1580156112ea57600080fd5b505af11580156112fe573d6000803e3d6000fd5b5050505060fc60009054906101000a900473ffffffffffffffffffffffffffffffffffffffff1673ffffffffffffffffffffffffffffffffffffffff1663a9059cbb611348611021565b610103546040518363ffffffff1660e01b8152600401611369929190612153565b602060405180830381600087803b15801561138357600080fd5b505af1158015611397573d6000803e3d6000fd5b505050506040513d601f19601f820116820180604052508101906113bb9190611d6c565b505b565b60006113ed7f360894a13ba1a3210667c828492db98dca3e2076cc3735a920a3ca505d382bbc60001b611827565b60000160009054906101000a900473ffffffffffffffffffffffffffffffffffffffff16905090565b61141e61160e565b600073ffffffffffffffffffffffffffffffffffffffff168173ffffffffffffffffffffffffffffffffffffffff16141561148e576040517f08c379a000000000000000000000000000000000000000000000000000000000815260040161148590612385565b60405180910390fd5b50565b6114bd7f4910fdfa16fed3260ed0e7147f7cc6da11a60208b5b9406d12a635614ffd914360001b611831565b60000160009054906101000a900460ff16156114e1576114dc8361183b565b611609565b8273ffffffffffffffffffffffffffffffffffffffff166352d1902d6040518163ffffffff1660e01b815260040160206040518083038186803b15801561152757600080fd5b505afa92505050801561155857506040513d601f19601f820116820180604052508101906115559190611d95565b60015b611597576040517f08c379a000000000000000000000000000000000000000000000000000000000815260040161158e90612305565b60405180910390fd5b7f360894a13ba1a3210667c828492db98dca3e2076cc3735a920a3ca505d382bbc60001b81146115fc576040517f08c379a00000000000000000000000000000000000000000000000000000000081526004016115f3906122a5565b60405180910390fd5b506116088383836118f4565b5b505050565b611616611920565b73ffffffffffffffffffffffffffffffffffffffff16611634611021565b73ffffffffffffffffffffffffffffffffffffffff161461168a576040517f08c379a000000000000000000000000000000000000000000000000000000000815260040161168190612345565b60405180910390fd5b565b6000609760009054906101000a900473ffffffffffffffffffffffffffffffffffffffff16905081609760006101000a81548173ffffffffffffffffffffffffffffffffffffffff021916908373ffffffffffffffffffffffffffffffffffffffff1602179055508173ffffffffffffffffffffffffffffffffffffffff168173ffffffffffffffffffffffffffffffffffffffff167f8be0079c531659141344cd1fd0a4f28419497f9722a3daafe3b4186f6b6457e060405160405180910390a35050565b6000808273ffffffffffffffffffffffffffffffffffffffff163b119050919050565b600060019054906101000a900460ff166117c4576040517f08c379a00000000000000000000000000000000000000000000000000000000081526004016117bb906123e5565b60405180910390fd5b6117cc611928565b565b600060019054906101000a900460ff1661181d576040517f08c379a0000000000000000000000000000000000000000000000000000000008152600401611814906123e5565b60405180910390fd5b611825611981565b565b6000819050919050565b6000819050919050565b61184481611752565b611883576040517f08c379a000000000000000000000000000000000000000000000000000000000815260040161187a90612325565b60405180910390fd5b806118b07f360894a13ba1a3210667c828492db98dca3e2076cc3735a920a3ca505d382bbc60001b611827565b60000160006101000a81548173ffffffffffffffffffffffffffffffffffffffff021916908373ffffffffffffffffffffffffffffffffffffffff16021790555050565b6118fd836119e2565b60008251118061190a5750805b1561191b576119198383611a31565b505b505050565b600033905090565b600060019054906101000a900460ff16611977576040517f08c379a000000000000000000000000000000000000000000000000000000000815260040161196e906123e5565b60405180910390fd5b600160c981905550565b600060019054906101000a900460ff166119d0576040517f08c379a00000000000000000000000000000000000000000000000000000000081526004016119c7906123e5565b60405180910390fd5b6119e06119db611920565b61168c565b565b6119eb8161183b565b8073ffffffffffffffffffffffffffffffffffffffff167fbc7cd75a20ee27fd9adebab32041f755214dbc6bffa90cc0225b39da2e5c2d3b60405160405180910390a250565b6060611a568383604051806060016040528060278152602001612bd660279139611a5e565b905092915050565b60606000808573ffffffffffffffffffffffffffffffffffffffff1685604051611a8891906120ea565b600060405180830381855af49150503d8060008114611ac3576040519150601f19603f3d011682016040523d82523d6000602084013e611ac8565b606091505b5091509150611ad986838387611ae4565b925050509392505050565b60608315611b4757600083511415611b3f57611aff85611752565b611b3e576040517f08c379a0000000000000000000000000000000000000000000000000000000008152600401611b35906123c5565b60405180910390fd5b5b829050611b52565b611b518383611b5a565b5b949350505050565b600082511115611b6d5781518083602001fd5b806040517f08c379a0000000000000000000000000000000000000000000000000000000008152600401611ba19190612203565b60405180910390fd5b6000611bbd611bb884612465565b612440565b905082815260208101848484011115611bd557600080fd5b611be0848285612665565b509392505050565b600081359050611bf781612b79565b92915050565b600081519050611c0c81612b90565b92915050565b600081519050611c2181612ba7565b92915050565b600082601f830112611c3857600080fd5b8135611c48848260208601611baa565b91505092915050565b600081359050611c6081612bbe565b92915050565b600060208284031215611c7857600080fd5b6000611c8684828501611be8565b91505092915050565b60008060008060008060c08789031215611ca857600080fd5b6000611cb689828a01611be8565b9650506020611cc789828a01611be8565b9550506040611cd889828a01611c51565b9450506060611ce989828a01611c51565b9350506080611cfa89828a01611c51565b92505060a0611d0b89828a01611c51565b9150509295509295509295565b60008060408385031215611d2b57600080fd5b6000611d3985828601611be8565b925050602083013567ffffffffffffffff811115611d5657600080fd5b611d6285828601611c27565b9150509250929050565b600060208284031215611d7e57600080fd5b6000611d8c84828501611bfd565b91505092915050565b600060208284031215611da757600080fd5b6000611db584828501611c12565b91505092915050565b600060208284031215611dd057600080fd5b6000611dde84828501611c51565b91505092915050565b611df0816125ac565b82525050565b611dff816125be565b82525050565b611e0e816125ca565b82525050565b6000611e1f82612496565b611e2981856124ac565b9350611e39818560208601612674565b80840191505092915050565b611e4e8161260b565b82525050565b611e5d8161262f565b82525050565b611e6c81612653565b82525050565b6000611e7d826124a1565b611e8781856124b7565b9350611e97818560208601612674565b611ea081612736565b840191505092915050565b6000611eb86026836124b7565b9150611ec382612747565b604082019050919050565b6000611edb602c836124b7565b9150611ee682612796565b604082019050919050565b6000611efe602c836124b7565b9150611f09826127e5565b604082019050919050565b6000611f216038836124b7565b9150611f2c82612834565b604082019050919050565b6000611f446029836124b7565b9150611f4f82612883565b604082019050919050565b6000611f67602e836124b7565b9150611f72826128d2565b604082019050919050565b6000611f8a6017836124b7565b9150611f9582612921565b602082019050919050565b6000611fad602e836124b7565b9150611fb88261294a565b604082019050919050565b6000611fd0602d836124b7565b9150611fdb82612999565b604082019050919050565b6000611ff36020836124b7565b9150611ffe826129e8565b602082019050919050565b6000612016601a836124b7565b915061202182612a11565b602082019050919050565b60006120396044836124b7565b915061204482612a3a565b606082019050919050565b600061205c601c836124b7565b915061206782612aaf565b602082019050919050565b600061207f601d836124b7565b915061208a82612ad8565b602082019050919050565b60006120a2602b836124b7565b91506120ad82612b01565b604082019050919050565b60006120c56013836124b7565b91506120d082612b50565b602082019050919050565b6120e4816125f4565b82525050565b60006120f68284611e14565b915081905092915050565b60006020820190506121166000830184611de7565b92915050565b60006060820190506121316000830186611de7565b61213e6020830185611de7565b61214b60408301846120db565b949350505050565b60006040820190506121686000830185611de7565b61217560208301846120db565b9392505050565b60006020820190506121916000830184611df6565b92915050565b60006020820190506121ac6000830184611e05565b92915050565b60006020820190506121c76000830184611e45565b92915050565b60006020820190506121e26000830184611e54565b92915050565b60006020820190506121fd6000830184611e63565b92915050565b6000602082019050818103600083015261221d8184611e72565b905092915050565b6000602082019050818103600083015261223e81611eab565b9050919050565b6000602082019050818103600083015261225e81611ece565b9050919050565b6000602082019050818103600083015261227e81611ef1565b9050919050565b6000602082019050818103600083015261229e81611f14565b9050919050565b600060208201905081810360008301526122be81611f37565b9050919050565b600060208201905081810360008301526122de81611f5a565b9050919050565b600060208201905081810360008301526122fe81611f7d565b9050919050565b6000602082019050818103600083015261231e81611fa0565b9050919050565b6000602082019050818103600083015261233e81611fc3565b9050919050565b6000602082019050818103600083015261235e81611fe6565b9050919050565b6000602082019050818103600083015261237e81612009565b9050919050565b6000602082019050818103600083015261239e8161202c565b9050919050565b600060208201905081810360008301526123be8161204f565b9050919050565b600060208201905081810360008301526123de81612072565b9050919050565b600060208201905081810360008301526123fe81612095565b9050919050565b6000602082019050818103600083015261241e816120b8565b9050919050565b600060208201905061243a60008301846120db565b92915050565b600061244a61245b565b905061245682826126a7565b919050565b6000604051905090565b600067ffffffffffffffff8211156124805761247f612707565b5b61248982612736565b9050602081019050919050565b600081519050919050565b600081519050919050565b600081905092915050565b600082825260208201905092915050565b60006124d3826125f4565b91506124de836125f4565b9250827fffffffffffffffffffffffffffffffffffffffffffffffffffffffffffffffff03821115612513576125126126d8565b5b828201905092915050565b6000612529826125f4565b9150612534836125f4565b9250817fffffffffffffffffffffffffffffffffffffffffffffffffffffffffffffffff048311821515161561256d5761256c6126d8565b5b828202905092915050565b6000612583826125f4565b915061258e836125f4565b9250828210156125a1576125a06126d8565b5b828203905092915050565b60006125b7826125d4565b9050919050565b60008115159050919050565b6000819050919050565b600073ffffffffffffffffffffffffffffffffffffffff82169050919050565b6000819050919050565b600060ff82169050919050565b60006126168261261d565b9050919050565b6000612628826125d4565b9050919050565b600061263a82612641565b9050919050565b600061264c826125d4565b9050919050565b600061265e826125fe565b9050919050565b82818337600083830152505050565b60005b83811015612692578082015181840152602081019050612677565b838111156126a1576000848401525b50505050565b6126b082612736565b810181811067ffffffffffffffff821117156126cf576126ce612707565b5b80604052505050565b7f4e487b7100000000000000000000000000000000000000000000000000000000600052601160045260246000fd5b7f4e487b7100000000000000000000000000000000000000000000000000000000600052604160045260246000fd5b6000601f19601f8301169050919050565b7f4f776e61626c653a206e6577206f776e657220697320746865207a65726f206160008201527f6464726573730000000000000000000000000000000000000000000000000000602082015250565b7f46756e6374696f6e206d7573742062652063616c6c6564207468726f7567682060008201527f64656c656761746563616c6c0000000000000000000000000000000000000000602082015250565b7f46756e6374696f6e206d7573742062652063616c6c6564207468726f7567682060008201527f6163746976652070726f78790000000000000000000000000000000000000000602082015250565b7f555550535570677261646561626c653a206d757374206e6f742062652063616c60008201527f6c6564207468726f7567682064656c656761746563616c6c0000000000000000602082015250565b7f45524331393637557067726164653a20756e737570706f727465642070726f7860008201527f6961626c65555549440000000000000000000000000000000000000000000000602082015250565b7f496e697469616c697a61626c653a20636f6e747261637420697320616c72656160008201527f647920696e697469616c697a6564000000000000000000000000000000000000602082015250565b7f426964206973206e6f74206869676820656e6f7567682e000000000000000000600082015250565b7f45524331393637557067726164653a206e657720696d706c656d656e7461746960008201527f6f6e206973206e6f742055555053000000000000000000000000000000000000602082015250565b7f455243313936373a206e657720696d706c656d656e746174696f6e206973206e60008201527f6f74206120636f6e747261637400000000000000000000000000000000000000602082015250565b7f4f776e61626c653a2063616c6c6572206973206e6f7420746865206f776e6572600082015250565b7f41756374696f6e20697320616c726561647920636c6f7365642e000000000000600082015250565b7f4e4654447574636841756374696f6e5f4552433230426964733a207a65726f2060008201527f6164647265737320676976656e20666f72206e657720696d706c656d656e746160208201527f74696f6e00000000000000000000000000000000000000000000000000000000604082015250565b7f5468652061756374696f6e20697320616c726561647920656e64656400000000600082015250565b7f416464726573733a2063616c6c20746f206e6f6e2d636f6e7472616374000000600082015250565b7f496e697469616c697a61626c653a20636f6e7472616374206973206e6f74206960008201527f6e697469616c697a696e67000000000000000000000000000000000000000000602082015250565b7f4e6f20726566756e6420617661696c61626c6500000000000000000000000000600082015250565b612b82816125ac565b8114612b8d57600080fd5b50565b612b99816125be565b8114612ba457600080fd5b50565b612bb0816125ca565b8114612bbb57600080fd5b50565b612bc7816125f4565b8114612bd257600080fd5b5056fe416464726573733a206c6f772d6c6576656c2064656c65676174652063616c6c206661696c6564a2646970667358221220fe0515cb561c111a30e24bb8ae0df2786ecb348a154d94c56355ce40111fa04e64736f6c63430008040033",
  "linkReferences": {},
  "deployedLinkReferences": {}
}