{
  "_format": "hh-sol-artifact-1",
  "contractName": "NFTDutchAuction",
  "sourceName": "contracts/NFTDutchAuction.sol",
  "abi": [
    {
      "inputs": [
        {
          "internalType": "string",
          "name": "name",
          "type": "string"
        },
        {
          "internalType": "string",
          "name": "symbol",
          "type": "string"
        },
        {
          "internalType": "uint256",
          "name": "nftTokenId",
          "type": "uint256"
        },
        {
          "internalType": "uint256",
          "name": "_reservePrice",
          "type": "uint256"
        },
        {
          "internalType": "uint256",
          "name": "_numBlocksAuctionOpen",
          "type": "uint256"
        },
        {
          "internalType": "uint256",
          "name": "_offerPriceDecrement",
          "type": "uint256"
        }
      ],
      "stateMutability": "nonpayable",
      "type": "constructor"
    },
    {
      "anonymous": false,
      "inputs": [
        {
          "indexed": true,
          "internalType": "address",
          "name": "owner",
          "type": "address"
        },
        {
          "indexed": true,
          "internalType": "address",
          "name": "approved",
          "type": "address"
        },
        {
          "indexed": true,
          "internalType": "uint256",
          "name": "tokenId",
          "type": "uint256"
        }
      ],
      "name": "Approval",
      "type": "event"
    },
    {
      "anonymous": false,
      "inputs": [
        {
          "indexed": true,
          "internalType": "address",
          "name": "owner",
          "type": "address"
        },
        {
          "indexed": true,
          "internalType": "address",
          "name": "operator",
          "type": "address"
        },
        {
          "indexed": false,
          "internalType": "bool",
          "name": "approved",
          "type": "bool"
        }
      ],
      "name": "ApprovalForAll",
      "type": "event"
    },
    {
      "anonymous": false,
      "inputs": [
        {
          "indexed": true,
          "internalType": "address",
          "name": "previousOwner",
          "type": "address"
        },
        {
          "indexed": true,
          "internalType": "address",
          "name": "newOwner",
          "type": "address"
        }
      ],
      "name": "OwnershipTransferred",
      "type": "event"
    },
    {
      "anonymous": false,
      "inputs": [
        {
          "indexed": true,
          "internalType": "address",
          "name": "from",
          "type": "address"
        },
        {
          "indexed": true,
          "internalType": "address",
          "name": "to",
          "type": "address"
        },
        {
          "indexed": true,
          "internalType": "uint256",
          "name": "tokenId",
          "type": "uint256"
        }
      ],
      "name": "Transfer",
      "type": "event"
    },
    {
      "inputs": [
        {
          "internalType": "address",
          "name": "to",
          "type": "address"
        },
        {
          "internalType": "uint256",
          "name": "tokenId",
          "type": "uint256"
        }
      ],
      "name": "approve",
      "outputs": [],
      "stateMutability": "nonpayable",
      "type": "function"
    },
    {
      "inputs": [
        {
          "internalType": "address",
          "name": "owner",
          "type": "address"
        }
      ],
      "name": "balanceOf",
      "outputs": [
        {
          "internalType": "uint256",
          "name": "",
          "type": "uint256"
        }
      ],
      "stateMutability": "view",
      "type": "function"
    },
    {
      "inputs": [],
      "name": "bid",
      "outputs": [],
      "stateMutability": "payable",
      "type": "function"
    },
    {
      "inputs": [],
      "name": "currentPrice",
      "outputs": [
        {
          "internalType": "uint256",
          "name": "",
          "type": "uint256"
        }
      ],
      "stateMutability": "view",
      "type": "function"
    },
    {
      "inputs": [],
      "name": "endAuction",
      "outputs": [],
      "stateMutability": "nonpayable",
      "type": "function"
    },
    {
      "inputs": [],
      "name": "ended",
      "outputs": [
        {
          "internalType": "bool",
          "name": "",
          "type": "bool"
        }
      ],
      "stateMutability": "view",
      "type": "function"
    },
    {
      "inputs": [
        {
          "internalType": "uint256",
          "name": "tokenId",
          "type": "uint256"
        }
      ],
      "name": "getApproved",
      "outputs": [
        {
          "internalType": "address",
          "name": "",
          "type": "address"
        }
      ],
      "stateMutability": "view",
      "type": "function"
    },
    {
      "inputs": [],
      "name": "highestBid",
      "outputs": [
        {
          "internalType": "uint256",
          "name": "",
          "type": "uint256"
        }
      ],
      "stateMutability": "view",
      "type": "function"
    },
    {
      "inputs": [],
      "name": "highestBidder",
      "outputs": [
        {
          "internalType": "address payable",
          "name": "",
          "type": "address"
        }
      ],
      "stateMutability": "view",
      "type": "function"
    },
    {
      "inputs": [],
      "name": "initialPrice",
      "outputs": [
        {
          "internalType": "uint256",
          "name": "",
          "type": "uint256"
        }
      ],
      "stateMutability": "view",
      "type": "function"
    },
    {
      "inputs": [
        {
          "internalType": "address",
          "name": "owner",
          "type": "address"
        },
        {
          "internalType": "address",
          "name": "operator",
          "type": "address"
        }
      ],
      "name": "isApprovedForAll",
      "outputs": [
        {
          "internalType": "bool",
          "name": "",
          "type": "bool"
        }
      ],
      "stateMutability": "view",
      "type": "function"
    },
    {
      "inputs": [],
      "name": "name",
      "outputs": [
        {
          "internalType": "string",
          "name": "",
          "type": "string"
        }
      ],
      "stateMutability": "view",
      "type": "function"
    },
    {
      "inputs": [],
      "name": "numBlocksAuctionOpen",
      "outputs": [
        {
          "internalType": "uint256",
          "name": "",
          "type": "uint256"
        }
      ],
      "stateMutability": "view",
      "type": "function"
    },
    {
      "inputs": [],
      "name": "offerPriceDecrement",
      "outputs": [
        {
          "internalType": "uint256",
          "name": "",
          "type": "uint256"
        }
      ],
      "stateMutability": "view",
      "type": "function"
    },
    {
      "inputs": [],
      "name": "owner",
      "outputs": [
        {
          "internalType": "address",
          "name": "",
          "type": "address"
        }
      ],
      "stateMutability": "view",
      "type": "function"
    },
    {
      "inputs": [
        {
          "internalType": "uint256",
          "name": "tokenId",
          "type": "uint256"
        }
      ],
      "name": "ownerOf",
      "outputs": [
        {
          "internalType": "address",
          "name": "",
          "type": "address"
        }
      ],
      "stateMutability": "view",
      "type": "function"
    },
    {
      "inputs": [
        {
          "internalType": "address",
          "name": "",
          "type": "address"
        }
      ],
      "name": "refunds",
      "outputs": [
        {
          "internalType": "uint256",
          "name": "",
          "type": "uint256"
        }
      ],
      "stateMutability": "view",
      "type": "function"
    },
    {
      "inputs": [],
      "name": "renounceOwnership",
      "outputs": [],
      "stateMutability": "nonpayable",
      "type": "function"
    },
    {
      "inputs": [],
      "name": "reservePrice",
      "outputs": [
        {
          "internalType": "uint256",
          "name": "",
          "type": "uint256"
        }
      ],
      "stateMutability": "view",
      "type": "function"
    },
    {
      "inputs": [
        {
          "internalType": "address",
          "name": "from",
          "type": "address"
        },
        {
          "internalType": "address",
          "name": "to",
          "type": "address"
        },
        {
          "internalType": "uint256",
          "name": "tokenId",
          "type": "uint256"
        }
      ],
      "name": "safeTransferFrom",
      "outputs": [],
      "stateMutability": "nonpayable",
      "type": "function"
    },
    {
      "inputs": [
        {
          "internalType": "address",
          "name": "from",
          "type": "address"
        },
        {
          "internalType": "address",
          "name": "to",
          "type": "address"
        },
        {
          "internalType": "uint256",
          "name": "tokenId",
          "type": "uint256"
        },
        {
          "internalType": "bytes",
          "name": "data",
          "type": "bytes"
        }
      ],
      "name": "safeTransferFrom",
      "outputs": [],
      "stateMutability": "nonpayable",
      "type": "function"
    },
    {
      "inputs": [
        {
          "internalType": "address",
          "name": "operator",
          "type": "address"
        },
        {
          "internalType": "bool",
          "name": "approved",
          "type": "bool"
        }
      ],
      "name": "setApprovalForAll",
      "outputs": [],
      "stateMutability": "nonpayable",
      "type": "function"
    },
    {
      "inputs": [],
      "name": "startBlock",
      "outputs": [
        {
          "internalType": "uint256",
          "name": "",
          "type": "uint256"
        }
      ],
      "stateMutability": "view",
      "type": "function"
    },
    {
      "inputs": [
        {
          "internalType": "bytes4",
          "name": "interfaceId",
          "type": "bytes4"
        }
      ],
      "name": "supportsInterface",
      "outputs": [
        {
          "internalType": "bool",
          "name": "",
          "type": "bool"
        }
      ],
      "stateMutability": "view",
      "type": "function"
    },
    {
      "inputs": [],
      "name": "symbol",
      "outputs": [
        {
          "internalType": "string",
          "name": "",
          "type": "string"
        }
      ],
      "stateMutability": "view",
      "type": "function"
    },
    {
      "inputs": [
        {
          "internalType": "uint256",
          "name": "tokenId",
          "type": "uint256"
        }
      ],
      "name": "tokenURI",
      "outputs": [
        {
          "internalType": "string",
          "name": "",
          "type": "string"
        }
      ],
      "stateMutability": "view",
      "type": "function"
    },
    {
      "inputs": [
        {
          "internalType": "address",
          "name": "from",
          "type": "address"
        },
        {
          "internalType": "address",
          "name": "to",
          "type": "address"
        },
        {
          "internalType": "uint256",
          "name": "tokenId",
          "type": "uint256"
        }
      ],
      "name": "transferFrom",
      "outputs": [],
      "stateMutability": "nonpayable",
      "type": "function"
    },
    {
      "inputs": [
        {
          "internalType": "address",
          "name": "newOwner",
          "type": "address"
        }
      ],
      "name": "transferOwnership",
      "outputs": [],
      "stateMutability": "nonpayable",
      "type": "function"
    },
    {
      "inputs": [],
      "name": "withdraw",
      "outputs": [],
      "stateMutability": "nonpayable",
      "type": "function"
    }
  ],
  "bytecode": "0x60806040523480156200001157600080fd5b5060405162003d8e38038062003d8e8339818101604052810190620000379190620003f0565b8585816000908051906020019062000051929190620002b7565b5080600190805190602001906200006a929190620002b7565b50505060016006819055506200009562000089620001e660201b60201c565b620001ee60201b60201c565b620000b1676fa93b11b334c40460c01b620002b460201b60201c565b620000cd67b42a32be86ceb3d060c01b620002b460201b60201c565b83601081905550620000f067bf77a7224d89aeda60c01b620002b460201b60201c565b826008819055506200011367403251871bb0cc9f60c01b620002b460201b60201c565b816009819055506200013667bf10650275d72d0f60c01b620002b460201b60201c565b80600a81905550620001596703a05918d177670a60c01b620002b460201b60201c565b600a546009546200016b919062000574565b6008546200017a919062000517565b600b819055506200019c67930a6ee0a32ea2f160c01b620002b460201b60201c565b43600c81905550620001bf677100898f2625abcf60c01b620002b460201b60201c565b6000600d60006101000a81548160ff02191690831515021790555050505050505062000739565b600033905090565b6000600760009054906101000a900473ffffffffffffffffffffffffffffffffffffffff16905081600760006101000a81548173ffffffffffffffffffffffffffffffffffffffff021916908373ffffffffffffffffffffffffffffffffffffffff1602179055508173ffffffffffffffffffffffffffffffffffffffff168173ffffffffffffffffffffffffffffffffffffffff167f8be0079c531659141344cd1fd0a4f28419497f9722a3daafe3b4186f6b6457e060405160405180910390a35050565b50565b828054620002c59062000615565b90600052602060002090601f016020900481019282620002e9576000855562000335565b82601f106200030457805160ff191683800117855562000335565b8280016001018555821562000335579182015b828111156200033457825182559160200191906001019062000317565b5b50905062000344919062000348565b5090565b5b808211156200036357600081600090555060010162000349565b5090565b60006200037e6200037884620004e1565b620004b8565b9050828152602081018484840111156200039757600080fd5b620003a4848285620005df565b509392505050565b600082601f830112620003be57600080fd5b8151620003d084826020860162000367565b91505092915050565b600081519050620003ea816200071f565b92915050565b60008060008060008060c087890312156200040a57600080fd5b600087015167ffffffffffffffff8111156200042557600080fd5b6200043389828a01620003ac565b965050602087015167ffffffffffffffff8111156200045157600080fd5b6200045f89828a01620003ac565b95505060406200047289828a01620003d9565b94505060606200048589828a01620003d9565b93505060806200049889828a01620003d9565b92505060a0620004ab89828a01620003d9565b9150509295509295509295565b6000620004c4620004d7565b9050620004d282826200064b565b919050565b6000604051905090565b600067ffffffffffffffff821115620004ff57620004fe620006df565b5b6200050a826200070e565b9050602081019050919050565b60006200052482620005d5565b91506200053183620005d5565b9250827fffffffffffffffffffffffffffffffffffffffffffffffffffffffffffffffff0382111562000569576200056862000681565b5b828201905092915050565b60006200058182620005d5565b91506200058e83620005d5565b9250817fffffffffffffffffffffffffffffffffffffffffffffffffffffffffffffffff0483118215151615620005ca57620005c962000681565b5b828202905092915050565b6000819050919050565b60005b83811015620005ff578082015181840152602081019050620005e2565b838111156200060f576000848401525b50505050565b600060028204905060018216806200062e57607f821691505b60208210811415620006455762000644620006b0565b5b50919050565b62000656826200070e565b810181811067ffffffffffffffff82111715620006785762000677620006df565b5b80604052505050565b7f4e487b7100000000000000000000000000000000000000000000000000000000600052601160045260246000fd5b7f4e487b7100000000000000000000000000000000000000000000000000000000600052602260045260246000fd5b7f4e487b7100000000000000000000000000000000000000000000000000000000600052604160045260246000fd5b6000601f19601f8301169050919050565b6200072a81620005d5565b81146200073657600080fd5b50565b61364580620007496000396000f3fe6080604052600436106101c25760003560e01c8063715018a6116100f7578063bc3da53511610095578063db2e1eed11610064578063db2e1eed14610613578063e985e9c51461063e578063f2fde38b1461067b578063fe67a54b146106a4576101c2565b8063bc3da53514610543578063c87b56dd14610580578063d3642a88146105bd578063d57bde79146105e8576101c2565b806395d89b41116100d157806395d89b411461049b5780639d1b464a146104c6578063a22cb465146104f1578063b88d4fde1461051a576101c2565b8063715018a61461042e5780638da5cb5b1461044557806391f9015714610470576101c2565b806323b872dd1161016457806342842e0e1161013e57806342842e0e1461036057806348cd4cb1146103895780636352211e146103b457806370a08231146103f1576101c2565b806323b872dd146102f55780633103ea621461031e5780633ccfd60b14610349576101c2565b8063095ea7b3116101a0578063095ea7b31461026c57806312fa6feb146102955780631998aeef146102c05780631d0806ae146102ca576101c2565b806301ffc9a7146101c757806306fdde0314610204578063081812fc1461022f575b600080fd5b3480156101d357600080fd5b506101ee60048036038101906101e991906127ff565b6106bb565b6040516101fb9190612c2f565b60405180910390f35b34801561021057600080fd5b5061021961079d565b6040516102269190612c4a565b60405180910390f35b34801561023b57600080fd5b5061025660048036038101906102519190612851565b61082f565b6040516102639190612bad565b60405180910390f35b34801561027857600080fd5b50610293600480360381019061028e91906127c3565b610875565b005b3480156102a157600080fd5b506102aa61098d565b6040516102b79190612c2f565b60405180910390f35b6102c86109a0565b005b3480156102d657600080fd5b506102df610dad565b6040516102ec9190612e6c565b60405180910390f35b34801561030157600080fd5b5061031c600480360381019061031791906126bd565b610db3565b005b34801561032a57600080fd5b50610333610e13565b6040516103409190612e6c565b60405180910390f35b34801561035557600080fd5b5061035e610e19565b005b34801561036c57600080fd5b50610387600480360381019061038291906126bd565b610ff7565b005b34801561039557600080fd5b5061039e611017565b6040516103ab9190612e6c565b60405180910390f35b3480156103c057600080fd5b506103db60048036038101906103d69190612851565b61101d565b6040516103e89190612bad565b60405180910390f35b3480156103fd57600080fd5b5061041860048036038101906104139190612658565b6110a4565b6040516104259190612e6c565b60405180910390f35b34801561043a57600080fd5b5061044361115c565b005b34801561045157600080fd5b5061045a611170565b6040516104679190612bad565b60405180910390f35b34801561047c57600080fd5b5061048561119a565b6040516104929190612bc8565b60405180910390f35b3480156104a757600080fd5b506104b06111c0565b6040516104bd9190612c4a565b60405180910390f35b3480156104d257600080fd5b506104db611252565b6040516104e89190612e6c565b60405180910390f35b3480156104fd57600080fd5b5061051860048036038101906105139190612787565b611378565b005b34801561052657600080fd5b50610541600480360381019061053c919061270c565b61138e565b005b34801561054f57600080fd5b5061056a60048036038101906105659190612658565b6113f0565b6040516105779190612e6c565b60405180910390f35b34801561058c57600080fd5b506105a760048036038101906105a29190612851565b611408565b6040516105b49190612c4a565b60405180910390f35b3480156105c957600080fd5b506105d2611470565b6040516105df9190612e6c565b60405180910390f35b3480156105f457600080fd5b506105fd611476565b60405161060a9190612e6c565b60405180910390f35b34801561061f57600080fd5b5061062861147c565b6040516106359190612e6c565b60405180910390f35b34801561064a57600080fd5b5061066560048036038101906106609190612681565b611482565b6040516106729190612c2f565b60405180910390f35b34801561068757600080fd5b506106a2600480360381019061069d9190612658565b611516565b005b3480156106b057600080fd5b506106b961159a565b005b60007f80ac58cd000000000000000000000000000000000000000000000000000000007bffffffffffffffffffffffffffffffffffffffffffffffffffffffff1916827bffffffffffffffffffffffffffffffffffffffffffffffffffffffff1916148061078657507f5b5e139f000000000000000000000000000000000000000000000000000000007bffffffffffffffffffffffffffffffffffffffffffffffffffffffff1916827bffffffffffffffffffffffffffffffffffffffffffffffffffffffff1916145b806107965750610795826117bc565b5b9050919050565b6060600080546107ac906130cc565b80601f01602080910402602001604051908101604052809291908181526020018280546107d8906130cc565b80156108255780601f106107fa57610100808354040283529160200191610825565b820191906000526020600020905b81548152906001019060200180831161080857829003601f168201915b5050505050905090565b600061083a82611826565b6004600083815260200190815260200160002060009054906101000a900473ffffffffffffffffffffffffffffffffffffffff169050919050565b60006108808261101d565b90508073ffffffffffffffffffffffffffffffffffffffff168373ffffffffffffffffffffffffffffffffffffffff1614156108f1576040517f08c379a00000000000000000000000000000000000000000000000000000000081526004016108e890612e0c565b60405180910390fd5b8073ffffffffffffffffffffffffffffffffffffffff16610910611871565b73ffffffffffffffffffffffffffffffffffffffff16148061093f575061093e81610939611871565b611482565b5b61097e576040517f08c379a000000000000000000000000000000000000000000000000000000000815260040161097590612e2c565b60405180910390fd5b6109888383611879565b505050565b600d60009054906101000a900460ff1681565b6109b467771586707458425e60c01b611932565b6109c8675f01b8f87aa1189c60c01b611932565b6109dc67a08058c22965828f60c01b611932565b6109f067525cf6ea3f45e20360c01b611932565b600954600c54610a009190612f20565b431115610a42576040517f08c379a0000000000000000000000000000000000000000000000000000000008152600401610a3990612dac565b60405180910390fd5b610a5667e47f1ff549988a7660c01b611932565b610a6a670942e6111e0b723a60c01b611932565b610a7e67a1cda5b81b0864ba60c01b611932565b610a9267515a3c81e2bdaa0560c01b611932565b610a9a611252565b341015610adc576040517f08c379a0000000000000000000000000000000000000000000000000000000008152600401610ad390612d6c565b60405180910390fd5b610af0678d46b756eae2732460c01b611932565b610b0467f075f51f78b7da8260c01b611932565b610b18678eea84a92210cce460c01b611932565b600073ffffffffffffffffffffffffffffffffffffffff16600d60019054906101000a900473ffffffffffffffffffffffffffffffffffffffff1673ffffffffffffffffffffffffffffffffffffffff1614610c1557610b8267720cd21bb8ff963960c01b611932565b610b96677f04bd53e9b638e360c01b611932565b600e54600f6000600d60019054906101000a900473ffffffffffffffffffffffffffffffffffffffff1673ffffffffffffffffffffffffffffffffffffffff1673ffffffffffffffffffffffffffffffffffffffff1681526020019081526020016000206000828254610c099190612f20565b92505081905550610c2a565b610c2967c57521875fff9a0260c01b611932565b5b610c3e67773dce921be017e860c01b611932565b34600e81905550610c5967ba6c63d02b0f77f960c01b611932565b33600d60016101000a81548173ffffffffffffffffffffffffffffffffffffffff021916908373ffffffffffffffffffffffffffffffffffffffff160217905550610cae676a5316cca291e40e60c01b611932565b610cc26781f6b888b11e29ff60c01b611932565b600954600c54610cd29190612f20565b4310610d9657610cec67ac890df7e785623d60c01b611932565b610d00679a503b925826b98060c01b611932565b6001600d60006101000a81548160ff021916908315150217905550610d2f67ee1e1790687d152860c01b611932565b610d43675fd8149b401055f960c01b611932565b610d4b611170565b73ffffffffffffffffffffffffffffffffffffffff166108fc349081150290604051600060405180830381858888f19350505050158015610d90573d6000803e3d6000fd5b50610dab565b610daa671b6c3ec8e1fcfdd560c01b611932565b5b565b600b5481565b610dc4610dbe611871565b82611935565b610e03576040517f08c379a0000000000000000000000000000000000000000000000000000000008152600401610dfa90612c8c565b60405180910390fd5b610e0e8383836119ca565b505050565b60095481565b610e2d67658f2459af952cb160c01b611932565b610e416708cb26ac94c254f460c01b611932565b610e5567b046437c5cb49f4b60c01b611932565b6000600f60003373ffffffffffffffffffffffffffffffffffffffff1673ffffffffffffffffffffffffffffffffffffffff168152602001908152602001600020549050610ead67f1dbfd3c41c0d9e260c01b611932565b610ec16763f3774b79f3d6c060c01b611932565b610ed5672532490fe624bd1160c01b611932565b60008111610f18576040517f08c379a0000000000000000000000000000000000000000000000000000000008152600401610f0f90612e4c565b60405180910390fd5b610f2c677d6c6daeb13d878e60c01b611932565b610f406747db354ace15a4cc60c01b611932565b6000600f60003373ffffffffffffffffffffffffffffffffffffffff1673ffffffffffffffffffffffffffffffffffffffff16815260200190815260200160002081905550610f9967c846b2330390501060c01b611932565b610fad678d84a86427f3e8c960c01b611932565b3373ffffffffffffffffffffffffffffffffffffffff166108fc829081150290604051600060405180830381858888f19350505050158015610ff3573d6000803e3d6000fd5b5050565b6110128383836040518060200160405280600081525061138e565b505050565b600c5481565b60008061102983611cc4565b9050600073ffffffffffffffffffffffffffffffffffffffff168173ffffffffffffffffffffffffffffffffffffffff16141561109b576040517f08c379a000000000000000000000000000000000000000000000000000000000815260040161109290612dcc565b60405180910390fd5b80915050919050565b60008073ffffffffffffffffffffffffffffffffffffffff168273ffffffffffffffffffffffffffffffffffffffff161415611115576040517f08c379a000000000000000000000000000000000000000000000000000000000815260040161110c90612d4c565b60405180910390fd5b600360008373ffffffffffffffffffffffffffffffffffffffff1673ffffffffffffffffffffffffffffffffffffffff168152602001908152602001600020549050919050565b611164611d01565b61116e6000611d7f565b565b6000600760009054906101000a900473ffffffffffffffffffffffffffffffffffffffff16905090565b600d60019054906101000a900473ffffffffffffffffffffffffffffffffffffffff1681565b6060600180546111cf906130cc565b80601f01602080910402602001604051908101604052809291908181526020018280546111fb906130cc565b80156112485780601f1061121d57610100808354040283529160200191611248565b820191906000526020600020905b81548152906001019060200180831161122b57829003601f168201915b5050505050905090565b600061126867b29d9f84acac9b2160c01b611932565b61127c67a32e82ba4ae9daf860c01b611932565b611290674e516b36d831f22f60c01b611932565b6000600c54436112a09190612fd0565b90506112b6677b34ec86b9f2899360c01b611932565b6112ca67b647c95677b5656c60c01b611932565b600954811061131a576112e767ee7a4d2e399fcacc60c01b611932565b6112fb6731e2c5cd4944d8dc60c01b611932565b61130f671415b2fd91a7a2c060c01b611932565b600854915050611375565b61132e679f72e9b174c38b6c60c01b611932565b6113426702e9e64cfbd7559c60c01b611932565b611356678e7b12addad3804560c01b611932565b600a54816113649190612f76565b600b546113719190612fd0565b9150505b90565b61138a611383611871565b8383611e45565b5050565b61139f611399611871565b83611935565b6113de576040517f08c379a00000000000000000000000000000000000000000000000000000000081526004016113d590612c8c565b60405180910390fd5b6113ea84848484611fb2565b50505050565b600f6020528060005260406000206000915090505481565b606061141382611826565b600061141d61200e565b9050600081511161143d5760405180602001604052806000815250611468565b8061144784612025565b604051602001611458929190612b89565b6040516020818303038152906040525b915050919050565b600a5481565b600e5481565b60085481565b6000600560008473ffffffffffffffffffffffffffffffffffffffff1673ffffffffffffffffffffffffffffffffffffffff16815260200190815260200160002060008373ffffffffffffffffffffffffffffffffffffffff1673ffffffffffffffffffffffffffffffffffffffff16815260200190815260200160002060009054906101000a900460ff16905092915050565b61151e611d01565b600073ffffffffffffffffffffffffffffffffffffffff168173ffffffffffffffffffffffffffffffffffffffff16141561158e576040517f08c379a000000000000000000000000000000000000000000000000000000000815260040161158590612ccc565b60405180910390fd5b61159781611d7f565b50565b6115ae67371b5b7bac21caf060c01b611932565b6115c2678a33d6a16b86a01d60c01b611932565b6115d667fc758d29b192752060c01b611932565b6115ea679388582fc9b5d16a60c01b611932565b6115f2611170565b73ffffffffffffffffffffffffffffffffffffffff163373ffffffffffffffffffffffffffffffffffffffff161461165f576040517f08c379a000000000000000000000000000000000000000000000000000000000815260040161165690612c6c565b60405180910390fd5b611673672a4d734853e2dcc560c01b611932565b61168767cc8181709ab898bc60c01b611932565b61169b674b7103ebcb29c4e160c01b611932565b6116af67a464ff668119d77860c01b611932565b600d60009054906101000a900460ff16156116ff576040517f08c379a00000000000000000000000000000000000000000000000000000000081526004016116f690612dec565b60405180910390fd5b611713675c3ceb7dc257676260c01b611932565b6117276736e33c282c4982ad60c01b611932565b6001600d60006101000a81548160ff021916908315150217905550611756679726717c7fe2a6da60c01b611932565b61176a67c313030348b2bc4e60c01b611932565b611772611170565b73ffffffffffffffffffffffffffffffffffffffff166108fc600e549081150290604051600060405180830381858888f193505050501580156117b9573d6000803e3d6000fd5b50565b60007f01ffc9a7000000000000000000000000000000000000000000000000000000007bffffffffffffffffffffffffffffffffffffffffffffffffffffffff1916827bffffffffffffffffffffffffffffffffffffffffffffffffffffffff1916149050919050565b61182f81612149565b61186e576040517f08c379a000000000000000000000000000000000000000000000000000000000815260040161186590612dcc565b60405180910390fd5b50565b600033905090565b816004600083815260200190815260200160002060006101000a81548173ffffffffffffffffffffffffffffffffffffffff021916908373ffffffffffffffffffffffffffffffffffffffff160217905550808273ffffffffffffffffffffffffffffffffffffffff166118ec8361101d565b73ffffffffffffffffffffffffffffffffffffffff167f8c5be1e5ebec7d5bd14f71427d1e84f3dd0314c0f7b2291e5b200ac8c7c3b92560405160405180910390a45050565b50565b6000806119418361101d565b90508073ffffffffffffffffffffffffffffffffffffffff168473ffffffffffffffffffffffffffffffffffffffff16148061198357506119828185611482565b5b806119c157508373ffffffffffffffffffffffffffffffffffffffff166119a98461082f565b73ffffffffffffffffffffffffffffffffffffffff16145b91505092915050565b8273ffffffffffffffffffffffffffffffffffffffff166119ea8261101d565b73ffffffffffffffffffffffffffffffffffffffff1614611a40576040517f08c379a0000000000000000000000000000000000000000000000000000000008152600401611a3790612cec565b60405180910390fd5b600073ffffffffffffffffffffffffffffffffffffffff168273ffffffffffffffffffffffffffffffffffffffff161415611ab0576040517f08c379a0000000000000000000000000000000000000000000000000000000008152600401611aa790612d0c565b60405180910390fd5b611abd838383600161218a565b8273ffffffffffffffffffffffffffffffffffffffff16611add8261101d565b73ffffffffffffffffffffffffffffffffffffffff1614611b33576040517f08c379a0000000000000000000000000000000000000000000000000000000008152600401611b2a90612cec565b60405180910390fd5b6004600082815260200190815260200160002060006101000a81549073ffffffffffffffffffffffffffffffffffffffff02191690556001600360008573ffffffffffffffffffffffffffffffffffffffff1673ffffffffffffffffffffffffffffffffffffffff168152602001908152602001600020600082825403925050819055506001600360008473ffffffffffffffffffffffffffffffffffffffff1673ffffffffffffffffffffffffffffffffffffffff16815260200190815260200160002060008282540192505081905550816002600083815260200190815260200160002060006101000a81548173ffffffffffffffffffffffffffffffffffffffff021916908373ffffffffffffffffffffffffffffffffffffffff160217905550808273ffffffffffffffffffffffffffffffffffffffff168473ffffffffffffffffffffffffffffffffffffffff167fddf252ad1be2c89b69c2b068fc378daa952ba7f163c4a11628f55a4df523b3ef60405160405180910390a4611cbf8383836001612190565b505050565b60006002600083815260200190815260200160002060009054906101000a900473ffffffffffffffffffffffffffffffffffffffff169050919050565b611d09611871565b73ffffffffffffffffffffffffffffffffffffffff16611d27611170565b73ffffffffffffffffffffffffffffffffffffffff1614611d7d576040517f08c379a0000000000000000000000000000000000000000000000000000000008152600401611d7490612d8c565b60405180910390fd5b565b6000600760009054906101000a900473ffffffffffffffffffffffffffffffffffffffff16905081600760006101000a81548173ffffffffffffffffffffffffffffffffffffffff021916908373ffffffffffffffffffffffffffffffffffffffff1602179055508173ffffffffffffffffffffffffffffffffffffffff168173ffffffffffffffffffffffffffffffffffffffff167f8be0079c531659141344cd1fd0a4f28419497f9722a3daafe3b4186f6b6457e060405160405180910390a35050565b8173ffffffffffffffffffffffffffffffffffffffff168373ffffffffffffffffffffffffffffffffffffffff161415611eb4576040517f08c379a0000000000000000000000000000000000000000000000000000000008152600401611eab90612d2c565b60405180910390fd5b80600560008573ffffffffffffffffffffffffffffffffffffffff1673ffffffffffffffffffffffffffffffffffffffff16815260200190815260200160002060008473ffffffffffffffffffffffffffffffffffffffff1673ffffffffffffffffffffffffffffffffffffffff16815260200190815260200160002060006101000a81548160ff0219169083151502179055508173ffffffffffffffffffffffffffffffffffffffff168373ffffffffffffffffffffffffffffffffffffffff167f17307eab39ab6107e8899845ad3d59bd9653f200f220920489ca2b5937696c3183604051611fa59190612c2f565b60405180910390a3505050565b611fbd8484846119ca565b611fc984848484612196565b612008576040517f08c379a0000000000000000000000000000000000000000000000000000000008152600401611fff90612cac565b60405180910390fd5b50505050565b606060405180602001604052806000815250905090565b6060600060016120348461232d565b01905060008167ffffffffffffffff811115612079577f4e487b7100000000000000000000000000000000000000000000000000000000600052604160045260246000fd5b6040519080825280601f01601f1916602001820160405280156120ab5781602001600182028036833780820191505090505b509050600082602001820190505b60011561213e578080600190039150507f3031323334353637383961626364656600000000000000000000000000000000600a86061a8153600a8581612128577f4e487b7100000000000000000000000000000000000000000000000000000000600052601260045260246000fd5b04945060008514156121395761213e565b6120b9565b819350505050919050565b60008073ffffffffffffffffffffffffffffffffffffffff1661216b83611cc4565b73ffffffffffffffffffffffffffffffffffffffff1614159050919050565b50505050565b50505050565b60006121b78473ffffffffffffffffffffffffffffffffffffffff16612564565b15612320578373ffffffffffffffffffffffffffffffffffffffff1663150b7a026121e0611871565b8786866040518563ffffffff1660e01b81526004016122029493929190612be3565b602060405180830381600087803b15801561221c57600080fd5b505af192505050801561224d57506040513d601f19601f8201168201806040525081019061224a9190612828565b60015b6122d0573d806000811461227d576040519150601f19603f3d011682016040523d82523d6000602084013e612282565b606091505b506000815114156122c8576040517f08c379a00000000000000000000000000000000000000000000000000000000081526004016122bf90612cac565b60405180910390fd5b805181602001fd5b63150b7a0260e01b7bffffffffffffffffffffffffffffffffffffffffffffffffffffffff1916817bffffffffffffffffffffffffffffffffffffffffffffffffffffffff191614915050612325565b600190505b949350505050565b600080600090507a184f03e93ff9f4daa797ed6e38ed64bf6a1f01000000000000000083106123b1577a184f03e93ff9f4daa797ed6e38ed64bf6a1f01000000000000000083816123a7577f4e487b7100000000000000000000000000000000000000000000000000000000600052601260045260246000fd5b0492506040810190505b6d04ee2d6d415b85acef81000000008310612414576d04ee2d6d415b85acef8100000000838161240a577f4e487b7100000000000000000000000000000000000000000000000000000000600052601260045260246000fd5b0492506020810190505b662386f26fc10000831061246957662386f26fc10000838161245f577f4e487b7100000000000000000000000000000000000000000000000000000000600052601260045260246000fd5b0492506010810190505b6305f5e10083106124b8576305f5e10083816124ae577f4e487b7100000000000000000000000000000000000000000000000000000000600052601260045260246000fd5b0492506008810190505b61271083106125035761271083816124f9577f4e487b7100000000000000000000000000000000000000000000000000000000600052601260045260246000fd5b0492506004810190505b6064831061254c5760648381612542577f4e487b7100000000000000000000000000000000000000000000000000000000600052601260045260246000fd5b0492506002810190505b600a831061255b576001810190505b80915050919050565b6000808273ffffffffffffffffffffffffffffffffffffffff163b119050919050565b600061259a61259584612eac565b612e87565b9050828152602081018484840111156125b257600080fd5b6125bd84828561308a565b509392505050565b6000813590506125d4816135b3565b92915050565b6000813590506125e9816135ca565b92915050565b6000813590506125fe816135e1565b92915050565b600081519050612613816135e1565b92915050565b600082601f83011261262a57600080fd5b813561263a848260208601612587565b91505092915050565b600081359050612652816135f8565b92915050565b60006020828403121561266a57600080fd5b6000612678848285016125c5565b91505092915050565b6000806040838503121561269457600080fd5b60006126a2858286016125c5565b92505060206126b3858286016125c5565b9150509250929050565b6000806000606084860312156126d257600080fd5b60006126e0868287016125c5565b93505060206126f1868287016125c5565b925050604061270286828701612643565b9150509250925092565b6000806000806080858703121561272257600080fd5b6000612730878288016125c5565b9450506020612741878288016125c5565b935050604061275287828801612643565b925050606085013567ffffffffffffffff81111561276f57600080fd5b61277b87828801612619565b91505092959194509250565b6000806040838503121561279a57600080fd5b60006127a8858286016125c5565b92505060206127b9858286016125da565b9150509250929050565b600080604083850312156127d657600080fd5b60006127e4858286016125c5565b92505060206127f585828601612643565b9150509250929050565b60006020828403121561281157600080fd5b600061281f848285016125ef565b91505092915050565b60006020828403121561283a57600080fd5b600061284884828501612604565b91505092915050565b60006020828403121561286357600080fd5b600061287184828501612643565b91505092915050565b61288381613016565b82525050565b61289281613004565b82525050565b6128a181613028565b82525050565b60006128b282612edd565b6128bc8185612ef3565b93506128cc818560208601613099565b6128d5816131bc565b840191505092915050565b60006128eb82612ee8565b6128f58185612f04565b9350612905818560208601613099565b61290e816131bc565b840191505092915050565b600061292482612ee8565b61292e8185612f15565b935061293e818560208601613099565b80840191505092915050565b6000612957602283612f04565b9150612962826131cd565b604082019050919050565b600061297a602d83612f04565b91506129858261321c565b604082019050919050565b600061299d603283612f04565b91506129a88261326b565b604082019050919050565b60006129c0602683612f04565b91506129cb826132ba565b604082019050919050565b60006129e3602583612f04565b91506129ee82613309565b604082019050919050565b6000612a06602483612f04565b9150612a1182613358565b604082019050919050565b6000612a29601983612f04565b9150612a34826133a7565b602082019050919050565b6000612a4c602983612f04565b9150612a57826133d0565b604082019050919050565b6000612a6f601783612f04565b9150612a7a8261341f565b602082019050919050565b6000612a92602083612f04565b9150612a9d82613448565b602082019050919050565b6000612ab5601a83612f04565b9150612ac082613471565b602082019050919050565b6000612ad8601883612f04565b9150612ae38261349a565b602082019050919050565b6000612afb601c83612f04565b9150612b06826134c3565b602082019050919050565b6000612b1e602183612f04565b9150612b29826134ec565b604082019050919050565b6000612b41603d83612f04565b9150612b4c8261353b565b604082019050919050565b6000612b64601383612f04565b9150612b6f8261358a565b602082019050919050565b612b8381613080565b82525050565b6000612b958285612919565b9150612ba18284612919565b91508190509392505050565b6000602082019050612bc26000830184612889565b92915050565b6000602082019050612bdd600083018461287a565b92915050565b6000608082019050612bf86000830187612889565b612c056020830186612889565b612c126040830185612b7a565b8181036060830152612c2481846128a7565b905095945050505050565b6000602082019050612c446000830184612898565b92915050565b60006020820190508181036000830152612c6481846128e0565b905092915050565b60006020820190508181036000830152612c858161294a565b9050919050565b60006020820190508181036000830152612ca58161296d565b9050919050565b60006020820190508181036000830152612cc581612990565b9050919050565b60006020820190508181036000830152612ce5816129b3565b9050919050565b60006020820190508181036000830152612d05816129d6565b9050919050565b60006020820190508181036000830152612d25816129f9565b9050919050565b60006020820190508181036000830152612d4581612a1c565b9050919050565b60006020820190508181036000830152612d6581612a3f565b9050919050565b60006020820190508181036000830152612d8581612a62565b9050919050565b60006020820190508181036000830152612da581612a85565b9050919050565b60006020820190508181036000830152612dc581612aa8565b9050919050565b60006020820190508181036000830152612de581612acb565b9050919050565b60006020820190508181036000830152612e0581612aee565b9050919050565b60006020820190508181036000830152612e2581612b11565b9050919050565b60006020820190508181036000830152612e4581612b34565b9050919050565b60006020820190508181036000830152612e6581612b57565b9050919050565b6000602082019050612e816000830184612b7a565b92915050565b6000612e91612ea2565b9050612e9d82826130fe565b919050565b6000604051905090565b600067ffffffffffffffff821115612ec757612ec661318d565b5b612ed0826131bc565b9050602081019050919050565b600081519050919050565b600081519050919050565b600082825260208201905092915050565b600082825260208201905092915050565b600081905092915050565b6000612f2b82613080565b9150612f3683613080565b9250827fffffffffffffffffffffffffffffffffffffffffffffffffffffffffffffffff03821115612f6b57612f6a61312f565b5b828201905092915050565b6000612f8182613080565b9150612f8c83613080565b9250817fffffffffffffffffffffffffffffffffffffffffffffffffffffffffffffffff0483118215151615612fc557612fc461312f565b5b828202905092915050565b6000612fdb82613080565b9150612fe683613080565b925082821015612ff957612ff861312f565b5b828203905092915050565b600061300f82613060565b9050919050565b600061302182613060565b9050919050565b60008115159050919050565b60007fffffffff0000000000000000000000000000000000000000000000000000000082169050919050565b600073ffffffffffffffffffffffffffffffffffffffff82169050919050565b6000819050919050565b82818337600083830152505050565b60005b838110156130b757808201518184015260208101905061309c565b838111156130c6576000848401525b50505050565b600060028204905060018216806130e457607f821691505b602082108114156130f8576130f761315e565b5b50919050565b613107826131bc565b810181811067ffffffffffffffff821117156131265761312561318d565b5b80604052505050565b7f4e487b7100000000000000000000000000000000000000000000000000000000600052601160045260246000fd5b7f4e487b7100000000000000000000000000000000000000000000000000000000600052602260045260246000fd5b7f4e487b7100000000000000000000000000000000000000000000000000000000600052604160045260246000fd5b6000601f19601f8301169050919050565b7f4f6e6c7920746865206f776e65722063616e20656e642074686520617563746960008201527f6f6e000000000000000000000000000000000000000000000000000000000000602082015250565b7f4552433732313a2063616c6c6572206973206e6f7420746f6b656e206f776e6560008201527f72206f7220617070726f76656400000000000000000000000000000000000000602082015250565b7f4552433732313a207472616e7366657220746f206e6f6e20455243373231526560008201527f63656976657220696d706c656d656e7465720000000000000000000000000000602082015250565b7f4f776e61626c653a206e6577206f776e657220697320746865207a65726f206160008201527f6464726573730000000000000000000000000000000000000000000000000000602082015250565b7f4552433732313a207472616e736665722066726f6d20696e636f72726563742060008201527f6f776e6572000000000000000000000000000000000000000000000000000000602082015250565b7f4552433732313a207472616e7366657220746f20746865207a65726f2061646460008201527f7265737300000000000000000000000000000000000000000000000000000000602082015250565b7f4552433732313a20617070726f766520746f2063616c6c657200000000000000600082015250565b7f4552433732313a2061646472657373207a65726f206973206e6f74206120766160008201527f6c6964206f776e65720000000000000000000000000000000000000000000000602082015250565b7f426964206973206e6f74206869676820656e6f7567682e000000000000000000600082015250565b7f4f776e61626c653a2063616c6c6572206973206e6f7420746865206f776e6572600082015250565b7f41756374696f6e20697320616c726561647920636c6f7365642e000000000000600082015250565b7f4552433732313a20696e76616c696420746f6b656e2049440000000000000000600082015250565b7f5468652061756374696f6e20697320616c726561647920656e64656400000000600082015250565b7f4552433732313a20617070726f76616c20746f2063757272656e74206f776e6560008201527f7200000000000000000000000000000000000000000000000000000000000000602082015250565b7f4552433732313a20617070726f76652063616c6c6572206973206e6f7420746f60008201527f6b656e206f776e6572206f7220617070726f76656420666f7220616c6c000000602082015250565b7f4e6f20726566756e6420617661696c61626c6500000000000000000000000000600082015250565b6135bc81613004565b81146135c757600080fd5b50565b6135d381613028565b81146135de57600080fd5b50565b6135ea81613034565b81146135f557600080fd5b50565b61360181613080565b811461360c57600080fd5b5056fea264697066735822122097384287af2c94e215d469e70eee9a75d2d9f80a8a20ae3680a77eaed02fd08a64736f6c63430008040033",
  "linkReferences": {},
  "deployedLinkReferences": {}
}